:100000000C9418040C9449040C9449040C9449046D
:100010000C9449040C9449040C9449040C9449042C
:100020000C9449040C9449040C9449040C9449041C
:100030000C9449040C9449040C9449040C9449040C
:100040000C9449040C9449040C9449040C944904FC
:100050000C9449040C9449040C9449040C94FF1327
:100060000C9449040C9410180C94DC180C9449045A
:100070000C9449040C9449040C9449040C944904CC
:100080000C9449040C9449040C9449040C944904BC
:100090000C9443180C941B190C9449040C944904B7
:1000A0000C9449040C9449040C9449040C9449049C
:1000B0000C9449040C9449040C9449040C9449048C
:1000C0000C9449040C9449040C9449040C9476183B
:1000D0000C945A190C9449040C94A9180C9499196D
:1000E0000C9449043E1541153415381578154515FD
:1000F00049154F15531557155D156115651578157B
:100100006B156F1573150C94382D0C94201E0C94E0
:10011000122E0C940E350C94E92D0C9453150C945E
:100120000A2F0C94E22D0C9457150C94DF2F0C948D
:10013000112E0C946F150C94012E0C9432340C94E7
:10014000572E0C94F52D0C94511D0C940E160C94F6
:10015000701D0C941F1D0C9473150C944C350C944D
:100160006D170C94351D0C94E12D0C9449150C94CD
:1001700038150C947A1D0C945C170C9447330C942E
:100180006B150C9461150C9468380C9465150C94DF
:1001900041150C949A340C943D340C943E150C94F7
:1001A000081D0C9434150C945D150C94601A0C9475
:1001B00045150C94D4340C945D170C94B4170C941E
:1001C000802F0C9489170C94A9170C94E02F0C9491
:1001D000500A0C94103A0C944F150C9451340C9412
:1001E0001C380C9464340C949B2E0C94EC2E0C94C0
:1001F00095390C9486250C9478150000090A02089C
:100200000B0C0D07060304010000000000000000B5
:1002100000000000000000000000000000000000DE
:1002200000000000000011100F000000000000009E
:1002300000000000000000000000000000000000BE
:1002400001021020200808102040102040800201E8
:1002500002010804020101020408102040808040CD
:1002600020100804020180040201804020100804CC
:10027000020108040201010204081020408001026A
:100280000408102040800505050507050808080832
:10029000020202020A0A080804040404010101011E
:1002A0000101010103030303030303030407070719
:1002B0000C0C0C0C0C0C0C0C0202020206060606BE
:1002C000060606060B0B0B0B0B0B0B0B000020009E
:1002D0002300260029002C002F003200000100001E
:1002E00003010601090100002200250028002B005F
:1002F0002E003100340002010000050108010B014D
:1003000000002100240027002A002D0030003300C7
:1003100001010000040107010A017C3C3E5E2B3D07
:100320003F2F5B5D3B2C2A225C0000000000003E5A
:100330005B4F5B3E3E6B4F6B3E1C3E7C3E1C183C55
:100340007E3C181C577D571C1C5E7F5E1C00183CB1
:100350001800FFE7C3E7FF0018241800FFE7DBE7FA
:10036000FF30483A060E2629792926407F050507E1
:10037000407F05253F5A3CE73C5A7F3E1C1C08083D
:100380001C1C3E7F14227F22145F5F005F5F060902
:100390007F017F006689956A606060606094A2FF5B
:1003A000A29408047E040810207E201008082A1C4D
:1003B00008081C2A08081E101010100C1E0C1E0C19
:1003C00030383E3830060E3E0E06000000000000B9
:1003D000005F00000007000700147F147F14242A28
:1003E0007F2A1223130864623649562050000807FA
:1003F0000300001C2241000041221C002A1C7F1C1B
:100400002A08083E0808008070300008080808081C
:10041000000060600020100804023E5149453E0083
:10042000427F400072494949462141494D331814E1
:10043000127F1027454545393C4A49493141211130
:1004400009073649494936464949291E0000140022
:100450000000403400000008142241141414141445
:10046000004122140802015909063E415D594E7CA3
:100470001211127C7F494949363E414141227F4158
:1004800041413E7F494949417F090909013E4141B6
:1004900051737F0808087F00417F41002040413FA1
:1004A000017F081422417F404040407F021C027FB0
:1004B0007F0408107F3E4141413E7F090909063E05
:1004C0004151215E7F0919294626494949320301D4
:1004D0007F01033F4040403F1F2040201F3F4038E6
:1004E000403F631408146303047804036159494DC1
:1004F00043007F4141410204081020004141417FF7
:10050000040201020440404040400003070800206C
:10051000545478407F28444438384444442838446C
:1005200044287F385454541800087E090218A4A4A3
:100530009C787F0804047800447D40002040403DC2
:10054000007F1028440000417F40007C047804783C
:100550007C080404783844444438FC1824241818CF
:10056000242418FC7C08040408485454542404042B
:100570003F44243C4040207C1C2040201C3C403018
:10058000403C44281028444C9090907C4464544C47
:1005900044000836410000007700000041360800A2
:1005A00002010204023C2623263C1EA1A161123A4C
:1005B0004040207A38545455592155557941225498
:1005C000547842215554784020545579400C1E529D
:1005D0007212395555555939545454593955545442
:1005E000580000457C410002457D420001457C40A9
:1005F0007D1211127DF0282528F07C5455450020ED
:1006000054547C547C0A097F4932494949323A445E
:1006100044443A324A4848303A4141217A3A4240C9
:100620002078009DA0A07D3D4242423D3D4040409B
:100630003D3C24FF2424487E4943662B2FFC2F2B6E
:10064000FF0929F620C0887E09032054547941000F
:1006500000447D413048484A32384040227A007A8E
:100660000A0A727D0D19317D2629292F282629296C
:10067000292630484D40203808080808080808088E
:10068000382F10C8ACBA2F102834FA00007B0000B5
:1006900008142A142222142A14085500550055AAB9
:1006A00055AA55AAFF55FF55FF000000FF00101086
:1006B00010FF00141414FF001010FF00FF1010F0C2
:1006C00010F0141414FC001414F700FF0000FF00D5
:1006D000FF1414F404FC141417101F10101F101F23
:1006E0001414141F00101010F0000000001F101050
:1006F00010101F10101010F010000000FF1010104C
:10070000101010101010FF10000000FF140000FF68
:1007100000FF00001F10170000FC04F41414171051
:10072000171414F404F40000FF00F7141414141444
:100730001414F700F7141414171410101F101F14BA
:100740001414F4141010F010F000001F101F00001B
:10075000001F14000000FC140000F010F01010FF47
:1007600010FF141414FF141010101F00000000F0EC
:1007700010FFFFFFFFFFF0F0F0F0F0FFFFFF0000C1
:10078000000000FFFF0F0F0F0F0F3844443844FCE8
:100790004A4A4A347E02020606027E027E026355FF
:1007A0004941633844443C04407E201E2006027EBA
:1007B000020299A5E7A5991C2A492A1C4C720172CC
:1007C0004C304A4D4D303048784830BC625A463D36
:1007D0003E494949007E0101017E2A2A2A2A2A44EB
:1007E000445F444440514A444040444A5140000020
:1007F000FF0103E080FF000008086B6B083612362B
:100800002436060F090F060000181800000010100B
:10081000003040FF0101001F01011E00191D1712C9
:10082000003C3C3C3C0000000000500A601A081DDF
:1008300011241FBECFEFD1E2DEBFCDBF00E00CBF61
:1008400014E0A0E0B2E0E4E3F1E800E00BBF02C096
:1008500007900D92AE30B107D9F72CE1AEE0B4E0CD
:1008600001C01D92AE36B207E1F714E0C8E1D4E052
:1008700000E006C021970109802FFE010E9453402D
:10088000C531D10780E00807A9F70E94360F0C9404
:10089000B43D0C9400002F923F924F925F926F9262
:1008A0007F928F929F92AF92BF92CF92DF92EF9200
:1008B000FF920F931F93CF93DF93CDB7DEB7CA5448
:1008C000D1090FB6F894DEBF0FBECDBF9CAF8BAF82
:1008D0004B0158AF4FAB39011EAF0DAF2196FFAEA4
:1008E000EEAE21972396BFAEAEAE23970DB71EB7DF
:1008F00025961FAF0EAF25978E01045E1F4FC801CE
:100900000E94D91DABADBCAD4D915C9121E068E179
:100910007AE1CE0101960E94861C8B819C819F8F7B
:100920008E8F8D819E81AF81B88588A399A3AAA35C
:10093000BBA389859A85AB85BC858CA39DA3AEA3FB
:10094000BFA38DE0FE013D96DE01989601900D92C9
:100950008A95E1F78A8D9B8D9EAB8DABC8010E9475
:10096000611EF82ECE0101960E94EC1DFF20C1F001
:10097000F601EE0FFF1FFAAFE9AF1301412C512C26
:10098000E12CF12CAFA9B8ADCD01A0E0B0E02996E3
:100990008CAF9DAFAEAFBFAF2997702E612E29C02F
:1009A0006AE172E086ED97E10E944B16EBADFCAD7B
:1009B0006081718186ED97E10E944B1667E286EDBA
:1009C00097E10E947A16A6C0D401ED91FC910288AD
:1009D000F389E02DC40119950FB6F894BEBE0FBE81
:1009E000ADBEBFEFEB1AFB0AEFEF2E1A3E0A4E0A1E
:1009F0005E0A23960EAD1FAD2397E016F10609F4AB
:100A000082C0ADB6BEB60DB71EB729AD3AAD021B5A
:100A1000130B0FB6F8941EBF0FBE0DBF8DB79EB758
:100A2000019698AF8FABEBADFCADA281B381A20173
:100A300091010E94794029960CAD1DAD2EAD3FADC0
:100A40002997060F171F281F391FB901A801440F46
:100A5000551F661F771F872D962D0E94F71D49ADE4
:100A60005AAD6FA978AD872D962D0E94ED1D29AD49
:100A70003AAD8217930781F06BE272E086ED97E161
:100A80000E946816872D962D0E944F1E0FB6F8946F
:100A9000BEBE0FBEADBE3EC0D401ED91FC9106803E
:100AA000F781E02DC401199501E010E0960121962F
:100AB0004EAD5FAD21974E0D5F1D6DAD7EADC40196
:100AC0000E948E380FA918AD20E030E02C153D05AE
:100AD00009F47ACFF801619171918F017627672728
:100AE0007627C4012A962FAF2A972B963FAF2B97D4
:100AF0000E943F392A962FAD2A972B963FAD2B9710
:100B00002F5F3F4FE3CFCE014C960E944F1ECE0188
:100B10004C9602C0CE014C960E94EC1D25962EAD3F
:100B20003FAD25970FB6F8943EBF0FBE2DBFC65BF5
:100B3000DF4F0FB6F894DEBF0FBECDBFDF91CF9170
:100B40001F910F91FF90EF90DF90CF90BF90AF90EB
:100B50009F908F907F906F905F904F903F902F90DD
:100B600008952091050230910602809130179091EE
:100B70003117820F931F4091070250910802209174
:100B8000321730913317240F351F213048E03407D6
:100B900014F020E038E037FF02C020E030E030936E
:100BA0002F1720932E17813028E0920714F080E051
:100BB00098E097FF02C080E090E090932D1780931B
:100BC0002C170895AF92BF92CF92DF92EF92FF92CF
:100BD0000F931F932091070230910802213F46E0B6
:100BE000340714F020EF36E037FF02C020E030E099
:100BF000309308022093070280910502909106022B
:100C0000813147E0940714F080E197E097FF02C03C
:100C100080E090E0909306028093050240913217A5
:100C200050913317452BC9F4203141E034073CF093
:100C300020513140309308022093070206C0232B35
:100C400061F0109208021092070226E031E0309322
:100C500033172093321721E001C020E04091321772
:100C60005091331747305140F1F4409107025091B1
:100C70000802413E35E053073CF4405F5E4F50931D
:100C800008024093070209C0403F564061F020EF40
:100C900036E0309308022093070221E030E03093E1
:100CA0003317209332174091301750913117452B4D
:100CB000B9F4803F91053CF0805F91099093060262
:100CC0008093050206C0892B59F0109206021092FB
:100CD000050285EE90E0909331178093301721E064
:100CE0008091301790913117873E9105D9F480910A
:100CF000050290910602813246E094071CF480516F
:100D00009F4F05C08031974069F080E197E0909354
:100D100006028093050281E090E090933117809362
:100D2000301702C02223C9F020910502309106023B
:100D3000409107025091080280EFA82EB12C90E15B
:100D4000C92EDD24D394E12CF12C00E010E064E303
:100D500077E189E092E00E944B041F910F91FF9090
:100D6000EF90DF90CF90BF90AF900895CF92DF9239
:100D7000EF92FF920F931F93CF93DF93EC018B01C0
:100D80006C0197FF03C087E0C80ED11C93E0D59497
:100D9000C7949A95E1F70D2C000CEE08FF0889E046
:100DA000D80E8DE3E81EF11C8FEFC81688E0D80638
:100DB0008DE3E806F104E1F4CE0168E070E00E9402
:100DC000FE3FFC0186E0EE0FFF1F8A95E1F7E4533A
:100DD000FB4E80E4D80101900D928A95E1F7DF91F6
:100DE000CF911F910F91FF90EF90DF90CF900895DA
:100DF0002CEC34E1B701A6018CE097E10E94FD27BD
:100E00008111DACF6FE372E086ED97E10E946816F8
:100E1000EFCFAF92BF92CF92DF92EF92FF920F93FC
:100E20001F931F921F9228E02F931F92A12CB12C89
:100E3000650118E8E12E10E1F12E03E51FEF24E330
:100E400037E842E55FEF0E94321B0F900F900F9042
:100E50000F90CB011F910F91FF90EF90DF90CF90FB
:100E6000BF90AF900895AF92BF92CF92DF92EF9272
:100E7000FF920F931F931F921F9228E02F931F92B0
:100E8000A12CB12C650119E1E12E1FE7F12E01E53E
:100E900010E022EC30ED41E550E00E94321B0F9053
:100EA0000F900F900F90CB011F910F91FF90EF903B
:100EB000DF90CF90BF90AF900895CF92DF92EF92E6
:100EC000FF920F931F93FC010081118122813381D6
:100ED000FB01C080D180E280F380FC01C082D1821E
:100EE000E282F382FB0100831183228333831F910B
:100EF0000F91FF90EF90DF90CF900895AF92BF9247
:100F0000CF92DF92EF92FF920F931F93CF93DF93D5
:100F10005B0104967C0101E010E00A151B0504F555
:100F2000E70168011C141D04ACF49E012450310932
:100F3000CE01E901FC013297408151812E813F8130
:100F40002417350738F4BE010E945D0781E0C81AF6
:100F5000D108E8CF0F5F1F4F84E0E80EF11CDDCF12
:100F6000DF91CF911F910F91FF90EF90DF90CF9085
:100F7000BF90AF9008956F927F928F929F92AF92A1
:100F8000BF92CF92DF92EF92FF920F931F93CF9376
:100F9000DF936C017B013A015A01AA0CBB1CAA0C1D
:100FA000BB1CA80EB91EF50182809380EB0121972E
:100FB0008B01000F111F000F111F080F191FE614DE
:100FC000F704BCF4F801828193818816990658F0E1
:100FD0002196CE01880F991F880F991FB8018C0D9B
:100FE0009D1D0E945D07FFEFEF1AFF0A0C5F1F4F68
:100FF000E6CF2196CE01880F991F880F991FB50162
:101000008C0D9D1D0E945D07CE01DF91CF911F9138
:101010000F91FF90EF90DF90CF90BF90AF909F9097
:101020008F907F906F900895CF92DF92EF92FF9212
:101030000F931F93CF93DF937C01EB016A01CC15D3
:10104000DD0584F4A601BE01C7010E94BB078C0127
:10105000AC0141505109BE01C7010E941408E801CA
:101060002196EDCFDF91CF911F910F91FF90EF90DF
:10107000DF90CF900895AF92BF92CF92DF92EF9220
:10108000FF920F931F93CF93DF9300D000D0CDB783
:10109000DEB788E197E10E947F3A4B835C836D83E2
:1010A0007E836B817C81072E000C880B990B1F922D
:1010B0001F921F921F922FE3A22EBB24B394C12C28
:1010C000D12C18EEE12E13E0F12E00E010E02AE022
:1010D00030E040E050E00E94321B0F900F900F90E4
:1010E0000F90653071400CF077C08D819E810A971A
:1010F0008F3D934008F070C0E12CF12C6CEC76E150
:10110000C7010E94B6062091D41630E02330310585
:101110002CF02F5F3F4F3595279502C021E030E03E
:101120008091030290910402281739070CF44BC0F8
:101130006091D0167091D1168091D2169091D316ED
:101140000E94090790931B0480931A046091CC16A7
:101150007091CD168091CE169091CF160E943307D4
:10116000909319048093180460911A0470911B04E1
:1011700020910702309108026217730724F1A90138
:10118000495F5E4F46175707F4F0409105025091B2
:10119000060284179507BCF0FA01E951FF4FE817E2
:1011A000F9078CF0841B950BAC0141505109621B6F
:1011B000730B615071090FE110E024E030E084E32B
:1011C00097E10E94EA308FEFE81AF80A2BE2E21664
:1011D00024E0F20609F092CF26960FB6F894DEBF0F
:1011E0000FBECDBFDF91CF911F910F91FF90EF9078
:1011F000DF90CF90BF90AF9008954F925F926F9223
:101200007F92AF92BF92CF92DF92EF92FF920F93B5
:101210001F93CF93DF9300D000D0CDB7DEB788E126
:1012200097E10E947F3A29833A834B835C836D83E5
:101230007E836B817C81072E000C880B990B1F929B
:101240001F921F921F922FE3A22EBB24B394C12C96
:10125000D12C18EEE12E13E0F12E00E010E02AE090
:1012600030E040E050E00E94321B2B013C016981DC
:101270007A81072E000C880B990B1F921F921F92E8
:101280002FEE2F93A12CB12C65012AE030E040E035
:1012900050E00E94321B24E0421A21E0520A0FB6AD
:1012A000F894DEBF0FBECDBF3DE34316510408F0F6
:1012B0005AC06937710508F056C08D819E810A9722
:1012C0008F3D934008F04FC060E672E086ED97E1F5
:1012D0000E94681664EF71E080E090E00E947A144A
:1012E0001092020210920102809103029091040276
:1012F0009C01215031092430310510F4019604C0BD
:10130000059734F081E090E090930402809303020B
:1013100044E350E065E271E084E397E10E941D340C
:1013200062E084E397E10E942334609103027091AC
:1013300004024AE050E084E397E126960FB6F89461
:10134000DEBF0FBECDBFDF91CF911F910F91FF90F8
:10135000EF90DF90CF90BF90AF907F906F905F90B5
:101360004F900C942C1726960FB6F894DEBF0FBE44
:10137000CDBFDF91CF911F910F91FF90EF90DF9044
:10138000CF90BF90AF907F906F905F904F900895F7
:101390000F931F93CF93DF931092020210920102DA
:1013A00000E010E0C0E0D0E06CEC76E1C8010E9403
:1013B000B6062091D41630E0233031052CF02F5F93
:1013C0003F4F3595279502C021E030E08091030220
:1013D00090910402281739070CF456C0809101023D
:1013E0009091020201969093020280930102FE0105
:1013F000EE0FFF1FEE0FFF1FEC5DFB4F118300830D
:1014000021966091D0167091D1168091D21690914C
:10141000D3160E94090790931104809310046091E1
:10142000CC167091CD168091CE169091CF160E9459
:1014300033079093130480931204FE01EE0FFF1FF5
:10144000EE0FFF1FEC5DFB4F20912E1730912F17F1
:101450004091100450911104B901641B750B77FF82
:1014600003C071956195710940912C1750912D170A
:101470009A01281B390B37FF03C03195219531099B
:10148000260F371F338322830F5F1F4F0B3284E0F9
:10149000180709F089CFDF91CF911F910F9108951F
:1014A000EF92FF920F932FEF49E06AE084E397E118
:1014B0000E9465358CE2E82EFF24F39405E029E3D1
:1014C00048E364E088E197E10E94D93BECE0F7E172
:1014D00015821682118613860F91FF90EF90089562
:1014E0008F929F92AF92BF92CF92DF92EF92FF9234
:1014F0000F931F93CF93DF937C018B0140E050E06B
:1015000060E070E084E397E10E941D3461E084E3D1
:1015100097E10E9423348091140490911504892B43
:1015200009F45CC080912004909121048E159F05E0
:1015300009F4A7C0E8015801AA0CBB1CAA0CBB1CEB
:1015400000E010E06E018EE1C80ED11CCC15DD0567
:1015500008F097C0CE15DF0591F4FE01EE0FFF1FD6
:10156000EE0FFF1FEC5DFB4F6CEC76E1808191810B
:101570000E94B6064FEF5FEF60E070E016C080910A
:10158000200490912104C817D907B1F4F801EA0D9D
:10159000FB1DEC5DFB4F6CEC76E1808191810E943C
:1015A000B60640E050E06FEF7FEF84E397E10E94E2
:1015B000293465ED76E10AC040E050E06FEF7FEF3F
:1015C00084E397E10E9429346EE772E084E397E1B7
:1015D0000E94681621960C5F1F4FB8CF60E070E044
:1015E00084E397E10E94EC2EE8015801AA0CBB1C91
:1015F000AA0CBB1C00E010E06E018EE1C80ED11CED
:1016000088248394912CCC15DD05D8F5F801EA0DDA
:10161000FB1DEC5DFB4F6CEC76E1808191810E94BB
:10162000B6068091010290910202C817D9075CF0BA
:1016300040E050E060E070E084E397E10E942934EC
:101640006FE672E012C0CE15DF0529F44FEF5FEFB1
:1016500060E070E004C040E050E06FEF7FEF84E3B3
:1016600097E10E94293465ED76E184E397E10E94D9
:101670006816909215048092140421960C5F1F4FF7
:10168000C2CFDF91CF911F910F91FF90EF90DF902C
:10169000CF90BF90AF909F908F9008958F929F9220
:1016A000AF92BF92CF92DF92EF92FF920F931F9370
:1016B000CF93DF93EC014B0179018091050290916A
:1016C0000602280F391FE0910702F0910802E40F8B
:1016D000F51F89E0A82EB12C99E0C92ED12C8A01E2
:1016E000AF0164E377E189E092E00E944B04E12CD2
:1016F00028EFF22E09E010E029E030E0A401BE015D
:1017000084E397E10E940E35DF91CF911F910F91F5
:10171000FF90EF90DF90CF90BF90AF909F908F9011
:101720000895CF92DF92EF92FF920F931F93CF9382
:10173000DF9386E30E9402156C0187E30E94021585
:10174000EC0182E00E94E5150091321710913317E9
:10175000E0903017F090311720E032E0C9018C1989
:101760009D0997FDCF9636E0959587953A95E1F7D7
:10177000800F911F883021E0920714F087E091E0FC
:1017800097FF02C080E090E0909333178093321768
:10179000CE01925097FDCF9626E0959587952A9594
:1017A000E1F78E0D9F1D883E910514F087EE90E0C5
:1017B00097FF02C080E090E090933117809330173C
:1017C0000E94E20580913217909133176091301793
:1017D000709131178017910719F46E157F0521F06C
:1017E0009701A8010E944E0B6AE070E080E090E053
:1017F000DF91CF911F910F91FF90EF90DF90CF90ED
:101800000C947A14AF92BF92CF92DF92EF92FF9234
:101810000F931F930E94A01440E855E260E070E02F
:1018200086ED97E10E94D81962E082E00E94791566
:1018300040E050E0BA0184E397E10E9426366FE76A
:1018400072E086ED97E10E944B1666E088E19AE12E
:101850000E94731B811107C067E972E086ED97E172
:101860000E946816FFCF68EB72E086ED97E10E9458
:10187000681660E070E084E397E10E94EC2E63E07C
:1018800084E397E10E941C3880EFA82EB12C90E1F0
:10189000C92EDD24D394E12CF12C00E010E028E8DF
:1018A00033E048E753E064E377E189E092E00E94A7
:1018B0004B0483E890E0909333178093321783E7CB
:1018C00090E0909331178093301723E730E043E89E
:1018D00050E063E770E083E890E00E944E0BEE2456
:1018E000EA94FE2C07E710E020E330E049E750E0FF
:1018F00060E171E084E397E10E940E3530EEE32E63
:1019000037E0F32E20E330E049E750E060E171E09A
:1019100084E397E10E94802FEE24EA94FE2C20E3DA
:1019200030E040E050E060E171E084E397E10E9444
:101930000E35E12C58EFF52E20E330E040E050E08A
:1019400060E171E084E397E10E94802F4FEF5FEF49
:1019500060E070E084E397E10E94293444E350E0C2
:1019600065E271E084E397E10E941D3462E084E364
:1019700097E10E94233460910302709104024AE0CF
:1019800050E084E397E10E942C174FEF5FEF60E097
:1019900070E084E397E10E9429344DE850E065E26D
:1019A00071E084E397E10E941D3462E084E397E1F3
:1019B0000E9423346CEB72E084E397E10E944B16A3
:1019C0004EE950E065E271E084E397E10E941D3446
:1019D00062E084E397E10E9423346EEB72E084E3DB
:1019E00097E10E944B164FEA50E065E271E084E314
:1019F00097E10E941D3462E084E397E10E94233462
:101A000060EC72E084E397E10E944B1640EC50E0FA
:101A100065E271E084E397E10E941D3462E084E3B3
:101A200097E10E94233462EC72E084E397E10E9424
:101A30004B1641ED50E065E271E084E397E10E94CE
:101A40001D3462E084E397E10E94233464EC72E089
:101A500084E397E10E944B1661E084E397E10E94E2
:101A6000233460E084E397E10E942F3466EC72E057
:101A700086ED97E10E944B1646E061E08CE097E12D
:101A80000E946B26811107C066EF72E086ED97E138
:101A90000E946816FFCF68EB72E086ED97E11F9118
:101AA0000F91FF90EF90DF90CF90BF90AF900C948C
:101AB00068164F925F926F927F92AF92BF92CF92D1
:101AC000DF92EF92FF920F931F93CF93DF9300D09B
:101AD00000D0CDB7DEB788E197E10E947F3A298335
:101AE0003A834B835C836D837E836B817C81072E7D
:101AF000000C880B990B1F921F921F921F92EFE30D
:101B0000AE2EBB24B394C12CD12C18EEE12E13E0E1
:101B1000F12E00E010E02AE030E040E050E00E94CA
:101B2000321B2B013C0169817A81072E000C880B46
:101B3000990B1F921F921F922FEE2F93A12CB12C65
:101B400065012AE030E040E050E00E94321B24E0D2
:101B5000421A21E0520A0FB6F894DEBF0FBECDBF85
:101B60003DE34316510408F06CC1CB01895791093C
:101B70008837910508F065C18D819E810A978F3D58
:101B8000934008F05EC164EF71E080E090E00E9455
:101B90007A14809100028823D1F181E080930F04B0
:101BA00010920002EE24EA94FE2C07E710E020E3F6
:101BB00030E049E750E060E171E084E397E10E94A2
:101BC0000E3550EEE52E57E0F52E20E330E049E7E4
:101BD00050E060E171E084E397E10E94802F4FEFD5
:101BE0005FEF60E070E084E397E10E9429344DE804
:101BF00050E065E271E084E397E10E941D3462E009
:101C000084E397E10E9423346DE173E0B6C08091D4
:101C10000F04882309F473C081E080930E041092AE
:101C20000F04EE24EA94FE2C07E710E020E330E0F6
:101C300049E750E060E171E084E397E10E940E35EE
:101C400030EEE32E37E0F32E20E330E049E750E0BA
:101C500060E171E084E397E10E94802F4FEF5FEF36
:101C600060E070E084E397E10E94293442E950E0AB
:101C700065E271E084E397E10E941D3462E084E351
:101C800097E10E9423346FE173E084E397E10E94BF
:101C90004B1643EA50E065E271E084E397E10E946D
:101CA0001D3462E084E397E10E94233460EC72E02B
:101CB00084E397E10E944B1644EB50E065E271E04B
:101CC00084E397E10E941D3462E084E397E10E947F
:101CD000233464EC72E084E397E10E944B1645ECF8
:101CE00050E065E271E084E397E10E941D3462E018
:101CF00084E397E10E94233461E273E08AC080911B
:101D00000E04882309F49DC081E0809300021092A4
:101D10000E04EE24EA94FE2C07E710E020E330E006
:101D200049E750E060E171E084E397E10E940E35FD
:101D300090EEE92E97E0F92E20E330E049E750E0FD
:101D400060E171E084E397E10E94802F4FEF5FEF45
:101D500060E070E084E397E10E9429344DE850E0B0
:101D600065E271E084E397E10E941D3462E084E360
:101D700097E10E9423346CEB72E084E397E10E94C8
:101D80004B164EE950E065E271E084E397E10E9472
:101D90001D3462E084E397E10E9423346EEB72E02D
:101DA00084E397E10E944B164FEA50E065E271E050
:101DB00084E397E10E941D3462E084E397E10E948E
:101DC000233460EC72E084E397E10E944B1640EC10
:101DD00050E065E271E084E397E10E941D3462E027
:101DE00084E397E10E94233462EC72E084E397E19C
:101DF0000E944B1641ED50E065E271E084E397E10B
:101E00000E941D3462E084E397E10E94233464EC75
:101E100072E084E397E126960FB6F894DEBF0FBE1A
:101E2000CDBFDF91CF911F910F91FF90EF90DF9089
:101E3000CF90BF90AF907F906F905F904F900C9439
:101E40004B1626960FB6F894DEBF0FBECDBFDF91BE
:101E5000CF911F910F91FF90EF90DF90CF90BF90A7
:101E6000AF907F906F905F904F900895CF93DF93E6
:101E7000CDB7DEB7C054D1090FB6F894DEBF0FBEA0
:101E8000CDBF0E94020C00E010E0B3E72B2E312CF6
:101E90008DE1682E712C0E94FD080E943B080E9473
:101EA000590D0E94B1050E94910B82E00E94E51538
:101EB0002C01012B09F48BC260E070E084E397E110
:101EC0000E94EC2EE0912204F0912304EE0FFF1FFC
:101ED000EE0FFF1FEC5DFB4FBE016F5F7F4F8081F8
:101EE00091810E94B6066D817E818F8198850E94C6
:101EF000090790931B0480931A0469817A818B816E
:101F00009C810E9433079093190480931804409198
:101F1000070250910802413F86E0580714F040EF55
:101F200056E057FF02C040E050E050930802409353
:101F300007022091050230910602213197E039070E
:101F400014F020E137E037FF02C020E030E03093AA
:101F500006022093050260EFA62EB12C70E1C72E79
:101F6000DD24D394E12CF12C00E010E064E377E170
:101F700089E092E00E944B0480910002882309F4DA
:101F80006EC0EE24EA94FE2C07E710E020E330E078
:101F900040E050E060E171E084E397E10E940E359B
:101FA000E12CB8EFFB2E20E330E040E050E060E1B0
:101FB00071E084E397E10E94802F4FEF5FEF60E0D4
:101FC00070E084E397E10E94293444E350E065E245
:101FD00071E084E397E10E941D3462E084E397E1BD
:101FE0000E94233460910302709104024AE050E0A1
:101FF00084E397E10E942C17EE24EA94FE2C20E360
:1020000030E049E750E060E171E084E397E10E944D
:102010000E3590EEE92E97E0F92E20E330E049E707
:1020200050E060E171E084E397E10E94802F4FEF80
:102030005FEF60E070E084E397E10E9429344DE8AF
:1020400050E065E271E084E397E10E941D3462E0B4
:1020500084E397E10E9423346CEB72E072C08091BC
:102060000F04882309F4BAC0EE24EA94FE2C07E793
:1020700010E020E330E040E050E060E171E084E314
:1020800097E10E940E35E12C78EFF72E20E330E047
:1020900040E050E060E171E084E397E10E94802F2E
:1020A0004FEF5FEF60E070E084E397E10E94293436
:1020B00044E350E065E271E084E397E10E941D345F
:1020C00062E084E397E10E942334609103027091FF
:1020D00004024AE050E084E397E10E942C17EE24CA
:1020E000EA94FE2C20E330E049E750E060E171E043
:1020F00084E397E10E940E35F0EEEF2EF7E0FF2E1D
:1021000020E330E049E750E060E171E084E397E1EB
:102110000E94802F4FEF5FEF60E070E084E397E173
:102120000E9429344DE850E065E271E084E397E1D4
:102130000E941D3462E084E397E10E9423346DE144
:1021400073E084E397E10E944B164EE950E065E2AC
:1021500071E084E397E10E941D3462E084E397E13B
:102160000E9423346EEB72E084E397E10E944B16E9
:102170004FEA50E065E271E084E397E10E941D348C
:1021800062E084E397E10E94233460EC72E084E330
:1021900097E10E944B1640EC50E065E271E084E369
:1021A00097E10E941D3462E084E397E10E942334AA
:1021B00062EC72E084E397E10E944B1641ED50E03F
:1021C00065E271E084E397E10E941D3462E084E3FC
:1021D00097E10E94233464EC72E0ABC080910E045E
:1021E000882309F4AAC0EE24EA94FE2C07E710E045
:1021F00020E330E040E050E060E171E084E397E10B
:102200000E940E35E12C38EFF32E20E330E040E061
:1022100050E060E171E084E397E10E94802F4FEF8E
:102220005FEF60E070E084E397E10E94293444E3CB
:1022300050E065E271E084E397E10E941D3462E0C2
:1022400084E397E10E9423346091030270910402B9
:102250004AE050E084E397E10E942C17EE24EA94D0
:10226000FE2C20E330E049E750E060E171E084E3D8
:1022700097E10E940E3550EEE52E57E0F52E20E353
:1022800030E049E750E060E171E084E397E10E94CB
:10229000802F4FEF5FEF60E070E084E397E10E94F2
:1022A000293442E950E065E271E084E397E10E945D
:1022B0001D3462E084E397E10E9423346FE173E010
:1022C00084E397E10E944B1643EA50E065E271E037
:1022D00084E397E10E941D3462E084E397E10E9469
:1022E000233460EC72E084E397E10E944B1644EBE8
:1022F00050E065E271E084E397E10E941D3462E002
:1023000084E397E10E94233464EC72E084E397E174
:102310000E944B1645EC50E065E271E084E397E1E2
:102320000E941D3462E084E397E10E94233461E25D
:1023300073E084E397E10E944B16409107025091AD
:10234000080220910502309106024115510559F00D
:10235000403FE6E05E0739F02115310521F02031DC
:10236000F7E03F07F1F480911A0490911B04841B5D
:10237000950B8D3041E0940714F4059702C087E077
:1023800091E09093331780933217809118049091C5
:102390001904821B930B0597909331178093301784
:1023A0000AC0E3E8F0E0F0933317E093321730927D
:1023B000311720923017609130177091311780914A
:1023C0003217909133179B01AC010E944E0B00E035
:1023D00010E0452809F05FCD80910002882379F153
:1023E0000E94C8090E9449144B015C0160910102DE
:1023F0007091020284E294E00E947E070E944914D8
:102400006B017C01C818D908EA08FB0863E273E095
:1024100086ED97E10E944B162AE030E0B701A60155
:1024200086ED97E10E94331761E473E086ED97E152
:102430000E94681604E214E0E12CF12C4FC0809158
:102440000F0481112EC080910E04882399F30E94FD
:10245000C8090E9449144B015C016091010270910E
:10246000020284E294E00E947E070E9449146B01FC
:102470007C01C818D908EA08FB0863E273E086ED1E
:1024800097E10E944B162AE030E0B701A60186EDE5
:1024900097E10E94331761E473E086ED97E10E94B3
:1024A00068160E94C8090E9449144B015C014091C2
:1024B0000102509102024150510960E070E084E253
:1024C00094E00E9414080E9449146B017C01C81812
:1024D000D908EA08FB0865E473E09ACF809101020D
:1024E00090910202E816F90624F56FE573E086ED97
:1024F00097E10E944B16F801608171814AE050E03B
:1025000086ED97E10E94401760E773E086ED97E162
:102510000E944B16F801628173814AE050E086ED1B
:1025200097E10E944617FFEFEF1AFF0A0C5F1F4F5B
:10253000D5CF60E070E084E397E10E94EC2E10922A
:1025400023041092220410921F0410921E04109271
:102550001D0410921C0481E090E090931704809376
:102560001604109215041092140410922104109273
:10257000200460E070E080E090E00E94700A00E0DB
:1025800010E09EE1492E512C809116049091170481
:10259000892B09F480CC87E30E9402157C0182E03C
:1025A0000E94E51590E4E91692E0F9060CF46DC07E
:1025B00080912204909123040196909323048093A8
:1025C000220420911E0430911F042F5F3F4F30934F
:1025D0001F0420931E04E0910102F09102029F016A
:1025E000215031098E179F0764F030932304209304
:1025F0002204CF01B2010E94FE3F90931F048093FA
:102600001E04E0902204F0902304CF01B2010E9446
:10261000FE3F281B390B2E153F05BCF480911E048C
:1026200090911F044E978CF080911C0490911D0492
:102630004E9690931D0480931C0410921F041092D8
:102640001E04109215041092140480911E0490919F
:102650001F044E97A4F0E216F3068CF410921F04A8
:1026600010921E0480911C0490911D044E9690932C
:102670001D0480931C0410921504109214046091A0
:102680001C0470911D04C70146C0E1ECEE16E1E0A8
:10269000FE060CF04AC08091220490912304019719
:1026A000909323048093220420911E0430911F04F0
:1026B0002150310930931F0420931E0497FF08C056
:1026C000109223041092220410921F0410921E04F0
:1026D00020911E0430911F048091220490912304C4
:1026E00037FF15C08D31910594F070921F046092F0
:1026F0001E0420911C0430911D042E513109309389
:102700001D0420931C04109215041092140460916F
:102710001C0470911D040E94700A80912204909103
:102720002304909321048093200482E00E94E51505
:10273000892B09F054C010921704109216041092BD
:10274000150410921404E0912204F0912304EE0F7A
:10275000FF1FEE0FFF1FEC5DFB4FBE016F5F7F4F52
:10276000808191810E94B6066D817E818F819885DE
:102770000E94090790931B0480931A0469817A814F
:102780008B819C810E9433079093190480931804D5
:1027900020911A0430911B04293831053CF0285847
:1027A0003109309308022093070208C010920802F2
:1027B0001092070210923317109232178937910541
:1027C000ACF088579109909306028093050266EB5E
:1027D00073E080E090E00E947A1401E010E062E390
:1027E00070E080E090E00E947A14CECE1092060253
:1027F000109205021092311710923017E8CF1F92F5
:102800000F920FB60F9211242F933F938F939F93A4
:10281000AF93BF938091681790916917A0916A1741
:10282000B0916B173091671723E0230F2D3720F4F9
:102830000196A11DB11D05C026E8230F0296A11D1A
:10284000B11D209367178093681790936917A09321
:102850006A17B0936B1780916C1790916D17A091C8
:102860006E17B0916F170196A11DB11D80936C1763
:1028700090936D17A0936E17B0936F17BF91AF91A0
:102880009F918F913F912F910F900FBE0F901F90AE
:1028900018952FB7F8946091681770916917809117
:1028A0006A1790916B172FBF08953FB7F8948091E6
:1028B0006C1790916D17A0916E17B0916F1726B598
:1028C000A89B05C02F3F19F00196A11DB11D3FBF68
:1028D000BA2FA92F982F8827820F911DA11DB11DF6
:1028E000BC01CD0142E0660F771F881F991F4A95F2
:1028F000D1F70895CF92DF92EF92FF92CF93DF93BB
:102900006B017C010E945514EB01C114D104E10458
:10291000F10479F00E9455146C1B7D0B683E7340E6
:10292000A0F381E0C81AD108E108F108C851DC4FD2
:10293000ECCFDF91CF91FF90EF90DF90CF90089593
:10294000789484B5826084BD84B5816084BD85B58A
:10295000826085BD85B5816085BDEEE6F0E0808151
:1029600081608083E1E8F0E0108280818260808372
:10297000808181608083E0E8F0E0808181608083F5
:10298000E1EBF0E0808184608083E0EBF0E0808127
:1029900081608083E1E9F0E08081826080838081D2
:1029A00081608083E0E9F0E0808181608083E1EAFA
:1029B000F0E0808182608083808181608083E0EAB2
:1029C000F0E0808181608083E1E2F1E080818260DB
:1029D0008083808181608083E0E2F1E0808181609A
:1029E0008083EAE7F0E08081846080838081826078
:1029F0008083808181608083808180688083109261
:102A0000C1000895863308F0865390917B00282FEB
:102A10002870977F922B90937B00877020910F02F4
:102A200090E4299F90011124822B80937C00809157
:102A30007A00806480937A0080917A0086FDFCCFD2
:102A4000809178002091790090E0922B089590E099
:102A5000FC013197E131F10508F04AC08827EE58B2
:102A6000FF4F8F4F0C945340809180008F7703C0AD
:102A7000809180008F7D80938000089584B58F774A
:102A800002C084B58F7D84BD08958091B0008F779A
:102A900003C08091B0008F7D8093B0000895809135
:102AA00090008F7707C0809190008F7D03C0809148
:102AB0009000877F8093900008958091A0008F7789
:102AC00007C08091A0008F7D03C08091A000877F08
:102AD0008093A0000895809120018F7707C0809196
:102AE00020018F7D03C080912001877F809320018A
:102AF0000895CF93DF9390E0FC01E05CFD4F2491BB
:102B0000FC01EA57FD4F8491882361F190E0880F22
:102B1000991FFC01E050FD4FC591D491FC01EA5191
:102B2000FD4FA591B491611109C09FB7F8948881B8
:102B3000209582238883EC912E230BC0623061F4B0
:102B40009FB7F8943881822F809583238883EC91F6
:102B50002E2B2C939FBF06C08FB7F894E8812E2BA5
:102B600028838FBFDF91CF9108951F93CF93DF9379
:102B7000282F30E0F901E650FE4F8491F901E05C26
:102B8000FD4FD491F901EA57FD4FC491CC23C9F010
:102B9000162F81110E942715EC2FF0E0EE0FFF1F7A
:102BA000EA51FD4FA591B4918FB7F894111105C06A
:102BB0009C91ED2FE095E92302C0EC91ED2BEC9375
:102BC0008FBFDF91CF911F910895CF93DF93282F6F
:102BD00030E0F901E650FE4F8491F901E05CFD4FD1
:102BE000D491F901EA57FD4FC491CC2391F08111A2
:102BF0000E942715EC2FF0E0EE0FFF1FE453FD4F6E
:102C0000A591B491EC91ED2381E090E021F480E076
:102C100002C080E090E0DF91CF910895CF92DF92E3
:102C2000EF92FF920F931F93CF93DF936C01EB0111
:102C30007B01E40EF51E00E010E0CE15DF0561F02B
:102C40006991D601ED91FC910190F081E02DC601D2
:102C50001995080F191FF1CFC801DF91CF911F916E
:102C60000F91FF90EF90DF90CF900895611571055F
:102C700079F0FB0101900020E9F73197AF01461B85
:102C8000570BDC01ED91FC910280F381E02D19944A
:102C900080E090E008950C943616DC01ED91FC91F3
:102CA0000190F081E02D19940F931F93CF93DF9340
:102CB000EC016DE00E944D168C016AE0CE010E948D
:102CC0004D16800F911FDF91CF911F910F910895A5
:102CD0000F931F93CF93DF93EC010E9436168C0164
:102CE000CE010E945416800F911FDF91CF911F914A
:102CF0000F9108950F931F93CF93DF93EC010E94E0
:102D00004D168C01CE010E945416800F911FDF9149
:102D1000CF911F910F9108958F929F92AF92BF9282
:102D2000CF92DF92EF92FF920F931F93CF93DF9397
:102D3000CDB7DEB7A1970FB6F894DEBF0FBECDBFFB
:102D40006C01142FE52FCB01022F19A2223008F4B9
:102D50000AE07E0121E2E20EF11C802E912CA12CD2
:102D6000B12C612F7E2FA50194010E941240029F79
:102D70001019112481E0E81AF1081A3014F4105DDA
:102D800001C0195CF7011083122FE32FCA01232B16
:102D9000242B252B31F7B701C6010E943616A196C8
:102DA0000FB6F894DEBF0FBECDBFDF91CF911F915C
:102DB0000F91FF90EF90DF90CF90BF90AF909F90DA
:102DC0008F900895CF92DF92EF92FF920F931F930F
:102DD000CF93DF93EC016A017B012115310579F472
:102DE000E881F9810190F081E02D642FDF91CF918E
:102DF0001F910F91FF90EF90DF90CF9019942A30A0
:102E00003105E9F477FF1AC06DE20E944D168C017E
:102E100044275527BA014C195D096E097F092AE03C
:102E2000CE010E948C16800F911FDF91CF911F91D0
:102E30000F91FF90EF90DF90CF9008952AE0B701B7
:102E4000A601CE01DF91CF911F910F91FF90EF90DE
:102E5000DF90CF900C948C169A01AB01770F660B24
:102E6000770B0C94E2162115310541F4DC01ED914C
:102E7000FC910190F081E02D642F19940C948C1634
:102E80009A01AB0160E070E00C9433170F931F932D
:102E9000CF93DF93EC019A01AB0160E070E00E94F8
:102EA00033178C01CE010E945416800F911FDF91C1
:102EB000CF911F910F9108950895FC0124853585C8
:102EC000F901E05CFF4F8081918132962081318150
:102ED000821B930B8F7399270895DC011C96ED914B
:102EE000FC911D97DF01A05CBF4F2D913C91119784
:102EF00012968D919C9111972817390739F08D9171
:102F00009C91E80FF91F808190E008958FEF9FEF6B
:102F10000895FC01A485B585FD01E05CFF4F20818B
:102F200031813296808191812817390779F080812B
:102F30009181A80FB91F8C91208131812F5F3F4F64
:102F40002F7333273183208390E008958FEF9FEF15
:102F50000895FC0181A1882329F0A489B5898C9169
:102F600086FFFBCF11A208950F931F93CF93DF939A
:102F7000FC01A685B7858D01005C1F4FE8018881A3
:102F8000998101968F739927AD014E5B5F4FEA01DE
:102F90002881398182179307D1F3E801288139818B
:102FA000A20FB31F6C93A685B785A05CBF4F119687
:102FB0009C938E93A689B7892C9181E090E0078C31
:102FC00002C0880F991F0A94E2F7822B8C9381E04C
:102FD00081A30488F589E02D80818064808381E06D
:102FE00090E0DF91CF911F910F910895FB01E05C7C
:102FF000FF4F208131812F5F3F4F2F733327DB013C
:10300000AE5BBF4F4D915C912417350741F0408175
:103010005181DB01A40FB51F8C9331832083089568
:103020001F920F920FB60F9211240BB60F922F938F
:103030003F934F935F936F937F938F939F93AF9340
:10304000BF93EF93FF938091C00082FD07C08091F2
:10305000C60064ED79E10E94F61702C08091C600B7
:10306000FF91EF91BF91AF919F918F917F916F9160
:103070005F914F913F912F910F900BBE0F900FBE1C
:103080000F901F9018951F920F920FB60F92112458
:103090000BB60F922F933F934F935F936F937F9352
:1030A0008F939F93AF93BF93EF93FF938091C8004B
:1030B00082FD07C08091CE006CE479E10E94F61792
:1030C00002C08091CE00FF91EF91BF91AF919F918F
:1030D0008F917F916F915F914F913F912F910F90C1
:1030E0000BBE0F900FBE0F901F9018951F920F925E
:1030F0000FB60F9211240BB60F922F933F934F935D
:103100005F936F937F938F939F93AF93BF93EF934F
:10311000FF938091D00082FD07C08091D60064ECBF
:1031200078E10E94F61702C08091D600FF91EF91DE
:10313000BF91AF919F918F917F916F915F914F91CF
:103140003F912F910F900BBE0F900FBE0F901F90CD
:1031500018951F920F920FB60F9211240BB60F9273
:103160002F933F934F935F936F937F938F939F938F
:10317000AF93BF93EF93FF938091300182FD07C01F
:10318000809136016CE378E10E94F61702C08091CD
:103190003601FF91EF91BF91AF919F918F917F91F8
:1031A0006F915F914F913F912F910F900BBE0F90B8
:1031B0000FBE0F901F9018951F920F920FB60F928F
:1031C00011240BB60F922F933F938F939F93EF93FE
:1031D000FF932091D0193091D1198091D2199091FB
:1031E000D3192817390731F48091C1008F7D80935E
:1031F000C10014C0E091D219F091D319E057F64EF6
:1032000020818091D2199091D31901968F739927BB
:103210009093D3198093D2192093C600FF91EF9118
:103220009F918F913F912F910F900BBE0F900FBEEA
:103230000F901F9018951F920F920FB60F921124A6
:103240000BB60F922F933F938F939F93EF93FF9320
:10325000209148193091491980914A1990914B1940
:103260002817390731F48091C9008F7D8093C900F8
:1032700014C0E0914A19F0914B19E85FF64E208195
:1032800080914A1990914B1901968F7399279093C9
:103290004B1980934A192093CE00FF91EF919F9193
:1032A0008F913F912F910F900BBE0F900FBE0F90FB
:1032B0001F9018951F920F920FB60F9211240BB604
:1032C0000F922F933F938F939F93EF93FF932091B0
:1032D000C0183091C1188091C2189091C318281756
:1032E000390731F48091D1008F7D8093D10014C0D3
:1032F000E091C218F091C318E058F74E20818091F8
:10330000C2189091C31801968F7399279093C31890
:103310008093C2182093D600FF91EF919F918F91D7
:103320003F912F910F900BBE0F900FBE0F901F90EB
:1033300018951F920F920FB60F9211240BB60F9291
:103340002F933F938F939F93EF93FF932091381880
:103350003091391880913A1890913B182817390705
:1033600031F4809131018F7D8093310114C0E0915F
:103370003A18F0913B18E850F84E208180913A18A5
:1033800090913B1801968F73992790933B188093E7
:103390003A1820933601FF91EF919F918F913F91C1
:1033A0002F910F900BBE0F900FBE0F901F9018958E
:1033B000CF92DF92EF92FF920F931F93CF93DF9301
:1033C000EC016A017B014115514E6105710509F15E
:1033D000EC89FD8981E090E008A002C0880F991F68
:1033E0000A94E2F7808360E079E08DE390E0A70142
:1033F00096010E94124089019A0101501109210988
:1034000031093695279517950795980101151041B3
:10341000A8F0EC89FD89108260E874E88EE190E004
:10342000A70196010E941240DA01C9010197A10982
:10343000B109B695A795979587959C01E889F98973
:103440003083EA89FB89208319A2EE89FF894081B4
:1034500081E090E09C010C8C02C0220F331F0A9483
:10346000E2F7242B2083EE89FF8940819C010D8C9B
:1034700002C0220F331F0A94E2F7242B2083EE8927
:10348000FF8940819C010E8C02C0220F331F0A94D9
:10349000E2F7242B2083EE89FF8920810F8C02C064
:1034A000880F991F0A94E2F7809582238083DF9129
:1034B000CF911F910F91FF90EF90DF90CF900895E3
:1034C000CF92DF92EF92FF92E6EDF7E11382128244
:1034D00088EEC82E83E0D82EE12CF12CC482D58250
:1034E000E682F78268E973E07183608384ED99E195
:1034F0009587848780E999E19787868785EC90E0B6
:10350000918B808B84EC90E0938B828B80EC90E0AD
:10351000958B848B81EC90E0978B868B82EC90E08E
:10352000918F808F86EC90E0938F828F44E0448F60
:1035300033E0358F27E0268F95E0978F81E080A3D9
:10354000E4EBF7E113821282C482D582E682F7822D
:1035500071836083ACE4B9E1B587A487A8E0B9E1E1
:10356000B787A687ADECB0E0B18BA08BACECB0E038
:10357000B38BA28BA8ECB0E0B58BA48BA9ECB0E028
:10358000B78BA68BAAECB0E0B18FA08FAEECB0E009
:10359000B38FA28F448F358F268F978F80A3E2E958
:1035A000F7E113821282C482D582E682F7827183A8
:1035B0006083A4ECB8E1B587A487A0E8B8E1B78739
:1035C000A687A5EDB0E0B18BA08BA4EDB0E0B38BE6
:1035D000A28BA0EDB0E0B58BA48BA1EDB0E0B78BD2
:1035E000A68BA2EDB0E0B18FA08FA6EDB0E0B38FB7
:1035F000A28F448F358F268F978F80A3E0E7F7E166
:1036000013821282C482D582E682F782718360833C
:103610006CE378E17587648768EF77E17787668781
:1036200065E371E0718B608B64E371E0738B628B97
:1036300060E371E0758B648B61E371E0778B668B7F
:1036400062E371E0718F608F66E371E0738F628F68
:10365000448F358F268F978F80A3FF90EF90DF9058
:10366000CF9008954F925F926F927F92AF92BF92E8
:10367000CF92DF92EF92FF920F931F93CF93DF933E
:10368000CDB7DEB729013A019B01AC0124193509F8
:10369000460957098A899B89AC89BD89BC01CD013E
:1036A0006A197B098C099D090E94EE3FA8019701C8
:1036B00024193509460957090E943440CA01B90145
:1036C0006A0D7B1D8C1D9D1DDF91CF911F910F9168
:1036D000FF90EF90DF90CF90BF90AF907F906F9072
:1036E0005F904F9008950F931F93CF93DF93EC015A
:1036F000462F61E00E946B26882391F08E01045FC3
:103700001F4F41E0BE01C8010E94212C882351F0C7
:10371000B801CE018A960E94471F91E081110AC02C
:1037200090E008C040E0BE01C8010E94212C88231F
:10373000B9F3EECF892FDF91CF911F910F910895AB
:10374000FC01DB0112968D919C91139793838283E8
:103750008AEB93E09183808314968C9114978483F1
:1037600015968C911597858316964D915D916D9167
:103770007C91199746835783608771871A964D917C
:103780005D916D917C911D97428753876487758702
:103790001E964D915D916D917C915197468757870B
:1037A000608B718B52968C915297828B53964D9170
:1037B0005D916D917C915697438B548B658B768B85
:1037C00057964D915D916D917C915A97478B508F93
:1037D000618F728F5B968D919C915C97948F838F94
:1037E00008954F925F926F927F928F929F92AF92C5
:1037F000BF92CF92DF92EF92FF920F931F93CF93DE
:10380000DF93CDB7DEB7C754D1090FB6F894DEBF4A
:103810000FBECDBF6C015A014901665D7F4F7E012D
:103820008EE1E80EF11CC7010E94A01B1C821B82C6
:103830008AEB93E09A8389831E828501FE0131968B
:103840003F0127016FE270E0C8010E94C43D00976C
:10385000D9F1F80120812F3219F40F5F1F4FF2CFF9
:10386000801B8D3008F08CE0E82EF12CA701B80108
:10387000CE01CB960E94CF3DEBE3F0E0EC0FFD1FB5
:10388000EE0DFF1D1082C3010E94C32121E0AE0195
:10389000455C5F4FB201C3010E94F722811109C04C
:1038A000F601138212828AEB93E091838083158262
:1038B00014C00E0D1F1DC2010E94C321942D852D21
:1038C0002301692E782EBECF0A191B09F40111833A
:1038D0000083B201C6010E94A01BC601C95BDF4F75
:1038E0000FB6F894DEBF0FBECDBFDF91CF911F9111
:1038F0000F91FF90EF90DF90CF90BF90AF909F908F
:103900008F907F906F905F904F900895CF92DF924D
:10391000FF920F931F93CF93DF93CDB7DEB7C955B7
:10392000D1090FB6F894DEBF0FBECDBF6C018A017E
:10393000F22E9E01285A3F4FCE01CB960E94F11BDA
:103940006A968EAD9FAD6A97080F191FF8018081A6
:1039500081110AC0BE01655C7F4FCE0101960E94B5
:10396000A01B44EA53E03EC019A218A28AEB93E0E0
:103970009F8F8E8F1BA221968FAD2197811104C03E
:10398000C6010E94D91D34C082502F2DA80182305B
:1039900048F462E47AE1CE014E960E94F72281114A
:1039A0000EC0EECFBE01655C7F4FCE014E960E94E9
:1039B000F722882329F3CE01CB960E94C3219F2DA5
:1039C000967041F049A95AA96BA97CA9CE014E96DF
:1039D0000E94E620BE01625E7F4FCE0101960E94EA
:1039E000A01BA801BE016F5F7F4FC6010E94A41DEE
:1039F000C601C75ADF4F0FB6F894DEBF0FBECDBF6A
:103A0000DF91CF911F910F91FF90DF90CF9008959C
:103A1000E8E1FAE1158216821186138682E090E0D1
:103A2000A0E0B0E084879587A687B78713A215A684
:103A300014A68AEB93E093A782A717A60895CF93C5
:103A4000DF931F92CDB7DEB76983DC01ED91FC9166
:103A50000280F381E02D41E050E0BE016F5F7F4FB7
:103A600019950F90DF91CF910895CF93DF93EC01DB
:103A7000898D9A8D009739F481E090E09B838A8349
:103A800080E090E00BC0FC01138212820E94E523CB
:103A9000E98DFA8D22813381232B71F7DF91CF914C
:103AA0000895FC01818D928D009711F00C947C217A
:103AB0000895CF93DF931F92CDB7DEB741E050E07A
:103AC000BE016F5F7F4F0E94981F019719F4898193
:103AD00090E002C08FEF9FEF0F90DF91CF9108959C
:103AE000FC01818D928D009711F00C94591D8FEF80
:103AF0009FEF08950F931F93CF93DF93FC01818D68
:103B0000928D0097B9F0EF010E94591D8C010F3F73
:103B10008FEF180791F0898D9A8DFC0142855385AE
:103B20006485758541505109610971090E94E6203B
:103B3000C80105C080E090E002C08FEF9FEFDF91E9
:103B4000CF911F910F910895EF92FF920F931F93C2
:103B5000CF93DF93EC017B018A011B821A8288EEEE
:103B600093E0A0E0B0E08C839D83AE83BF838AEABC
:103B700093E0998388838DE190E00E94543C9A8F72
:103B8000898F009779F02DE1F701DC0101900D920A
:103B90002A95E1F74CE050E0B801CE010C960E9466
:103BA000CF3D188EDF91CF911F910F91FF90EF9035
:103BB0000895FC011382128288EE93E0A0E0B0E049
:103BC00084839583A683B7838AEA93E09183808375
:103BD000128E118E148608950895FC01818D928DA8
:103BE000009711F00C94981F80E090E00895FC017C
:103BF000818D928D009711F00C94E62080E008955D
:103C0000DC015996ED91FC915A97309729F0628525
:103C100073858485958508956FEF7FEFCB010895B7
:103C2000DC015996ED91FC915A97309729F0638900
:103C3000748985899689089560E070E0CB010895C4
:103C4000CF92DF92EF92FF92CF93DF93FC01218D11
:103C5000328D232BD9F0EC010E94101E6B017C01E8
:103C6000CE010E94001EA7019601261B370B480BB0
:103C7000590BDA01C901811530E89307A105B10597
:103C800038F08FEF9FE7A0E0B0E002C080E090E066
:103C9000DF91CF91FF90EF90DF90CF900895CF9379
:103CA000DF93EC01898D9A8D009741F00E94C3212A
:103CB000898D9A8D0E94E93C1A8E198EDF91CF91E1
:103CC0000895DC015996ED91FC915A97309721F0B7
:103CD00081E09581911101C080E00895CF93DF9339
:103CE000EC019C012A5F3F4F41E050E060E070E052
:103CF0008B8D9C8D0E94B62A8823A1F08F89988D88
:103D0000A98DBA8D892B8A2B8B2B59F48E819F819B
:103D1000A885B9858F8B988FA98FBA8F8C81806881
:103D20008C8381E0DF91CF910895CF92DF92EF9263
:103D3000FF921F93CF93DF93EC010E946E1E8111BF
:103D400002C080E04AC0EB8DFC8DCE80DF80E8842D
:103D5000F98482E0C81AD108E108F108058404C09A
:103D6000CC0CDD1CEE1CFF1C0A94D2F786859785CF
:103D7000A089B189C80ED91EEA1EFB1E148181E0FC
:103D8000C81AD108E108F108112361F0C701B60192
:103D9000610F711D811D911D0E940529882389F2E3
:103DA0001150F2CFEB8DFC8D80E092E0A0E0B0E00E
:103DB000058404C0880F991FAA1FBB1F0A94D2F75D
:103DC0004B895C896D897E89840F951FA61FB71F5B
:103DD0008B8B9C8BAD8BBE8B81E0DF91CF911F9144
:103DE000FF90EF90DF90CF900895CF93DF93EC0199
:103DF000462F6E857F85888999890E94CA288823E5
:103E000041F08A8920E2829FC00111248659954E93
:103E100002C080E090E0DF91CF910895FB019B010B
:103E2000255F3F4F40E24193E217F307E1F7DC01E2
:103E300090E027E08D91882319F18E3219F0EAE1A4
:103E4000F3E008C02A3009F198E02AE0F3CF319678
:103E50003817D9F034913111FACF2917B0F03FED6E
:103E6000380F3E3590F431E0390FFB01E90FF11DB9
:103E70009FE9980F9A3108F480528083932FDACF0C
:103E800081E0FB019081903209F480E008950F9366
:103E90001F93CF93DF93FC012581222311F080E053
:103EA00042C08B01EC01FB0187898031B1F482E0D3
:103EB0008D831F8A188E198E1A8E808D918DA0E0A9
:103EC000B0E025E0880F991FAA1FBB1F2A95D1F7E4
:103ED0008B8B9C8BAD8BBE8B15C0803201F783E042
:103EE0008D83FB01428D538D648D758D4F8B588F63
:103EF000698F7A8F9E012D5E3F4FC8010E94AD29C8
:103F0000882369F21C8F0B8F81E08C831E821F82B5
:103F1000188619861A861B861C861D861E861F8695
:103F2000188A198A1A8ADF91CF911F910F910895EB
:103F30002F923F924F925F926F927F928F929F92B9
:103F4000AF92BF92CF92DF92EF92FF920F931F93A7
:103F5000CF93DF93EC015B014A018D81811103C096
:103F60008FEF9FEFD7C08C8180FFFACF4B885C88A2
:103F70006D887E884A855B856C857D85C401A0E05F
:103F8000B0E093018201041B150B260B370B0817B9
:103F900019072A073B0718F44201841A950A2401DD
:103FA0001E0126E0220E311C4114510409F47EC08A
:103FB0004A855B856C857D856A0181E0D822ED812B
:103FC0008A019B0189E036952795179507958A9573
:103FD000D1F78B8D9C8DE23061F4FC01828D938D45
:103FE000A48DB58DBC01CD01600F711F821F931F81
:103FF0003FC0FC0174807A947022C114D104C9F4CA
:10400000711017C0452B462B472B49F48F89988D8B
:10401000A98DBA8D8E839F83A887B9870AC04E81E8
:104020005F816885798591010E942929882309F497
:1040300097CFEB8DFC8D8E819F81A885B9850297E6
:10404000A109B109058404C0880F991FAA1FBB1FCD
:104050000A94D2F74685578560897189840F951F28
:10406000A61FB71FBC01CD01670D711D811D911DDC
:1040700020E032E02C193D0932012415350508F401
:1040800039012C8126FD04C06114F2E07F0679F528
:10409000009110021091110220911202309113022E
:1040A000601771078207930719F421C0C40132C059
:1040B000750183019601AB01BC018091681A909152
:1040C000691A0E94ED27882309F44ACFA60CB71C71
:1040D0008A859B85AC85BD85860D971DA11DB11D6B
:1040E0008A879B87AC87BD87461857085DCF40E01D
:1040F0000E94CA28882309F433CFF601E659F54E09
:10410000D501CF01860D971DE817F907F9F2219126
:104110002D93FACFDF91CF911F910F91FF90EF90E8
:10412000DF90CF90BF90AF909F908F907F906F90D7
:104130005F904F903F902F900895FF920F931F93A1
:10414000CF93DF931F92CDB7DEB7FC0125812230DC
:1041500018F480E090E033C08C01FC014285538567
:104160006485758585E076956795579547958A9519
:10417000D1F7F42FFF70FF2E41E050E0BE016F5FDA
:104180007F4FC8010E94981F019719F4898190E020
:1041900002C08FEF9FEF0196E1F2F80182859385CF
:1041A000A485B5854F96A11DB11D82879387A487ED
:1041B000B587F0E2FF9EC00111248659954E0F90FD
:1041C000DF91CF911F910F91FF9008958F929F9251
:1041D000AF92BF92CF92DF92EF92FF920F931F9315
:1041E000CF93DF93EC018D81811102C080E077C015
:1041F0000B891C892D893E89041715072607370767
:10420000A8F36A017B01823029F4CA86DB86EC863A
:10421000FD860DC0C114D104E104F10451F41E82E5
:104220001F82188619861A861B861C861D8681E0C9
:1042300056C08A849B84AC84BD84EB8DFC8D25851F
:1042400030E0275F3F4FB501A4014150510961099A
:104250007109022E04C076956795579547950A9483
:10426000D2F7D701C6010197A109B10904C0B695DB
:10427000A795979587952A95D2F784179507A6074E
:10428000B70720F089288A288B2849F44F89588D50
:10429000698D7A8D4E835F836887798704C0841B1C
:1042A000950BA60BB70B4C015D018E010A5F1F4FEA
:1042B00081149104A104B10409F4A7CF4E815F8158
:1042C0006885798598018B8D9C8D0E94292991E0C4
:1042D000891A9108A108B1088111EACF87CFDF912F
:1042E000CF911F910F91FF90EF90DF90CF90BF90F3
:1042F000AF909F908F9008950F931F93CF93DF936C
:10430000EC018D818823C9F18C8187FF30C061E089
:10431000CE010E94F51E8C01892B79F18D818230AE
:1043200048F48B899C89AD89BE89F801848F958F6B
:10433000A68FB78F8F89988DA98DBA8DF801938F2D
:10434000828FB58BA48BE091611AF091621A30973D
:1043500059F0B8016A5E7F4FC80148961995F80177
:10436000808D918D938B828B8C818F778C83DF9165
:10437000CF911F910F910C948F2880E0DF91CF9106
:104380001F910F910895CF93DF93EC010E947C2140
:10439000882311F01D8281E0DF91CF9108954F9223
:1043A0005F926F927F928F929F92AF92BF92EF92A5
:1043B000FF920F931F93CF93DF9300D01F92CDB73F
:1043C000DEB7FC0185818130E9F4848181FF1AC068
:1043D00083899489A589B68984179507A607B707A5
:1043E00088F0892B8A2B8B2B09F479C04A015B0159
:1043F0007F014284538464847584CF010E94E62047
:10440000811102C080E06CC0F701838D948D81140E
:104410009104A104B10471F44789508D618D728DAE
:104420000E94CB2B882371F3F701178A108E118E0F
:10443000128E3AC0F70146815781608571859E01D1
:104440002F5F3F4F0E9429298823E1F249815A8139
:104450006B817C81F701838D948DFC01278920314C
:1044600029F008EF1FEF2FEF3FE004C008EF1FEF28
:1044700020E030E04017510762077307A8F40E945C
:10448000CB2B882309F4BECFF70146815781608585
:1044900071850FEF1FEF2FEF3FE0838D948D0E940A
:1044A000162A882309F4AECFF701838A948AA58A55
:1044B000B68A848180688483C7010E947C21882316
:1044C00009F4A0CFB501A401481459046A047B047F
:1044D00010F4B301A201C7010E94E62001C081E0EF
:1044E0000F900F900F900F90DF91CF911F910F9130
:1044F000FF90EF90BF90AF909F908F907F906F90C4
:104500005F904F9008951F93CF93DF93EC0180E26B
:10451000689FF00111249F012659354ED9011B9641
:104520009C91917129F0842F827411F080E05BC01E
:10453000142F6A8B8091100290911102A0911202A7
:10454000B09113028E879F87A88BB98BE659F54EE1
:104550004489558960E070E0BA01552744274F8BA4
:10456000588F698F7A8F828D938DA0E0B0E0482BB1
:10457000592B6A2B7B2B4F8B588F698F7A8FD901E0
:104580001B968C91887151F4848D958DA68DB78D75
:104590008B8B9C8BAD8BBE8B81E00DC0803131F657
:1045A0009E012D5E3F4F8B8D9C8D0E94AD298823EF
:1045B00009F4BCCF84E08D83812F8F708C831E82A1
:1045C0001F82188619861A861B861C861D8616FF72
:1045D00009C040E050E0BA01CE01DF91CF911F91B8
:1045E0000C94CF2181E0DF91CF911F910895CF925C
:1045F000DF92EF92FF920F931F93CF93DF93CDB78C
:10460000DEB72C970FB6F894DEBF0FBECDBFFC010E
:1046100035813111C2C0D22E8B017C01BE016F5F8A
:104620007F4FCA010E940E1F882309F4B6C0F8010B
:10463000838D948DF701948F838FF80116821782F2
:1046400010861186128613861486158630E0F801CE
:1046500082859385A485B585438954896589768942
:1046600084179507A607B70708F041C025E0B6955F
:10467000A795979587952A95D1F7F82FFF70CF2E9C
:10468000C8013C870E949D203C85009709F485C0A5
:10469000FC012081222309F484C0253E99F04BE0DF
:1046A00050E0BC01CE0101963C870E94B73D3C859D
:1046B000892B69F68D2D8073803309F46EC04D2DE2
:1046C0006C2D67C031116BC0F701C28A4091100296
:1046D0005091110260911202709113024687578720
:1046E000608B718BFC01808131E08111B0CF8D2D09
:1046F0008271823109F051C0332341F061E0C7017A
:104700000E94F51E8C01892B79F447C0F801858140
:10471000823009F442C0C8010E94951E8823E9F145
:10472000F701128A0AE61AE180E2F80111928A95ED
:10473000E9F78BE0FE013196D80101900D928A9540
:10474000E1F7E091611AF091621A309739F0B801FF
:10475000625F7F4FC8014096199509C081E298E2D7
:10476000F801918B808B80E098E097878687F8012D
:1047700080899189938B828B918F808F8685978595
:10478000978B868B0E948F28882339F04D2DF70157
:104790006289C7010E94832209C080E007C031E01E
:1047A00056CF332309F490CF31E0A1CF2C960FB62A
:1047B000F894DEBF0FBECDBFDF91CF911F910F9157
:1047C000FF90EF90DF90CF9008952F923F924F92FD
:1047D0005F926F927F928F929F92AF92BF92CF9291
:1047E000DF92EF92FF920F931F93CF93DF9300D04E
:1047F0001F92CDB7DEB78C016B013A01DC01159633
:104800008C9115978130C9F414968C9181FF15C055
:1048100082FF1DC0F80143895489658976898285A4
:104820009385A485B58584179507A607B70779F002
:10483000C8010E94E62081110AC081E090E0D80101
:1048400013969C938E93129780E090E048C14301A9
:1048500084C0D8015B968D919C915C97FC0154803B
:104860002FEF250D1A012B0139E056944794379408
:1048700027943A95D1F7522E52207A01F1E0FF2287
:10488000552009F476C080E092E08E199F0954010A
:104890008815990508F45C01D8015B962D913C912F
:1048A0005C9716968D919D910D90BC91A02D0297CD
:1048B000A109B109F901058404C0880F991FAA1F35
:1048C000BB1F0A94D2F74685578560897189840F8A
:1048D000951FA61FB71F9C01AD01250D311D411D60
:1048E000511D19012A01A11432E0B30609F088C054
:1048F0008091100290911102A0911202B0911302C6
:1049000082159305A405B50559F48FEF9FEFDC01DF
:104910008093100290931102A0931202B09313029D
:104920009601B201A1018091681A9091691A0E94C2
:104930004128882309F481CF9EEFD91A8A189B0851
:10494000F80182859385A485B5858A0D9B1DA11DDF
:10495000B11D82879387A487B587D8011A964D9198
:104960005D916D917C911D978114910409F071CF37
:1049700087C0E114F10409F086CF16964D915D9140
:104980006D917C911997411551056105710559F497
:1049900057968D919D910D90BC91A02D0097A105EA
:1049A000B10541F521C09E012F5F3F4F0E9429298B
:1049B000882309F44ACF89819A81AB81BC81F801AF
:1049C000238D348DF9012789203129F048EF5FEFDD
:1049D0006FEF7FE004C048EF5FEF60E070E08417A6
:1049E0009507A607B70730F0C8010E946E1E811117
:1049F0004ACF23CFF80186839783A087B18743CF1F
:104A0000E114F10429F5D8011A964D915D916D914B
:104A10007C911D9753968D919D910D90BC91A02DE9
:104A2000481759076A077B0798F00E948F28882348
:104A300009F403CF20921002309211024092120228
:104A4000509213028091671A81608093671A08C0A0
:104A500041E0C201B1010E94CA28882309F4EDCEC9
:104A6000D601F701E659F54ECF018A0D9B1DE817D7
:104A7000F90719F02D912193FACFCA0CDB1C5ECFF8
:104A80005396CD90DD90ED90FC90569714968C91B6
:104A9000C416D506E606F70640F4F801438B548B9E
:104AA000658B768B806884830DC02091611A30916C
:104AB000621A232B39F06114710421F08068D80147
:104AC00014968C93F801848183FD02C0C30107C052
:104AD000C8010E947C21882309F4AFCEF7CF0F9044
:104AE0000F900F900F90DF91CF911F910F91FF903A
:104AF000EF90DF90CF90BF90AF909F908F907F907E
:104B00006F905F904F903F902F900895CF93DF93D9
:104B10001F92CDB7DEB7698341E050E0BE016F5F01
:104B20007F4F0E94E5230F90DF91CF9108958EBDB6
:104B30000DB407FEFDCF08958FEF0E9497258EB527
:104B4000089561E0FC0184810C94B51560E0FC01DE
:104B500084810C94B515CF93DF93FC018681882363
:104B6000D1F08FEF8EBD4FEF878190859C012F5F35
:104B70003F4F308727838130924028F40DB407FEE1
:104B8000FDCF4EBDF1CF0DB407FEFDCFEF01CF013C
:104B90000E94A1251E82DF91CF910895673028F0F1
:104BA00026E1FC01258380E008958DB560FD02C0FB
:104BB000663011F48E7F01C081608DBD8CB58C7F15
:104BC0008CBD9CB562FD02C080E001C082E06695AC
:104BD0006170692B862B8CBD81E008950F931F9324
:104BE000CF93DF93EB010E9449148B010E949C2517
:104BF0008F3F49F00E944914601B710B6C177D07B1
:104C0000A8F380E001C081E0DF91CF911F910F9167
:104C10000895CF92DF92FF920F931F93CF93DF936C
:104C200000D01F92CDB7DEB76C01F62E29833A83F0
:104C30004B835C830E94AB25C6010E94A6256CE2D3
:104C400071E0C6010E94EE258F2D80640E94972599
:104C500008E110E05C814B813A812981DA01C901C8
:104C6000002E04C0B695A795979587950A94D2F71C
:104C700029833A834B835C830E949725085011094E
:104C800029813A814B815C81083F8FEF180731F70A
:104C9000FF2029F0E8E0FE1204C087E803C085E9A0
:104CA00001C08FEF0E94972510E00E949C25F6011D
:104CB000828787FF04C01F3F11F01F5FF6CF0F9060
:104CC0000F900F900F90DF91CF911F910F91FF9058
:104CD000DF90CF9008958F929F92AF92BF92EF9204
:104CE000FF920F931F93CF93DF93EC01E62E1B8669
:104CF00019861E821D824C830E9449148B0161E03B
:104D00008C810E947915CE010E94A12560E082E38A
:104D10000E94791561E083E30E94791561E084E3E4
:104D20000E94791561E085E30E94791561E085E3D1
:104D30000E94B51583E58CBD8DB58E7F8DBD2AE0B3
:104D4000F22E8FEF0E949725FA94F110FACFCE0140
:104D50000E94A62520E030E0A90160E0CE010E947B
:104D60000926F82E8A8781E0F81649F00E94491436
:104D7000601B710B613D774068F381E04CC02AEA0B
:104D800031E040E050E068E0CE010E94092682FF59
:104D900002C0FB860EC094E0F92E0E949C258A87F3
:104DA000FA94F110FACF8A3A11F082E034C082E02E
:104DB0008B878B85823021F0812C912C540105C08A
:104DC000812C912CA12C80E4B82E20E030E0A901A8
:104DD00067E3CE010E940926A501940169E2CE0194
:104DE0000E9409268A87882349F00E944914601B83
:104DF000710B613D774048F388E00DC08B858230B0
:104E000039F520E030E0A9016AE3CE010E940926CD
:104E1000882389F086E08D83CE010E94A12580E061
:104E2000DF91CF911F910F91FF90EF90BF90AF90C6
:104E30009F908F9008950E949C25807C803C11F467
:104E400083E08B870E949C250E949C250E949C25C4
:104E5000CE010E94A1256E2DCE01DF91CF911F9131
:104E60000F91FF90EF90BF90AF909F908F900C9418
:104E7000CE250F931F93CF93DF93EC010E9449142B
:104E80008B010E949C258A878F3F49F40E94491418
:104E9000601B710B6D327140A0F38FE003C08E3F39
:104EA00039F08DE08D83CE010E94A12580E001C004
:104EB00081E0DF91CF911F910F910895CF92DF9202
:104EC000EF92FF920F931F93CF93DF93EC01690151
:104ED000C801820F931F8130924008F06FC08E810D
:104EE000882371F088819981AA81BB81481759076D
:104EF0006A077B0729F48F819885C816D90618F5AB
:104F0000488359836A837B838B85833039F089E0BA
:104F1000440F551F661F771F8A95D1F79A01AB0181
:104F200061E1CE010E940926882319F083E08D8378
:104F300045C0CE010E943927882309F43FC0188656
:104F40001F8281E08E838FEF8EBD2FEF8F8198853A
:104F50008C159D0550F40DB407FEFDCF2EBD8F813D
:104F60009885019698878F83F1CFC8010197F70143
:104F70004FEF9F012E193F092817390738F40DB458
:104F800007FEFDCF2EB521934EBDF3CF0DB407FE26
:104F9000FDCF2EB5F701E80FF91F20838F8198858B
:104FA000080F191F18870F838985882319F00115A9
:104FB000124048F0CE010E94AB2505C0CE010E94F0
:104FC000A12580E001C081E0DF91CF911F910F9179
:104FD000FF90EF90DF90CF900895EF92FF920F93A4
:104FE0001F930115110519F00E945E2701C081E091
:104FF0001F910F91FF90EF900895EF92FF920F9302
:105000001F93790100E012E020E030E00E945E276B
:105010001F910F91FF90EF900895CF93DF93EC01D4
:105020006EBD20E030E00DB407FEFDCFFA01E20FC7
:10503000F31F80818EBD0DB407FEFDCF81818EBD33
:105040002E5F3F4F211582E0380769F70DB407FE48
:10505000FDCF8FEF0E9497258FEF0E9497250E942A
:105060009C258A87982F9F71953039F081E18D8337
:10507000CE010E94A12580E001C081E0DF91CF91A7
:1050800008950F931F93CF93DF93EC01890141158E
:1050900051056105710511F482E132C08B858330C1
:1050A00039F089E0440F551F661F771F8A95D1F7A5
:1050B0009A01AB0168E1CE010E940926882311F014
:1050C00084E01EC0A8016EEFCE010E940D28882347
:1050D000C1F068E572E0CE010E94EE25811102C0A8
:1050E00085E10EC020E030E0A9016DE0CE010E9414
:1050F0000926811104C00E949C25882339F084E18F
:105100008D83CE010E94A12580E004C0CE010E94C3
:10511000A12581E0DF91CF911F910F91089580919A
:10512000671A8823A9F140911002509111026091F1
:105130001202709113022AE63AE18091681A909166
:10514000691A0E944128811102C080E008954091AF
:10515000631A5091641A6091651A7091661A41152C
:1051600051056105710591F02AE63AE18091681ACE
:105170009091691A0E944128882339F31092631A8A
:105180001092641A1092651A1092661A1092671A99
:1051900081E00895CF92DF92EF92FF92CF936B015F
:1051A0007C01C42F8091100290911102A0911202F3
:1051B000B09113028C159D05AE05BF05D1F00E947C
:1051C0008F28811102C080E01AC02AE63AE1B701B7
:1051D000A6018091681A9091691A0E94FD27882380
:1051E00091F3C0921002D0921102E0921202F0925A
:1051F00013028091671AC82BC093671A81E0CF9180
:10520000FF90EF90DF90CF900895CF92DF92EF92D2
:10521000FF926B017C010E948F288823A9F0EAE6A7
:10522000FAE111928CE1EA36F807D9F7C092100240
:10523000D0921102E0921202F09213028091671A4A
:1052400081608093671A81E0FF90EF90DF90CF90AC
:1052500008958F929F92AF92BF92CF92DF92EF927A
:10526000FF920F931F93CF93DF93FC01818592856B
:10527000A385B4850196A11DB11D84179507A607C6
:10528000B70710F480E05CC083899489A589B6894A
:10529000C789C03129F4852E962EA72EBB2409C0BC
:1052A0004A015B01C7E0B694A79497948794CA9586
:1052B000D1F7E9016A017B018F01BC01CD01680DC5
:1052C000791D8A1D9B1D8090100290901102A09064
:1052D0001202B0901302681579058A059B0599F4AE
:1052E000F80187898031A9F4B701A60155276627FF
:1052F0007727440F551FFA01E659F54E80819181B9
:10530000A0E0B0E018C040E00E94CA288111E8CFB8
:10531000B9CFB701A6014F77552766277727440FE6
:10532000551F440F551FFA01E659F54E80819181B2
:10533000A281B381BF7088839983AA83BB8381E0F4
:10534000DF91CF911F910F91FF90EF90DF90CF9061
:10535000BF90AF909F908F9008954F925F926F9201
:105360007F92AF92BF92CF92DF92EF92FF920F9314
:105370001F93CF93DF9300D01F92CDB7DEB78C0180
:1053800049835A836B837C835901C12CD12C7601CC
:10539000412C82E0582E612C712C49815A816B81FD
:1053A0007C819E012F5F3F4FC8010E9429298823DD
:1053B00051F1D301C201F801058404C0880F991F7F
:1053C000AA1FBB1F0A94D2F7C80ED91EEA1EFB1EE5
:1053D00049815A816B817C818789803129F088EFEE
:1053E0009FEFAFEFBFE004C088EF9FEFA0E0B0E019
:1053F000481759076A077B0780F2F501C082D182FE
:10540000E282F38281E00F900F900F900F90DF9176
:10541000CF911F910F91FF90EF90DF90CF90BF90B1
:10542000AF907F906F905F904F9008954F925F92F2
:105430006F927F928F929F92AF92BF92CF92DF92A4
:10544000EF92FF920F931F93CF93DF93EC016A01CA
:105450007B0128013901423051056105710510F4C5
:1054600080E073C089859A85AB85BC850196A11DB6
:10547000B11D84179507A607B70790F38B889C8802
:10548000AD88BE888F89803129F4BB27AF2D9E2D32
:105490008D2D09C0DB01CA0147E0B695A795979508
:1054A00087954A95D1F7880E991EAA1EBB1E80913A
:1054B000100290911102A0911202B091130288166D
:1054C0009906AA06BB0679F48F898031A1F4DD2400
:1054D000EE24FF24C601880F991FFC01E659F54E02
:1054E0005182408219C040E0C501B4010E94CA281F
:1054F0008111EACFB5CFE894C7F8DD24EE24FF246C
:10550000C601880F991F880F991FFC01E659F54EB7
:1055100040825182628273828091671A8160809397
:10552000671A8A89823080F08D819E81AF81B8852B
:10553000880E991EAA1EBB1E8092631A9092641A4E
:10554000A092651AB092661A81E0DF91CF911F9107
:105550000F91FF90EF90DF90CF90BF90AF909F9012
:105560008F907F906F905F904F9008952F923F9211
:105570004F925F926F927F929F92AF92BF92CF9223
:10558000DF92EF92FF920F931F93CF93DF93CDB7EC
:10559000DEB760970FB6F894DEBF0FBECDBF5C01DB
:1055A00049875A876B877C871901D901CD90DD9097
:1055B000ED90FC90C114D104E104F10431F0BFEF8F
:1055C000CB1ADB0AEB0AFB0A10C0FC01C080D180B9
:1055D000E280F3809924939409851A852B853C8574
:1055E000013011052105310509F0912CF501818566
:1055F0009285A385B4858C019D010F5F1F4F2F4FAE
:105600003F4F0D871E872F87388B260137011D825C
:105610001E821F821886F50181859285A385B48537
:105620000D811E812F813885081719072A073B072E
:1056300008F056C02D853E854F85588924153505BF
:105640004605570550F482E0482E512C612C712CF0
:1056500092E0C92ED12CE12CF12C9E012F5F3F4FFF
:10566000B301A201C5010E9429298823C9F14981FA
:105670005A816B817C81D301C2010196A11DB11DAC
:10568000452B462B472B19F06C017D010FC0AC0157
:10569000BD014C195D096E097F0909851A852B85A5
:1056A0003C85401751076207730779F02D813E81D1
:1056B0004F8158852F5F3F4F4F4F5F4F2D833E8364
:1056C0004F8358872C013D01A6CF0FEF1FEF2FEF1F
:1056D0003FE0B301A201C5010E94162A811118C042
:1056E00080E041C0D301C2010197A109B1098D83B6
:1056F0009E83AF83B88793018201AC01BD01C501D0
:105700000E94162A882361F34D805E806F80788422
:10571000C414D504E604F70428F3D1014D915D913A
:105720006D917C91411551056105710599F4F10167
:10573000C082D182E282F3829920A1F0FFEFCF1ADA
:10574000DF0AEF0AFF0AD501CD92DD92ED92FC92BD
:10575000139708C097018601C5010E94162A81117E
:10576000E6CFBECF81E060960FB6F894DEBF0FBEE5
:10577000CDBFDF91CF911F910F91FF90EF90DF9000
:10578000CF90BF90AF909F907F906F905F904F9021
:105790003F902F900895AF92BF92CF92DF92EF92F9
:1057A000FF920F931F93CF93DF9300D01F92CDB73B
:1057B000DEB75C016A017B0182E090E0A0E0B0E02E
:1057C000F50180839183A283B3839E012F5F3F4FB6
:1057D000B701A601C5010E942929882311F100E023
:1057E00010E09801B701A601C5010E94162A88237E
:1057F000C1F0C980DA80EB80FC80F50187898031B7
:1058000029F088EF9FEFAFEFBFE004C088EF9FEF74
:10581000A0E0B0E0C816D906EA06FB06B0F281E0C7
:1058200001C080E00F900F900F900F90DF91CF910B
:105830001F910F91FF90EF90DF90CF90BF90AF90AE
:1058400008958F929F92AF92BF92CF92DF92EF9284
:10585000FF920F931F93CF93DF93EC01142F70935C
:10586000691A6093681A442369F1453010F080E0AA
:10587000F2C040E060E070E0CB010E94CA288823BB
:10588000B1F320E1129FA0011124465A554EFA01AE
:10589000E254FE4F80818F7751F73C968081918151
:1058A000A281B38184369105A105B10500F3349737
:1058B000C080D180E280F380C114D104E104F104FE
:1058C00021F4D5CFC12CD12C760140E0C701B6011F
:1058D0000E94CA28882359F28091751A9091761AED
:1058E0008115924021F690917A1A992309F4BFCF3D
:1058F0002091781A3091791A232B09F4B8CF80912E
:10590000771A882309F4B3CF9A8B8C831D8690E095
:1059100061E070E02D85E22FAB01022E02C0440F42
:10592000551F0A94E2F78417950731F031E0320FE2
:105930003D87283078F39BCF2091801A3091811ACF
:105940002115310519F040E050E008C020918E1A71
:1059500030918F1A4091901A5091911A2D833E8365
:105960004F8358878091781A9091791A4601570190
:10597000880E991EA11CB11C8B8A9C8AAD8ABE8A96
:1059800000917B1A10917C1A198F088FA0917A1AB6
:10599000B0E00E947940860E971EA81EB91E8A8E1E
:1059A0009B8EAC8EBD8E85E0000F111F8A95E1F7AE
:1059B00001501E4F012F11270695800E911EA11C2C
:1059C000B11C8E869F86A88AB98A20917D1A309153
:1059D0007E1A2115310521F0A90160E070E008C0B0
:1059E00040918A1A50918B1A60918C1A70918D1A7D
:1059F000D701C60188199909AA09BB09840F951F07
:105A0000A61FB71F04C0B695A79597958795EA95E9
:105A1000D2F789879A87AB87BC87853F2FE09207AB
:105A2000A105B10510F48CE014C0853F9F4FA1057E
:105A3000B10510F480E10DC08091961A9091971AEB
:105A4000A091981AB091991A8A8F9B8FAC8FBD8FB5
:105A500080E28F8B81E0DF91CF911F910F91FF90BA
:105A6000EF90DF90CF90BF90AF909F908F90089570
:105A70002F923F924F925F926F927F928F929F925E
:105A8000AF92BF92CF92DF92EF92FF920F931F934C
:105A9000CF93DF9300D0CDB7DEB74C017B836A8311
:105AA0006A01590117019801241B350B37FF03C008
:105AB000319521953109C5014A815B81841B950B84
:105AC00097FF03C091958195910951E05983821701
:105AD000930714F019820BC09A2D8B2D5801092FB2
