:100000000C9418040C9449040C9449040C9449046D
:100010000C9449040C9449040C9449040C9449042C
:100020000C9449040C9449040C9449040C9449041C
:100030000C9449040C9449040C9449040C9449040C
:100040000C9449040C9449040C9449040C944904FC
:100050000C9449040C9449040C9449040C94F11335
:100060000C9449040C94E6170C94B2180C944904AF
:100070000C9449040C9449040C9449040C944904CC
:100080000C9449040C9449040C9449040C944904BC
:100090000C9419180C94F1180C9449040C9449040C
:1000A0000C9449040C9449040C9449040C9449049C
:1000B0000C9449040C9449040C9449040C9449048C
:1000C0000C9449040C9449040C9449040C944C1865
:1000D0000C9430190C9449040C947F180C946F19EB
:1000E0000C9449043015331526152A156A15371551
:1000F0003B154115451549154F15531557156A15EB
:100100005D15611565150C940E2D0C94F61D0C945F
:10011000E82D0C94E4340C94BF2D0C9445150C94EC
:10012000E02E0C94B82D0C9449150C94B52F0C941A
:10013000E72D0C9461150C94D72D0C9408340C9475
:100140002D2E0C94CB2D0C94271D0C9400160C9482
:10015000461D0C94F51C0C9465150C9422350C94DA
:1001600043170C940B1D0C94B72D0C943B150C9459
:100170002A150C94501D0C9432170C941D330C94BA
:100180005D150C9453150C943E380C9457150C9433
:1001900033150C9470340C9413340C9430150C9467
:1001A000DE1C0C9426150C944F150C94361A0C94E6
:1001B00037150C94AA340C9433170C948A170C94AA
:1001C000562F0C945F170C947F170C94B62F0C9439
:1001D000510A0C94E6390C9441150C9427340C9474
:1001E000F2370C943A340C94712E0C94C22E0C9469
:1001F0006B390C945C250C946A150000090A0208FE
:100200000B0C0D07060304010000000000000000B5
:1002100000000000000000000000000000000000DE
:1002200000000000000011100F000000000000009E
:1002300000000000000000000000000000000000BE
:1002400001021020200808102040102040800201E8
:1002500002010804020101020408102040808040CD
:1002600020100804020180040201804020100804CC
:10027000020108040201010204081020408001026A
:100280000408102040800505050507050808080832
:10029000020202020A0A080804040404010101011E
:1002A0000101010103030303030303030407070719
:1002B0000C0C0C0C0C0C0C0C0202020206060606BE
:1002C000060606060B0B0B0B0B0B0B0B000020009E
:1002D0002300260029002C002F003200000100001E
:1002E00003010601090100002200250028002B005F
:1002F0002E003100340002010000050108010B014D
:1003000000002100240027002A002D0030003300C7
:1003100001010000040107010A017C3C3E5E2B3D07
:100320003F2F5B5D3B2C2A225C0000000000003E5A
:100330005B4F5B3E3E6B4F6B3E1C3E7C3E1C183C55
:100340007E3C181C577D571C1C5E7F5E1C00183CB1
:100350001800FFE7C3E7FF0018241800FFE7DBE7FA
:10036000FF30483A060E2629792926407F050507E1
:10037000407F05253F5A3CE73C5A7F3E1C1C08083D
:100380001C1C3E7F14227F22145F5F005F5F060902
:100390007F017F006689956A606060606094A2FF5B
:1003A000A29408047E040810207E201008082A1C4D
:1003B00008081C2A08081E101010100C1E0C1E0C19
:1003C00030383E3830060E3E0E06000000000000B9
:1003D000005F00000007000700147F147F14242A28
:1003E0007F2A1223130864623649562050000807FA
:1003F0000300001C2241000041221C002A1C7F1C1B
:100400002A08083E0808008070300008080808081C
:10041000000060600020100804023E5149453E0083
:10042000427F400072494949462141494D331814E1
:10043000127F1027454545393C4A49493141211130
:1004400009073649494936464949291E0000140022
:100450000000403400000008142241141414141445
:10046000004122140802015909063E415D594E7CA3
:100470001211127C7F494949363E414141227F4158
:1004800041413E7F494949417F090909013E4141B6
:1004900051737F0808087F00417F41002040413FA1
:1004A000017F081422417F404040407F021C027FB0
:1004B0007F0408107F3E4141413E7F090909063E05
:1004C0004151215E7F0919294626494949320301D4
:1004D0007F01033F4040403F1F2040201F3F4038E6
:1004E000403F631408146303047804036159494DC1
:1004F00043007F4141410204081020004141417FF7
:10050000040201020440404040400003070800206C
:10051000545478407F28444438384444442838446C
:1005200044287F385454541800087E090218A4A4A3
:100530009C787F0804047800447D40002040403DC2
:10054000007F1028440000417F40007C047804783C
:100550007C080404783844444438FC1824241818CF
:10056000242418FC7C08040408485454542404042B
:100570003F44243C4040207C1C2040201C3C403018
:10058000403C44281028444C9090907C4464544C47
:1005900044000836410000007700000041360800A2
:1005A00002010204023C2623263C1EA1A161123A4C
:1005B0004040207A38545455592155557941225498
:1005C000547842215554784020545579400C1E529D
:1005D0007212395555555939545454593955545442
:1005E000580000457C410002457D420001457C40A9
:1005F0007D1211127DF0282528F07C5455450020ED
:1006000054547C547C0A097F4932494949323A445E
:1006100044443A324A4848303A4141217A3A4240C9
:100620002078009DA0A07D3D4242423D3D4040409B
:100630003D3C24FF2424487E4943662B2FFC2F2B6E
:10064000FF0929F620C0887E09032054547941000F
:1006500000447D413048484A32384040227A007A8E
:100660000A0A727D0D19317D2629292F282629296C
:10067000292630484D40203808080808080808088E
:10068000382F10C8ACBA2F102834FA00007B0000B5
:1006900008142A142222142A14085500550055AAB9
:1006A00055AA55AAFF55FF55FF000000FF00101086
:1006B00010FF00141414FF001010FF00FF1010F0C2
:1006C00010F0141414FC001414F700FF0000FF00D5
:1006D000FF1414F404FC141417101F10101F101F23
:1006E0001414141F00101010F0000000001F101050
:1006F00010101F10101010F010000000FF1010104C
:10070000101010101010FF10000000FF140000FF68
:1007100000FF00001F10170000FC04F41414171051
:10072000171414F404F40000FF00F7141414141444
:100730001414F700F7141414171410101F101F14BA
:100740001414F4141010F010F000001F101F00001B
:10075000001F14000000FC140000F010F01010FF47
:1007600010FF141414FF141010101F00000000F0EC
:1007700010FFFFFFFFFFF0F0F0F0F0FFFFFF0000C1
:10078000000000FFFF0F0F0F0F0F3844443844FCE8
:100790004A4A4A347E02020606027E027E026355FF
:1007A0004941633844443C04407E201E2006027EBA
:1007B000020299A5E7A5991C2A492A1C4C720172CC
:1007C0004C304A4D4D303048784830BC625A463D36
:1007D0003E494949007E0101017E2A2A2A2A2A44EB
:1007E000445F444440514A444040444A5140000020
:1007F000FF0103E080FF000008086B6B083612362B
:100800002436060F090F060000181800000010100B
:10081000003040FF0101001F01011E00191D1712C9
:10082000003C3C3C3C0000000000510A361ADE1C33
:1008300011241FBECFEFD1E2DEBFCDBF00E00CBF61
:1008400013E0A0E0B2E0E0EEF0E800E00BBF02C091
:1008500007900D92AA3CB107D9F72CE1AAECB3E0BE
:1008600001C01D92AA32B207E1F714E0C8E1D4E05A
:1008700000E006C021970109802FFE010E94294057
:10088000C531D10780E00807A9F70E94370F0C9403
:100890008A3D0C9400002F923F924F925F926F928C
:1008A0007F928F929F92AF92BF92CF92DF92EF9200
:1008B000FF920F931F93CF93DF93CDB7DEB7CA5448
:1008C000D1090FB6F894DEBF0FBECDBF9CAF8BAF82
:1008D0004B0158AF4FAB39011EAF0DAF2196FFAEA4
:1008E000EEAE21972396BFAEAEAE23970DB71EB7DF
:1008F00025961FAF0EAF25978E01045E1F4FC801CE
:100900000E94AF1DABADBCAD4D915C9121E064ED9B
:1009100079E1CE0101960E945C1C8B819C819F8FA6
:100920008E8F8D819E81AF81B88588A399A3AAA35C
:10093000BBA389859A85AB85BC858CA39DA3AEA3FB
:10094000BFA38DE0FE013D96DE01989601900D92C9
:100950008A95E1F78A8D9B8D9EAB8DABC8010E9475
:10096000371EF82ECE0101960E94C21DFF20C1F055
:10097000F601EE0FFF1FFAAFE9AF1301412C512C26
:10098000E12CF12CAFA9B8ADCD01A0E0B0E02996E3
:100990008CAF9DAFAEAFBFAF2997702E612E29C02F
:1009A0006AE172E082E997E10E943D16EBADFCAD91
:1009B0006081718182E997E10E943D1667E282E9D8
:1009C00097E10E946C16A6C0D401ED91FC910288BB
:1009D000F389E02DC40119950FB6F894BEBE0FBE81
:1009E000ADBEBFEFEB1AFB0AEFEF2E1A3E0A4E0A1E
:1009F0005E0A23960EAD1FAD2397E016F10609F4AB
:100A000082C0ADB6BEB60DB71EB729AD3AAD021B5A
:100A1000130B0FB6F8941EBF0FBE0DBF8DB79EB758
:100A2000019698AF8FABEBADFCADA281B381A20173
:100A300091010E944F4029960CAD1DAD2EAD3FADEA
:100A40002997060F171F281F391FB901A801440F46
:100A5000551F661F771F872D962D0E94CD1D49AD0E
:100A60005AAD6FA978AD872D962D0E94C31D29AD73
:100A70003AAD8217930781F06BE272E082E997E169
:100A80000E945A16872D962D0E94251E0FB6F894A7
:100A9000BEBE0FBEADBE3EC0D401ED91FC9106803E
:100AA000F781E02DC401199501E010E0960121962F
:100AB0004EAD5FAD21974E0D5F1D6DAD7EADC40196
:100AC0000E9464380FA918AD20E030E02C153D05D8
:100AD00009F47ACFF801619171918F017627672728
:100AE0007627C4012A962FAF2A972B963FAF2B97D4
:100AF0000E9415392A962FAD2A972B963FAD2B973A
:100B00002F5F3F4FE3CFCE014C960E94251ECE01B2
:100B10004C9602C0CE014C960E94C21D25962EAD69
:100B20003FAD25970FB6F8943EBF0FBE2DBFC65BF5
:100B3000DF4F0FB6F894DEBF0FBECDBFDF91CF9170
:100B40001F910F91FF90EF90DF90CF90BF90AF90EB
:100B50009F908F907F906F905F904F903F902F90DD
:100B6000089520910502309106028091EC16909133
:100B7000ED16820F931F40910702509108022091B9
:100B8000EE163091EF16240F351F213048E0340760
:100B900014F020E038E037FF02C020E030E030936E
:100BA000EB162093EA16813028E0920714F080E0DB
:100BB00098E097FF02C080E090E09093E916809360
:100BC000E8160895AF92BF92CF92DF92EF92FF9214
:100BD0000F931F932091070230910802213F46E0B6
:100BE000340714F020EF36E037FF02C020E030E099
:100BF000309308022093070280910502909106022B
:100C0000813147E0940714F080E197E097FF02C03C
:100C100080E090E090930602809305024091EE16EA
:100C20005091EF16452BC9F4203141E034073CF0D8
:100C300020513140309308022093070206C0232B35
:100C400061F0109208021092070226E031E0309322
:100C5000EF162093EE1621E001C020E04091EE1641
:100C60005091EF1647305140F1F4409107025091F6
:100C70000802413E35E053073CF4405F5E4F50931D
:100C800008024093070209C0403F564061F020EF40
:100C900036E0309308022093070221E030E03093E1
:100CA000EF162093EE164091EC165091ED16452B61
:100CB000B9F4803F91053CF0805F91099093060262
:100CC0008093050206C0892B59F0109206021092FB
:100CD000050285EE90E09093ED168093EC1621E0EE
:100CE0008091EC169091ED16873E9105D9F4809194
:100CF000050290910602813246E094071CF480516F
:100D00009F4F05C08031974069F080E197E0909354
:100D100006028093050281E090E09093ED168093A7
:100D2000EC1602C02223C9F0209105023091060280
:100D3000409107025091080280EFA82EB12C90E15B
:100D4000C92EDD24D394E12CF12C00E010E060EFFB
:100D500076E189E092E00E944B041F910F91FF9091
:100D6000EF90DF90CF90BF90AF900895CF92DF9239
:100D7000EF92FF920F931F93CF93DF93EC018B01C0
:100D80006C0197FF03C087E0C80ED11C93E0D59497
:100D9000C7949A95E1F70D2C000CEE08FF0889E046
:100DA000D80E8DE3E81EF11C8FEFC81688E0D80638
:100DB0008DE3E806F104E1F4CE0168E070E00E9402
:100DC000D43FFC0186E0EE0FFF1F8A95E1F7E8575C
:100DD000FB4E80E4D80101900D928A95E1F7DF91F6
:100DE000CF911F910F91FF90EF90DF90CF900895DA
:100DF00028E834E1B701A60188EC96E10E94D327E8
:100E00008111DACF6FE372E082E997E10E945A160E
:100E1000EFCFAF92BF92CF92DF92EF92FF920F93FC
:100E20001F931F921F9228E02F931F92A12CB12C89
:100E3000650118E8E12E10E1F12E03E51FEF24E330
:100E400037E842E55FEF0E94081B0F900F900F906C
:100E50000F90CB011F910F91FF90EF90DF90CF90FB
:100E6000BF90AF900895AF92BF92CF92DF92EF9272
:100E7000FF920F931F931F921F9228E02F931F92B0
:100E8000A12CB12C650119E1E12E1FE7F12E01E53E
:100E900010E022EC30ED41E550E00E94081B0F907D
:100EA0000F900F900F90CB011F910F91FF90EF903B
:100EB000DF90CF90BF90AF900895CF92DF92EF92E6
:100EC000FF920F931F93FC010081118122813381D6
:100ED000FB01C080D180E280F380FC01C082D1821E
:100EE000E282F382FB0100831183228333831F910B
:100EF0000F91FF90EF90DF90CF900895AF92BF9247
:100F0000CF92DF92EF92FF920F931F93CF93DF93D5
:100F10005B0104967C0101E010E00A151B0504F555
:100F2000E70168011C141D04ACF49E012450310932
:100F3000CE01E901FC013297408151812E813F8130
:100F40002417350738F4BE010E945D0781E0C81AF6
:100F5000D108E8CF0F5F1F4F84E0E80EF11CDDCF12
:100F6000DF91CF911F910F91FF90EF90DF90CF9085
:100F7000BF90AF9008956F927F928F929F92AF92A1
:100F8000BF92CF92DF92EF92FF920F931F93CF9376
:100F9000DF936C017B013A015A01AA0CBB1CAA0C1D
:100FA000BB1CA80EB91EF50182809380EB0121972E
:100FB0008B01000F111F000F111F080F191FE614DE
:100FC000F704BCF4F801828193818816990658F0E1
:100FD0002196CE01880F991F880F991FB8018C0D9B
:100FE0009D1D0E945D07FFEFEF1AFF0A0C5F1F4F68
:100FF000E6CF2196CE01880F991F880F991FB50162
:101000008C0D9D1D0E945D07CE01DF91CF911F9138
:101010000F91FF90EF90DF90CF90BF90AF909F9097
:101020008F907F906F900895CF92DF92EF92FF9212
:101030000F931F93CF93DF937C01EB016A01CC15D3
:10104000DD0584F4A601BE01C7010E94BB078C0127
:10105000AC0141505109BE01C7010E941408E801CA
:101060002196EDCFDF91CF911F910F91FF90EF90DF
:10107000DF90CF900895AF92BF92CF92DF92EF9220
:10108000FF920F931F93CF93DF9300D000D0CDB783
:10109000DEB784ED96E10E94553A4B835C836D8305
:1010A0007E836B817C81072E000C880B990B1F922D
:1010B0001F921F921F922FE3A22EBB24B394C12C28
:1010C000D12C18EEE12E13E0F12E00E010E02AE022
:1010D00030E040E050E00E94081B0F900F900F900E
:1010E0000F90653071400CF077C08D819E810A971A
:1010F0008F3D934008F070C0E12CF12C68E876E158
:10110000C7010E94B6062091901630E023303105C9
:101110002CF02F5F3F4F3595279502C021E030E03E
:101120008091030290910402281739070CF44BC0F8
:1011300060918C1670918D1680918E1690918F16FD
:101140000E9409079093D7038093D6036091881675
:101150007091891680918A1690918B160E943307A0
:101160009093D5038093D4036091D6037091D703F5
:1011700020910702309108026217730724F1A90138
:10118000495F5E4F46175707F4F0409105025091B2
:10119000060284179507BCF0FA01E951FF4FE817E2
:1011A000F9078CF0841B950BAC0141505109621B6F
:1011B000730B615071090FE110E024E030E080EF23
:1011C00096E10E94C0308FEFE81AF80A2BE2E2168F
:1011D00024E0F20609F092CF26960FB6F894DEBF0F
:1011E0000FBECDBFDF91CF911F910F91FF90EF9078
:1011F000DF90CF90BF90AF9008954F925F926F9223
:101200007F92AF92BF92CF92DF92EF92FF920F93B5
:101210001F93CF93DF9300D000D0CDB7DEB784ED1E
:1012200096E10E94553A29833A834B835C836D8310
:101230007E836B817C81072E000C880B990B1F929B
:101240001F921F921F922FE3A22EBB24B394C12C96
:10125000D12C18EEE12E13E0F12E00E010E02AE090
:1012600030E040E050E00E94081B2B013C01698106
:101270007A81072E000C880B990B1F921F921F92E8
:101280002FEE2F93A12CB12C65012AE030E040E035
:1012900050E00E94081B24E0421A21E0520A0FB6D7
:1012A000F894DEBF0FBECDBF3DE34316510408F0F6
:1012B0005AC06937710508F056C08D819E810A9722
:1012C0008F3D934008F04FC060E672E082E997E1FD
:1012D0000E945A1664EF71E080E090E00E946C1466
:1012E0001092020210920102809103029091040276
:1012F0009C01215031092430310510F4019604C0BD
:10130000059734F081E090E090930402809303020B
:1013100044E350E065E271E080EF96E10E94F33330
:1013200062E080EF96E10E94F933609103027091D0
:1013300004024AE050E080EF96E126960FB6F8945A
:10134000DEBF0FBECDBFDF91CF911F910F91FF90F8
:10135000EF90DF90CF90BF90AF907F906F905F90B5
:101360004F900C941E1726960FB6F894DEBF0FBE52
:10137000CDBFDF91CF911F910F91FF90EF90DF9044
:10138000CF90BF90AF907F906F905F904F900895F7
:10139000EF92FF920F931F93CF93DF93109202026D
:1013A0001092010200E010E0C0E0D0E068E876E1D1
:1013B000C8010E94B6062091901630E02330310516
:1013C0002CF02F5F3F4F3595279502C021E030E08C
:1013D0008091030290910402281739070CF453C03E
:1013E00080910102909102020196909302028093F3
:1013F0000102CE01880F991F880F991F9C0120526E
:101400003C4F7901F9011183008360918C16709132
:101410008D1680918E1690918F160E9409079093D9
:10142000CD038093CC0360918816709189168091CA
:101430008A1690918B160E9433079093CF03809366
:10144000CE032091EA163091EB164091CC035091D7
:10145000CD03B901641B750B77FF03C071956195CE
:1014600071094091E8165091E9169A01281B390B31
:1014700037FF03C0319521953109260F371FF7013A
:101480003383228321960F5F1F4F0B32F4E01F0737
:1014900009F08CCFDF91CF911F910F91FF90EF90CA
:1014A0000895EF92FF920F932FEF49E06AE080EFEB
:1014B00096E10E943B358CE2E82EFF24F39405E090
:1014C00029E348E364E084ED96E10E94AF3BE8EC59
:1014D000F6E115821682118613860F91FF90EF9028
:1014E00008958F929F92AF92BF92CF92DF92EF9228
:1014F000FF920F931F93CF93DF937C018B0140E00A
:1015000050E060E070E080EF96E10E94F33361E02C
:1015100080EF96E10E94F9338091D0039091D1033E
:10152000892B09F45CC08091DC039091DD038E155A
:101530009F0509F4A7C0E8015801AA0CBB1CAA0C1E
:10154000BB1C00E010E06E018EE1C80ED11CCC1572
:10155000DD0508F097C0CE15DF0591F4FE01EE0F12
:10156000FF1FEE0FFF1FE052FC4F68E876E180811D
:1015700091810E94B6064FEF5FEF60E070E016C009
:101580008091DC039091DD03C817D907B1F4F8010D
:10159000EA0DFB1DE052FC4F68E876E18081918105
:1015A0000E94B60640E050E06FEF7FEF80EF96E1DB
:1015B0000E94FF3361E976E10AC040E050E06FEF3E
:1015C0007FEF80EF96E10E94FF336EE772E080EFDD
:1015D00096E10E945A1621960C5F1F4FB8CF60E02B
:1015E00070E080EF96E10E94C22EE8015801AA0C3B
:1015F000BB1CAA0CBB1C00E010E06E018EE1C80E03
:10160000D11C88248394912CCC15DD05D8F5F801E4
:10161000EA0DFB1DE052FC4F68E876E18081918184
:101620000E94B6068091010290910202C817D90764
:101630005CF040E050E060E070E080EF96E10E94F6
:10164000FF336FE672E012C0CE15DF0529F44FEFCD
:101650005FEF60E070E004C040E050E06FEF7FEFCC
:1016600080EF96E10E94FF3361E976E180EF96E139
:101670000E945A169092D1038092D00321960C5F5B
:101680001F4FC2CFDF91CF911F910F91FF90EF902D
:10169000DF90CF90BF90AF909F908F9008958F92E2
:1016A0009F92AF92BF92CF92DF92EF92FF920F93F1
:1016B0001F93CF93DF93EC014B01790180910502D9
:1016C00090910602280F391FE0910702F09108025D
:1016D000E40FF51F89E0A82EB12C99E0C92ED12C7A
:1016E0008A01AF0160EF76E189E092E00E944B044D
:1016F000E12C28EFF22E09E010E029E030E0A4010F
:10170000BE0180EF96E10E94E434DF91CF911F91FA
:101710000F91FF90EF90DF90CF90BF90AF909F9090
:101720008F900895CF92DF92EF92FF920F931F93C5
:10173000CF93DF9386E30E94F4146C0187E30E9449
:10174000F414EC0182E00E94D7150091EE1610917E
:10175000EF16E090EC16F090ED1620E032E0C901B3
:101760008C199D0997FDCF9636E0959587953A950A
:10177000E1F7800F911F883021E0920714F087E095
:1017800091E097FF02C080E090E09093EF16809385
:10179000EE16CE01925097FDCF9626E0959587954F
:1017A0002A95E1F78E0D9F1D883E910514F087EE76
:1017B00090E097FF02C080E090E09093ED16809358
:1017C000EC160E94E2058091EE169091EF16609162
:1017D000EC167091ED168017910719F46E157F05C0
:1017E00021F09701A8010E944F0B6AE070E080E0B1
:1017F00090E0DF91CF911F910F91FF90EF90DF90DC
:10180000CF900C946C14AF92BF92CF92DF92EF9274
:10181000FF920F931F930E94921440E855E260E0FC
:1018200070E082E997E10E94AE1962E082E00E94D6
:101830006B1540E050E0BA0180EF96E10E94FC3564
:101840006FE772E082E997E10E943D1666E084ED61
:1018500099E10E94491B811107C067E972E082E9A2
:1018600097E10E945A16FFCF68EB72E082E997E198
:101870000E945A1660E070E080EF96E10E94C22E4E
:1018800063E080EF96E10E94F23780EFA82EB12C42
:1018900090E1C92EDD24D394E12CF12C00E010E07E
:1018A00028E833E048E753E060EF76E189E092E032
:1018B0000E944B0483E890E09093EF168093EE161D
:1018C00083E790E09093ED168093EC1623E730E0E9
:1018D00043E850E063E770E083E890E00E944F0B3C
:1018E000EE24EA94FE2C07E710E020E330E049E71D
:1018F00050E060E171E080EF96E10E94E43430EE68
:10190000E32E37E0F32E20E330E049E750E060E1DA
:1019100071E080EF96E10E94562FEE24EA94FE2CAF
:1019200020E330E040E050E060E171E080EF96E1DC
:101930000E94E434E12C58EFF52E20E330E040E043
:1019400050E060E171E080EF96E10E94562F4FEF8A
:101950005FEF60E070E080EF96E10E94FF3344E3C8
:1019600050E065E271E080EF96E10E94F33362E0BF
:1019700080EF96E10E94F9336091030270910402B6
:101980004AE050E080EF96E10E941E174FEF5FEFB4
:1019900060E070E080EF96E10E94FF334DE850E098
:1019A00065E271E080EF96E10E94F33362E080EF40
:1019B00096E10E94F9336CEB72E080EF96E10E94B1
:1019C0003D164EE950E065E271E080EF96E10E943D
:1019D000F33362E080EF96E10E94F9336EEB72E040
:1019E00080EF96E10E943D164FEA50E065E271E01B
:1019F00080EF96E10E94F33362E080EF96E10E946F
:101A0000F93360EC72E080EF96E10E943D1640EC05
:101A100050E065E271E080EF96E10E94F33362E00E
:101A200080EF96E10E94F93362EC72E080EF96E17C
:101A30000E943D1641ED50E065E271E080EF96E1D5
:101A40000E94F33362E080EF96E10E94F93364EC88
:101A500072E080EF96E10E943D1661E080EF96E132
:101A60000E94F93360E080EF96E10E94053466EC55
:101A700072E082E997E10E943D1646E061E088EC61
:101A800096E10E944126811107C066EF72E082E96B
:101A900097E10E945A16FFCF68EB72E082E997E166
:101AA0001F910F91FF90EF90DF90CF90BF90AF907C
:101AB0000C945A164F925F926F927F92AF92BF92A0
:101AC000CF92DF92EF92FF920F931F93CF93DF930A
:101AD00000D000D0CDB7DEB784ED96E10E94553A34
:101AE00029833A834B835C836D837E836B817C8106
:101AF000072E000C880B990B1F921F921F921F92AA
:101B0000EFE3AE2EBB24B394C12CD12C18EEE12E02
:101B100013E0F12E00E010E02AE030E040E050E079
:101B20000E94081B2B013C0169817A81072E000C61
:101B3000880B990B1F921F921F922FEE2F93A12CAF
:101B4000B12C65012AE030E040E050E00E94081B23
:101B500024E0421A21E0520A0FB6F894DEBF0FBE0D
:101B6000CDBF3DE34316510408F06CC1CB0189574A
:101B700091098837910508F065C18D819E810A978A
:101B80008F3D934008F05EC164EF71E080E090E02B
:101B90000E946C14809100028823D1F181E080932F
:101BA000CB0310920002EE24EA94FE2C07E710E02B
:101BB00020E330E049E750E060E171E080EF96E13A
:101BC0000E94E43450EEE52E57E0F52E20E330E09D
:101BD00049E750E060E171E080EF96E10E94562F06
:101BE0004FEF5FEF60E070E080EF96E10E94FF331F
:101BF0004DE850E065E271E080EF96E10E94F3333A
:101C000062E080EF96E10E94F9336DE173E0B6C0C7
:101C10008091CB03882309F473C081E08093CA03C9
:101C20001092CB03EE24EA94FE2C07E710E020E3A9
:101C300030E049E750E060E171E080EF96E10E941A
:101C4000E43430EEE32E37E0F32E20E330E049E7D2
:101C500050E060E171E080EF96E10E94562F4FEF77
:101C60005FEF60E070E080EF96E10E94FF3342E9B1
:101C700050E065E271E080EF96E10E94F33362E0AC
:101C800080EF96E10E94F9336FE173E080EF96E117
:101C90000E943D1643EA50E065E271E080EF96E174
:101CA0000E94F33362E080EF96E10E94F93360EC2A
:101CB00072E080EF96E10E943D1644EB50E065E251
:101CC00071E080EF96E10E94F33362E080EF96E1ED
:101CD0000E94F93364EC72E080EF96E10E943D16B9
:101CE00045EC50E065E271E080EF96E10E94F3334D
:101CF00062E080EF96E10E94F93361E273E08AC00E
:101D00008091CA03882309F49DC081E0809300027A
:101D10001092CA03EE24EA94FE2C07E710E020E3B9
:101D200030E049E750E060E171E080EF96E10E9429
:101D3000E43490EEE92E97E0F92E20E330E049E715
:101D400050E060E171E080EF96E10E94562F4FEF86
:101D50005FEF60E070E080EF96E10E94FF334DE8B6
:101D600050E065E271E080EF96E10E94F33362E0BB
:101D700080EF96E10E94F9336CEB72E080EF96E120
:101D80000E943D164EE950E065E271E080EF96E179
:101D90000E94F33362E080EF96E10E94F9336EEB2C
:101DA00072E080EF96E10E943D164FEA50E065E256
:101DB00071E080EF96E10E94F33362E080EF96E1FC
:101DC0000E94F93360EC72E080EF96E10E943D16CC
:101DD00040EC50E065E271E080EF96E10E94F33361
:101DE00062E080EF96E10E94F93362EC72E080EFEE
:101DF00096E10E943D1641ED50E065E271E080EF12
:101E000096E10E94F33362E080EF96E10E94F9339D
:101E100064EC72E080EF96E126960FB6F894DEBF90
:101E20000FBECDBFDF91CF911F910F91FF90EF902B
:101E3000DF90CF90BF90AF907F906F905F904F906A
:101E40000C943D1626960FB6F894DEBF0FBECDBF9C
:101E5000DF91CF911F910F91FF90EF90DF90CF9086
:101E6000BF90AF907F906F905F904F900895CF9309
:101E7000DF93CDB7DEB7C054D1090FB6F894DEBFFB
:101E80000FBECDBF0E94030C00E010E0B3E72B2E85
:101E9000312C8DE1682E712C0E94FD080E943B08B8
:101EA0000E945A0D0E94B1050E94920B82E00E948E
:101EB000D7152C01012B09F48BC260E070E080EF94
:101EC00096E10E94C22EE091DE03F091DF03EE0F57
:101ED000FF1FEE0FFF1FE052FC4FBE016F5F7F4FF1
:101EE000808191810E94B6066D817E818F81988567
:101EF0000E9409079093D7038093D60369817A8162
:101F00008B819C810E9433079093D5038093D403E7
:101F10004091070250910802413F86E0580714F0B3
:101F200040EF56E057FF02C040E050E050930802F7
:101F3000409307022091050230910602213197E07B
:101F4000390714F020E137E037FF02C020E030E02D
:101F5000309306022093050260EFA62EB12C70E1AB
:101F6000C72EDD24D394E12CF12C00E010E060EFCB
:101F700076E189E092E00E944B0480910002882380
:101F800009F46EC0EE24EA94FE2C07E710E020E38B
:101F900030E040E050E060E171E080EF96E10E94C7
:101FA000E434E12CB8EFFB2E20E330E040E050E0D9
:101FB00060E171E080EF96E10E94562F4FEF5FEFF6
:101FC00060E070E080EF96E10E94FF3344E350E070
:101FD00065E271E080EF96E10E94F33362E080EF0A
:101FE00096E10E94F93360910302709104024AE085
:101FF00050E080EF96E10E941E17EE24EA94FE2C3A
:1020000020E330E049E750E060E171E080EF96E1E5
:102010000E94E43490EEE92E97E0F92E20E330E0C0
:1020200049E750E060E171E080EF96E10E94562FB1
:102030004FEF5FEF60E070E080EF96E10E94FF33CA
:102040004DE850E065E271E080EF96E10E94F333E5
:1020500062E080EF96E10E94F9336CEB72E072C0AF
:102060008091CB03882309F4BAC0EE24EA94FE2CB5
:1020700007E710E020E330E040E050E060E171E08D
:1020800080EF96E10E94E434E12C78EFF72E20E314
:1020900030E040E050E060E171E080EF96E10E94C6
:1020A000562F4FEF5FEF60E070E080EF96E10E9407
:1020B000FF3344E350E065E271E080EF96E10E9477
:1020C000F33362E080EF96E10E94F93360910302FE
:1020D000709104024AE050E080EF96E10E941E17E2
:1020E000EE24EA94FE2C20E330E049E750E060E182
:1020F00071E080EF96E10E94E434F0EEEF2EF7E01D
:10210000FF2E20E330E049E750E060E171E080EF2E
:1021100096E10E94562F4FEF5FEF60E070E080EF96
:1021200096E10E94FF334DE850E065E271E080EFF8
:1021300096E10E94F33362E080EF96E10E94F9336A
:102140006DE173E080EF96E10E943D164EE950E0AC
:1021500065E271E080EF96E10E94F33362E080EF88
:1021600096E10E94F9336EEB72E080EF96E10E94F7
:102170003D164FEA50E065E271E080EF96E10E9483
:10218000F33362E080EF96E10E94F93360EC72E095
:1021900080EF96E10E943D1640EC50E065E271E070
:1021A00080EF96E10E94F33362E080EF96E10E94B7
:1021B000F93362EC72E080EF96E10E943D1641ED4A
:1021C00050E065E271E080EF96E10E94F33362E057
:1021D00080EF96E10E94F93364EC72E0ABC080912D
:1021E000CA03882309F4AAC0EE24EA94FE2C07E768
:1021F00010E020E330E040E050E060E171E080EF8B
:1022000096E10E94E434E12C38EFF32E20E330E035
:1022100040E050E060E171E080EF96E10E94562FCF
:102220004FEF5FEF60E070E080EF96E10E94FF33D8
:1022300044E350E065E271E080EF96E10E94F33301
:1022400062E080EF96E10E94F933609103027091A1
:1022500004024AE050E080EF96E10E941E17EE244F
:10226000EA94FE2C20E330E049E750E060E171E0C1
:1022700080EF96E10E94E43450EEE52E57E0F52E13
:1022800020E330E049E750E060E171E080EF96E163
:102290000E94562F4FEF5FEF60E070E080EF96E115
:1022A0000E94FF3342E950E065E271E080EF96E181
:1022B0000E94F33362E080EF96E10E94F9336FE110
:1022C00073E080EF96E10E943D1643EA50E065E23C
:1022D00071E080EF96E10E94F33362E080EF96E1D7
:1022E0000E94F93360EC72E080EF96E10E943D16A7
:1022F00044EB50E065E271E080EF96E10E94F33339
:1023000062E080EF96E10E94F93364EC72E080EFC6
:1023100096E10E943D1645EC50E065E271E080EFE9
:1023200096E10E94F33362E080EF96E10E94F93378
:1023300061E273E080EF96E10E943D164091070252
:102340005091080220910502309106024115510575
:1023500059F0403F86E0580739F02115310521F04A
:10236000203197E03907F1F48091D6039091D7039B
:10237000841B950B8D3041E0940714F4059702C03F
:1023800087E091E09093EF168093EE168091D4034E
:102390009091D503821B930B05979093ED16809334
:1023A000EC160AC083E890E09093EF168093EE1647
:1023B0003092ED162092EC166091EC167091ED16AD
:1023C0008091EE169091EF169B01AC010E944F0B8D
:1023D00000E010E0452809F05FCD809100028823DD
:1023E000C9F00E94C8090E943B144B015C01609136
:1023F00001027091020280EE93E00E947E070E942B
:102400003B146B017C01C818D908EA08FB0863E299
:1024100073E05FC08091CB0381113FC08091CA03FC
:10242000882309F478C00E94C8090E943B144B011C
:102430005C01609101027091020280EE93E00E94C3
:102440007E070E943B146B017C01C818D908EA087A
:10245000FB0863E273E082E997E10E943D16609118
:102460000102709102024AE050E082E997E10E9485
:102470001E176AE273E082E997E10E943D162AE0A6
:1024800030E0B701A60182E997E10E94251769E3D0
:1024900073E082E997E10E945A160E94C8090E94DF
:1024A0003B144B015C0140910102509102024150EA
:1024B000510960E070E080EE93E00E9414080E94F1
:1024C0003B146B017C01C818D908EA08FB086DE3CE
:1024D00073E082E997E10E943D16609101027091DC
:1024E00002024AE050E082E997E10E941E176AE288
:1024F00073E082E997E10E943D162AE030E0B701DF
:10250000A60182E997E10E94251769E373E082E959
:1025100097E10E945A1660E070E080EF96E10E9419
:10252000C22E1092DF031092DE031092DB03109292
:10253000DA031092D9031092D80381E090E09093CF
:10254000D3038093D2031092D1031092D003109240
:10255000DD031092DC0360E070E080E090E00E9418
:10256000710A00E010E09EE1492E512C8091D203C7
:102570009091D303892B09F48FCC87E30E94F41444
:102580007C0182E00E94D71590E4E91692E0F906FA
:102590000CF46DC08091DE039091DF03019690935F
:1025A000DF038093DE032091DA033091DB032F5F9A
:1025B0003F4F3093DB032093DA03E0910102F09167
:1025C00002029F01215031098E179F0764F030935A
:1025D000DF032093DE03CF01B2010E94D43F90932A
:1025E000DB038093DA03E090DE03F090DF03CF019A
:1025F000B2010E94D43F281B390B2E153F05BCF4B5
:102600008091DA039091DB034E978CF08091D80390
:102610009091D9034E969093D9038093D80310924A
:10262000DB031092DA031092D1031092D003809151
:10263000DA039091DB034E97A4F0E216F3068CF4D4
:102640001092DB031092DA038091D8039091D903A2
:102650004E969093D9038093D8031092D103109291
:10266000D0036091D8037091D903C70146C041ECF3
:10267000E41641E0F4060CF04AC08091DE0390912C
:10268000DF0301979093DF038093DE032091DA0349
:102690003091DB03215031093093DB032093DA03BF
:1026A00097FF08C01092DF031092DE031092DB0345
:1026B0001092DA032091DA033091DB038091DE037C
:1026C0009091DF0337FF15C08D31910594F0709222
:1026D000DB036092DA032091D8033091D9032E51A5
:1026E00031093093D9032093D8031092D10310926B
:1026F000D0036091D8037091D9030E94710A809130
:10270000DE039091DF039093DD038093DC0382E08E
:102710000E94D715892B09F054C01092D303109250
:10272000D2031092D1031092D003E091DE03F09116
:10273000DF03EE0FFF1FEE0FFF1FE052FC4FBE0145
:102740006F5F7F4F808191810E94B6066D817E818F
:102750008F8198850E9409079093D7038093D603B1
:1027600069817A818B819C810E9433079093D50384
:102770008093D4032091D6033091D70329383105B3
:102780003CF028583109309308022093070208C012
:1027900010920802109207021092EF161092EE1695
:1027A00089379105ACF08857910990930602809380
:1027B000050266EB73E080E090E00E946C1401E09B
:1027C00010E062E370E080E090E00E946C14CECEF6
:1027D00010920602109205021092ED161092EC165D
:1027E000E8CF1F920F920FB60F9211242F933F93B1
:1027F0008F939F93AF93BF93809124179091251748
:10280000A0912617B09127173091231723E0230FAB
:102810002D3720F40196A11DB11D05C026E8230F18
:102820000296A11DB11D2093231780932417909326
:102830002517A0932617B0932717809128179091FA
:102840002917A0912A17B0912B170196A11DB11D30
:102850008093281790932917A0932A17B0932B17CA
:10286000BF91AF919F918F913F912F910F900FBE8C
:102870000F901F9018952FB7F894609124177091BE
:10288000251780912617909127172FBF08953FB7DE
:10289000F8948091281790912917A0912A17B09148
:1028A0002B1726B5A89B05C02F3F19F00196A11D37
:1028B000B11D3FBFBA2FA92F982F8827820F911DD6
:1028C000A11DB11DBC01CD0142E0660F771F881F1D
:1028D000991F4A95D1F70895CF92DF92EF92FF9218
:1028E000CF93DF936B017C010E944714EB01C1146D
:1028F000D104E104F10479F00E9447146C1B7D0BB4
:10290000683E7340A0F381E0C81AD108E108F108DD
:10291000C851DC4FECCFDF91CF91FF90EF90DF906B
:10292000CF900895789484B5826084BD84B5816029
:1029300084BD85B5826085BD85B5816085BDEEE6C7
:10294000F0E0808181608083E1E8F0E010828081A6
:1029500082608083808181608083E0E8F0E0808114
:1029600081608083E1EBF0E0808184608083E0EB34
:10297000F0E0808181608083E1E9F0E08081826025
:102980008083808181608083E0E9F0E080818160E4
:102990008083E1EAF0E080818260808380818160D1
:1029A0008083E0EAF0E0808181608083E1E2F1E011
:1029B000808182608083808181608083E0E2F1E0B9
:1029C000808181608083EAE7F0E080818460808399
:1029D0008081826080838081816080838081806843
:1029E00080831092C1000895863308F08653909139
:1029F0007B00282F2870977F922B90937B00877005
:102A000020910F0290E4299F90011124822B809342
:102A10007C0080917A00806480937A0080917A00B3
:102A200086FDFCCF809178002091790090E0922B78
:102A3000089590E0FC013197E131F10508F04AC0BA
:102A40008827EE58FF4F8F4F0C94294080918000CB
:102A50008F7703C0809180008F7D809380000895E0
:102A600084B58F7702C084B58F7D84BD0895809131
:102A7000B0008F7703C08091B0008F7D8093B0004D
:102A80000895809190008F7707C0809190008F7D8E
:102A900003C080919000877F80939000089580917B
:102AA000A0008F7707C08091A0008F7D03C0809128
:102AB000A000877F8093A0000895809120018F77E8
:102AC00007C0809120018F7D03C080912001877F06
:102AD000809320010895CF93DF9390E0FC01E05CA8
:102AE000FD4F2491FC01EA57FD4F8491882361F149
:102AF00090E0880F991FFC01E050FD4FC591D491E3
:102B0000FC01EA51FD4FA591B491611109C09FB735
:102B1000F8948881209582238883EC912E230BC022
:102B2000623061F49FB7F8943881822F80958323B7
:102B30008883EC912E2B2C939FBF06C08FB7F894FF
:102B4000E8812E2B28838FBFDF91CF9108951F93AB
:102B5000CF93DF93282F30E0F901E650FE4F8491A8
:102B6000F901E05CFD4FD491F901EA57FD4FC491A2
:102B7000CC23C9F0162F81110E941915EC2FF0E01B
:102B8000EE0FFF1FEA51FD4FA591B4918FB7F89456
:102B9000111105C09C91ED2FE095E92302C0EC9145
:102BA000ED2BEC938FBFDF91CF911F910895CF93C1
:102BB000DF93282F30E0F901E650FE4F8491F901B0
:102BC000E05CFD4FD491F901EA57FD4FC491CC234D
:102BD00091F081110E941915EC2FF0E0EE0FFF1F0C
:102BE000E453FD4FA591B491EC91ED2381E090E089
:102BF00021F480E002C080E090E0DF91CF91089561
:102C0000CF92DF92EF92FF920F931F93CF93DF93B8
:102C10006C01EB017B01E40EF51E00E010E0CE1527
:102C2000DF0561F06991D601ED91FC910190F08191
:102C3000E02DC6011995080F191FF1CFC801DF91CA
:102C4000CF911F910F91FF90EF90DF90CF9008955B
:102C50006115710579F0FB0101900020E9F73197CA
:102C6000AF01461B570BDC01ED91FC910280F38113
:102C7000E02D199480E090E008950C942816DC0172
:102C8000ED91FC910190F081E02D19940F931F9329
:102C9000CF93DF93EC016DE00E943F168C016AE058
:102CA000CE010E943F16800F911FDF91CF911F919F
:102CB0000F9108950F931F93CF93DF93EC010E9420
:102CC00028168C01CE010E944616800F911FDF91BD
:102CD000CF911F910F9108950F931F93CF93DF937F
:102CE000EC010E943F168C01CE010E944616800F17
:102CF000911FDF91CF911F910F9108958F929F9215
:102D0000AF92BF92CF92DF92EF92FF920F931F93F9
:102D1000CF93DF93CDB7DEB7A1970FB6F894DEBFA0
:102D20000FBECDBF6C01142FE52FCB01022F19A2CE
:102D3000223008F40AE07E0121E2E20EF11C802E2E
:102D4000912CA12CB12C612F7E2FA50194010E9402
:102D5000E83F029F1019112481E0E81AF1081A30A7
:102D600014F4105D01C0195CF7011083122FE32FDA
:102D7000CA01232B242B252B31F7B701C6010E9452
:102D80002816A1960FB6F894DEBF0FBECDBFDF9117
:102D9000CF911F910F91FF90EF90DF90CF90BF9058
:102DA000AF909F908F900895CF92DF92EF92FF9215
:102DB0000F931F93CF93DF93EC016A017B012115E1
:102DC000310579F4E881F9810190F081E02D642FDB
:102DD000DF91CF911F910F91FF90EF90DF90CF90F7
:102DE00019942A303105E9F477FF1AC06DE20E9488
:102DF0003F168C0144275527BA014C195D096E090D
:102E00007F092AE0CE010E947E16800F911FDF917C
:102E1000CF911F910F91FF90EF90DF90CF90089589
:102E20002AE0B701A601CE01DF91CF911F910F914A
:102E3000FF90EF90DF90CF900C947E169A01AB013B
:102E4000770F660B770B0C94D4162115310541F4DE
:102E5000DC01ED91FC910190F081E02D642F19943B
:102E60000C947E160895FC0124853585F901E05CFB
:102E7000FF4F80819181329620813181821B930B9B
:102E80008F7399270895DC011C96ED91FC911D9795
:102E9000DF01A05CBF4F2D913C91119712968D914F
:102EA0009C9111972817390739F08D919C91E80F63
:102EB000F91F808190E008958FEF9FEF0895FC0146
:102EC000A485B585FD01E05CFF4F208131813296FC
:102ED000808191812817390779F080819181A80F2D
:102EE000B91F8C91208131812F5F3F4F2F73332782
:102EF0003183208390E008958FEF9FEF0895FC01C8
:102F000081A1882329F0A489B5898C9186FFFBCF04
:102F100011A208950F931F93CF93DF93FC01A68511
:102F2000B7858D01005C1F4FE8018881998101966A
:102F30008F739927AD014E5B5F4FEA01288139817C
:102F400082179307D1F3E80128813981A20FB31FBB
:102F50006C93A685B785A05CBF4F11969C938E930A
:102F6000A689B7892C9181E090E0078C02C0880F78
:102F7000991F0A94E2F7822B8C9381E081A3048845
:102F8000F589E02D80818064808381E090E0DF918D
:102F9000CF911F910F910895FB01E05CFF4F2081BD
:102FA00031812F5F3F4F2F733327DB01AE5BBF4F64
:102FB0004D915C912417350741F040815181DB012F
:102FC000A40FB51F8C933183208308951F920F9215
:102FD0000FB60F9211240BB60F922F933F934F937E
:102FE0005F936F937F938F939F93AF93BF93EF9371
:102FF000FF938091C00082FD07C08091C60060E908
:1030000079E10E94CC1702C08091C600FF91EF9138
:10301000BF91AF919F918F917F916F915F914F91F0
:103020003F912F910F900BBE0F900FBE0F901F90EE
:1030300018951F920F920FB60F9211240BB60F9294
:103040002F933F934F935F936F937F938F939F93B0
:10305000AF93BF93EF93FF938091C80082FD07C0A9
:103060008091CE0068E079E10E94CC1702C0809187
:10307000CE00FF91EF91BF91AF919F918F917F9182
:103080006F915F914F913F912F910F900BBE0F90D9
:103090000FBE0F901F9018951F920F920FB60F92B0
:1030A00011240BB60F922F933F934F935F936F931F
:1030B0007F938F939F93AF93BF93EF93FF938091F1
:1030C000D00082FD07C08091D60060E878E10E94C0
:1030D000CC1702C08091D600FF91EF91BF91AF91C4
:1030E0009F918F917F916F915F914F913F912F9120
:1030F0000F900BBE0F900FBE0F901F9018951F9250
:103100000F920FB60F9211240BB60F922F933F938D
:103110004F935F936F937F938F939F93AF93BF93DF
:10312000EF93FF938091300182FD07C080913601BB
:1031300068EF77E10E94CC1702C080913601FF91C1
:10314000EF91BF91AF919F918F917F916F915F911F
:103150004F913F912F910F900BBE0F900FBE0F908C
:103160001F9018951F920F920FB60F9211240BB655
:103170000F922F933F938F939F93EF93FF93209101
:103180008C1930918D1980918E1990918F19281773
:10319000390731F48091C1008F7D8093C10014C044
:1031A000E0918E19F0918F19E45BF64E20818091A9
:1031B0008E1990918F1901968F73992790938F197B
:1031C00080938E192093C600FF91EF919F918F916C
:1031D0003F912F910F900BBE0F900FBE0F901F903D
:1031E00018951F920F920FB60F9211240BB60F92E3
:1031F0002F933F938F939F93EF93FF932091041905
:1032000030910519809106199091071928173907EF
:1032100031F48091C9008F7D8093C90014C0E09182
:103220000619F0910719EC53F74E20818091061989
:103230009091071901968F7399279093071980939E
:1032400006192093CE00FF91EF919F918F913F91AE
:103250002F910F900BBE0F900FBE0F901F901895DF
:103260001F920F920FB60F9211240BB60F922F934D
:103270003F938F939F93EF93FF9320917C1830910E
:103280007D1880917E1890917F182817390731F4A6
:103290008091D1008F7D8093D10014C0E0917E1881
:1032A000F0917F18E45CF74E208180917E18909118
:1032B0007F1801968F73992790937F1880937E18BB
:1032C0002093D600FF91EF919F918F913F912F9185
:1032D0000F900BBE0F900FBE0F901F9018951F926E
:1032E0000F920FB60F9211240BB60F922F933F93AC
:1032F0008F939F93EF93FF932091F4173091F517DD
:103300008091F6179091F7172817390731F48091BB
:1033100031018F7D8093310114C0E091F617F09157
:10332000F717EC54F84E20818091F6179091F7171B
:1033300001968F7399279093F7178093F617209330
:103340003601FF91EF919F918F913F912F910F90B7
:103350000BBE0F900FBE0F901F901895CF92DF926B
:10336000EF92FF920F931F93CF93DF93EC016A01CB
:103370007B014115514E6105710509F1EC89FD890B
:1033800081E090E008A002C0880F991F0A94E2F73C
:10339000808360E079E08DE390E0A70196010E94D0
:1033A000E83F89019A010150110921093109369537
:1033B000279517950795980101151041A8F0EC89FC
:1033C000FD89108260E874E88EE190E0A701960123
:1033D0000E94E83FDA01C9010197A109B109B69538
:1033E000A795979587959C01E889F9893083EA89A3
:1033F000FB89208319A2EE89FF89408181E090E05A
:103400009C010C8C02C0220F331F0A94E2F7242B7C
:103410002083EE89FF8940819C010D8C02C0220F20
:10342000331F0A94E2F7242B2083EE89FF89408121
:103430009C010E8C02C0220F331F0A94E2F7242B4A
:103440002083EE89FF8920810F8C02C0880F991F8D
:103450000A94E2F7809582238083DF91CF911F91B8
:103460000F91FF90EF90DF90CF900895CF92DF9271
:10347000EF92FF92E2E9F7E11382128288EEC82E02
:1034800083E0D82EE12CF12CC482D582E682F7822B
:1034900064E573E07183608380E999E195878487AF
:1034A0008CE499E19787868785EC90E0918B808BFF
:1034B00084EC90E0938B828B80EC90E0958B848BF6
:1034C00081EC90E0978B868B82EC90E0918F808FDF
:1034D00086EC90E0938F828F44E0448F33E0358F09
:1034E00027E0268F95E0978F81E080A3E0E7F7E162
:1034F00013821282C482D582E682F782718360834E
:10350000A8E0B9E1B587A487A4ECB8E1B787A6879E
:10351000ADECB0E0B18BA08BACECB0E0B38BA28B88
:10352000A8ECB0E0B58BA48BA9ECB0E0B78BA68B70
:10353000AAECB0E0B18FA08FAEECB0E0B38FA28F59
:10354000448F358F268F978F80A3EEE4F7E11382A7
:103550001282C482D582E682F78271836083A0E8FA
:10356000B8E1B587A487ACE3B8E1B787A687A5ED36
:10357000B0E0B18BA08BA4EDB0E0B38BA28BA0ED3B
:10358000B0E0B58BA48BA1EDB0E0B78BA68BA2ED1C
:10359000B0E0B18FA08FA6EDB0E0B38FA28F448FC3
:1035A000358F268F978F80A3ECE2F7E1138212828A
:1035B000C482D582E682F7827183608368EF77E107
:1035C0007587648764EB77E17787668765E371E0E9
:1035D000718B608B64E371E0738B628B60E371E0ED
:1035E000758B648B61E371E0778B668B62E371E0CE
:1035F000718F608F66E371E0738F628F448F358FB8
:10360000268F978F80A3FF90EF90DF90CF90089543
:103610004F925F926F927F92AF92BF92CF92DF9262
:10362000EF92FF920F931F93CF93DF93CDB7DEB747
:1036300029013A019B01AC012419350946095709B2
:103640008A899B89AC89BD89BC01CD016A197B0936
:103650008C099D090E94C43FA801970124193509CE
:10366000460957090E940A40CA01B9016A0D7B1D2B
:103670008C1D9D1DDF91CF911F910F91FF90EF90B9
:10368000DF90CF90BF90AF907F906F905F904F9002
:1036900008950F931F93CF93DF93EC01462F61E0C2
:1036A0000E944126882391F08E01045F1F4F41E064
:1036B000BE01C8010E94F72B882351F0B801CE014A
:1036C0008A960E941D1F91E081110AC090E008C0F7
:1036D00040E0BE01C8010E94F72B8823B9F3EECF6A
:1036E000892FDF91CF911F910F910895FC01DB018C
:1036F00012968D919C9113979383828386E793E032
:103700009183808314968C911497848315968C9161
:103710001597858316964D915D916D917C911997C2
:1037200046835783608771871A964D915D916D919D
:103730007C911D9742875387648775871E964D91AC
:103740005D916D917C91519746875787608B718B06
:1037500052968C915297828B53964D915D916D91BB
:103760007C915697438B548B658B768B57964D91F6
:103770005D916D917C915A97478B508F618F728FBD
:103780005B968D919C915C97948F838F08954F9257
:103790005F926F927F928F929F92AF92BF92CF92E1
:1037A000DF92EF92FF920F931F93CF93DF93CDB7EA
:1037B000DEB7C754D1090FB6F894DEBF0FBECDBF38
:1037C0006C015A014901665D7F4F7E018EE1E80E72
:1037D000F11CC7010E94761B1C821B8286E793E0C6
:1037E0009A8389831E828501FE0131963F0127015C
:1037F0006FE270E0C8010E949A3D0097D9F1F8018C
:1038000020812F3219F40F5F1F4FF2CF801B8D30B4
:1038100008F08CE0E82EF12CA701B801CE01CB9680
:103820000E94A53DEBE3F0E0EC0FFD1FEE0DFF1D48
:103830001082C3010E94992121E0AE01455C5F4FD7
:10384000B201C3010E94CD22811109C0F601138289
:10385000128286E793E091838083158214C00E0D57
:103860001F1DC2010E949921942D852D2301692ECF
:10387000782EBECF0A191B09F40111830083B2010F
:10388000C6010E94761BC601C95BDF4F0FB6F894D4
:10389000DEBF0FBECDBFDF91CF911F910F91FF9083
:1038A000EF90DF90CF90BF90AF909F908F907F90E0
:1038B0006F905F904F900895CF92DF92FF920F9399
:1038C0001F93CF93DF93CDB7DEB7C955D1090FB69C
:1038D000F894DEBF0FBECDBF6C018A01F22E9E01AF
:1038E000285A3F4FCE01CB960E94C71B6A968EADD9
:1038F0009FAD6A97080F191FF801808181110AC0D6
:10390000BE01655C7F4FCE0101960E94761B40E6AA
:1039100053E03EC019A218A286E793E09F8F8E8FD6
:103920001BA221968FAD2197811104C0C6010E9470
:10393000AF1D34C082502F2DA801823048F46EEFA5
:1039400079E1CE014E960E94CD2281110EC0EECFBC
:10395000BE01655C7F4FCE014E960E94CD2288232A
:1039600029F3CE01CB960E9499219F2D967041F0AC
:1039700049A95AA96BA97CA9CE014E960E94BC20E8
:10398000BE01625E7F4FCE0101960E94761BA801A8
:10399000BE016F5F7F4FC6010E947A1DC601C75AE4
:1039A000DF4F0FB6F894DEBF0FBECDBFDF91CF91D2
:1039B0001F910F91FF90DF90CF900895E4EDF9E112
:1039C000158216821186138682E090E0A0E0B0E0B6
:1039D00084879587A687B78713A215A614A686E7BE
:1039E00093E093A782A717A60895CF93DF931F9222
:1039F000CDB7DEB76983DC01ED91FC910280F381E4
:103A0000E02D41E050E0BE016F5F7F4F19950F90B0
:103A1000DF91CF910895CF93DF93EC01898D9A8D3B
:103A2000009739F481E090E09B838A8380E090E006
:103A30000BC0FC01138212820E94BB23E98DFA8D18
:103A400022813381232B71F7DF91CF910895FC01FF
:103A5000818D928D009711F00C9452210895CF938F
:103A6000DF931F92CDB7DEB741E050E0BE016F5F3C
:103A70007F4F0E946E1F019719F4898190E002C068
:103A80008FEF9FEF0F90DF91CF910895FC01818D13
:103A9000928D009711F00C942F1D8FEF9FEF0895DA
:103AA0000F931F93CF93DF93FC01818D928D00972D
:103AB000B9F0EF010E942F1D8C010F3F8FEF180707
:103AC00091F0898D9A8DFC014285538564857585B9
:103AD00041505109610971090E94BC20C80105C00B
:103AE00080E090E002C08FEF9FEFDF91CF911F91B8
:103AF0000F910895EF92FF920F931F93CF93DF934F
:103B0000EC017B018A011B821A8288EE93E0A0E01F
:103B1000B0E08C839D83AE83BF8386E693E0998378
:103B200088838DE190E00E942A3C9A8F898F0097CC
:103B300079F02DE1F701DC0101900D922A95E1F772
:103B40004CE050E0B801CE010C960E94A53D188EC5
:103B5000DF91CF911F910F91FF90EF900895FC019D
:103B60001382128288EE93E0A0E0B0E08483958314
:103B7000A683B78386E693E091838083128E118EAD
:103B8000148608950895FC01818D928D009711F09F
:103B90000C946E1F80E090E00895FC01818D928D61
:103BA000009711F00C94BC2080E00895DC01599638
:103BB000ED91FC915A97309729F062857385848541
:103BC000958508956FEF7FEFCB010895DC0159963D
:103BD000ED91FC915A97309729F063897489858912
:103BE0009689089560E070E0CB010895CF92DF924E
:103BF000EF92FF92CF93DF93FC01218D328D232B27
:103C0000D9F0EC010E94E61D6B017C01CE010E94FF
:103C1000D61DA7019601261B370B480B590BDA015D
:103C2000C901811530E89307A105B10538F08FEF80
:103C30009FE7A0E0B0E002C080E090E0DF91CF918C
:103C4000FF90EF90DF90CF900895CF93DF93EC013A
:103C5000898D9A8D009741F00E949921898D9A8DC6
:103C60000E94BF3C1A8E198EDF91CF910895DC011E
:103C70005996ED91FC915A97309721F081E095810A
:103C8000911101C080E00895CF93DF93EC019C0176
:103C90002A5F3F4F41E050E060E070E08B8D9C8DEB
:103CA0000E948C2A8823A1F08F89988DA98DBA8DC6
:103CB000892B8A2B8B2B59F48E819F81A885B985FE
:103CC0008F8B988FA98FBA8F8C8180688C8381E0CD
:103CD000DF91CF910895CF92DF92EF92FF921F93E1
:103CE000CF93DF93EC010E94441E811102C080E05B
:103CF0004AC0EB8DFC8DCE80DF80E884F98482E0C1
:103D0000C81AD108E108F108058404C0CC0CDD1CF8
:103D1000EE1CFF1C0A94D2F786859785A089B1898D
:103D2000C80ED91EEA1EFB1E148181E0C81AD108F4
:103D3000E108F108112361F0C701B601610F711D9F
:103D4000811D911D0E94DB28882389F21150F2CF3A
:103D5000EB8DFC8D80E092E0A0E0B0E0058404C033
:103D6000880F991FAA1FBB1F0A94D2F74B895C8941
:103D70006D897E89840F951FA61FB71F8B8B9C8B27
:103D8000AD8BBE8B81E0DF91CF911F91FF90EF90C3
:103D9000DF90CF900895CF93DF93EC01462F6E858F
:103DA0007F85888999890E94A028882341F08A8983
:103DB00020E2829FC00111248A5D954E02C080E0FE
:103DC00090E0DF91CF910895FB019B01255F3F4F6C
:103DD00040E24193E217F307E1F7DC0190E027E0CE
:103DE0008D91882319F18E3219F0EAE1F3E008C0D1
:103DF0002A3009F198E02AE0F3CF31963817D9F04C
:103E000034913111FACF2917B0F03FED380F3E351C
:103E100090F431E0390FFB01E90FF11D9FE9980F94
:103E20009A3108F480528083932FDACF81E0FB012E
:103E30009081903209F480E008950F931F93CF93FF
:103E4000DF93FC012581222311F080E042C08B0129
:103E5000EC01FB0187898031B1F482E08D831F8AF8
:103E6000188E198E1A8E808D918DA0E0B0E025E01D
:103E7000880F991FAA1FBB1F2A95D1F78B8B9C8B8C
:103E8000AD8BBE8B15C0803201F783E08D83FB01C3
:103E9000428D538D648D758D4F8B588F698F7A8FBE
:103EA0009E012D5E3F4FC8010E948329882369F23D
:103EB0001C8F0B8F81E08C831E821F8218861986CF
:103EC0001A861B861C861D861E861F86188A198ADE
:103ED0001A8ADF91CF911F910F9108952F923F92EF
:103EE0004F925F926F927F928F929F92AF92BF920A
:103EF000CF92DF92EF92FF920F931F93CF93DF93B6
:103F0000EC015B014A018D81811103C08FEF9FEFAE
:103F1000D7C08C8180FFFACF4B885C886D887E8803
:103F20004A855B856C857D85C401A0E0B0E0930186
:103F30008201041B150B260B370B081719072A07DC
:103F40003B0718F44201841A950A24011E0126E059
:103F5000220E311C4114510409F47EC04A855B8550
:103F60006C857D856A0181E0D822ED818A019B0103
:103F700089E036952795179507958A95D1F78B8D0A
:103F80009C8DE23061F4FC01828D938DA48DB58D02
:103F9000BC01CD01600F711F821F931F3FC0FC0148
:103FA00074807A947022C114D104C9F4711017C0BE
:103FB000452B462B472B49F48F89988DA98DBA8DB7
:103FC0008E839F83A887B9870AC04E815F816885E9
:103FD000798591010E94FF28882309F497CFEB8D02
:103FE000FC8D8E819F81A885B9850297A109B109B1
:103FF000058404C0880F991FAA1FBB1F0A94D2F71B
:104000004685578560897189840F951FA61FB71F44
:10401000BC01CD01670D711D811D911D20E032E0B5
:104020002C193D0932012415350508F439012C817C
:1040300026FD04C06114F2E07F0679F500911002BC
:104040001091110220911202309113026017710732
:104050008207930719F421C0C40132C0750183019E
:104060009601AB01BC018091241A9091251A0E94FF
:10407000C327882309F44ACFA60CB71C8A859B85E1
:10408000AC85BD85860D971DA11DB11D8A879B87B7
:10409000AC87BD87461857085DCF40E00E94A02836
:1040A000882309F433CFF601EA5DF54ED501CF013F
:1040B000860D971DE817F907F9F221912D93FACF94
:1040C000DF91CF911F910F91FF90EF90DF90CF90F4
:1040D000BF90AF909F908F907F906F905F904F9028
:1040E0003F902F900895FF920F931F93CF93DF93EC
:1040F0001F92CDB7DEB7FC012581223018F480E095
:1041000090E033C08C01FC01428553856485758540
:1041100085E076956795579547958A95D1F7F42F61
:10412000FF70FF2E41E050E0BE016F5F7F4FC8017E
:104130000E946E1F019719F4898190E002C08FEFF1
:104140009FEF0196E1F2F80182859385A485B585FC
:104150004F96A11DB11D82879387A487B587F0E292
:10416000FF9EC00111248A5D954E0F90DF91CF9183
:104170001F910F91FF9008958F929F92AF92BF92DF
:10418000CF92DF92EF92FF920F931F93CF93DF9323
:10419000EC018D81811102C080E077C00B891C8900
:1041A0002D893E890417150726073707A8F36A01EA
:1041B0007B01823029F4CA86DB86EC86FD860DC041
:1041C000C114D104E104F10451F41E821F82188647
:1041D00019861A861B861C861D8681E056C08A8435
:1041E0009B84AC84BD84EB8DFC8D258530E0275FFE
:1041F0003F4FB501A4014150510961097109022ED7
:1042000004C076956795579547950A94D2F7D701DC
:10421000C6010197A109B10904C0B695A795979564
:1042200087952A95D2F784179507A607B70720F038
:1042300089288A288B2849F44F89588D698D7A8D71
:104240004E835F836887798704C0841B950BA60B18
:10425000B70B4C015D018E010A5F1F4F8114910461
:10426000A104B10409F4A7CF4E815F8168857985E7
:1042700098018B8D9C8D0E94FF2891E0891A9108EE
:10428000A108B1088111EACF87CFDF91CF911F91AB
:104290000F91FF90EF90DF90CF90BF90AF909F90E5
:1042A0008F9008950F931F93CF93DF93EC018D812F
:1042B0008823C9F18C8187FF30C061E0CE010E9464
:1042C000CB1E8C01892B79F18D81823048F48B894A
:1042D0009C89AD89BE89F801848F958FA68FB78F91
:1042E0008F89988DA98DBA8DF801938F828FB58BA8
:1042F000A48BE0911D1AF0911E1A309759F0B80165
:104300006A5E7F4FC80148961995F801808D918D9E
:10431000938B828B8C818F778C83DF91CF911F91D0
:104320000F910C94652880E0DF91CF911F910F9140
:104330000895CF93DF93EC010E945221882311F05E
:104340001D8281E0DF91CF9108954F925F926F922D
:104350007F928F929F92AF92BF92EF92FF920F93B4
:104360001F93CF93DF9300D01F92CDB7DEB7FC0130
:1043700085818130E9F4848181FF1AC08389948921
:10438000A589B68984179507A607B70788F0892BF2
:104390008A2B8B2B09F479C04A015B017F0142848F
:1043A000538464847584CF010E94BC20811102C0B3
:1043B00080E06CC0F701838D948D81149104A10479
:1043C000B10471F44789508D618D728D0E94A12BCB
:1043D000882371F3F701178A108E118E128E3AC05E
:1043E000F70146815781608571859E012F5F3F4FA0
:1043F0000E94FF288823E1F249815A816B817C81E8
:10440000F701838D948DFC012789203129F008EF75
:104410001FEF2FEF3FE004C008EF1FEF20E030E078
:104420004017510762077307A8F40E94A12B882345
:1044300009F4BECFF70146815781608571850FEF82
:104440001FEF2FEF3FE0838D948D0E94EC2988238E
:1044500009F4AECFF701838A948AA58AB68A84814B
:1044600080688483C7010E945221882309F4A0CF69
:10447000B501A401481459046A047B0410F4B30183
:10448000A201C7010E94BC2001C081E00F900F90E3
:104490000F900F90DF91CF911F910F91FF90EF90B0
:1044A000BF90AF909F908F907F906F905F904F9054
:1044B00008951F93CF93DF93EC0180E2689FF00192
:1044C00011249F012A5D354ED9011B969C91917153
:1044D00029F0842F827411F080E05BC0142F6A8B66
:1044E0008091100290911102A0911202B0911302DA
:1044F0008E879F87A88BB98BEA5DF54E44895589D5
:1045000060E070E0BA01552744274F8B588F698FC0
:104510007A8F828D938DA0E0B0E0482B592B6A2BC7
:104520007B2B4F8B588F698F7A8FD9011B968C917B
:10453000887151F4848D958DA68DB78D8B8B9C8B56
:10454000AD8BBE8B81E00DC0803131F69E012D5EBA
:104550003F4F8B8D9C8D0E948329882309F4BCCF0B
:1045600084E08D83812F8F708C831E821F8218863A
:1045700019861A861B861C861D8616FF09C040E018
:1045800050E0BA01CE01DF91CF911F910C94A5218B
:1045900081E0DF91CF911F910895CF92DF92EF924A
:1045A000FF920F931F93CF93DF93CDB7DEB72C9776
:1045B0000FB6F894DEBF0FBECDBFFC0135813111BF
:1045C000C2C0D22E8B017C01BE016F5F7F4FCA013A
:1045D0000E94E41E882309F4B6C0F801838D948DEF
:1045E000F701948F838FF801168217821086118647
:1045F000128613861486158630E0F801828593852D
:10460000A485B5854389548965897689841795077A
:10461000A607B70708F041C025E0B695A79597957E
:1046200087952A95D1F7F82FFF70CF2EC8013C87C8
:104630000E9473203C85009709F485C0FC0120810D
:10464000222309F484C0253E99F04BE050E0BC01E0
:10465000CE0101963C870E948D3D3C85892B69F6F1
:104660008D2D8073803309F46EC04D2D6C2D67C085
:1046700031116BC0F701C28A4091100250911102B2
:10468000609112027091130246875787608B718B7D
:10469000FC01808131E08111B0CF8D2D827182319A
:1046A00009F051C0332341F061E0C7010E94CB1EE5
:1046B0008C01892B79F447C0F8018581823009F497
:1046C00042C0C8010E946B1E8823E9F1F701128ADB
:1046D00006E21AE180E2F80111928A95E9F78BE08F
:1046E000FE013196D80101900D928A95E1F7E09193
:1046F0001D1AF0911E1A309739F0B801625F7F4F92
:10470000C8014096199509C081E298E2F801918BA1
:10471000808B80E098E097878687F801808991896F
:10472000938B828B918F808F86859785978B868BD5
:104730000E946528882339F04D2DF7016289C70151
:104740000E94592209C080E007C031E056CF3323D0
:1047500009F490CF31E0A1CF2C960FB6F894DEBFCC
:104760000FBECDBFDF91CF911F910F91FF90EF90C2
:10477000DF90CF9008952F923F924F925F926F9269
:104780007F928F929F92AF92BF92CF92DF92EF92E1
:10479000FF920F931F93CF93DF9300D01F92CDB75B
:1047A000DEB78C016B013A01DC0115968C911597EF
:1047B0008130C9F414968C9181FF15C082FF1DC011
:1047C000F801438954896589768982859385A48512
:1047D000B58584179507A607B70779F0C8010E9429
:1047E000BC2081110AC081E090E0D80113969C930F
:1047F0008E93129780E090E048C1430184C0D801B5
:104800005B968D919C915C97FC0154802FEF250D58
:104810001A012B0139E056944794379427943A951E
:10482000D1F7522E52207A01F1E0FF22552009F4EF
:1048300076C080E092E08E199F0954018815990591
:1048400008F45C01D8015B962D913C915C9716961B
:104850008D919D910D90BC91A02D0297A109B10958
:10486000F901058404C0880F991FAA1FBB1F0A9471
:10487000D2F74685578560897189840F951FA61FD9
:10488000B71F9C01AD01250D311D411D511D1901A1
:104890002A01A11432E0B30609F088C08091100209
:1048A00090911102A0911202B0911302821593050A
:1048B000A405B50559F48FEF9FEFDC01809310023A
:1048C00090931102A0931202B09313029601B201C9
:1048D000A1018091241A9091251A0E9417288823FB
:1048E00009F481CF9EEFD91A8A189B08F8018285B6
:1048F0009385A485B5858A0D9B1DA11DB11D828759
:104900009387A487B587D8011A964D915D916D91D3
:104910007C911D978114910409F071CF87C0E11437
:10492000F10409F086CF16964D915D916D917C91C1
:104930001997411551056105710559F457968D91E7
:104940009D910D90BC91A02D0097A105B10541F559
:1049500021C09E012F5F3F4F0E94FF28882309F44A
:104960004ACF89819A81AB81BC81F801238D348D36
:10497000F9012789203129F048EF5FEF6FEF7FE0E1
:1049800004C048EF5FEF60E070E084179507A6076A
:10499000B70730F0C8010E94441E81114ACF23CFCF
:1049A000F80186839783A087B18743CFE114F10490
:1049B00029F5D8011A964D915D916D917C911D97C5
:1049C00053968D919D910D90BC91A02D481759073C
:1049D0006A077B0798F00E946528882309F403CFB3
:1049E0002092100230921102409212025092130251
:1049F0008091231A81608093231A08C041E0C2018C
:104A0000B1010E94A028882309F4EDCED601F70158
:104A1000EA5DF54ECF018A0D9B1DE817F90719F0E5
:104A20002D912193FACFCA0CDB1C5ECF5396CD900B
:104A3000DD90ED90FC90569714968C91C416D50697
:104A4000E606F70640F4F801438B548B658B768BB2
:104A5000806884830DC020911D1A30911E1A232B6B
:104A600039F06114710421F08068D80114968C9398
:104A7000F801848183FD02C0C30107C0C8010E9400
:104A80005221882309F4AFCEF7CF0F900F900F90EB
:104A90000F90DF91CF911F910F91FF90EF90DF90DA
:104AA000CF90BF90AF909F908F907F906F905F90CE
:104AB0004F903F902F900895CF93DF931F92CDB7E3
:104AC000DEB7698341E050E0BE016F5F7F4F0E9417
:104AD000BB230F90DF91CF9108958EBD0DB407FEDB
:104AE000FDCF08958FEF0E946D258EB5089561E08A
:104AF000FC0184810C94A71560E0FC0184810C9476
:104B0000A715CF93DF93FC0186818823D1F08FEF27
:104B10008EBD4FEF878190859C012F5F3F4F30877F
:104B200027838130924028F40DB407FEFDCF4EBD9F
:104B3000F1CF0DB407FEFDCFEF01CF010E94772525
:104B40001E82DF91CF910895673028F026E1FC01A5
:104B5000258380E008958DB560FD02C0663011F4B4
:104B60008E7F01C081608DBD8CB58C7F8CBD9CB566
:104B700062FD02C080E001C082E066956170692B31
:104B8000862B8CBD81E008950F931F93CF93DF9305
:104B9000EB010E943B148B010E9472258F3F49F06C
:104BA0000E943B14601B710B6C177D07A8F380E01B
:104BB00001C081E0DF91CF911F910F910895CF92B5
:104BC000DF92FF920F931F93CF93DF9300D01F923A
:104BD000CDB7DEB76C01F62E29833A834B835C8315
:104BE0000E948125C6010E947C256CE271E0C6010D
:104BF0000E94C4258F2D80640E946D2508E110E07D
:104C00005C814B813A812981DA01C901002E04C0FF
:104C1000B695A795979587950A94D2F729833A83F5
:104C20004B835C830E946D250850110929813A81CC
:104C30004B815C81083F8FEF180731F7FF2029F087
:104C4000E8E0FE1204C087E803C085E901C08FEFE9
:104C50000E946D2510E00E947225F601828787FF71
:104C600004C01F3F11F01F5FF6CF0F900F900F9001
:104C70000F90DF91CF911F910F91FF90DF90CF9018
:104C800008958F929F92AF92BF92EF92FF920F93EF
:104C90001F93CF93DF93EC01E62E1B8619861E82AD
:104CA0001D824C830E943B148B0161E08C810E9429
:104CB0006B15CE010E94772560E082E30E946B15A0
:104CC00061E083E30E946B1561E084E30E946B1551
:104CD00061E085E30E946B1561E085E30E94A71502
:104CE00083E58CBD8DB58E7F8DBD2AE0F22E8FEFD2
:104CF0000E946D25FA94F110FACFCE010E947C2516
:104D000020E030E0A90160E0CE010E94DF25F82E0E
:104D10008A8781E0F81649F00E943B14601B710BF2
:104D2000613D774068F381E04CC02AEA31E040E021
:104D300050E068E0CE010E94DF2582FF02C0FB86C2
:104D40000EC094E0F92E0E9472258A87FA94F11021
:104D5000FACF8A3A11F082E034C082E08B878B85EB
:104D6000823021F0812C912C540105C0812C912C92
:104D7000A12C80E4B82E20E030E0A90167E3CE0149
:104D80000E94DF25A501940169E2CE010E94DF2582
:104D90008A87882349F00E943B14601B710B613D98
:104DA000774048F388E00DC08B85823039F520E0EC
:104DB00030E0A9016AE3CE010E94DF25882389F053
:104DC00086E08D83CE010E94772580E0DF91CF9130
:104DD0001F910F91FF90EF90BF90AF909F908F9099
:104DE00008950E947225807C803C11F483E08B87BB
:104DF0000E9472250E9472250E947225CE010E9497
:104E000077256E2DCE01DF91CF911F910F91FF90ED
:104E1000EF90BF90AF909F908F900C94A4250F932C
:104E20001F93CF93DF93EC010E943B148B010E94F0
:104E300072258A878F3F49F40E943B14601B710BD7
:104E40006D327140A0F38FE003C08E3F39F08DE0EA
:104E50008D83CE010E94772580E001C081E0DF9143
:104E6000CF911F910F910895CF92DF92EF92FF9211
:104E70000F931F93CF93DF93EC016901C801820F59
:104E8000931F8130924008F06FC08E81882371F0AB
:104E900088819981AA81BB81481759076A077B07D6
:104EA00029F48F819885C816D90618F54883598347
:104EB0006A837B838B85833039F089E0440F551FEB
:104EC000661F771F8A95D1F79A01AB0161E1CE0188
:104ED0000E94DF25882319F083E08D8345C0CE0131
:104EE0000E940F27882309F43FC018861F8281E0A3
:104EF0008E838FEF8EBD2FEF8F8198858C159D054A
:104F000050F40DB407FEFDCF2EBD8F81988501961C
:104F100098878F83F1CFC8010197F7014FEF9F0169
:104F20002E193F092817390738F40DB407FEFDCFB5
:104F30002EB521934EBDF3CF0DB407FEFDCF2EB598
:104F4000F701E80FF91F20838F819885080F191F3B
:104F500018870F838985882319F00115124048F0BE
:104F6000CE010E94812505C0CE010E94772580E0F8
:104F700001C081E0DF91CF911F910F91FF90EF90E1
:104F8000DF90CF900895EF92FF920F931F9301153A
:104F9000110519F00E94342701C081E01F910F9183
:104FA000FF90EF900895EF92FF920F931F93790176
:104FB00000E012E020E030E00E9434271F910F91C2
:104FC000FF90EF900895CF93DF93EC016EBD20E04A
:104FD00030E00DB407FEFDCFFA01E20FF31F808130
:104FE0008EBD0DB407FEFDCF81818EBD2E5F3F4F7C
:104FF000211582E0380769F70DB407FEFDCF8FEF6A
:105000000E946D258FEF0E946D250E9472258A8770
:10501000982F9F71953039F081E18D83CE010E94E8
:10502000772580E001C081E0DF91CF9108950F9353
:105030001F93CF93DF93EC01890141155105610561
:10504000710511F482E132C08B85833039F089E03B
:10505000440F551F661F771F8A95D1F79A01AB0140
:1050600068E1CE010E94DF25882311F084E01EC094
:10507000A8016EEFCE010E94E3278823C1F068E506
:1050800072E0CE010E94C425811102C085E10EC0EC
:1050900020E030E0A9016DE0CE010E94DF25811102
:1050A00004C00E947225882339F084E18D83CE01EB
:1050B0000E94772580E004C0CE010E94772581E020
:1050C000DF91CF911F910F9108958091231A88232A
:1050D000A9F1409110025091110260911202709159
:1050E000130226E23AE18091241A9091251A0E9437
:1050F0001728811102C080E0089540911F1A509135
:10510000201A6091211A7091221A411551056105EA
:10511000710591F026E23AE18091241A9091251AC6
:105120000E941728882339F310921F1A1092201A10
:105130001092211A1092221A1092231A81E00895D7
:10514000CF92DF92EF92FF92CF936B017C01C42F3D
:105150008091100290911102A0911202B09113025D
:105160008C159D05AE05BF05D1F00E946528811103
:1051700002C080E01AC026E23AE1B701A6018091A0
:10518000241A9091251A0E94D327882391F3C09264
:105190001002D0921102E0921202F092130280915A
:1051A000231AC82BC093231A81E0CF91FF90EF9070
:1051B000DF90CF900895CF92DF92EF92FF926B0134
:1051C0007C010E9465288823A9F0E6E2FAE11192A9
:1051D0008CE1E632F807D9F7C0921002D0921102A2
:1051E000E0921202F09213028091231A8160809360
:1051F000231A81E0FF90EF90DF90CF9008958F9277
:105200009F92AF92BF92CF92DF92EF92FF920F9355
:105210001F93CF93DF93FC0181859285A385B4858D
:105220000196A11DB11D84179507A607B70710F4B5
:1052300080E05CC083899489A589B689C789C0311B
:1052400029F4852E962EA72EBB2409C04A015B01A6
:10525000C7E0B694A79497948794CA95D1F7E901CB
:105260006A017B018F01BC01CD01680D791D8A1D8A
:105270009B1D8090100290901102A0901202B0909D
:105280001302681579058A059B0599F4F801878949
:105290008031A9F4B701A601552766277727440F67
:1052A000551FFA01EA5DF54E80819181A0E0B0E0E2
:1052B00018C040E00E94A0288111E8CFB9CFB70103
:1052C000A6014F77552766277727440F551F440FB0
:1052D000551FFA01EA5DF54E80819181A281B3816B
:1052E000BF7088839983AA83BB8381E0DF91CF91CC
:1052F0001F910F91FF90EF90DF90CF90BF90AF90F4
:105300009F908F9008954F925F926F927F92AF928D
:10531000BF92CF92DF92EF92FF920F931F93CF93A2
:10532000DF9300D01F92CDB7DEB78C0149835A833B
:105330006B837C835901C12CD12C7601412C82E0F6
:10534000582E612C712C49815A816B817C819E0180
:105350002F5F3F4FC8010E94FF28882351F1D301DE
:10536000C201F801058404C0880F991FAA1FBB1F42
:105370000A94D2F7C80ED91EEA1EFB1E49815A8133
:105380006B817C818789803129F088EF9FEFAFEFB7
:10539000BFE004C088EF9FEFA0E0B0E048175907D6
:1053A0006A077B0780F2F501C082D182E282F38234
:1053B00081E00F900F900F900F90DF91CF911F9190
:1053C0000F91FF90EF90DF90CF90BF90AF907F90C4
:1053D0006F905F904F9008954F925F926F927F927F
:1053E0008F929F92AF92BF92CF92DF92EF92FF92F5
:1053F0000F931F93CF93DF93EC016A017B01280188
:105400003901423051056105710510F480E073C027
:1054100089859A85AB85BC850196A11DB11D841730
:105420009507A607B70790F38B889C88AD88BE8840
:105430008F89803129F4BB27AF2D9E2D8D2D09C07A
:10544000DB01CA0147E0B695A795979587954A95E0
:10545000D1F7880E991EAA1EBB1E80911002909152
:105460001102A0911202B091130288169906AA06A1
:10547000BB0679F48F898031A1F4DD24EE24FF246A
:10548000C601880F991FFC01EA5DF54E51824082EA
:1054900019C040E0C501B4010E94A0288111EACFE3
:1054A000B5CFE894C7F8DD24EE24FF24C601880FA9
:1054B000991F880F991FFC01EA5DF54E40825182C9
:1054C000628273828091231A81608093231A8A8971
:1054D000823080F08D819E81AF81B885880E991EC3
:1054E000AA1EBB1E80921F1A9092201AA092211A07
:1054F000B092221A81E0DF91CF911F910F91FF901E
:10550000EF90DF90CF90BF90AF909F908F907F9063
:105510006F905F904F9008952F923F924F925F92BD
:105520006F927F929F92AF92BF92CF92DF92EF9253
:10553000FF920F931F93CF93DF93CDB7DEB76097A2
:105540000FB6F894DEBF0FBECDBF5C0149875A8706
:105550006B877C871901D901CD90DD90ED90FC908F
:10556000C114D104E104F10431F0BFEFCB1ADB0A1E
:10557000EB0AFB0A10C0FC01C080D180E280F380FE
:105580009924939409851A852B853C850130110552
:105590002105310509F0912CF50181859285A385BE
:1055A000B4858C019D010F5F1F4F2F4F3F4F0D871B
:1055B0001E872F87388B260137011D821E821F828E
:1055C0001886F50181859285A385B4850D811E819C
:1055D0002F813885081719072A073B0708F056C09E
:1055E0002D853E854F855889241535054605570577
:1055F00050F482E0482E512C612C712C92E0C92E7F
:10560000D12CE12CF12C9E012F5F3F4FB301A20161
:10561000C5010E94FF288823C9F149815A816B8105
:105620007C81D301C2010196A11DB11D452B462BE2
:10563000472B19F06C017D010FC0AC01BD014C1965
:105640005D096E097F0909851A852B853C85401700
:1056500051076207730779F02D813E814F8158858C
:105660002F5F3F4F4F4F5F4F2D833E834F835887B0
:105670002C013D01A6CF0FEF1FEF2FEF3FE0B3014D
:10568000A201C5010E94EC29811118C080E041C02F
:10569000D301C2010197A109B1098D839E83AF8314
:1056A000B88793018201AC01BD01C5010E94EC29BC
:1056B000882361F34D805E806F807884C414D504A4
:1056C000E604F70428F3D1014D915D916D917C9131
:1056D000411551056105710599F4F101C082D1822E
:1056E000E282F3829920A1F0FFEFCF1ADF0AEF0ADE
:1056F000FF0AD501CD92DD92ED92FC92139708C07E
:1057000097018601C5010E94EC298111E6CFBECF29
:1057100081E060960FB6F894DEBF0FBECDBFDF917B
:10572000CF911F910F91FF90EF90DF90CF90BF909E
:10573000AF909F907F906F905F904F903F902F9091
:105740000895AF92BF92CF92DF92EF92FF920F93A4
:105750001F93CF93DF9300D01F92CDB7DEB75C01CC
:105760006A017B0182E090E0A0E0B0E0F501808377
:105770009183A283B3839E012F5F3F4FB701A601A0
:10578000C5010E94FF28882311F100E010E0980174
:10579000B701A601C5010E94EC298823C1F0C98088
:1057A000DA80EB80FC80F5018789803129F088EF71
:1057B0009FEFAFEFBFE004C088EF9FEFA0E0B0E045
:1057C000C816D906EA06FB06B0F281E001C080E007
:1057D0000F900F900F900F90DF91CF911F910F912D
:1057E000FF90EF90DF90CF90BF90AF9008958F9291
:1057F0009F92AF92BF92CF92DF92EF92FF920F9360
:105800001F93CF93DF93EC01142F7093251A6093AD
:10581000241A442369F1453010F080E0F2C040E0E2
:1058200060E070E0CB010E94A0288823B1F320E162
:10583000129FA00111244A5E554EFA01E254FE4F18
:1058400080818F7751F73C9680819181A281B381CD
:1058500084369105A105B10500F33497C080D1804D
:10586000E280F380C114D104E104F10421F4D5CF26
:10587000C12CD12C760140E0C701B6010E94A028BE
:10588000882359F28091311A9091321A81159240F1
:1058900021F69091361A992309F4BFCF2091341A3A
:1058A0003091351A232B09F4B8CF8091331A88230D
:1058B00009F4B3CF9A8B8C831D8690E061E070E091
:1058C0002D85E22FAB01022E02C0440F551F0A9412
:1058D000E2F78417950731F031E0320F3D87283029
:1058E00078F39BCF20913C1A30913D1A2115310558
:1058F00019F040E050E008C020914A1A30914B1A4C
:1059000040914C1A50914D1A2D833E834F835887F6
:105910008091341A9091351A46015701880E991ECC
:10592000A11CB11C8B8A9C8AAD8ABE8A0091371A51
:105930001091381A198F088FA091361AB0E00E9482
:105940004F40860E971EA81EB91E8A8E9B8EAC8E67
:10595000BD8E85E0000F111F8A95E1F701501E4FA3
:10596000012F11270695800E911EA11CB11C8E8659
:105970009F86A88AB98A2091391A30913A1A21153E
:10598000310521F0A90160E070E008C04091461A9D
:105990005091471A6091481A7091491AD701C6016F
:1059A00088199909AA09BB09840F951FA61FB71F5B
:1059B00004C0B695A79597958795EA95D2F78987FC
:1059C0009A87AB87BC87853F2FE09207A105B10579
:1059D00010F48CE014C0853F9F4FA105B10510F471
:1059E00080E10DC08091521A9091531AA091541ADF
:1059F000B091551A8A8F9B8FAC8FBD8F80E28F8BB1
:105A000081E0DF91CF911F910F91FF90EF90DF9098
:105A1000CF90BF90AF909F908F9008952F923F921C
:105A20004F925F926F927F928F929F92AF92BF92AE
:105A3000CF92DF92EF92FF920F931F93CF93DF935A
:105A400000D0CDB7DEB74C017B836A836A01590170
:105A500017019801241B350B37FF03C031952195A1
:105A60003109C5014A815B81841B950B97FF03C0F7
:105A700091958195910951E059838217930714F00C
:105A800019820BC09A2D8B2D5801092F182F9A813E
:105A90008B81DB82CA82C92ED82E8A819B81A8166F
:105AA000B9065CF49C2D8D2D6801092F182F9A8161
:105AB0008B81BB82AA82A92EB82E2501AA81BB8127
:105AC0004A1A5B0A38016C187D0877FE03C071948E
:105AD00061947108720157FE03C0BFEFEB1AFB0A15
