:100000000C9418040C9449040C9449040C9449046D
:100010000C9449040C9449040C9449040C9449042C
:100020000C9449040C9449040C9449040C9449041C
:100030000C9449040C9449040C9449040C9449040C
:100040000C9449040C9449040C9449040C944904FC
:100050000C9449040C9449040C9449040C946012C7
:100060000C9449040C9465160C9431170C944904B3
:100070000C9449040C9449040C9449040C944904CC
:100080000C9449040C9449040C9449040C944904BC
:100090000C9498160C9470170C9449040C94490411
:1000A0000C9449040C9449040C9449040C9449049C
:1000B0000C9449040C9449040C9449040C9449048C
:1000C0000C9449040C9449040C9449040C94CB16E8
:1000D0000C94AF170C9449040C94FE160C94EE1774
:1000E0000C9449049F13A21395139913D913A613C3
:1000F000AA13B013B413B813BE13C213C613D91383
:10010000CC13D013D4130C94362C0C94AC2C0C942C
:10011000A1330C944A2C0C94B4130C94741B0C94BF
:10012000DB230C94D52D0C943E2C0C94CC130C9406
:10013000672C0C946F140C94662C0C94D0130C94B4
:1001400087320C9492320C94F02C0C94562C0C9414
:10015000AA130C94C2130C94A2130C94CF1B0C94EE
:100160008A1B0C9499130C948D2B0C94DE150C9413
:10017000A61B0C945D1B0C94B8130C9465380C945E
:10018000372C0C94751C0C94BE130C9429330C94CE
:10019000EA370C94A6130C94A6320C94B0130C946A
:1001A000352E0C94B5180C9463330C94C2150C9432
:1001B000342E0C94FE150C9409160C94C6130C9452
:1001C000AD090C94C51B0C94B9320C94BD360C943B
:1001D000EF320C94B2150C9495130C94D4130C9428
:1001E000B1150C94412D0C945F2D0C94D9130C94E3
:1001F0009C310C949F130C9471360000090A02087C
:100200000B0C0D07060304010000000000000000B5
:1002100000000000000000000000000000000000DE
:1002200000000000000011100F000000000000009E
:1002300000000000000000000000000000000000BE
:1002400001021020200808102040102040800201E8
:1002500002010804020101020408102040808040CD
:1002600020100804020180040201804020100804CC
:10027000020108040201010204081020408001026A
:100280000408102040800505050507050808080832
:10029000020202020A0A080804040404010101011E
:1002A0000101010103030303030303030407070719
:1002B0000C0C0C0C0C0C0C0C0202020206060606BE
:1002C000060606060B0B0B0B0B0B0B0B000020009E
:1002D0002300260029002C002F003200000100001E
:1002E00003010601090100002200250028002B005F
:1002F0002E003100340002010000050108010B014D
:1003000000002100240027002A002D0030003300C7
:1003100001010000040107010A017C3C3E5E2B3D07
:100320003F2F5B5D3B2C2A225C0000000000003E5A
:100330005B4F5B3E3E6B4F6B3E1C3E7C3E1C183C55
:100340007E3C181C577D571C1C5E7F5E1C00183CB1
:100350001800FFE7C3E7FF0018241800FFE7DBE7FA
:10036000FF30483A060E2629792926407F050507E1
:10037000407F05253F5A3CE73C5A7F3E1C1C08083D
:100380001C1C3E7F14227F22145F5F005F5F060902
:100390007F017F006689956A606060606094A2FF5B
:1003A000A29408047E040810207E201008082A1C4D
:1003B00008081C2A08081E101010100C1E0C1E0C19
:1003C00030383E3830060E3E0E06000000000000B9
:1003D000005F00000007000700147F147F14242A28
:1003E0007F2A1223130864623649562050000807FA
:1003F0000300001C2241000041221C002A1C7F1C1B
:100400002A08083E0808008070300008080808081C
:10041000000060600020100804023E5149453E0083
:10042000427F400072494949462141494D331814E1
:10043000127F1027454545393C4A49493141211130
:1004400009073649494936464949291E0000140022
:100450000000403400000008142241141414141445
:10046000004122140802015909063E415D594E7CA3
:100470001211127C7F494949363E414141227F4158
:1004800041413E7F494949417F090909013E4141B6
:1004900051737F0808087F00417F41002040413FA1
:1004A000017F081422417F404040407F021C027FB0
:1004B0007F0408107F3E4141413E7F090909063E05
:1004C0004151215E7F0919294626494949320301D4
:1004D0007F01033F4040403F1F2040201F3F4038E6
:1004E000403F631408146303047804036159494DC1
:1004F00043007F4141410204081020004141417FF7
:10050000040201020440404040400003070800206C
:10051000545478407F28444438384444442838446C
:1005200044287F385454541800087E090218A4A4A3
:100530009C787F0804047800447D40002040403DC2
:10054000007F1028440000417F40007C047804783C
:100550007C080404783844444438FC1824241818CF
:10056000242418FC7C08040408485454542404042B
:100570003F44243C4040207C1C2040201C3C403018
:10058000403C44281028444C9090907C4464544C47
:1005900044000836410000007700000041360800A2
:1005A00002010204023C2623263C1EA1A161123A4C
:1005B0004040207A38545455592155557941225498
:1005C000547842215554784020545579400C1E529D
:1005D0007212395555555939545454593955545442
:1005E000580000457C410002457D420001457C40A9
:1005F0007D1211127DF0282528F07C5455450020ED
:1006000054547C547C0A097F4932494949323A445E
:1006100044443A324A4848303A4141217A3A4240C9
:100620002078009DA0A07D3D4242423D3D4040409B
:100630003D3C24FF2424487E4943662B2FFC2F2B6E
:10064000FF0929F620C0887E09032054547941000F
:1006500000447D413048484A32384040227A007A8E
:100660000A0A727D0D19317D2629292F282629296C
:10067000292630484D40203808080808080808088E
:10068000382F10C8ACBA2F102834FA00007B0000B5
:1006900008142A142222142A14085500550055AAB9
:1006A00055AA55AAFF55FF55FF000000FF00101086
:1006B00010FF00141414FF001010FF00FF1010F0C2
:1006C00010F0141414FC001414F700FF0000FF00D5
:1006D000FF1414F404FC141417101F10101F101F23
:1006E0001414141F00101010F0000000001F101050
:1006F00010101F10101010F010000000FF1010104C
:10070000101010101010FF10000000FF140000FF68
:1007100000FF00001F10170000FC04F41414171051
:10072000171414F404F40000FF00F7141414141444
:100730001414F700F7141414171410101F101F14BA
:100740001414F4141010F010F000001F101F00001B
:10075000001F14000000FC140000F010F01010FF47
:1007600010FF141414FF141010101F00000000F0EC
:1007700010FFFFFFFFFFF0F0F0F0F0FFFFFF0000C1
:10078000000000FFFF0F0F0F0F0F3844443844FCE8
:100790004A4A4A347E02020606027E027E026355FF
:1007A0004941633844443C04407E201E2006027EBA
:1007B000020299A5E7A5991C2A492A1C4C720172CC
:1007C0004C304A4D4D303048784830BC625A463D36
:1007D0003E494949007E0101017E2A2A2A2A2A44EB
:1007E000445F444440514A444040444A5140000020
:1007F000FF0103E080FF000008086B6B083612362B
:100800002436060F090F060000181800000010100B
:10081000003040FF0101001F01011E00191D1712C9
:10082000003C3C3C3C0000000000AD09B5185D1BDD
:1008300011241FBECFEFD1E2DEBFCDBF00E00CBF61
:1008400014E0A0E0B2E0EEEDFDE700E00BBF02C077
:1008500007900D92A432B107D9F72CE1A4E2B4E0DD
:1008600001C01D92A438B207E1F714E0C8E1D4E05A
:1008700000E006C021970109802FFE010E94A83EDA
:10088000C531D10780E00807A9F70E94600E0C94DB
:10089000093C0C9400002F923F924F925F926F920E
:1008A0007F928F929F92AF92BF92CF92DF92EF9200
:1008B000FF920F931F93CF93DF93CDB7DEB7CA5448
:1008C000D1090FB6F894DEBF0FBECDBF9CAF8BAF82
:1008D0004B0158AF4FAB39011EAF0DAF2196FFAEA4
:1008E000EEAE21972396BFAEAEAE23970DB71EB7DF
:1008F00025961FAF0EAF25978E01045E1F4FC801CE
:100900000E942E1CABADBCAD4D915C9121E06EE21E
:100910007AE1CE0101960E94DB1A8B819C819F8F28
:100920008E8F8D819E81AF81B88588A399A3AAA35C
:10093000BBA389859A85AB85BC858CA39DA3AEA3FB
:10094000BFA38DE0FE013D96DE01989601900D92C9
:100950008A95E1F78A8D9B8D9EAB8DABC8010E9475
:10096000B61CF82ECE0101960E94411CFF20C1F05A
:10097000F601EE0FFF1FFAAFE9AF1301412C512C26
:10098000E12CF12CAFA9B8ADCD01A0E0B0E02996E3
:100990008CAF9DAFAEAFBFAF2997702E612E29C02F
:1009A00068E172E08CEE97E10E94AC14EBADFCAD17
:1009B000608171818CEE97E10E94AC1467E28CEE4D
:1009C00097E10E94DB14A6C0D401ED91FC9102884E
:1009D000F389E02DC40119950FB6F894BEBE0FBE81
:1009E000ADBEBFEFEB1AFB0AEFEF2E1A3E0A4E0A1E
:1009F0005E0A23960EAD1FAD2397E016F10609F4AB
:100A000082C0ADB6BEB60DB71EB729AD3AAD021B5A
:100A1000130B0FB6F8941EBF0FBE0DBF8DB79EB758
:100A2000019698AF8FABEBADFCADA281B381A20173
:100A300091010E94CE3E29960CAD1DAD2EAD3FAD6D
:100A40002997060F171F281F391FB901A801440F46
:100A5000551F661F771F872D962D0E944C1C49AD90
:100A60005AAD6FA978AD872D962D0E94421C29ADF5
:100A70003AAD8217930781F069E272E08CEE97E15C
:100A80000E94C914872D962D0E94A41C0FB6F894BD
:100A9000BEBE0FBEADBE3EC0D401ED91FC9106803E
:100AA000F781E02DC401199501E010E0960121962F
:100AB0004EAD5FAD21974E0D5F1D6DAD7EADC40196
:100AC0000E94E3360FA918AD20E030E02C153D055B
:100AD00009F47ACFF801619171918F017627672728
:100AE0007627C4012A962FAF2A972B963FAF2B97D4
:100AF0000E9494372A962FAD2A972B963FAD2B97BD
:100B00002F5F3F4FE3CFCE014C960E94A41CCE0135
:100B10004C9602C0CE014C960E94411C25962EADEB
:100B20003FAD25970FB6F8943EBF0FBE2DBFC65BF5
:100B3000DF4F0FB6F894DEBF0FBECDBFDF91CF9170
:100B40001F910F91FF90EF90DF90CF90BF90AF90EB
:100B50009F908F907F906F905F904F903F902F90DD
:100B600008952091030230910402809146179091DC
:100B70004717820F931F4091050250910602209162
:100B8000481730914917240F351F213048E03407AA
:100B900014F020E038E037FF02C020E030E030936E
:100BA000451720934417813028E0920714F080E025
:100BB00098E097FF02C080E090E090934317809305
:100BC00042170895AF92BF92CF92DF92EF92FF92B9
:100BD0000F931F932091050230910602213F46E0BA
:100BE000340714F020EF36E037FF02C020E030E099
:100BF0003093060220930502809103029091040233
:100C0000813147E0940714F080E197E097FF02C03C
:100C100080E090E090930402809303024091481793
:100C200050914917452BC9F4203141E034073CF07D
:100C300020513140309306022093050206C0232B39
:100C400061F0109206021092050226E031E0309326
:100C500049172093481721E001C020E04091481730
:100C60005091491747305140F1F44091050250919D
:100C70000602413E35E053073CF4405F5E4F50931F
:100C800006024093050209C0403F564061F020EF44
:100C900036E0309306022093050221E030E03093E5
:100CA0004917209348174091461750914717452BF5
:100CB000B9F4803F91053CF0805F91099093040264
:100CC0008093030206C0892B59F0109204021092FF
:100CD000030285EE90E0909347178093461721E03A
:100CE0008091461790914717873E9105D9F48091DE
:100CF000030290910402813246E094071CF4805173
:100D00009F4F05C08031974069F080E197E0909354
:100D100004028093030281E090E090934717809350
:100D2000461702C02223C9F0209103023091040229
:100D3000409105025091060280EFA82EB12C90E15F
:100D4000C92EDD24D394E12CF12C00E010E06AE4FC
:100D500077E187E092E00E944B041F910F91FF9092
:100D6000EF90DF90CF90BF90AF900895CF92DF9239
:100D7000EF92FF920F931F93CF93DF93EC018B01C0
:100D80006C0197FF03C087E0C80ED11C93E0D59497
:100D9000C7949A95E1F70D2C000CEE08FF0889E046
:100DA000D80E8DE3E81EF11C8FEFC81688E0D80638
:100DB0008DE3E806F104E1F4CE0168E070E00E9402
:100DC000533EFC0186E0EE0FFF1F8A95E1F7EE51DE
:100DD000FB4E80E4D80101900D928A95E1F7DF91F6
:100DE000CF911F910F91FF90EF90DF90CF900895DA
:100DF00022EE34E1B701A60182E297E10E94522679
:100E00008111DACF6DE372E08CEE97E10E94C91494
:100E1000EFCFAF92BF92CF92DF92EF92FF920F93FC
:100E20001F931F921F9228E02F931F92A12CB12C89
:100E3000650118E8E12E10E1F12E03E51FEF24E330
:100E400037E842E55FEF0E9487190F900F900F90EF
:100E50000F90CB011F910F91FF90EF90DF90CF90FB
:100E6000BF90AF900895AF92BF92CF92DF92EF9272
:100E7000FF920F931F931F921F9228E02F931F92B0
:100E8000A12CB12C650119E1E12E1FE7F12E01E53E
:100E900010E022EC30ED41E550E00E9487190F9000
:100EA0000F900F900F90CB011F910F91FF90EF903B
:100EB000DF90CF90BF90AF900895CF92DF92EF92E6
:100EC000FF920F931F93FC010081118122813381D6
:100ED000FB01C080D180E280F380FC01C082D1821E
:100EE000E282F382FB0100831183228333831F910B
:100EF0000F91FF90EF90DF90CF900895AF92BF9247
:100F0000CF92DF92EF92FF920F931F93CF93DF93D5
:100F10005B0104967C0101E010E00A151B0504F555
:100F2000E70168011C141D04ACF49E012450310932
:100F3000CE01E901FC013297408151812E813F8130
:100F40002417350738F4BE010E945D0781E0C81AF6
:100F5000D108E8CF0F5F1F4F84E0E80EF11CDDCF12
:100F6000DF91CF911F910F91FF90EF90DF90CF9085
:100F7000BF90AF9008950F931F93CF93DF930AE331
:100F800014E0C0E0D0E06091010270910202C61747
:100F9000D7070CF048C062EE76E1CE010E94B6069B
:100FA0006091E6167091E7168091E8169091E91627
:100FB0000E94090790932704809326046091E2160B
:100FC0007091E3168091E4169091E5160E94330724
:100FD0009093290480932804209144173091451759
:100FE0004091260450912704B901641B750B77FFCB
:100FF00003C0719561957109409142175091431753
:101000009A01281B390B37FF03C03195219531090F
:10101000260F371FF80133832283D183C0832196A3
:101020000C5F1F4FB0CF8AE394E0DF91CF911F9107
:101030000F910C947E076F927F928F929F92AF9246
:10104000BF92CF92DF92EF92FF920F931F93CF93B5
:10105000DF936C017B013A015A01AA0CBB1CAA0C5C
:10106000BB1CA80EB91EF50182809380EB0121976D
:101070008B01000F111F000F111F080F191FE6141D
:10108000F704BCF4F801828193818816990658F020
:101090002196CE01880F991F880F991FB8018C0DDA
:1010A0009D1D0E945D07FFEFEF1AFF0A0C5F1F4FA7
:1010B000E6CF2196CE01880F991F880F991FB501A1
:1010C0008C0D9D1D0E945D07CE01DF91CF911F9178
:1010D0000F91FF90EF90DF90CF90BF90AF909F90D7
:1010E0008F907F906F900895CF92DF92EF92FF9252
:1010F0000F931F93CF93DF937C01EB016A01CC1513
:10110000DD0584F4A601BE01C7010E941B088C0105
:10111000AC0141505109BE01C7010E947408E801A9
:101120002196EDCFDF91CF911F910F91FF90EF901E
:10113000DF90CF9008950F931F93CF93DF930AE32F
:1011400014E0C0E0D0E04091010250910202C417C7
:10115000D5070CF048C062EE76E1CE010E94B606DB
:101160006091E6167091E7168091E8169091E91665
:101170000E94090790932704809326046091E21649
:101180007091E3168091E4169091E5160E94330762
:101190009093290480932804209144173091451797
:1011A0004091260450912704B901641B750B77FF09
:1011B00003C0719561957109409142175091431791
:1011C0009A01281B390B37FF03C03195219531094E
:1011D000260F371FF80133832283D183C0832196E2
:1011E0000C5F1F4FB0CF4150510960E070E08AE3BF
:1011F00094E0DF91CF911F910F910C947408AF92FE
:10120000BF92CF92DF92EF92FF920F931F93CF93F3
:10121000DF9300D000D0CDB7DEB78EE297E10E9419
:10122000D4384B835C836D837E836B817C81072EF6
:10123000000C880B990B1F921F921F921F922FE395
:10124000A22EBB24B394C12CD12C18EEE12E13E0B6
:10125000F12E00E010E02AE030E040E050E00E9493
:1012600087190F900F900F900F90653071400CF020
:1012700063C08D819E810A978F3D934008F05CC0CA
:10128000E12CF12C62EE76E1C7010E94B606609176
:10129000E6167091E7168091E8169091E9160E9483
:1012A000090790933104809330046091E2167091A5
:1012B000E3168091E4169091E5160E94330790930F
:1012C0002F0480932E04609130047091310420919A
:1012D000050230910602621773072CF1A901495FDC
:1012E0005E4F46175707FCF04091030250910402ED
:1012F00084179507C4F0FA01E951FF4FE817F90781
:1013000094F0FC01E41BF50BAF0141505109621B45
:10131000730B615071090FE110E024E030E08AE4C2
:1013200097E10E943F2FFFEFEF1AFF0A2BE2E21630
:1013300024E0F20609F0A6CF26960FB6F894DEBF99
:101340000FBECDBFDF91CF911F910F91FF90EF9016
:10135000DF90CF90BF90AF900895EF92FF920F93E0
:101360002FEF49E06AE08AE497E10E94BA338CE209
:10137000E82EFF24F39405E029E348E364E08EE2DD
:1013800097E10E942E3AE2E2F7E115821682118679
:1013900013860F91FF90EF9008958F929F92AF92D6
:1013A000BF92CF92DF92EF92FF920F931F93CF9352
:1013B000DF937C018B0140E050E060E070E08AE464
:1013C00097E10E94723261E08AE497E10E947832EC
:1013D00080912A0490912B04892B09F45CC08091A0
:1013E0003604909137048E159F0509F4A7C0E801D3
:1013F0005801AA0CBB1CAA0CBB1C00E010E06E013B
:101400008EE1C80ED11CCC15DD0508F097C0CE15B5
:10141000DF0591F4FE01EE0FFF1FEE0FFF1FE65CEC
:10142000FB4F62EE76E1808191810E94B6064FEF1C
:101430005FEF60E070E016C0809136049091370451
:10144000C817D907B1F4F801EA0DFB1DE65CFB4FA4
:1014500062EE76E1808191810E94B60640E050E024
:101460006FEF7FEF8AE497E10E947E326BEE76E1C8
:101470000AC040E050E06FEF7FEF8AE497E10E94FE
:101480007E326DE672E08AE497E10E94C9142196EB
:101490000C5F1F4FB8CF60E070E08AE497E10E94D4
:1014A000412DE8015801AA0CBB1CAA0CBB1C00E092
:1014B00010E06E018EE1C80ED11C88248394912C1B
:1014C000CC15DD05D8F5F801EA0DFB1DE65CFB4FF8
:1014D00062EE76E1808191810E94B60680910102E0
:1014E00090910202C817D9075CF040E050E060E03C
:1014F00070E08AE497E10E947E326EE572E012C0ED
:10150000CE15DF0529F44FEF5FEF60E070E004C017
:1015100040E050E06FEF7FEF8AE497E10E947E3277
:101520006BEE76E18AE497E10E94C91490922B0455
:1015300080922A0421960C5F1F4FC2CFDF91CF917A
:101540001F910F91FF90EF90DF90CF90BF90AF90E1
:101550009F908F9008958F929F92AF92BF92CF925B
:10156000DF92EF92FF920F931F93CF93DF93EC01E3
:101570004B0179018091030290910402280F391FD9
:10158000E0910502F0910602E40FF51F89E0A82E14
:10159000B12C99E0C92ED12C8A01AF016AE477E120
:1015A00087E092E00E944B04E12C28EFF22E09E044
:1015B00010E029E030E0A401BE018AE497E10E9436
:1015C0006333DF91CF911F910F91FF90EF90DF90E8
:1015D000CF90BF90AF909F908F900895CF92DF9261
:1015E000EF92FF920F931F93CF93DF9386E30E94B6
:1015F00063136C0187E30E946313EC0182E00E9495
:1016000046140091481710914917E0904617F09042
:10161000471720E032E0C9018C199D0997FDCF964C
:1016200036E0959587953A95E1F7800F911F8830C0
:1016300021E0920714F087E091E097FF02C080E07C
:1016400090E09093491780934817CE01925097FDF0
:10165000CF9626E0959587952A95E1F78E0D9F1DEB
:10166000883E910514F087EE90E097FF02C080E07D
:1016700090E090934717809346170E94E20580916F
:101680004817909149176091461770914717801736
:10169000910719F46E157F0521F09701A8010E94AA
:1016A000AB0A6AE070E080E090E0DF91CF911F919B
:1016B0000F91FF90EF90DF90CF900C94DB12AF92E0
:1016C000BF92CF92DF92EF92FF920F931F930E94EF
:1016D000011340E855E260E070E08CEE97E10E9473
:1016E0002D1862E082E00E94DA1340E050E0BA0177
:1016F0008AE497E10E947B346EE672E08CEE97E11B
:101700000E94AC1466E08EE29AE10E94C819811131
:1017100007C066E872E08CEE97E10E94C914FFCF23
:1017200067EA72E08CEE97E10E94C91460E070E015
:101730008AE497E10E94412D63E08AE497E10E94E8
:10174000713680EFA82EB12C90E1C92EDD24D39400
:10175000E12CF12C00E010E028E833E048E753E00A
:101760006AE477E187E092E00E944B0483E890E02E
:10177000909349178093481783E790E09093471719
:101780008093461723E730E043E850E063E770E0DA
:1017900083E890E00E94AB0AEE24EA94FE2C07E76F
:1017A00010E020E330E049E750E060E171E08AE4D6
:1017B00097E10E94633330EEE32E37E0F32E20E30F
:1017C00030E049E750E060E171E08AE497E10E948F
:1017D000D52D4FEF5FEF60E070E08AE497E10E9463
:1017E0007E324DE850E065E271E08AE497E10E94C4
:1017F000723262E08AE497E10E9478326BEA72E02A
:101800008AE497E10E94AC144EE950E065E271E091
:101810008AE497E10E94723262E08AE497E10E94D2
:1018200078326DEA72E08AE497E10E94AC144FEAE4
:1018300050E065E271E08AE497E10E94723262E072
:101840008AE497E10E9478326FEA72E08AE497E1D5
:101850000E94AC1440EC50E065E271E08AE497E14C
:101860000E94723262E08AE497E10E94783261EB72
:1018700072E08AE497E10E94AC1441ED50E065E229
:1018800071E08AE497E10E94723262E08AE497E1B3
:101890000E94783263EB72E08AE497E10E94AC1414
:1018A00061E08AE497E10E94783260E08AE497E19F
:1018B0000E94843265EB72E08CEE97E10E94AC14DA
:1018C00046E061E082E297E10E94C024811107C0F6
:1018D00065EE72E08CEE97E10E94C914FFCF67EAD3
:1018E00072E08CEE97E11F910F91FF90EF90DF90E7
:1018F000CF90BF90AF900C94C9144F925F926F92AB
:101900007F92AF92BF92CF92DF92EF92FF920F93AE
:101910001F93CF93DF9300D000D0CDB7DEB78EE218
:1019200097E10E94D43829833A834B835C836D838B
:101930007E836B817C81072E000C880B990B1F9294
:101940001F921F921F92EFE3AE2EBB24B394C12CC3
:10195000D12C18EEE12E13E0F12E00E010E02AE089
:1019600030E040E050E00E9487192B013C01698182
:101970007A81072E000C880B990B1F921F921F92E1
:101980002FEE2F93A12CB12C65012AE030E040E02E
:1019900050E00E94871924E0421A21E0520A0FB653
:1019A000F894DEBF0FBECDBF3DE34316510408F0EF
:1019B00072C1CB01895791098837910508F06BC135
:1019C0008D819E810A978F3D934008F064C16CE041
:1019D00073E08CEE97E10E94C91464EF71E080E03F
:1019E00090E00E94DB12809100028823D1F181E017
:1019F0008093250410920002EE24EA94FE2C07E75F
:101A000010E020E330E049E750E060E171E08AE473
:101A100097E10E94633350EEE52E57E0F52E20E368
:101A200030E049E750E060E171E08AE497E10E942C
:101A3000D52D4FEF5FEF60E070E08AE497E10E9400
:101A40007E324DE850E065E271E08AE497E10E9461
:101A5000723262E08AE497E10E9478326BE173E0CF
:101A6000B6C080912504882309F473C081E0809377
:101A7000240410922504EE24EA94FE2C07E710E0DB
:101A800020E330E049E750E060E171E08AE497E16B
:101A90000E94633330EEE32E37E0F32E20E330E094
:101AA00049E750E060E171E08AE497E10E94D52DBA
:101AB0004FEF5FEF60E070E08AE497E10E947E32D2
:101AC00042E950E065E271E08AE497E10E947232F7
:101AD00062E08AE497E10E9478326DE173E08AE483
:101AE00097E10E94AC1443EA50E065E271E08AE4B9
:101AF00097E10E94723262E08AE497E10E947832B4
:101B00006FEA72E08AE497E10E94AC1444EB50E083
:101B100065E271E08AE497E10E94723262E08AE451
:101B200097E10E94783263EB72E08AE497E10E94C9
:101B3000AC1445EC50E065E271E08AE497E10E9464
:101B4000723262E08AE497E10E9478326FE173E0DA
:101B50008AC080912404882309F49DC081E0809389
:101B6000000210922404EE24EA94FE2C07E710E011
:101B700020E330E049E750E060E171E08AE497E17A
:101B80000E94633390EEE92E97E0F92E20E330E0D7
:101B900049E750E060E171E08AE497E10E94D52DC9
:101BA0004FEF5FEF60E070E08AE497E10E947E32E1
:101BB0004DE850E065E271E08AE497E10E947232FC
:101BC00062E08AE497E10E9478326BEA72E08AE48C
:101BD00097E10E94AC144EE950E065E271E08AE4BE
:101BE00097E10E94723262E08AE497E10E947832C3
:101BF0006DEA72E08AE497E10E94AC144FEA50E08B
:101C000065E271E08AE497E10E94723262E08AE460
:101C100097E10E9478326FEA72E08AE497E10E94CD
:101C2000AC1440EC50E065E271E08AE497E10E9478
:101C3000723262E08AE497E10E94783261EB72E0EE
:101C40008AE497E10E94AC1441ED50E065E271E056
:101C50008AE497E10E94723262E08AE497E10E948E
:101C6000783263EB72E08AE497E126960FB6F89437
:101C7000DEBF0FBECDBFDF91CF911F910F91FF90BF
:101C8000EF90DF90CF90BF90AF907F906F905F907C
:101C90004F900C94AC1426960FB6F894DEBF0FBE8E
:101CA000CDBFDF91CF911F910F91FF90EF90DF900B
:101CB000CF90BF90AF907F906F905F904F900895BE
:101CC000CF93DF93CDB7DEB7C054D1090FB6F894E8
:101CD000DEBF0FBECDBF0E945F0B00E010E0B3E798
:101CE0002B2E312C8DE1682E712C0E94FF080E9452
:101CF0007D0C0E94B1050E94EE0A82E00E9446140B
:101D00002C01012B09F4DFC160E070E08AE497E167
:101D10000E94412DE0913804F0913904EE0FFF1F2D
:101D2000EE0FFF1FE65CFB4FBE016F5F7F4F8081B0
:101D300091810E94B6066D817E818F8198850E9477
:101D40000907909331048093300469817A818B81F3
:101D50009C810E94330790932F0480932E0440911E
:101D6000050250910602413F86E0580714F040EF0B
:101D700056E057FF02C040E050E050930602409307
:101D800005022091030230910402213197E03907C6
:101D900014F020E137E037FF02C020E030E030935C
:101DA000040220930302E0EFAE2EB12CF0E1CF2E1F
:101DB000DD24D394E12CF12C00E010E06AE477E11B
:101DC00087E092E00E944B04809100028823A9F1F1
:101DD000EE24EA94FE2C07E710E020E330E049E728
:101DE00050E060E171E08AE497E10E94633370EEB5
:101DF000E72E77E0F72E20E330E049E750E060E19E
:101E000071E08AE497E10E94D52D4FEF5FEF60E02B
:101E100070E08AE497E10E947E324DE850E065E28E
:101E200071E08AE497E10E94723262E08AE497E10D
:101E30000E9478326BEA72E039C0809125048823D1
:101E400009F481C0EE24EA94FE2C07E710E020E3B9
:101E500030E049E750E060E171E08AE497E10E94F8
:101E6000633350EEE52E57E0F52E20E330E049E7EE
:101E700050E060E171E08AE497E10E94D52D4FEFD8
:101E80005FEF60E070E08AE497E10E947E324DE807
:101E900050E065E271E08AE497E10E94723262E00C
:101EA0008AE497E10E9478326BE173E08AE497E17B
:101EB0000E94AC144EE950E065E271E08AE497E1DB
:101EC0000E94723262E08AE497E10E9478326DEA01
:101ED00072E08AE497E10E94AC144FEA50E065E2B8
:101EE00071E08AE497E10E94723262E08AE497E14D
:101EF0000E9478326FEA72E08AE497E10E94AC14A3
:101F000040EC50E065E271E08AE497E10E947232B1
:101F100062E08AE497E10E94783261EB72E08AE441
:101F200097E10E94AC1441ED50E065E271E08AE473
:101F300097E10E94723262E08AE497E10E9478326F
:101F400063EB72E072C080912404882309F471C0AD
:101F5000EE24EA94FE2C07E710E020E330E049E7A6
:101F600050E060E171E08AE497E10E94633330EE73
:101F7000E32E37E0F32E20E330E049E750E060E164
:101F800071E08AE497E10E94D52D4FEF5FEF60E0AA
:101F900070E08AE497E10E947E3242E950E065E217
:101FA00071E08AE497E10E94723262E08AE497E18C
:101FB0000E9478326DE173E08AE497E10E94AC14EC
:101FC00043EA50E065E271E08AE497E10E947232F0
:101FD00062E08AE497E10E9478326FEA72E08AE474
:101FE00097E10E94AC1444EB50E065E271E08AE4B2
:101FF00097E10E94723262E08AE497E10E947832AF
:1020000063EB72E08AE497E10E94AC1445EC50E087
:1020100065E271E08AE497E10E94723262E08AE44C
:1020200097E10E9478326FE173E08AE497E10E94C1
:10203000AC144091050250910602209103023091A8
:1020400004024115510559F0403F86E0580739F028
:102050002115310521F0203197E03907F1F4809105
:10206000300490913104841B950B8D3041E094072E
:1020700014F4059702C087E091E09093491780938C
:10208000481780912E0490912F04821B930B059783
:1020900090934717809346170AC083E890E0909387
:1020A000491780934817309247172092461760913E
:1020B00046177091471780914817909149179B01D7
:1020C000AC010E94AB0A00E010E0452809F00DCEFB
:1020D00080910002882389F00E94AA124B015C01C2
:1020E0000E94BB070E94AA126B017C01C818D90884
:1020F000EA08FB0861E273E03BC08091250481118E
:1021000027C080912404882309F444C00E94AA12A5
:102110004B015C010E94BB070E94AA126B017C016B
:10212000C818D908EA08FB0861E273E08CEE97E171
:102130000E94AC142AE030E0B701A6018CEE97E1D2
:102140000E94A4156FE373E08CEE97E10E94C9141E
:102150000E94AA124B015C010E949B080E94AA12D5
:102160006B017C01C818D908EA08FB0863E473E036
:102170008CEE97E10E94AC142AE030E0B701A60192
:102180008CEE97E10E94A4156FE373E08CEE97E16B
:102190000E94C91460E070E08AE497E10E94412D3A
:1021A00010923904109238041092350410923404BD
:1021B000109233041092320481E090E090932D0449
:1021C00080932C0410922B0410922A04109237044E
:1021D0001092360460E070E080E090E00E94CD094B
:1021E00000E010E09EE1492E512C80912C0490914A
:1021F0002D04892B09F479CD87E30E9463137C01B8
:1022000082E00E94461490E4E91692E0F9060CF48C
:102210006DC08091380490913904019690933904EF
:102220008093380420913404309135042F5F3F4F60
:102230003093350420933404E0910102F0910202BE
:102240009F01215031098E179F0764F030933904A4
:1022500020933804CF01B2010E94533E909335047D
:1022600080933404E0903804F0903904CF01B20137
:102270000E94533E281B390B2E153F05BCF480915C
:102280003404909135044E978CF0809132049091F3
:1022900033044E96909333048093320410923504A5
:1022A0001092340410922B0410922A04809134046A
:1022B000909135044E97A4F0E216F3068CF4109238
:1022C00035041092340480913204909133044E9678
:1022D000909333048093320410922B0410922A04BA
:1022E0006091320470913304C70146C041ECE4169A
:1022F00041E0F4060CF04AC0809138049091390412
:1023000001979093390480933804209134043091DC
:10231000350421503109309335042093340497FF5C
:1023200008C01092390410923804109235041092AB
:102330003404209134043091350480913804909114
:10234000390437FF15C08D31910594F07092350432
:102350006092340420913204309133042E513109BB
:10236000309333042093320410922B0410922A04E9
:1023700060913204709133040E94CD098091380439
:102380009091390490933704809336046DE573E09F
:102390008CEE97E10E94AC1460913804709139047E
:1023A0004AE050E08CEE97E10E948D156FE673E0F5
:1023B0008CEE97E10E94AC14609134047091350466
:1023C0004AE050E08CEE97E10E948D156AE873E0D8
:1023D0008CEE97E10E94AC1460913204709133044A
:1023E0004AE050E08CEE97E10E948D1582E00E9459
:1023F0004614892B09F054C010922D0410922C041D
:1024000010922B0410922A04E0913804F0913904C0
:10241000EE0FFF1FEE0FFF1FE65CFB4FBE016F5F6D
:102420007F4F808191810E94B6066D817E818F8170
:1024300098850E9409079093310480933004698144
:102440007A818B819C810E94330790932F04809323
:102450002E042091300430913104293831053CF0AC
:1024600028583109309306022093050208C01092C3
:1024700006021092050210924917109248178937E8
:102480009105ACF088579109909304028093030260
:1024900066EB73E080E090E00E94DB1201E010E068
:1024A00062E370E080E090E00E94DB129ECE10922A
:1024B0000402109203021092471710924617E8CFB9
:1024C0001F920F920FB60F9211242F933F938F9369
:1024D0009F93AF93BF9380917E1790917F17A091A8
:1024E0008017B091811730917D1723E0230F2D378E
:1024F00020F40196A11DB11D05C026E8230F029608
:10250000A11DB11D20937D1780937E1790937F1797
:10251000A0938017B09381178091821790918317B1
:10252000A0918417B09185170196A11DB11D8093CC
:10253000821790938317A0938417B0938517BF9148
:10254000AF919F918F913F912F910F900FBE0F9060
:102550001F9018952FB7F89460917E1770917F1790
:1025600080918017909181172FBF08953FB7F894FD
:102570008091821790918317A0918417B09185174D
:1025800026B5A89B05C02F3F19F00196A11DB11DCE
:102590003FBFBA2FA92F982F8827820F911DA11D09
:1025A000B11DBC01CD0142E0660F771F881F991F46
:1025B0004A95D1F70895CF92DF92EF92FF92CF9391
:1025C000DF936B017C010E94B612EB01C114D104B0
:1025D000E104F10479F00E94B6126C1B7D0B683E99
:1025E0007340A0F381E0C81AD108E108F108C8518E
:1025F000DC4FECCFDF91CF91FF90EF90DF90CF9049
:102600000895789484B5826084BD84B5816084BD6A
:1026100085B5826085BD85B5816085BDEEE6F0E05B
:10262000808181608083E1E8F0E0108280818260B7
:102630008083808181608083E0E8F0E08081816038
:102640008083E1EBF0E0808184608083E0EBF0E068
:10265000808181608083E1E9F0E080818260808315
:10266000808181608083E0E9F0E080818160808307
:10267000E1EAF0E0808182608083808181608083F4
:10268000E0EAF0E0808181608083E1E2F1E0808136
:1026900082608083808181608083E0E2F1E08081DC
:1026A00081608083EAE7F0E08081846080838081BC
:1026B0008260808380818160808380818068808364
:1026C0001092C1000895863308F0865390917B00E4
:1026D000282F2870977F922B90937B0087702091F2
:1026E0000D0290E4299F90011124822B80937C009D
:1026F00080917A00806480937A0080917A0086FDD0
:10270000FCCF809178002091790090E0922B089581
:1027100090E0FC013197E131F10508F04AC08827CB
:10272000EE58FF4F8F4F0C94A83E809180008F771A
:1027300003C0809180008F7D80938000089584B5D0
:102740008F7702C084B58F7D84BD08958091B000DD
:102750008F7703C08091B0008F7D8093B000089583
:10276000809190008F7707C0809190008F7D03C08B
:1027700080919000877F8093900008958091A000C1
:102780008F7707C08091A0008F7D03C08091A0004B
:10279000877F8093A0000895809120018F7707C0E4
:1027A000809120018F7D03C080912001877F8093DD
:1027B00020010895CF93DF9390E0FC01E05CFD4F92
:1027C0002491FC01EA57FD4F8491882361F190E048
:1027D000880F991FFC01E050FD4FC591D491FC0179
:1027E000EA51FD4FA591B491611109C09FB7F894CA
:1027F0008881209582238883EC912E230BC0623040
:1028000061F49FB7F8943881822F80958323888361
:10281000EC912E2B2C939FBF06C08FB7F894E881C4
:102820002E2B28838FBFDF91CF9108951F93CF93D5
:10283000DF93282F30E0F901E650FE4F8491F90133
:10284000E05CFD4FD491F901EA57FD4FC491CC23D0
:10285000C9F0162F81110E948813EC2FF0E0EE0FC3
:10286000FF1FEA51FD4FA591B4918FB7F894111154
:1028700005C09C91ED2FE095E92302C0EC91ED2B72
:10288000EC938FBFDF91CF911F910895CF93DF938A
:10289000282F30E0F901E650FE4F8491F901E05C09
:1028A000FD4FD491F901EA57FD4FC491CC2391F02B
:1028B00081110E948813EC2FF0E0EE0FFF1FE4530C
:1028C000FD4FA591B491EC91ED2381E090E021F4CE
:1028D00080E002C080E090E0DF91CF910895CF9238
:1028E000DF92EF92FF920F931F93CF93DF936C01D0
:1028F000EB017B01E40EF51E00E010E0CE15DF05D4
:1029000061F06991D601ED91FC910190F081E02D8B
:10291000C6011995080F191FF1CFC801DF91CF919A
:102920001F910F91FF90EF90DF90CF900895611568
:10293000710579F0FB0101900020E9F73197AF01B3
:10294000461B570BDC01ED91FC910280F381E02DD9
:10295000199480E090E008950C949714DC01ED91B7
:10296000FC910190F081E02D19940F931F93CF9368
:10297000DF93EC016DE00E94AE148C016AE0CE01A1
:102980000E94AE14800F911FDF91CF911F910F9184
:1029900008950F931F93CF93DF93EC010E94971438
:1029A0008C01CE010E94B514800F911FDF91CF9151
:1029B0001F910F9108950F931F93CF93DF93EC0115
:1029C0000E94AE148C01CE010E94B514800F911F9D
:1029D000DF91CF911F910F9108958F929F92AF92A7
:1029E000BF92CF92DF92EF92FF920F931F93CF93FC
:1029F000DF93CDB7DEB7A1970FB6F894DEBF0FBE59
:102A0000CDBF6C01142FE52FCB01022F19A222306C
:102A100008F40AE07E0121E2E20EF11C802E912CE6
:102A2000A12CB12C612F7E2FA50194010E94673E3D
:102A3000029F1019112481E0E81AF1081A3014F4E9
:102A4000105D01C0195CF7011083122FE32FCA013A
:102A5000232B242B252B31F7B701C6010E94971495
:102A6000A1960FB6F894DEBF0FBECDBFDF91CF9118
:102A70001F910F91FF90EF90DF90CF90BF90AF909C
:102A80009F908F900895CF92DF92EF92FF920F93D5
:102A90001F93CF93DF93EC016A017B012115310570
:102AA00079F4E881F9810190F081E02D642FDF91C4
:102AB000CF911F910F91FF90EF90DF90CF901994DD
:102AC0002A303105E9F477FF1AC06DE20E94AE1496
:102AD0008C0144275527BA014C195D096E097F09FD
:102AE0002AE0CE010E94ED14800F911FDF91CF915B
:102AF0001F910F91FF90EF90DF90CF9008952AE003
:102B0000B701A601CE01DF91CF911F910F91FF90E8
:102B1000EF90DF90CF900C94ED140F931F93CF9311
:102B2000DF93EC019A01AB01770F660B770B0E94E4
:102B300043158C01CE010E94B514800F911FDF91C7
:102B4000CF911F910F9108952115310541F4DC01BA
:102B5000ED91FC910190F081E02D642F19940C947B
:102B6000ED140895FC0124853585F901E05CFF4FE3
:102B700080819181329620813181821B930B8F73EA
:102B800099270895DC011C96ED91FC911D97DF01BA
:102B9000A05CBF4F2D913C91119712968D919C9105
:102BA00011972817390739F08D919C91E80FF91F7B
:102BB000808190E008958FEF9FEF0895FC01A48538
:102BC000B585FD01E05CFF4F208131813296808127
:102BD00091812817390779F080819181A80FB91F59
:102BE0008C91208131812F5F3F4F2F7333273183A9
:102BF000208390E008958FEF9FEF0895FC0181A15D
:102C0000882329F0A489B5898C9186FFFBCF11A276
:102C100008950F931F93CF93DF93FC01A685B7858B
:102C20008D01005C1F4FE8018881998101968F73A7
:102C30009927AD014E5B5F4FEA01288139818217E8
:102C40009307D1F3E80128813981A20FB31F6C9358
:102C5000A685B785A05CBF4F11969C938E93A689DD
:102C6000B7892C9181E090E0078C02C0880F991FF2
:102C70000A94E2F7822B8C9381E081A30488F58982
:102C8000E02D80818064808381E090E0DF91CF91AE
:102C90001F910F910895FB01E05CFF4F208131816E
:102CA0002F5F3F4F2F733327DB01AE5BBF4F4D913B
:102CB0005C912417350741F040815181DB01A40F5D
:102CC000B51F8C933183208308951F920F920FB606
:102CD0000F9211240BB60F922F933F934F935F9354
:102CE0006F937F938F939F93AF93BF93EF93FF93D4
:102CF0008091C00082FD07C08091C6006AEE79E134
:102D00000E944B1602C08091C600FF91EF91BF91C7
:102D1000AF919F918F917F916F915F914F913F9173
:102D20002F910F900BBE0F900FBE0F901F90189514
:102D30001F920F920FB60F9211240BB60F922F9382
:102D40003F934F935F936F937F938F939F93AF9333
:102D5000BF93EF93FF938091C80082FD07C08091DD
:102D6000CE0062E679E10E944B1602C08091CE004F
:102D7000FF91EF91BF91AF919F918F917F916F9153
:102D80005F914F913F912F910F900BBE0F900FBE0F
:102D90000F901F9018951F920F920FB60F9211244B
:102DA0000BB60F922F933F934F935F936F937F9345
:102DB0008F939F93AF93BF93EF93FF938091D00036
:102DC00082FD07C08091D6006AED78E10E944B1623
:102DD00002C08091D600FF91EF91BF91AF919F917A
:102DE0008F917F916F915F914F913F912F910F90B4
:102DF0000BBE0F900FBE0F901F9018951F920F9251
:102E00000FB60F9211240BB60F922F933F934F934F
:102E10005F936F937F938F939F93AF93BF93EF9342
:102E2000FF938091300182FD07C08091360162E5F9
:102E300078E10E944B1602C080913601FF91EF911C
:102E4000BF91AF919F918F917F916F915F914F91C2
:102E50003F912F910F900BBE0F900FBE0F901F90C0
:102E600018951F920F920FB60F9211240BB60F9266
:102E70002F933F938F939F93EF93FF932091E619A6
:102E80003091E7198091E8199091E91928173907CD
:102E900031F48091C1008F7D8093C10014C0E09116
:102EA000E819F091E919EA55F64E20818091E81968
:102EB0009091E91901968F7399279093E91980935E
:102EC000E8192093C600FF91EF919F918F913F9158
:102ED0002F910F900BBE0F900FBE0F901F90189563
:102EE0001F920F920FB60F9211240BB60F922F93D1
:102EF0003F938F939F93EF93FF9320915E193091AF
:102F00005F1980916019909161192817390731F480
:102F10008091C9008F7D8093C90014C0E091601931
:102F2000F0916119E25EF64E2081809160199091D6
:102F3000611901968F739927909361198093601995
:102F40002093CE00FF91EF919F918F913F912F9110
:102F50000F900BBE0F900FBE0F901F9018951F92F1
:102F60000F920FB60F9211240BB60F922F933F932F
:102F70008F939F93EF93FF932091D6183091D7189A
:102F80008091D8189091D9182817390731F4809179
:102F9000D1008F7D8093D10014C0E091D818F091BA
:102FA000D918EA56F74E20818091D8189091D918F7
:102FB00001968F7399279093D9188093D8182093EE
:102FC000D600FF91EF919F918F913F912F910F909C
:102FD0000BBE0F900FBE0F901F9018951F920F926F
:102FE0000FB60F9211240BB60F922F933F938F932E
:102FF0009F93EF93FF9320914E1830914F1880913B
:103000005018909151182817390731F480913101E7
:103010008F7D8093310114C0E0915018F0915118C8
:10302000E25FF74E208180915018909151180196DF
:103030008F739927909351188093501820933601DD
:10304000FF91EF919F918F913F912F910F900BBE28
:103050000F900FBE0F901F901895CF92DF92EF92B6
:10306000FF920F931F93CF93DF93EC016A017B01D3
:103070004115514E6105710509F1EC89FD8981E029
:1030800090E008A002C0880F991F0A94E2F780839D
:1030900060E079E08DE390E0A70196010E94673E31
:1030A00089019A01015011092109310936952795A5
:1030B00017950795980101151041A8F0EC89FD8935
:1030C000108260E874E88EE190E0A70196010E940A
:1030D000673EDA01C9010197A109B109B695A79523
:1030E000979587959C01E889F9893083EA89FB895E
:1030F000208319A2EE89FF89408181E090E09C0144
:103100000C8C02C0220F331F0A94E2F7242B208379
:10311000EE89FF8940819C010D8C02C0220F331F74
:103120000A94E2F7242B2083EE89FF8940819C01D9
:103130000E8C02C0220F331F0A94E2F7242B208347
:10314000EE89FF8920810F8C02C0880F991F0A9495
:10315000E2F7809582238083DF91CF911F910F91B9
:10316000FF90EF90DF90CF900895CF92DF92EF9293
:10317000FF92ECEEF7E11382128288EEC82E83E014
:10318000D82EE12CF12CC482D582E682F7826EEA39
:1031900073E0718360838AEE99E19587848786EA7C
:1031A00099E19787868785EC90E0918B808B84EC02
:1031B00090E0938B828B80EC90E0958B848B81ECFC
:1031C00090E0978B868B82EC90E0918F808F86ECDD
:1031D00090E0938F828F44E0448F33E0358F27E077
:1031E000268F95E0978F81E080A3EAECF7E11382C8
:1031F0001282C482D582E682F78271836083A2E65E
:10320000B9E1B587A487AEE1B9E1B787A687ADEC90
:10321000B0E0B18BA08BACECB0E0B38BA28BA8EC90
:10322000B0E0B58BA48BA9ECB0E0B78BA68BAAEC71
:10323000B0E0B18FA08FAEECB0E0B38FA28F448F1F
:10324000358F268F978F80A3E8EAF7E113821282E9
:10325000C482D582E682F78271836083AAEDB8E1E9
:10326000B587A487A6E9B8E1B787A687A5EDB0E042
:10327000B18BA08BA4EDB0E0B38BA28BA0EDB0E03E
:10328000B58BA48BA1EDB0E0B78BA68BA2EDB0E01F
:10329000B18FA08FA6EDB0E0B38FA28F448F358F92
:1032A000268F978F80A3E6E8F7E113821282C4820B
:1032B000D582E682F7827183608362E578E1758763
:1032C00064876EE078E17787668765E371E0718BEC
:1032D000608B64E371E0738B628B60E371E0758BEC
:1032E000648B61E371E0778B668B62E371E0718FD1
:1032F000608F66E371E0738F628F448F358F268F06
:10330000978F80A3FF90EF90DF90CF9008954F921A
:103310005F926F927F92AF92BF92CF92DF92EF92C5
:10332000FF920F931F93CF93DF93CDB7DEB72901A1
:103330003A019B01AC0124193509460957098A89CC
:103340009B89AC89BD89BC01CD016A197B098C09B7
:103350009D090E94433EA801970124193509460999
:1033600057090E94893ECA01B9016A0D7B1D8C1D57
:103370009D1DDF91CF911F910F91FF90EF90DF90F6
:10338000CF90BF90AF907F906F905F904F900895D7
:103390000F931F93CF93DF93EC01462F61E00E94C0
:1033A000C024882391F08E01045F1F4F41E0BE01CD
:1033B000C8010E94762A882351F0B801CE018A966E
:1033C0000E949C1D91E081110AC090E008C040E07D
:1033D000BE01C8010E94762A8823B9F3EECF892F57
:1033E000DF91CF911F910F910895FC01DB0112969F
:1033F0008D919C9113979383828380ED93E09183C9
:10340000808314968C911497848315968C911597CC
:10341000858316964D915D916D917C9119974683A8
:103420005783608771871A964D915D916D917C915C
:103430001D9742875387648775871E964D915D91CE
:103440006D917C91519746875787608B718B52960F
:103450008C915297828B53964D915D916D917C9199
:103460005697438B548B658B768B57964D915D9118
:103470006D917C915A97478B508F618F728F5B96BD
:103480008D919C915C97948F838F08954F925F925A
:103490006F927F928F929F92AF92BF92CF92DF9264
:1034A000EF92FF920F931F93CF93DF93CDB7DEB7C9
:1034B000C754D1090FB6F894DEBF0FBECDBF6C0163
:1034C0005A014901665D7F4F7E018EE1E80EF11CD5
:1034D000C7010E94F5191C821B8280ED93E09A833C
:1034E00089831E828501FE0131963F0127016FE22B
:1034F00070E0C8010E94193C0097D9F1F8012081C1
:103500002F3219F40F5F1F4FF2CF801B8D3008F060
:103510008CE0E82EF12CA701B801CE01CB960E94D9
:10352000243CEBE3F0E0EC0FFD1FEE0DFF1D1082DD
:10353000C3010E94182021E0AE01455C5F4FB2013B
:10354000C3010E944C21811109C0F601138212822D
:1035500080ED93E091838083158214C00E0D1F1DB2
:10356000C2010E941820942D852D2301692E782EEA
:10357000BECF0A191B09F40111830083B201C601F1
:103580000E94F519C601C95BDF4F0FB6F894DEBF84
:103590000FBECDBFDF91CF911F910F91FF90EF90A4
:1035A000DF90CF90BF90AF909F908F907F906F9063
:1035B0005F904F900895CF92DF92FF920F931F93E9
:1035C000CF93DF93CDB7DEB7C955D1090FB6F894C5
:1035D000DEBF0FBECDBF6C018A01F22E9E01285ABC
:1035E0003F4FCE01CB960E94461A6A968EAD9FAD94
:1035F0006A97080F191FF801808181110AC0BE0166
:10360000655C7F4FCE0101960E94F5194AEB53E0AD
:103610003EC019A218A280ED93E09F8F8E8F1BA24F
:1036200021968FAD2197811104C0C6010E942E1CE6
:1036300034C082502F2DA801823048F468E57AE129
:10364000CE014E960E944C2181110EC0EECFBE01DC
:10365000655C7F4FCE014E960E944C21882329F352
:10366000CE01CB960E9418209F2D967041F049A95B
:103670005AA96BA97CA9CE014E960E943B1FBE01A0
:10368000625E7F4FCE0101960E94F519A801BE012E
:103690006F5F7F4FC6010E94F91BC601C75ADF4FFB
:1036A0000FB6F894DEBF0FBECDBFDF91CF911F9153
:1036B0000F91FF90DF90CF900895EEE2FAE115822E
:1036C00016821186138682E090E0A0E0B0E0848745
:1036D0009587A687B78713A215A614A680ED93E059
:1036E00093A782A717A60895CF93DF931F92CDB714
:1036F000DEB76983DC01ED91FC910280F381E02D5E
:1037000041E050E0BE016F5F7F4F19950F90DF9150
:10371000CF910895CF93DF93EC01898D9A8D009717
:1037200039F481E090E09B838A8380E090E00BC0D5
:10373000FC01138212820E943A22E98DFA8D2281C5
:103740003381232B71F7DF91CF910895FC01818D97
:10375000928D009711F00C94D11F0895CF93DF93B1
:103760001F92CDB7DEB741E050E0BE016F5F7F4FE3
:103770000E94ED1D019719F4898190E002C08FEF3E
:103780009FEF0F90DF91CF910895FC01818D928D75
:10379000009711F00C94AE1B8FEF9FEF08950F93DD
:1037A0001F93CF93DF93FC01818D928D0097B9F029
:1037B000EF010E94AE1B8C010F3F8FEF180791F0B5
:1037C000898D9A8DFC0142855385648575854150AC
:1037D0005109610971090E943B1FC80105C080E0C1
:1037E00090E002C08FEF9FEFDF91CF911F910F917B
:1037F0000895EF92FF920F931F93CF93DF93EC0105
:103800007B018A011B821A8288EE93E0A0E0B0E07F
:103810008C839D83AE83BF8380EC93E09983888300
:103820008DE190E00E94A93A9A8F898F009779F0F4
:103830002DE1F701DC0101900D922A95E1F74CE0B2
:1038400050E0B801CE010C960E94243C188EDF9106
:10385000CF911F910F91FF90EF900895FC0113827B
:10386000128288EE93E0A0E0B0E084839583A68383
:10387000B78380EC93E091838083128E118E14863F
:1038800008950895FC01818D928D009711F00C949C
:10389000ED1D80E090E00895FC01818D928D0097F0
:1038A00011F00C943B1F80E00895DC015996ED91D6
:1038B000FC915A97309729F06285738584859585A8
:1038C00008956FEF7FEFCB010895DC015996ED91DC
:1038D000FC915A97309729F0638974898589968974
:1038E000089560E070E0CB010895CF92DF92EF92EF
:1038F000FF92CF93DF93FC01218D328D232BD9F0E2
:10390000EC010E94651C6B017C01CE010E94551CDC
:10391000A7019601261B370B480B590BDA01C90189
:10392000811530E89307A105B10538F08FEF9FE7C7
:10393000A0E0B0E002C080E090E0DF91CF91FF9086
:10394000EF90DF90CF900895CF93DF93EC01898DB6
:103950009A8D009741F00E941820898D9A8D0E94BF
:103960003E3B1A8E198EDF91CF910895DC01599656
:10397000ED91FC915A97309721F081E0958191115A
:1039800001C080E00895CF93DF93EC019C012A5F92
:103990003F4F41E050E060E070E08B8D9C8D0E94D5
:1039A0000B298823A1F08F89988DA98DBA8D892B39
:1039B0008A2B8B2B59F48E819F81A885B9858F8B9B
:1039C000988FA98FBA8F8C8180688C8381E0DF917A
:1039D000CF910895CF92DF92EF92FF921F93CF93F2
:1039E000DF93EC010E94C31C811102C080E04AC039
:1039F000EB8DFC8DCE80DF80E884F98482E0C81AEC
:103A0000D108E108F108058404C0CC0CDD1CEE1CD3
:103A1000FF1C0A94D2F786859785A089B189C80EC4
:103A2000D91EEA1EFB1E148181E0C81AD108E108E4
:103A3000F108112361F0C701B601610F711D811DED
:103A4000911D0E945A27882389F21150F2CFEB8DE5
:103A5000FC8D80E092E0A0E0B0E0058404C0880F17
:103A6000991FAA1FBB1F0A94D2F74B895C896D89E5
:103A70007E89840F951FA61FB71F8B8B9C8BAD8BE8
:103A8000BE8B81E0DF91CF911F91FF90EF90DF908F
:103A9000CF900895CF93DF93EC01462F6E857F85FD
:103AA000888999890E941F27882341F08A8920E20A
:103AB000829FC00111248058954E02C080E090E0A2
:103AC000DF91CF910895FB019B01255F3F4F40E2BD
:103AD0004193E217F307E1F7DC0190E027E08D91D5
:103AE000882319F18E3219F0EAE1F3E008C02A3098
:103AF00009F198E02AE0F3CF31963817D9F03491E4
:103B00003111FACF2917B0F03FED380F3E3590F460
:103B100031E0390FFB01E90FF11D9FE9980F9A3150
:103B200008F480528083932FDACF81E0FB019081EB
:103B3000903209F480E008950F931F93CF93DF93A1
:103B4000FC012581222311F080E042C08B01EC01B1
:103B5000FB0187898031B1F482E08D831F8A188E42
:103B6000198E1A8E808D918DA0E0B0E025E0880F2F
:103B7000991FAA1FBB1F2A95D1F78B8B9C8BAD8BEE
:103B8000BE8B15C0803201F783E08D83FB01428D2F
:103B9000538D648D758D4F8B588F698F7A8F9E01F1
:103BA0002D5E3F4FC8010E940228882369F21C8FB6
:103BB0000B8F81E08C831E821F82188619861A86DD
:103BC0001B861C861D861E861F86188A198A1A8ADD
:103BD000DF91CF911F910F9108952F923F924F92B5
:103BE0005F926F927F928F929F92AF92BF92CF928D
:103BF000DF92EF92FF920F931F93CF93DF93EC012D
:103C00005B014A018D81811103C08FEF9FEFD7C007
:103C10008C8180FFFACF4B885C886D887E884A85CE
:103C20005B856C857D85C401A0E0B0E093018201D5
:103C3000041B150B260B370B081719072A073B0720
:103C400018F44201841A950A24011E0126E0220E6E
:103C5000311C4114510409F47EC04A855B856C8592
:103C60007D856A0181E0D822ED818A019B0189E08E
:103C700036952795179507958A95D1F78B8D9C8D4D
:103C8000E23061F4FC01828D938DA48DB58DBC0171
:103C9000CD01600F711F821F931F3FC0FC01748014
:103CA0007A947022C114D104C9F4711017C0452B45
:103CB000462B472B49F48F89988DA98DBA8D8E8319
:103CC0009F83A887B9870AC04E815F8168857985FF
:103CD00091010E947E27882309F497CFEB8DFC8DFC
:103CE0008E819F81A885B9850297A109B1090584B4
:103CF00004C0880F991FAA1FBB1F0A94D2F74685DC
:103D0000578560897189840F951FA61FB71FBC0155
:103D1000CD01670D711D811D911D20E032E02C1930
:103D20003D0932012415350508F439012C8126FDA1
:103D300004C06114F2E07F0679F500910E02109143
:103D40000F02209110023091110260177107820753
:103D5000930719F421C0C40132C075018301960193
:103D6000AB01BC0180917E1A90917F1A0E9442267D
:103D7000882309F44ACFA60CB71C8A859B85AC859D
:103D8000BD85860D971DA11DB11D8A879B87AC87B8
:103D9000BD87461857085DCF40E00E941F27882343
:103DA00009F433CFF601E058F54ED501CF01860D69
:103DB000971DE817F907F9F221912D93FACFDF91BA
:103DC000CF911F910F91FF90EF90DF90CF90BF9018
:103DD000AF909F908F907F906F905F904F903F90AB
:103DE0002F900895FF920F931F93CF93DF931F920D
:103DF000CDB7DEB7FC012581223018F480E090E0D9
:103E000033C08C01FC01428553856485758585E04E
:103E100076956795579547958A95D1F7F42FFF705A
:103E2000FF2E41E050E0BE016F5F7F4FC8010E944E
:103E3000ED1D019719F4898190E002C08FEF9FEF8B
:103E40000196E1F2F80182859385A485B5854F96A8
:103E5000A11DB11D82879387A487B587F0E2FF9EDD
:103E6000C00111248058954E0F90DF91CF911F9182
:103E70000F91FF9008958F929F92AF92BF92CF9231
:103E8000DF92EF92FF920F931F93CF93DF93EC019A
:103E90008D81811102C080E077C00B891C892D893A
:103EA0003E890417150726073707A8F36A017B0127
:103EB000823029F4CA86DB86EC86FD860DC0C114EB
:103EC000D104E104F10451F41E821F821886198680
:103ED0001A861B861C861D8681E056C08A849B84B8
:103EE000AC84BD84EB8DFC8D258530E0275F3F4F92
:103EF000B501A4014150510961097109022E04C0A4
:103F000076956795579547950A94D2F7D701C601DC
:103F10000197A109B10904C0B695A7959795879512
:103F20002A95D2F784179507A607B70720F08928A6
:103F30008A288B2849F44F89588D698D7A8D4E8354
:103F40005F836887798704C0841B950BA60BB70B2A
:103F50004C015D018E010A5F1F4F81149104A10481
:103F6000B10409F4A7CF4E815F81688579859801F6
:103F70008B8D9C8D0E947E2791E0891A9108A10863
:103F8000B1088111EACF87CFDF91CF911F910F91B7
:103F9000FF90EF90DF90CF90BF90AF909F908F9069
:103FA00008950F931F93CF93DF93EC018D818823A6
:103FB000C9F18C8187FF30C061E0CE010E944A1DAB
:103FC0008C01892B79F18D81823048F48B899C8911
:103FD000AD89BE89F801848F958FA68FB78F8F89A1
:103FE000988DA98DBA8DF801938F828FB58BA48B94
:103FF000E091771AF091781A309759F0B8016A5E1B
:104000007F4FC80148961995F801808D918D938B4B
:10401000828B8C818F778C83DF91CF911F910F9151
:104020000C94E42680E0DF91CF911F910F910895C9
:10403000CF93DF93EC010E94D11F882311F01D82E2
:1040400081E0DF91CF9108954F925F926F927F92BE
:104050008F929F92AF92BF92EF92FF920F931F9316
:10406000CF93DF9300D01F92CDB7DEB7FC018581DF
:104070008130E9F4848181FF1AC083899489A589FC
:10408000B68984179507A607B70788F0892B8A2B6E
:104090008B2B09F479C04A015B017F014284538470
:1040A00064847584CF010E943B1F811102C080E0AF
:1040B0006CC0F701838D948D81149104A104B10427
:1040C00071F44789508D618D728D0E94202A88235A
:1040D00071F3F701178A108E118E128E3AC0F70114
:1040E00046815781608571859E012F5F3F4F0E94F9
:1040F0007E278823E1F249815A816B817C81F70117
:10410000838D948DFC012789203129F008EF1FEF62
:104110002FEF3FE004C008EF1FEF20E030E0401732
:10412000510762077307A8F40E94202A882309F424
:10413000BECFF70146815781608571850FEF1FEF74
:104140002FEF3FE0838D948D0E946B28882309F424
:10415000AECFF701838A948AA58AB68A8481806863
:104160008483C7010E94D11F882309F4A0CFB50121
:10417000A401481459046A047B0410F4B301A20199
:10418000C7010E943B1F01C081E00F900F900F906C
:104190000F90DF91CF911F910F91FF90EF90BF9003
:1041A000AF909F908F907F906F905F904F90089509
:1041B0001F93CF93DF93EC0180E2689FF0011124FD
:1041C0009F012058354ED9011B969C91917129F081
:1041D000842F827411F080E05BC0142F6A8B809171
:1041E0000E0290910F02A0911002B09111028E87E1
:1041F0009F87A88BB98BE058F54E4489558960E0BC
:1042000070E0BA01552744274F8B588F698F7A8FFA
:10421000828D938DA0E0B0E0482B592B6A2B7B2B2D
:104220004F8B588F698F7A8FD9011B968C9188712B
:1042300051F4848D958DA68DB78D8B8B9C8BAD8B1A
:10424000BE8B81E00DC0803131F69E012D5E3F4F67
:104250008B8D9C8D0E940228882309F4BCCF84E0BA
:104260008D83812F8F708C831E821F821886198602
:104270001A861B861C861D8616FF09C040E050E08A
:10428000BA01CE01DF91CF911F910C94242081E0DF
:10429000DF91CF911F910895CF92DF92EF92FF921D
:1042A0000F931F93CF93DF93CDB7DEB72C970FB645
:1042B000F894DEBF0FBECDBFFC0135813111C2C005
:1042C000D22E8B017C01BE016F5F7F4FCA010E941D
:1042D000631D882309F4B6C0F801838D948DF7011E
:1042E000948F838FF80116821782108611861286AA
:1042F00013861486158630E0F80182859385A4859F
:10430000B585438954896589768984179507A607F9
:10431000B70708F041C025E0B695A7959795879512
:104320002A95D1F7F82FFF70CF2EC8013C870E9445
:10433000F21E3C85009709F485C0FC0120812223F0
:1043400009F484C0253E99F04BE050E0BC01CE0159
:1043500001963C870E940C3C3C85892B69F68D2D8B
:104360008073803309F46EC04D2D6C2D67C0311100
:104370006BC0F701C28A40910E0250910F0260910A
:1043800010027091110246875787608B718BFC0178
:10439000808131E08111B0CF8D2D8271823109F0A1
:1043A00051C0332341F061E0C7010E944A1D8C01D6
:1043B000892B79F447C0F8018581823009F442C025
:1043C000C8010E94EA1C8823E9F1F701128A00E87B
:1043D0001AE180E2F80111928A95E9F78BE0FE017B
:1043E0003196D80101900D928A95E1F7E091771A04
:1043F000F091781A309739F0B801625F7F4FC801A9
:104400004096199509C081E298E2F801918B808B62
:1044100080E098E097878687F80180899189938B5F
:10442000828B918F808F86859785978B868B0E9454
:10443000E426882339F04D2DF7016289C7010E94D7
:10444000D82009C080E007C031E056CF332309F4FB
:1044500090CF31E0A1CF2C960FB6F894DEBF0FBEFF
:10446000CDBFDF91CF911F910F91FF90EF90DF9023
:10447000CF9008952F923F924F925F926F927F92CA
:104480008F929F92AF92BF92CF92DF92EF92FF9264
:104490000F931F93CF93DF9300D01F92CDB7DEB75A
:1044A0008C016B013A01DC0115968C9115978130D6
:1044B000C9F414968C9181FF15C082FF1DC0F801CC
:1044C000438954896589768982859385A485B585D4
:1044D00084179507A607B70779F0C8010E943B1F0C
:1044E00081110AC081E090E0D80113969C938E93CD
:1044F000129780E090E048C1430184C0D8015B96E8
:104500008D919C915C97FC0154802FEF250D1A0131
:104510002B0139E056944794379427943A95D1F774
:10452000522E52207A01F1E0FF22552009F476C084
:1045300080E092E08E199F0954018815990508F4CE
:104540005C01D8015B962D913C915C9716968D91FC
:104550009D910D90BC91A02D0297A109B109F9017F
:10456000058404C0880F991FAA1FBB1F0A94D2F7A5
:104570004685578560897189840F951FA61FB71FCF
:104580009C01AD01250D311D411D511D19012A014F
:10459000A11432E0B30609F088C080910E02909118
:1045A0000F02A0911002B091110282159305A4058B
:1045B000B50559F48FEF9FEFDC0180930E029093C5
:1045C0000F02A0931002B09311029601B201A10153
:1045D00080917E1A90917F1A0E949626882309F472
:1045E00081CF9EEFD91A8A189B08F801828593859E
:1045F000A485B5858A0D9B1DA11DB11D828793875A
:10460000A487B587D8011A964D915D916D917C91E3
:104610001D978114910409F071CF87C0E114F10452
:1046200009F086CF16964D915D916D917C91199709
:10463000411551056105710559F457968D919D916C
:104640000D90BC91A02D0097A105B10541F521C0A9
:104650009E012F5F3F4F0E947E27882309F44ACF97
:1046600089819A81AB81BC81F801238D348DF90158
:104670002789203129F048EF5FEF6FEF7FE004C01A
:1046800048EF5FEF60E070E084179507A607B70773
:1046900030F0C8010E94C31C81114ACF23CFF8011A
:1046A00086839783A087B18743CFE114F10429F56E
:1046B000D8011A964D915D916D917C911D975396FD
:1046C0008D919D910D90BC91A02D481759076A07B7
:1046D0007B0798F00E94E426882309F403CF2092F8
:1046E0000E0230920F0240921002509211028091FD
:1046F0007D1A816080937D1A08C041E0C201B1013A
:104700000E941F27882309F4EDCED601F701E05857
:10471000F54ECF018A0D9B1DE817F90719F02D9171
:104720002193FACFCA0CDB1C5ECF5396CD90DD905F
:10473000ED90FC90569714968C91C416D506E6061B
:10474000F70640F4F801438B548B658B768B8068B9
:1047500084830DC02091771A3091781A232B39F079
:104760006114710421F08068D80114968C93F801CB
:10477000848183FD02C0C30107C0C8010E94D11F0C
:10478000882309F4AFCEF7CF0F900F900F900F90C2
:10479000DF91CF911F910F91FF90EF90DF90CF901D
:1047A000BF90AF909F908F907F906F905F904F9051
:1047B0003F902F900895CF93DF931F92CDB7DEB730
:1047C000698341E050E0BE016F5F7F4F0E943A2253
:1047D0000F90DF91CF9108958EBD0DB407FEFDCFF0
:1047E00008958FEF0E94EC238EB5089561E0FC01DF
:1047F00084810C94161460E0FC0184810C941614DE
:10480000CF93DF93FC0186818823D1F08FEF8EBD9B
:104810004FEF878190859C012F5F3F4F3087278323
:104820008130924028F40DB407FEFDCF4EBDF1CF8C
:104830000DB407FEFDCFEF01CF010E94F6231E82CB
:10484000DF91CF910895673028F026E1FC012583A0
:1048500080E008958DB560FD02C0663011F48E7F52
:1048600001C081608DBD8CB58C7F8CBD9CB562FD17
:1048700002C080E001C082E066956170692B862BE2
:104880008CBD81E008950F931F93CF93DF93EB01CD
:104890000E94AA128B010E94F1238F3F49F00E94CF
:1048A000AA12601B710B6C177D07A8F380E001C092
:1048B00081E0DF91CF911F910F910895CF92DF9208
:1048C000FF920F931F93CF93DF9300D01F92CDB72A
:1048D000DEB76C01F62E29833A834B835C830E94FA
:1048E0000024C6010E94FB236CE271E0C6010E9415
:1048F00043248F2D80640E94EC2308E110E05C814A
:104900004B813A812981DA01C901002E04C0B69594
:10491000A795979587950A94D2F729833A834B8375
:104920005C830E94EC230850110929813A814B8154
:104930005C81083F8FEF180731F7FF2029F0E8E08E
:10494000FE1204C087E803C085E901C08FEF0E9412
:10495000EC2310E00E94F123F601828787FF04C058
:104960001F3F11F01F5FF6CF0F900F900F900F9029
:10497000DF91CF911F910F91FF90DF90CF9008951D
:104980008F929F92AF92BF92EF92FF920F931F93DD
:10499000CF93DF93EC01E62E1B8619861E821D82C3
:1049A0004C830E94AA128B0161E08C810E94DA1371
:1049B000CE010E94F62360E082E30E94DA1361E0F8
:1049C00083E30E94DA1361E084E30E94DA1361E07A
:1049D00085E30E94DA1361E085E30E94161483E503
:1049E0008CBD8DB58E7F8DBD2AE0F22E8FEF0E949B
:1049F000EC23FA94F110FACFCE010E94FB2320E0C1
:104A000030E0A90160E0CE010E945E24F82E8A8782
:104A100081E0F81649F00E94AA12601B710B613DFB
:104A2000774068F381E04CC02AEA31E040E050E092
:104A300068E0CE010E945E2482FF02C0FB860EC0A9
:104A400094E0F92E0E94F1238A87FA94F110FACFAC
:104A50008A3A11F082E034C082E08B878B85823005
:104A600021F0812C912C540105C0812C912CA12C7A
:104A700080E4B82E20E030E0A90167E3CE010E9477
:104A80005E24A501940169E2CE010E945E248A871A
:104A9000882349F00E94AA12601B710B613D774088
:104AA00048F388E00DC08B85823039F520E030E096
:104AB000A9016AE3CE010E945E24882389F086E082
:104AC0008D83CE010E94F62380E0DF91CF911F916C
:104AD0000F91FF90EF90BF90AF909F908F900895AF
:104AE0000E94F123807C803C11F483E08B870E943C
:104AF000F1230E94F1230E94F123CE010E94F623AC
:104B00006E2DCE01DF91CF911F910F91FF90EF900D
:104B1000BF90AF909F908F900C9423240F931F937E
:104B2000CF93DF93EC010E94AA128B010E94F12324
:104B30008A878F3F49F40E94AA12601B710B6D3265
:104B40007140A0F38FE003C08E3F39F08DE08D837C
:104B5000CE010E94F62380E001C081E0DF91CF9179
:104B60001F910F910895CF92DF92EF92FF920F93D2
:104B70001F93CF93DF93EC016901C801820F931F4C
:104B80008130924008F06FC08E81882371F0888157
:104B90009981AA81BB81481759076A077B0729F4C5
:104BA0008F819885C816D90618F5488359836A837A
:104BB0007B838B85833039F089E0440F551F661F56
:104BC000771F8A95D1F79A01AB0161E1CE010E946E
:104BD0005E24882319F083E08D8345C0CE010E94B6
:104BE0008E25882309F43FC018861F8281E08E83BA
:104BF0008FEF8EBD2FEF8F8198858C159D0550F41A
:104C00000DB407FEFDCF2EBD8F8198850196988744
:104C10008F83F1CFC8010197F7014FEF9F012E1944
:104C20003F092817390738F40DB407FEFDCF2EB51C
:104C300021934EBDF3CF0DB407FEFDCF2EB5F70186
:104C4000E80FF91F20838F819885080F191F188797
:104C50000F838985882319F00115124048F0CE0191
:104C60000E94002405C0CE010E94F62380E001C00E
:104C700081E0DF91CF911F910F91FF90EF90DF9036
:104C8000CF900895EF92FF920F931F930115110596
:104C900019F00E94B32501C081E01F910F91FF9090
:104CA000EF900895EF92FF920F931F93790100E028
:104CB00012E020E030E00E94B3251F910F91FF9099
:104CC000EF900895CF93DF93EC016EBD20E030E0CC
:104CD0000DB407FEFDCFFA01E20FF31F80818EBDF8
:104CE0000DB407FEFDCF81818EBD2E5F3F4F211594
:104CF00082E0380769F70DB407FEFDCF8FEF0E9401
:104D0000EC238FEF0E94EC230E94F1238A87982FD7
:104D10009F71953039F081E18D83CE010E94F62399
:104D200080E001C081E0DF91CF9108950F931F9340
:104D3000CF93DF93EC0189014115510561057105A0
:104D400011F482E132C08B85833039F089E0440F61
:104D5000551F661F771F8A95D1F79A01AB0168E14D
:104D6000CE010E945E24882311F084E01EC0A801B9
:104D70006EEFCE010E9462268823C1F068E572E0E2
:104D8000CE010E944324811102C085E10EC020E0C3
:104D900030E0A9016DE0CE010E945E24811104C0C3
:104DA0000E94F123882339F084E18D83CE010E9493
:104DB000F62380E004C0CE010E94F62381E0DF915B
:104DC000CF911F910F91089580917D1A8823A9F1A9
:104DD00040910E0250910F026091100270911102E9
:104DE00020E83AE180917E1A90917F1A0E949626DF
:104DF000811102C080E008954091791A50917A1A89
:104E000060917B1A70917C1A4115510561057105FD
:104E100091F020E83AE180917E1A90917F1A0E94E9
:104E20009626882339F31092791A10927A1A1092E2
:104E30007B1A10927C1A10927D1A81E00895CF920D
:104E4000DF92EF92FF92CF936B017C01C42F809190
:104E50000E0290910F02A0911002B09111028C15D8
:104E60009D05AE05BF05D1F00E94E426811102C068
:104E700080E01AC020E83AE1B701A60180917E1ACD
:104E800090917F1A0E945226882391F3C0920E02BD
:104E9000D0920F02E0921002F092110280917D1ADE
:104EA000C82BC0937D1A81E0CF91FF90EF90DF90E7
:104EB000CF900895CF92DF92EF92FF926B017C0129
:104EC0000E94E4268823A9F0E0E8FAE111928CE13F
:104ED000E038F807D9F7C0920E02D0920F02E092A4
:104EE0001002F092110280917D1A816080937D1AE8
:104EF00081E0FF90EF90DF90CF9008958F929F9286
:104F0000AF92BF92CF92DF92EF92FF920F931F93D7
:104F1000CF93DF93FC0181859285A385B4850196AB
:104F2000A11DB11D84179507A607B70710F480E0EF
:104F30005CC083899489A589B689C789C03129F461
:104F4000852E962EA72EBB2409C04A015B01C7E01F
:104F5000B694A79497948794CA95D1F7E9016A010A
:104F60007B018F01BC01CD01680D791D8A1D9B1D40
:104F700080900E0290900F02A0901002B09011024B
:104F8000681579058A059B0599F4F80187898031B0
:104F9000A9F4B701A601552766277727440F551FA7
:104FA000FA01E058F54E80819181A0E0B0E018C090
:104FB00040E00E941F278111E8CFB9CFB701A601B9
:104FC0004F77552766277727440F551F440F551FE6
:104FD000FA01E058F54E80819181A281B381BF70C2
:104FE00088839983AA83BB8381E0DF91CF911F914E
:104FF0000F91FF90EF90DF90CF90BF90AF909F9078
:105000008F9008954F925F926F927F92AF92BF926E
:10501000CF92DF92EF92FF920F931F93CF93DF9384
:1050200000D01F92CDB7DEB78C0149835A836B83C2
:105030007C835901C12CD12C7601412C82E0582E61
:10504000612C712C49815A816B817C819E012F5F7B
:105050003F4FC8010E947E27882351F1D301C2012E
:10506000F801058404C0880F991FAA1FBB1F0A946A
:10507000D2F7C80ED91EEA1EFB1E49815A816B81E8
:105080007C818789803129F088EF9FEFAFEFBFE007
:1050900004C088EF9FEFA0E0B0E0481759076A0707
:1050A0007B0780F2F501C082D182E282F38281E047
:1050B0000F900F900F900F90DF91CF911F910F9154
:1050C000FF90EF90DF90CF90BF90AF907F906F9068
:1050D0005F904F9008954F925F926F927F928F9260
:1050E0009F92AF92BF92CF92DF92EF92FF920F9377
:1050F0001F93CF93DF93EC016A017B0128013901F3
:10510000423051056105710510F480E073C0898556
:105110009A85AB85BC850196A11DB11D84179507A5
:10512000A607B70790F38B889C88AD88BE888F89C7
:10513000803129F4BB27AF2D9E2D8D2D09C0DB01B9
:10514000CA0147E0B695A795979587954A95D1F7F7
:10515000880E991EAA1EBB1E80910E0290910F020E
:10516000A0911002B091110288169906AA06BB06FA
:1051700079F48F898031A1F4DD24EE24FF24C60167
:10518000880F991FFC01E058F54E5182408219C0EA
:1051900040E0C501B4010E941F278111EACFB5CFBD
:1051A000E894C7F8DD24EE24FF24C601880F991F78
:1051B000880F991FFC01E058F54E408251826282AF
:1051C000738280917D1A816080937D1A8A898230F2
:1051D00080F08D819E81AF81B885880E991EAA1EB0
:1051E000BB1E8092791A90927A1AA0927B1AB09282
:1051F0007C1A81E0DF91CF911F910F91FF90EF908A
:10520000DF90CF90BF90AF909F908F907F906F90E6
:105210005F904F9008952F923F924F925F926F92BE
:105220007F929F92AF92BF92CF92DF92EF92FF92C6
:105230000F931F93CF93DF93CDB7DEB760970FB671
:10524000F894DEBF0FBECDBF5C0149875A876B87DC
:105250007C871901D901CD90DD90ED90FC90C114AF
:10526000D104E104F10431F0BFEFCB1ADB0AEB0A01
:10527000FB0A10C0FC01C080D180E280F380992439
:10528000939409851A852B853C85013011052105EC
:10529000310509F0912CF50181859285A385B485AE
:1052A0008C019D010F5F1F4F2F4F3F4F0D871E87B2
:1052B0002F87388B260137011D821E821F82188698
:1052C000F50181859285A385B4850D811E812F818D
:1052D0003885081719072A073B0708F056C02D859F
:1052E0003E854F855889241535054605570550F4E8
:1052F00082E0482E512C612C712C92E0C92ED12CC9
:10530000E12CF12C9E012F5F3F4FB301A201C5019B
:105310000E947E278823C9F149815A816B817C8153
:10532000D301C2010196A11DB11D452B462B472B70
:1053300019F06C017D010FC0AC01BD014C195D0974
:105340006E097F0909851A852B853C854017510711
:105350006207730779F02D813E814F8158852F5F59
:105360003F4F4F4F5F4F2D833E834F8358872C0114
:105370003D01A6CF0FEF1FEF2FEF3FE0B301A201DA
:10538000C5010E946B28811118C080E041C0D30183
:10539000C2010197A109B1098D839E83AF83B887AC
:1053A00093018201AC01BD01C5010E946B288823D5
:1053B00061F34D805E806F807884C414D504E60468
:1053C000F70428F3D1014D915D916D917C914115C8
:1053D00051056105710599F4F101C082D182E28223
:1053E000F3829920A1F0FFEFCF1ADF0AEF0AFF0A3C
:1053F000D501CD92DD92ED92FC92139708C09701F2
:105400008601C5010E946B288111E6CFBECF81E0E5
:1054100060960FB6F894DEBF0FBECDBFDF91CF917F
:105420001F910F91FF90EF90DF90CF90BF90AF90C2
:105430009F907F906F905F904F903F902F90089536
:10544000AF92BF92CF92DF92EF92FF920F931F9392
:10545000CF93DF9300D01F92CDB7DEB75C016A0116
:105460007B0182E090E0A0E0B0E0F50180839183D1
:10547000A283B3839E012F5F3F4FB701A601C501F1
:105480000E947E27882311F100E010E09801B70107
:10549000A601C5010E946B288823C1F0C980DA806B
:1054A000EB80FC80F5018789803129F088EF9FEF40
:1054B000AFEFBFE004C088EF9FEFA0E0B0E0C816F8
:1054C000D906EA06FB06B0F281E001C080E00F9049
:1054D0000F900F900F90DF91CF911F910F91FF9040
:1054E000EF90DF90CF90BF90AF9008958F929F92F2
:1054F000AF92BF92CF92DF92EF92FF920F931F93E2
:10550000CF93DF93EC01142F70937F1A60937E1A70
:10551000442369F1453010F080E0F2C040E060E0E3
:1055200070E0CB010E941F278823B1F320E1129F76
:10553000A00111244059554EFA01E254FE4F8081DA
:105540008F7751F73C9680819181A281B381843617
:105550009105A105B10500F33497C080D180E280A8
:10556000F380C114D104E104F10421F4D5CFC12C9E
:10557000D12C760140E0C701B6010E941F27882385
:1055800059F280918B1A90918C1A8115924021F6D4
:105590009091901A992309F4BFCF20918E1A3091DF
:1055A0008F1A232B09F4B8CF80918D1A882309F420
:1055B000B3CF9A8B8C831D8690E061E070E02D85DF
:1055C000E22FAB01022E02C0440F551F0A94E2F7EE
:1055D0008417950731F031E0320F3D87283078F39A
:1055E0009BCF2091961A3091971A2115310519F009
:1055F00040E050E008C02091A41A3091A51A4091D3
:10560000A61A5091A71A2D833E834F835887809105
:105610008E1A90918F1A46015701880E991EA11C6F
:10562000B11C8B8A9C8AAD8ABE8A0091911A109116
:10563000921A198F088FA091901AB0E00E94CE3E66
:10564000860E971EA81EB91E8A8E9B8EAC8EBD8EAE
:1056500085E0000F111F8A95E1F701501E4F012FC1
:1056600011270695800E911EA11CB11C8E869F8667
:10567000A88AB98A2091931A3091941A211531057C
:1056800021F0A90160E070E008C04091A01A50919B
:10569000A11A6091A21A7091A31AD701C6018819A4
:1056A0009909AA09BB09840F951FA61FB71F04C03B
:1056B000B695A79597958795EA95D2F789879A87A2
:1056C000AB87BC87853F2FE09207A105B10510F499
:1056D0008CE014C0853F9F4FA105B10510F480E117
:1056E0000DC08091AC1A9091AD1AA091AE1AB091F4
:1056F000AF1A8A8F9B8FAC8FBD8F80E28F8B81E03A
:10570000DF91CF911F910F91FF90EF90DF90CF909D
:10571000BF90AF909F908F9008952F923F924F929D
:105720005F926F927F928F929F92AF92BF92CF9231
:10573000DF92EF92FF920F931F93CF93DF9300D0EE
:10574000CDB7DEB74C017B836A836A01590117012B
:105750009801241B350B37FF03C031952195310982
:10576000C5014A815B81841B950B97FF03C091950E
:105770008195910951E059838217930714F019829A
:105780000BC09A2D8B2D5801092F182F9A818B81D0
:10579000DB82CA82C92ED82E8A819B81A816B906BF
:1057A0005CF49C2D8D2D6801092F182F9A818B8117
:1057B000BB82AA82A92EB82E2501AA81BB814A1AD2
:1057C0005B0A38016C187D0877FE03C07194619400
:1057D0007108720157FE03C0BFEFEB1AFB0AF59484
:1057E000E794C016D1061CF00FEF1FEF1FC001E0B9
:1057F00010E01CC0D401ED91FC91B9810084F185C9
:10580000E02D9101BB23C1F04A815B81B601C40147
:105810001995E618F708F7FE04C0C00ED11EE40C77
:10582000F51CEA81FB813196FB83EA834A815B8127
:10583000A416B506FCF604C0A6016A817B81E7CFF9
:105840000F900F900F90DF91CF911F910F91FF90CC
:10585000EF90DF90CF90BF90AF909F908F907F9010
:105860006F905F904F903F902F9008950895DC01C6
:10587000ED91FC910480F581E02D19940F931F9315
:10588000DC01ED91FC91008CF18DE02D19951F91BB
:105890000F9108950F931F93DC01ED91FC91028C01
:1058A000F38DE02D19951F910F910895EF92FF92BE
:1058B0000F931F93DC01ED91FC91048CF58DE02D8D
:1058C00019951F910F91FF90EF9008950895AF9251
:1058D000BF92CF92DF92EF92FF920F931F93CF93DD
:1058E000DF9300D01F92CDB7DEB75C016901DC0108
:1058F000ED91FC910680F781E02D4B835C836983F9
:105900007A831995D501ED91FC914B815C81C40E90
:10591000D51EB1E0CB1AD1080088F189E02D7801BD
:10592000860169817A819B01C5011995D501ED91A7
:10593000FC910288F389E02DC5010F900F900F9024
:105940000F90DF91CF911F910F91FF90EF90DF901B
:10595000CF90BF90AF901994AF92BF92CF92DF9249
:10596000EF92FF920F931F93CF93DF9300D01F927C
:10597000CDB7DEB75C016901DC01ED91FC910680D9
:10598000F781E02D4B835C8369837A831995D50178
:10599000ED91FC9169817A819B012C0D3D1D215077
:1059A00031090088F189E02D78014B815C818A0101
:1059B000C5011995D501ED91FC910288F389E02D7F
:1059C000C5010F900F900F900F90DF91CF911F9115
:1059D0000F91FF90EF90DF90CF90BF90AF90199410
:1059E0004F925F926F927F928F929F92AF92BF92EF
:1059F000CF92DF92EF92FF920F931F93CF93DF939B
:105A00001F921F92CDB7DEB76C015A0139014801D0
:105A1000DC01ED91FC910680F781E02D69837A83AA
:105A200019956981462E7A81572E640C751CD60112
:105A3000ED91FC91461457046CF40484F585E02D37
:105A400087019401A501B201C6011995BFEF4B1A58
:105A50005B0AEDCF0288F389E02DC6010F900F900D
:105A6000DF91CF911F910F91FF90EF90DF90CF903A
:105A7000BF90AF909F908F907F906F905F904F906E
:105A80001994EF92FF920F931F93DC01ED91FC911B
:105A900011971A960D911C911B9718962D913C9178
:105AA0001997048CF58DE02D7B0140E050E060E01B
:105AB00070E019951F910F91FF90EF900895CF928C
:105AC000DF92EF92FF920F931F93CF93DF9300D05B
:105AD00000D0CDB7DEB76C01DC01ED91FC9162170F
