:100000000C94FF030C9430040C9430040C943004D2
:100010000C9430040C9430040C9430040C94300490
:100020000C9430040C9430040C9430040C94300480
:100030000C9430040C9430040C9430040C94300470
:100040000C9430040C9430040C9430040C94300460
:100050000C9430040C9430040C9430040C9454052B
:100060000C9430040C94F0080C94BC090C943004EB
:100070000C9430040C9430040C9430040C94300430
:100080000C9430040C9430040C9430040C94300420
:100090000C9423090C94FB090C9430040C94300448
:1000A0000C9430040C9430040C9430040C94300400
:1000B0000C9430040C9430040C9430040C943004F0
:1000C0000C9430040C9430040C9430040C945609B5
:1000D0000C943A0A0C9430040C9489090C94790A13
:1000E0000C94300487068A067D068106C1068E06BA
:1000F000920698069C06A006A606AA06AE06C106AB
:10010000B406B806BC060C94310D0C94EC0C0C949F
:1001100023120C94DB150C9457070C94BC060C941A
:10012000DB0C0C94750D0C94B4060C943D080C94E7
:100130004D080C948E060C94AE060C945A0E0C943A
:10014000BC0C0C94C60D0C94BA0E0C9494080C9430
:10015000C30C0C9498060C94A6060C9492060C946E
:100160003C080C94B90E0C947D060C94FC110C9474
:10017000AA060C94F1110C94CD120C94EB0C0C9477
:1001800059120C9461040C949C060C9481060C94F6
:1001900087060C9469080C9489080C94E40D0C945F
:1001A00006110C9410120C94B8060C94CF0C0C94FD
:1001B0001F170C949A170C9427160C94120C0C947D
:1001C000C1060C94BB0C0C948A060C94A0060C94EB
:1001D000400B0C9493120C940B130000090A0208B4
:1001E0000B0C0D07060304010000000000000000D6
:1001F00000000000000000000000000000000000FF
:1002000000000000000011100F00000000000000BE
:1002100000000000000000000000000000000000DE
:100220000102102020080810204010204080020108
:1002300002010804020101020408102040808040ED
:1002400020100804020180040201804020100804EC
:10025000020108040201010204081020408001028A
:100260000408102040800505050507050808080852
:10027000020202020A0A080804040404010101013E
:100280000101010103030303030303030407070739
:100290000C0C0C0C0C0C0C0C0202020206060606DE
:1002A000060606060B0B0B0B0B0B0B0B00002000BE
:1002B0002300260029002C002F003200000100003E
:1002C00003010601090100002200250028002B007F
:1002D0002E003100340002010000050108010B016D
:1002E00000002100240027002A002D0030003300E8
:1002F00001010000040107010A0100000000003EA6
:100300005B4F5B3E3E6B4F6B3E1C3E7C3E1C183C85
:100310007E3C181C577D571C1C5E7F5E1C00183CE1
:100320001800FFE7C3E7FF0018241800FFE7DBE72A
:10033000FF30483A060E2629792926407F05050711
:10034000407F05253F5A3CE73C5A7F3E1C1C08086D
:100350001C1C3E7F14227F22145F5F005F5F060932
:100360007F017F006689956A606060606094A2FF8B
:10037000A29408047E040810207E201008082A1C7D
:1003800008081C2A08081E101010100C1E0C1E0C49
:1003900030383E3830060E3E0E06000000000000E9
:1003A000005F00000007000700147F147F14242A58
:1003B0007F2A12231308646236495620500008072A
:1003C0000300001C2241000041221C002A1C7F1C4B
:1003D0002A08083E0808008070300008080808084D
:1003E000000060600020100804023E5149453E00B4
:1003F000427F400072494949462141494D33181412
:10040000127F1027454545393C4A49493141211160
:1004100009073649494936464949291E0000140052
:100420000000403400000008142241141414141475
:10043000004122140802015909063E415D594E7CD3
:100440001211127C7F494949363E414141227F4188
:1004500041413E7F494949417F090909013E4141E6
:1004600051737F0808087F00417F41002040413FD1
:10047000017F081422417F404040407F021C027FE0
:100480007F0408107F3E4141413E7F090909063E35
:100490004151215E7F091929462649494932030104
:1004A0007F01033F4040403F1F2040201F3F403816
:1004B000403F631408146303047804036159494DF1
:1004C00043007F4141410204081020004141417F27
:1004D000040201020440404040400003070800209D
:1004E000545478407F28444438384444442838449D
:1004F00044287F385454541800087E090218A4A4D4
:100500009C787F0804047800447D40002040403DF2
:10051000007F1028440000417F40007C047804786C
:100520007C080404783844444438FC1824241818FF
:10053000242418FC7C08040408485454542404045B
:100540003F44243C4040207C1C2040201C3C403048
:10055000403C44281028444C9090907C4464544C77
:1005600044000836410000007700000041360800D2
:1005700002010204023C2623263C1EA1A161123A7C
:100580004040207A385454555921555579412254C8
:10059000547842215554784020545579400C1E52CD
:1005A0007212395555555939545454593955545472
:1005B000580000457C410002457D420001457C40D9
:1005C0007D1211127DF0282528F07C54554500201D
:1005D00054547C547C0A097F4932494949323A448F
:1005E00044443A324A4848303A4141217A3A4240FA
:1005F0002078009DA0A07D3D4242423D3D404040CC
:100600003D3C24FF2424487E4943662B2FFC2F2B9E
:10061000FF0929F620C0887E09032054547941003F
:1006200000447D413048484A32384040227A007ABE
:100630000A0A727D0D19317D2629292F282629299C
:10064000292630484D4020380808080808080808BE
:10065000382F10C8ACBA2F102834FA00007B0000E5
:1006600008142A142222142A14085500550055AAE9
:1006700055AA55AAFF55FF55FF000000FF001010B6
:1006800010FF00141414FF001010FF00FF1010F0F2
:1006900010F0141414FC001414F700FF0000FF0005
:1006A000FF1414F404FC141417101F10101F101F53
:1006B0001414141F00101010F0000000001F101080
:1006C00010101F10101010F010000000FF1010107C
:1006D000101010101010FF10000000FF140000FF99
:1006E00000FF00001F10170000FC04F41414171082
:1006F000171414F404F40000FF00F7141414141475
:100700001414F700F7141414171410101F101F14EA
:100710001414F4141010F010F000001F101F00004B
:10072000001F14000000FC140000F010F01010FF77
:1007300010FF141414FF141010101F00000000F01C
:1007400010FFFFFFFFFFF0F0F0F0F0FFFFFF0000F1
:10075000000000FFFF0F0F0F0F0F3844443844FC18
:100760004A4A4A347E02020606027E027E0263552F
:100770004941633844443C04407E201E2006027EEA
:10078000020299A5E7A5991C2A492A1C4C720172FC
:100790004C304A4D4D303048784830BC625A463D66
:1007A0003E494949007E0101017E2A2A2A2A2A441B
:1007B000445F444440514A444040444A5140000050
:1007C000FF0103E080FF000008086B6B083612365B
:1007D0002436060F090F060000181800000010103C
:1007E000003040FF0101001F01011E00191D1712FA
:1007F000003C3C3C3C00000000006104400B112424
:100800001FBECFEFD1E2DEBFCDBF00E00CBF13E0D3
:10081000A0E0B2E0E0E3F2E300E00BBF02C007902B
:100820000D92A836B107D9F726E0A8E6B3E001C0DB
:100830001D92AE36B207E1F713E0CFEFD3E000E050
:1008400006C021970109802FFE010E94F018CD3FBC
:10085000D10780E00807A9F70E9404050C94B71897
:100860000C940000CF93DF93EC018FE08C9FA001EC
:100870008D9F500D112460E070E08AE893E00E94A3
:10088000DC118091880390918903C817D90729F456
:100890004FEF5FEF60E070E004C040E050E06FEFCA
:1008A0007FEF8AE893E00E94E811CC0FDD1FC05073
:1008B000DE4F688179818AE893E0DF91CF910C94D3
:1008C000B107EF92FF920F932FEF49E06AE08AE8B9
:1008D00093E00E9424138CE2E82EFF24F39405E0B9
:1008E00029E348E364E084E793E00E940918E8E61E
:1008F000F3E015821682118613860F91FF90EF9018
:1009000008950F931F93CF93DF9360E070E08AE820
:1009100093E00E94C60D00E010E0C0E0D0E0A80126
:1009200060E070E08AE893E00E94DC118091880327
:1009300090918903C817D90729F44FEF5FEF60E062
:1009400070E004C040E050E06FEF7FEF8AE893E092
:100950000E94E8116CE472E08AE893E00E94940738
:100960004AE050E0BE018AE893E00E942608219602
:10097000015F1F4FCE30D10591F6DF91CF911F91CE
:100980000F910895CF93DF9360E070E08AE893E0E1
:100990000E94C60DC0E0D0E0CE010E943204219634
:1009A000C231D105C9F7DF91CF9108950E94E905C1
:1009B00040E855E260E070E08CE294E00E94B80A02
:1009C00062E082E00E94C20640E050E0BA018AE89C
:1009D00093E00E94E51360E070E08AE893E00E94F3
:1009E000C60D63E08AE893E00E94DB15109289034C
:1009F0001092880362E08AE893E00E94E21160E0CE
:100A00008AE893E00C94EE110E94D6040E94C2047E
:100A1000C2E1D0E087E30E944B068C0182E00E9495
:100A20002E072091880330918903003482E0180753
:100A30001CF0C901019605C0013C114094F4C901A4
:100A40000197BE010E94BA1890938903809388038E
:100A5000C9010E94320480918803909189030E9409
:100A6000320480918803909189030F9730F010929F
:100A70008903109288030E9481046CE572E08CE285
:100A800094E00E94940760918803709189034AE082
:100A900050E08CE294E00E94260862E370E080E07F
:100AA00090E00E94C305B6CF1F920F920FB60F922F
:100AB00011242F933F938F939F93AF93BF93809174
:100AC000BE039091BF03A091C003B091C1033091C8
:100AD000BD0323E0230F2D3720F40196A11DB11D86
:100AE00005C026E8230F0296A11DB11D2093BD036A
:100AF0008093BE039093BF03A093C003B093C10340
:100B00008091C2039091C303A091C403B091C50327
:100B10000196A11DB11D8093C2039093C303A093BE
:100B2000C403B093C503BF91AF919F918F913F9143
:100B30002F910F900FBE0F901F9018953FB7F8940C
:100B40008091C2039091C303A091C403B091C503E7
:100B500026B5A89B05C02F3F19F00196A11DB11D18
:100B60003FBFBA2FA92F982F8827820F911DA11D53
:100B7000B11DBC01CD0142E0660F771F881F991F90
:100B80004A95D1F70895CF92DF92EF92FF92CF93DB
:100B9000DF936B017C010E949E05EB01C114D1041F
:100BA000E104F10479F00E949E056C1B7D0B683E08
:100BB0007340A0F381E0C81AD108E108F108C851D8
:100BC000DC4FECCFDF91CF91FF90EF90DF90CF9093
:100BD0000895789484B5826084BD84B5816084BDB5
:100BE00085B5826085BD85B5816085BDEEE6F0E0A6
:100BF000808181608083E1E8F0E010828081826002
:100C00008083808181608083E0E8F0E08081816082
:100C10008083E1EBF0E0808184608083E0EBF0E0B2
:100C2000808181608083E1E9F0E08081826080835F
:100C3000808181608083E0E9F0E080818160808351
:100C4000E1EAF0E08081826080838081816080833E
:100C5000E0EAF0E0808181608083E1E2F1E0808180
:100C600082608083808181608083E0E2F1E0808126
:100C700081608083EAE7F0E0808184608083808106
:100C800082608083808181608083808180688083AE
:100C90001092C1000895863308F0865390917B002E
:100CA000282F2870977F922B90937B00877020913C
:100CB0002A0290E4299F90011124822B80937C00CA
:100CC00080917A00806480937A0080917A0086FD1A
:100CD000FCCF809178002091790090E0922B0895CC
:100CE00090E0FC013197E131F10508F04AC0882716
:100CF000EE58FF4F8F4F0C94F018809180008F7743
:100D000003C0809180008F7D80938000089584B51A
:100D10008F7702C084B58F7D84BD08958091B00027
:100D20008F7703C08091B0008F7D8093B0000895CD
:100D3000809190008F7707C0809190008F7D03C0D5
:100D400080919000877F8093900008958091A0000B
:100D50008F7707C08091A0008F7D03C08091A00095
:100D6000877F8093A0000895809120018F7707C02E
:100D7000809120018F7D03C080912001877F809327
:100D800020010895CF93DF9390E0FC01E05EFD4FDA
:100D90002491FC01EA59FD4F8491882361F190E090
:100DA000880F991FFC01E052FD4FC591D491FC01C1
:100DB000EA53FD4FA591B491611109C09FB7F89412
:100DC0008881209582238883EC912E230BC062308A
:100DD00061F49FB7F8943881822F809583238883AC
:100DE000EC912E2B2C939FBF06C08FB7F894E8810F
:100DF0002E2B28838FBFDF91CF9108951F93CF9320
:100E0000DF93282F30E0F901E652FE4F8491F9017B
:100E1000E05EFD4FD491F901EA59FD4FC491CC2316
:100E2000C9F0162F81110E947006EC2FF0E0EE0F32
:100E3000FF1FEA53FD4FA591B4918FB7F89411119C
:100E400005C09C91ED2FE095E92302C0EC91ED2BBC
:100E5000EC938FBFDF91CF911F910895CF93DF93D4
:100E6000282F30E0F901E652FE4F8491F901E05E4F
:100E7000FD4FD491F901EA59FD4FC491CC2391F073
:100E800081110E947006EC2FF0E0EE0FFF1FE45579
:100E9000FD4FA591B491EC91ED2381E090E021F418
:100EA00080E002C080E090E0DF91CF910895CF9282
:100EB000DF92EF92FF920F931F93CF93DF936C011A
:100EC000EB017B01E40EF51E00E010E0CE15DF051E
:100ED00061F06991D601ED91FC910190F081E02DD6
:100EE000C6011995080F191FF1CFC801DF91CF91E5
:100EF0001F910F91FF90EF90DF90CF9008956115B3
:100F0000710579F0FB0101900020E9F73197AF01FD
:100F1000461B570BDC01ED91FC910280F381E02D23
:100F2000199480E090E008950C947F07DC01ED9126
:100F3000FC910190F081E02D19940F931F93CF93B2
:100F4000DF93EC016DE00E9496078C016AE0CE0110
:100F50000E949607800F911FDF91CF911F910F91F3
:100F600008950F931F93CF93DF93EC010E947F07A7
:100F70008C01CE010E949D07800F911FDF91CF91C0
:100F80001F910F9108958F929F92AF92BF92CF922F
:100F9000DF92EF92FF920F931F93CF93DF93CDB722
:100FA000DEB7A1970FB6F894DEBF0FBECDBF6C01C0
:100FB000142FE52FCB01022F19A2223008F40AE0EA
:100FC0007E0121E2E20EF11C802E912CA12CB12C8D
:100FD000612F7E2FA50194010E94CE18029F101947
:100FE000112481E0E81AF1081A3014F4105D01C0F0
:100FF000195CF7011083122FE32FCA01232B242B36
:10100000252B31F7B701C6010E947F07A1960FB6C5
:10101000F894DEBF0FBECDBFDF91CF911F910F912E
:10102000FF90EF90DF90CF90BF90AF909F908F9008
:1010300008952115310541F4DC01ED91FC910190F9
:10104000F081E02D642F19940C94C3070F931F9324
:10105000CF93DF93EC019A01AB0160E070E00E9456
:1010600019088C01CE010E949D07800F911FDF910E
:10107000CF911F910F9108950895FC012485358526
:10108000F901E05CFF4F80819181329620813181AE
:10109000821B930B8F7399270895DC011C96ED91A9
:1010A000FC911D97DF01A05CBF4F2D913C911197E2
:1010B00012968D919C9111972817390739F08D91CF
:1010C0009C91E80FF91F808190E008958FEF9FEFCA
:1010D0000895FC01A485B585FD01E05CFF4F2081EA
:1010E00031813296808191812817390779F080818A
:1010F0009181A80FB91F8C91208131812F5F3F4FC3
:101100002F7333273183208390E008958FEF9FEF73
:101110000895FC0181A1882329F0A489B5898C91C7
:1011200086FFFBCF11A208950F931F93CF93DF93F8
:10113000FC01A685B7858D01005C1F4FE801888101
:10114000998101968F739927AD014E5B5F4FEA013C
:101150002881398182179307D1F3E80128813981E9
:10116000A20FB31F6C93A685B785A05CBF4F1196E5
:101170009C938E93A689B7892C9181E090E0078C8F
:1011800002C0880F991F0A94E2F7822B8C9381E0AA
:1011900081A30488F589E02D80818064808381E0CB
:1011A00090E0DF91CF911F910F910895FB01E05CDA
:1011B000FF4F208131812F5F3F4F2F733327DB019A
:1011C000AE5BBF4F4D915C912417350741F04081D4
:1011D0005181DB01A40FB51F8C93318320830895C7
:1011E0001F920F920FB60F9211240BB60F922F93EE
:1011F0003F934F935F936F937F938F939F93AF939F
:10120000BF93EF93FF938091C00082FD07C0809150
:10121000C6006AE276E00E94D60802C08091C6004D
:10122000FF91EF91BF91AF919F918F917F916F91BE
:101230005F914F913F912F910F900BBE0F900FBE7A
:101240000F901F9018951F920F920FB60F921124B6
:101250000BB60F922F933F934F935F936F937F93B0
:101260008F939F93AF93BF93EF93FF938091C800A9
:1012700082FD07C08091CE0062EA75E00E94D60828
:1012800002C08091CE00FF91EF91BF91AF919F91ED
:101290008F917F916F915F914F913F912F910F901F
:1012A0000BBE0F900FBE0F901F9018951F920F92BC
:1012B0000FB60F9211240BB60F922F933F934F93BB
:1012C0005F936F937F938F939F93AF93BF93EF93AE
:1012D000FF938091D00082FD07C08091D6006AE123
:1012E00075E00E94D60802C08091D600FF91EF9170
:1012F000BF91AF919F918F917F916F915F914F912E
:101300003F912F910F900BBE0F900FBE0F901F902B
:1013100018951F920F920FB60F9211240BB60F92D1
:101320002F933F934F935F936F937F938F939F93ED
:10133000AF93BF93EF93FF938091300182FD07C07D
:101340008091360162E974E00E94D60802C0809163
:101350003601FF91EF91BF91AF919F918F917F9156
:101360006F915F914F913F912F910F900BBE0F9016
:101370000FBE0F901F9018951F920F920FB60F92ED
:1013800011240BB60F922F933F938F939F93EF935C
:10139000FF93209126063091270680912806909190
:1013A00029062817390731F48091C1008F7D809379
:1013B000C10014C0E0912806F0912906EA51FA4FC5
:1013C0002081809128069091290601968F73992794
:1013D00090932906809328062093C600FF91EF91F1
:1013E0009F918F913F912F910F900BBE0F900FBE49
:1013F0000F901F9018951F920F920FB60F92112405
:101400000BB60F922F933F938F939F93EF93FF937E
:1014100020919E0530919F058091A0059091A10596
:101420002817390731F48091C9008F7D8093C90056
:1014300014C0E091A005F091A105E25AFA4F208175
:101440008091A0059091A10501968F7399279093A3
:10145000A1058093A0052093CE00FF91EF919F916D
:101460008F913F912F910F900BBE0F900FBE0F9059
:101470001F9018951F920F920FB60F9211240BB662
:101480000F922F933F938F939F93EF93FF9320910E
:1014900016053091170580911805909119052817A8
:1014A000390731F48091D1008F7D8093D10014C031
:1014B000E0911805F0911905EA52FB4F20818091C7
:1014C00018059091190501968F7399279093190526
:1014D000809318052093D600FF91EF919F918F91F3
:1014E0003F912F910F900BBE0F900FBE0F901F904A
:1014F00018951F920F920FB60F9211240BB60F92F0
:101500002F933F938F939F93EF93FF9320918E049C
:1015100030918F048091900490919104281739079D
:1015200031F4809131018F7D8093310114C0E091BD
:101530009004F0919104E25BFB4F20818091900434
:101540009091910401968F739927909391048093C1
:10155000900420933601FF91EF919F918F913F91DD
:101560002F910F900BBE0F900FBE0F901F901895EC
:10157000CF92DF92EF92FF920F931F93CF93DF935F
:10158000EC016A017B014115514E6105710509F1BC
:10159000EC89FD8981E090E008A002C0880F991FC6
:1015A0000A94E2F7808360E079E08DE390E0A701A0
:1015B00096010E94CE1889019A0101501109210952
:1015C0003109369527951795079598010115104112
:1015D000A8F0EC89FD89108260E874E88EE190E063
:1015E000A70196010E94CE18DA01C9010197A1094D
:1015F000B109B695A795979587959C01E889F989D2
:101600003083EA89FB89208319A2EE89FF89408112
:1016100081E090E09C010C8C02C0220F331F0A94E1
:10162000E2F7242B2083EE89FF8940819C010D8CF9
:1016300002C0220F331F0A94E2F7242B2083EE8985
:10164000FF8940819C010E8C02C0220F331F0A9437
:10165000E2F7242B2083EE89FF8920810F8C02C0C2
:10166000880F991F0A94E2F7809582238083DF9187
:10167000CF911F910F91FF90EF90DF90CF90089541
:10168000CF92DF92EF92FF92ECE2F4E013821282AB
:1016900088EEC82E83E0D82EE12CF12CC482D582AE
:1016A000E682F7826CE073E0718360838AE296E001
:1016B0009587848786EE95E09787868785EC90E00E
:1016C000918B808B84EC90E0938B828B80EC90E00C
:1016D000958B848B81EC90E0978B868B82EC90E0ED
:1016E000918F808F86EC90E0938F828F44E0448FBF
:1016F00033E0358F27E0268F95E0978F81E080A338
:10170000EAE0F4E013821282C482D582E682F78294
:1017100071836083A2EAB5E0B587A487AEE5B5E042
:10172000B787A687ADECB0E0B18BA08BACECB0E096
:10173000B38BA28BA8ECB0E0B58BA48BA9ECB0E086
:10174000B78BA68BAAECB0E0B18FA08FAEECB0E067
:10175000B38FA28F448F358F268F978F80A3E8EEAB
:10176000F3E013821282C482D582E682F78271830B
:101770006083AAE1B5E0B587A487A6EDB4E0B7879A
:10178000A687A5EDB0E0B18BA08BA4EDB0E0B38B44
:10179000A28BA0EDB0E0B58BA48BA1EDB0E0B78B30
:1017A000A68BA2EDB0E0B18FA08FA6EDB0E0B38F15
:1017B000A28F448F358F268F978F80A3E6ECF3E0BE
:1017C00013821282C482D582E682F782718360839B
:1017D00062E974E0758764876EE474E077876687F2
:1017E00065E371E0718B608B64E371E0738B628BF6
:1017F00060E371E0758B648B61E371E0778B668BDE
:1018000062E371E0718F608F66E371E0738F628FC6
:10181000448F358F268F978F80A3FF90EF90DF90B6
:10182000CF9008952F923F924F925F926F927F9246
:101830008F929F92AF92BF92CF92DF92EF92FF92E0
:101840000F931F93CF93DF9300D0CDB7DEB74C013A
:101850007B836A836A01590117019801241B350BA8
:1018600037FF03C0319521953109C5014A815B815C
:10187000841B950B97FF03C091958195910951E0C9
:1018800059838217930714F019820BC09A2D8B2D60
:101890005801092F182F9A818B81DB82CA82C92EA9
:1018A000D82E8A819B81A816B9065CF49C2D8D2DBB
:1018B0006801092F182F9A818B81BB82AA82A92ED9
:1018C000B82E2501AA81BB814A1A5B0A38016C181F
:1018D0007D0877FE03C0719461947108720157FE10
:1018E00003C0BFEFEB1AFB0AF594E794C016D106CC
:1018F0001CF00FEF1FEF1FC001E010E01CC0D4016F
:10190000ED91FC91B9810084F185E02D9101BB231B
:10191000C1F04A815B81B601C4011995E618F70848
:10192000F7FE04C0C00ED11EE40CF51CEA81FB8159
:101930003196FB83EA834A815B81A416B506FCF6E7
:1019400004C0A6016A817B81E7CF0F900F900F90B2
:10195000DF91CF911F910F91FF90EF90DF90CF908B
:10196000BF90AF909F908F907F906F905F904F90BF
:101970003F902F9008950895DC01ED91FC91048033
:10198000F581E02D19940F931F93DC01ED91FC91EB
:10199000008CF18DE02D19951F910F9108950F93F3
:1019A0001F93DC01ED91FC91028CF38DE02D1995D4
:1019B0001F910F910895EF92FF920F931F93DC01F7
:1019C000ED91FC91048CF58DE02D19951F910F91EF
:1019D000FF90EF9008950895AF92BF92CF92DF925B
:1019E000EF92FF920F931F93CF93DF9300D01F923C
:1019F000CDB7DEB75C016901DC01ED91FC91068099
:101A0000F781E02D4B835C8369837A831995D50137
:101A1000ED91FC914B815C81C40ED51EB1E0CB1AD7
:101A2000D1080088F189E02D7801860169817A81E9
:101A30009B01C5011995D501ED91FC910288F389AF
:101A4000E02DC5010F900F900F900F90DF91CF9177
:101A50001F910F91FF90EF90DF90CF90BF90AF90CC
:101A60001994AF92BF92CF92DF92EF92FF920F93B1
:101A70001F93CF93DF9300D01F92CDB7DEB75C01E9
:101A80006901DC01ED91FC910680F781E02D4B832B
:101A90005C8369837A831995D501ED91FC91698105
:101AA0007A819B012C0D3D1D215031090088F1895F
:101AB000E02D78014B815C818A01C5011995D50122
:101AC000ED91FC910288F389E02DC5010F900F90F4
:101AD0000F900F90DF91CF911F910F91FF90EF909A
:101AE000DF90CF90BF90AF9019944F925F926F921A
:101AF0007F928F929F92AF92BF92CF92DF92EF929E
:101B0000FF920F931F93CF93DF931F921F92CDB736
:101B1000DEB76C015A0139014801DC01ED91FC91FD
:101B20000680F781E02D69837A8319956981462EB5
:101B30007A81572E640C751CD601ED91FC914614E8
:101B400057046CF40484F585E02D87019401A50108
:101B5000B201C6011995BFEF4B1A5B0AEDCF02889F
:101B6000F389E02DC6010F900F90DF91CF911F9167
:101B70000F91FF90EF90DF90CF90BF90AF909F902C
:101B80008F907F906F905F904F901994EF92FF929B
:101B90000F931F93DC01ED91FC9111971A960D9113
:101BA0001C911B9718962D913C911997048CF58DDB
:101BB000E02D7B0140E050E060E070E019951F915E
:101BC0000F91FF90EF900895CF92DF92EF92FF92E6
:101BD0000F931F93CF93DF9300D000D0CDB7DEB724
:101BE0006C01DC01ED91FC916217730789F4041715
:101BF00015072CF4942F852FA801092F182F041BEB
:101C0000150B98012F5F3F4F008CF18DE02D12C016
:101C10004017510709F5261737072CF4962F872F01
:101C2000B901292F382F261B370B2F5F3F4F028C0E
:101C3000F38DE02D8701C601199526960FB6F8940D
:101C4000DEBF0FBECDBFDF91CF911F910F91FF90EF
:101C5000EF90DF90CF9008950680F781E02D2D83DF
:101C60003E834B835C8369837A831995D601ED911A
:101C7000FC910088F189E02D2D813E814B815C81B2
:101C800069817A81C6011995D601ED91FC9102888E
:101C9000F389E02DC60126960FB6F894DEBF0FBE7D
:101CA000CDBFDF91CF911F910F91FF90EF90DF900B
:101CB000CF9019946F927F928F929F92AF92BF9222
:101CC000CF92DF92EF92FF920F931F93CF93DF9308
:101CD000EC014B015A0169013801E881F981068064
:101CE000F781E02D1995E881F9810684F785E02DCB
:101CF00087019601A501B401CE011995E881F9810A
:101D0000A501460D571D415051090684F785E02D68
:101D10009601B401CE011995E881F9810484F58515
:101D2000E02D9301A501B401CE011995E881F98157
:101D3000C80CD91CB601615071090484F585E02DE9
:101D40009301A501CE011995E881F9810288F389F3
:101D5000E02DCE01DF91CF911F910F91FF90EF9079
:101D6000DF90CF90BF90AF909F908F907F906F90BB
:101D700019940895FC016370658B84819581268197
:101D80003781613039F0633029F09187808733875C
:101D90002287089531872087938782870895FC01E1
:101DA000138212828CE193E0918380837583648334
:101DB000578346837187608753874287158A1586C4
:101DC00014861786168681E0848B2FEF3FEF338BC6
:101DD000228B318B208B868B178A118E108E089563
:101DE0002F923F924F925F926F927F928F929F922B
:101DF000AF92BF92CF92DF92EF92FF920F931F9319
:101E0000CF93DF93CDB7DEB76C970FB6F894DEBFF4
:101E10000FBECDBF9C8F8B8F5B011A011F830E837A
:101E20003701C982DC0158964D915C915997411553
:101E3000510509F0E5C018968D919C911997681786
:101E400079070CF0CAC11A968D919C911B972816A0
:101E500039060CF0C2C18C2C912CFB0136E0C39EDC
:101E6000E00DF11D1124FB87EA871E161F060CF0FA
:101E7000B4C1C40133E0880F991F3A95E1F79D87FB
:101E80008C87820D931D181619060CF0A6C1579663
:101E90008C91811103C0203B08F02F5FAB8DBC8D6E
:101EA000ED91FC9111970680F781E02DCD012A8FED
:101EB00019952A8DB5E02B9F90011124F5013596D7
:101EC000FF87EE872501BB82AA82A9014A195B0917
:101ED000598B488BC10108969B8B8A8BE889F989BD
:101EE000E40DF51DE650FD4F949198873D822C82BC
:101EF0006101A885A0FF13C0AB8DBC8DED91FC9155
:101F0000B981B13031F40084F185E02D2E813F811B
:101F100016C00284F385E02DEE80FF801AC0EE81AA
:101F2000FF816E167F06F1F0AB8DBC8DED91FC91BB
:101F3000B981B13051F40084F185E02D9301A601FF
:101F4000B2018B8D9C8D19950DC00284F385E02D17
:101F50007301840194014C815D816A817B818B8D49
:101F60009C8D1995E885E695E8872C813D81280DA3
:101F7000391D3D832C833FEFC31AD30A4A895B89FD
:101F8000C416D50609F0B5CF8A819B81880D991DAD
:101F90009B838A839FEF491A590AAE85BF854A16EB
:101FA0005B0609F09BCFEE81FF816E167F0609F478
:101FB000F2C0EB8DFC8DA081B181F981F13079F413
:101FC000B5016B5F7F4F1C96ED91FC911D978301CE
:101FD00028E030E0A1018B8D9C8D1995DCC06A85CD
:101FE0007B85681979091A96ED91FC911B9773010D
:101FF0000C851D859401A1018B8D9C8D1995CBC0FD
:10200000FA0134969491329765917491291BCB0112
:10201000B7E02B9F800D911D1124FA012591349179
:102020003B8B2A8BFC01459154915B834A83FC01D5
:102030003296C490319654915C87329614913196C1
:10204000D4908981823058F0612E012E000C7708DF
:10205000AD2D0D2C000CBB0BB987A88704C01986C9
:102060001886612C712CAB8DBC8DED91FC91119774
:102070000680F781E02DCD011995B9818B2E912C29
:10208000689CC001699C900D789C900D1124FC0106
:10209000EA0DFB1DF98BE88B1C82712C612CE12F62
:1020A000110FFF0B95012E0F3F1F3B872A87AC0CAA
:1020B000B11CA5014E0F5F1F5F8B4E8BC1018D0DB3
:1020C000911DD7FC9A95998F888F4C85641608F0DE
:1020D00062C0862D90E048855985480F591F489D5C
:1020E0009001499D300D589D300D1124D901A20D4C
:1020F000B31DBF87AE87AA84BB8448885988DC801B
:10210000BA85DB1AE88DF98DE80FF91FFD8BEC8B92
:102110008D2D8A0D2E893F89A216B306B9F18770DD
:1021200061F48A819B810196EA89FB89AA81BB813E
:10213000EA0FFB1F74909B838A8377FE20C0AB8DD0
:10214000BC8DED91FC91B981B13061F40084F185D1
:10215000E02D2E813F814C895D89B5018B8D9C8D51
:1021600019950DC00284F385E02DEE80FF80840177
:1021700094014E855F85B2018B8D9C8D1995770CEE
:10218000480C591CEFEFAE1ABE0AC2CF3C813C0D81
:102190003C8363949ACFAB8DBC8DED91FC911197EC
:1021A0000288F389E02DCD016C960FB6F894DEBF5E
:1021B0000FBECDBFDF91CF911F910F91FF90EF9098
:1021C000DF90CF90BF90AF909F908F907F906F9057
:1021D0005F904F903F902F9019946C960FB6F894A3
:1021E000DEBF0FBECDBFDF91CF911F910F91FF904A
:1021F000EF90DF90CF90BF90AF909F908F907F90A7
:102200006F905F904F903F902F900895AF92BF9244
:10221000CF92EF92FF920F931F93CF93DF93EC0136
:10222000262F888D998D009709F040C06A3059F4A7
:102230001D861C862C898E859F8538E0239F800D06
:10224000911D112441C06D3009F4AAC08E898823E4
:10225000C1F03C898C859D8546E0349F800D911DA1
:10226000112448855985481759075CF41D861C863A
:102270008E859F8548E0349F800D911D11249F8796
:102280008E87EA88FB88088919894E855F856C8569
:102290007D85CC88CE010E94F00E2C898C859D8591
:1022A00036E0239F800D911D112442C06A3079F4DD
:1022B0001D861C862C89FC013696E4918E859F85AF
:1022C0002E9F800D911D11249F878E8769C06D30D0
:1022D00009F466C0FC0134963491631708F460C0B9
:1022E0003196E491E61708F45BC0FC013296A590A4
:1022F000B490462F50E0431B510937E0349FB001A2
:10230000359F700D1124A60EB71EF501329634913B
:102310003196E491332311F0E1110DC0F5013496AB
:10232000E4912C898C859D85E29F800D911D11245F
:102330009D878C8735C0F501359644915E8955237C
:1023400011F16C89E32FF0E0E40FF11D47FDFA95E0
:102350006E9FD0016F9FB00D11244C855D854A0F93
:102360005B1FE885F985E417F5076CF41D861C866C
:10237000FC013696E4918E859F856E9F800D911DA0
:1023800011249F878E87EA88FB88088919894E85E2
:102390005F856C857D85CC88CE010E94F00EBECF16
:1023A00081E090E0DF91CF911F910F91FF90EF902E
:1023B000CF90BF90AF900895FC01758764875787D1
:1023C00046870895611101C061E0FC01648B0895A6
:1023D000FC01718B608B538B428B0895FC01668BE3
:1023E0000895DC019C96ED91FC919D979081D1968A
:1023F0008C91892B80830895EF92FF920F931F9306
:10240000DC01ED91FC910284F385E02D78018901D6
:1024100021E030E019951F910F91FF90EF90089502
:10242000EF92FF920F931F93DC01ED91FC910284D8
:10243000F385E02D780101E010E019951F910F91CF
:10244000FF90EF9008950F931F93CF93DF9300D0E9
:1024500000D0CDB7DEB78C01DC01ED91FC91068098
:10246000F781E02D2D833E834B835C8369837A83E0
:102470001995D801ED91FC910084F185E02D2D8115
:102480003E814B815C8169817A81C8011995D801AF
:10249000ED91FC910288F389E02DC80126960FB6D4
:1024A000F894DEBF0FBECDBFDF91CF911F910F918A
:1024B0001994EF92FF920F931F93CF93DF9300D065
:1024C00000D0CDB7DEB77C01DC01ED91FC91068038
:1024D000F781E02D2D833E834B835C8369837A8370
:1024E0001995D701ED91FC910484F585E02D2D819E
:1024F0003E814B815C8169817A81C7011995D70141
:10250000ED91FC910288F389E02DC70126960FB664
:10251000F894DEBF0FBECDBFDF91CF911F910F9119
:10252000FF90EF901994EF92FF920F931F93CF9328
:10253000DF9300D000D0CDB7DEB77C01DC01ED9198
:10254000FC910680F781E02D2D833E834B835C83D5
:1025500069837A831995D701ED91FC910684F785FB
:10256000E02D2D813E814B815C8169817A81C7019B
:102570001995D701ED91FC910288F389E02DC701EF
:1025800026960FB6F894DEBF0FBECDBFDF91CF9178
:102590001F910F91FF90EF901994CF92DF92EF92DD
:1025A000FF920F931F93CF93DF9300D000D0CDB74E
:1025B000DEB76C01DC01ED91FC910680F781E02D26
:1025C0002D833E834B835C8369837A831995D6017F
:1025D000ED91FC910284F385E02D2D813E814B81AC
:1025E0005C8169817A81C6011995D601ED91FC91D2
:1025F0000288F389E02DC60126960FB6F894DEBF57
:102600000FBECDBFDF91CF911F910F91FF90EF9043
:10261000DF90CF901994CF93DF93EC0189A187FFCE
:1026200009C084E00E94A81881E00E949A1880E006
:102630000E94A318ECA5FDA5908189A98095892306
:102640008083DF91CF910895EF92FF920F931F93B4
:10265000CF93DF931F92CDB7DEB77C01062F142FE7
:1026600040E451E060EF70E029830E94CF0E84E4E3
:1026700093E0D70111969C938E935E960C935E9790
:102680005F961C935F97298190962C9390978FEF7C
:1026900091968C93919792968C93929793968C9314
:1026A0009397F701128E138E148E158E602F000FE4
:1026B000770BFB01EA59FD4F8491E82FF0E0EE0F14
:1026C000FF1FEA53FD4F859194919D969C938E93A5
:1026D0009C97FB01E05EFD4FE491D196EC93D1977E
:1026E000412F110F550BFA01EA59FD4FE491F0E02B
:1026F000EE0FFF1FEA53FD4F85919491F70193A7C9
:1027000082A7FA01E05EFD4FE491D296EC93D29756
:1027100099961C921E929897D0961C92D097959657
:102720001C921E9294979E961C929E9797961C922E
:102730001E9296979F961C920F90DF91CF911F91BA
:102740000F91FF90EF900895FC0181A187FF05C0D4
:102750006EBD0DB407FEFDCF089528E030E090E88F
:10276000A4A1B5A186A5492F462319F04C91842B2D
:1027700003C04C91809584238C93A0A5B1A54C9166
:1027800080A9809584238C93A0A5B1A54C9180A9A4
:10279000842B8C9396952150310911F70895CF938E
:1027A000DF93EC01EAA5FBA590818AA98095892396
:1027B0008083CE010E94A413EAA5FBA590818AA97B
:1027C000892B8083DF91CF910895CF93DF93EC0124
:1027D000411551056105710521F440E052E16AE7B8
:1027E00070E04A8F5B8F6C8F7D8F61E08F8D0E94D0
:1027F000C20660E08F8D0E94FE0661E08E8D0E9411
:10280000C20661E08E8D0E94FE0689A187FD16C07A
:1028100061E08AA10E94C20660E08AA10E94FE06D1
:1028200061E089A10E94C20661E089A10E94FE06C2
:102830008BA187FD03C060E00E94C20689A187FDCD
:102840000E94841888A187FD21C061E00E94C20611
:1028500061E088A10E94FE0664E670E080E090E0FE
:102860000E94C30560E088A10E94FE0664E670E055
:1028700080E090E00E94C30561E088A10E94FE060E
:1028800068EC70E080E090E00E94C305E881F98187
:102890000680F781E02DCE0119956FEECE010E94E2
:1028A000CF1363E0CE010E94A41360E8CE010E9422
:1028B000A41362E0CE010E94A4136FECCE010E942B
:1028C000CF1360E0CE010E94A41361ECCE010E9400
:1028D000A41360E3CE010E94A4136DEECE010E940A
:1028E000CF1364E6CE010E94A41363E0CE010E94E0
:1028F000A41362E1CE010E94A41361E8CE010E94FC
:10290000A41368EECE010E94CF1365E8CE010E94A9
:10291000A41360E0CE010E94A41368E7CE010E94D8
:10292000A4136BECCE010E94CF1369E3CE010E9489
:10293000A4136CE2CE010E94A41360E0CE010E94B9
:10294000A41364E3CE010E94A41362E0CE010E94AE
:10295000A41367EFCE010E94CF1360E2CE010E9464
:10296000A4136AEECE010E94CF1360E0CE010E9454
:10297000A41360E0CE010E94A41360ECCE010E947B
:10298000CF1363E2CE010E94A41361ECCE010E943A
:10299000CF1360E1CE010E94A41365ECCE010E942A
:1029A000CF136EE3CE010E94A41368E2CE010E9411
:1029B000A41367ECCE010E94CF1366E8CE010E94FB
:1029C000A41366E3CE010E94CF1368E4CE010E94F7
:1029D000A41367E3CE010E94CF1389A187FF09C02A
:1029E0001EBC0DB407FEFDCF1EBC0DB407FEFDCF0F
:1029F00008C060E0CE010E94A41360E0CE010E94F6
:102A0000A4136AE3CE010E94CF1365E5CE010E94B4
:102A1000A41361EBCE010E94CF1360E0CE010E94AF
:102A2000A41368E1CE010E94A41366EBCE010E94BC
:102A3000CF1368E0CE010E94A41362E8CE010E9489
:102A4000A41367E2CE010E94A41362EFCE010E949C
:102A5000CF1360E0CE010E94A41366E2CE010E9473
:102A6000CF1361E0CE010E94A41360EECE010E945C
:102A7000CF136FE0CE010E94A41361E3CE010E9448
:102A8000A4136BE2CE010E94A4136CE0CE010E945D
:102A9000A4136EE0CE010E94A41368E0CE010E9450
:102AA000A4136EE4CE010E94A41361EFCE010E9434
:102AB000A41367E3CE010E94A41367E0CE010E9435
:102AC000A41360E1CE010E94A41363E0CE010E9432
:102AD000A4136EE0CE010E94A41369E0CE010E940F
:102AE000A41360E0CE010E94A41361EECE010E9407
:102AF000CF1360E0CE010E94A4136EE0CE010E94CD
:102B0000A41364E1CE010E94A41363E0CE010E94ED
:102B1000A41361E1CE010E94A41367E0CE010E94DC
:102B2000A41361E3CE010E94A41361ECCE010E94C4
:102B3000A41368E4CE010E94A41368E0CE010E94B1
:102B4000A4136FE0CE010E94A4136CE0CE010E949A
:102B5000A41361E3CE010E94A41366E3CE010E9498
:102B6000A4136FE0CE010E94A41361E1CE010E9484
:102B7000CF1368E770E080E090E00E94C30569E24F
:102B8000CE010E94CF1368E770E080E090E00E94E1
:102B9000C305E881F9810288F389E02DCE011995FA
:102BA00080EF90E09987888780E491E09B878A870F
:102BB000DF91CF9108951F93CF93DF93EC01637062
:102BC0006D8B6230C1F0633001F1613051F080EF04
:102BD00090E09987888780E491E09B878A8718E452
:102BE0001DC080E491E09987888780EF90E09B8703
:102BF0008A8718E213C080EF90E09987888780E485
:102C000091E09B878A8718E809C080E491E0998762
:102C1000888780EF90E09B878A8718EEE881F981AA
:102C20000680F781E02DCE01199566E3CE010E9462
:102C3000CF13612FCE010E94A413E881F98102888D
:102C4000F389E02DCE01DF91CF911F9119940F935D
:102C50001F93CF93DF931F92CDB7DEB78C01DC01BA
:102C6000ED91FC910680F781E02D698319956981CA
:102C7000611102C060E201C061E2C8010E94CF138D
:102C8000D801ED91FC910288F389E02DC8010F90E5
:102C9000DF91CF911F910F9119948F929F92AF92D4
:102CA000BF92CF92DF92EF92FF920F931F93CF9339
:102CB000DF93EC01490181E0881A9108860E971E86
:102CC000C401A0E0B0E04B01A12CB12C5401992427
:102CD0008824882A992AAA2ABB2A680181E0C81A6E
:102CE000D108C40ED51EC601A0E0B0E06A01E12CF7
:102CF000F12C7601DD24CC24C82AD92AEA2AFB2A21
:102D00006AE2CE010E94CF1329A16B2D7727882775
:102D1000992727FF18C06EBD0DB407FEFDCFC50172
:102D2000AA27BB278EBD0DB407FEFDCFBB27AB2D59
:102D30009A2D892D8EBD0DB407FEFDCF8EBC0DB42E
:102D400007FEFDCF14C0CE010E94A413B501882751
:102D50009927CE010E94A41399278B2D7A2D692DD6
:102D6000CE010E94A413682DCE010E94A4136BE231
:102D7000CE010E94CF1329A16F2D7727882799278D
:102D800027FF18C06EBD0DB407FEFDCFC701AA27EF
:102D9000BB278EBD0DB407FEFDCFBB27AF2D9E2DEB
:102DA0008D2D8EBD0DB407FEFDCFCEBC0DB407FE3C
:102DB000FDCF14C0CE010E94A413B7018827992724
:102DC000CE010E94A41399278F2D7E2D6D2DCE014B
:102DD0000E94A4136C2DCE010E94A4136CE2CE01BC
:102DE000DF91CF911F910F91FF90EF90DF90CF90E7
:102DF000BF90AF909F908F900C94CF131F93CF9361
:102E0000DF93262FFC0131A137FF09C07EBD0DB431
:102E100007FEFDCF2EBD0DB407FEFDCF0CC0672F02
:102E2000122FEC010E94A413612FCE01DF91CF91EC
:102E30001F910C94A413DF91CF911F910895EF92ED
:102E4000FF920F931F93CF93DF9377FD23C0DC0195
:102E50001896ED91FC9119976E177F07DCF457FDDA
:102E600019C01A96ED91FC911B974E175F0794F4C9
:102E70007901EC0101E010E021E030E00E944D1604
:102E8000B701CE01DF91CF911F910F91FF90EF908D
:102E90000C94FE16DF91CF911F910F91FF90EF9050
:102EA0000895EF92FF921F93CF93DF9300D01F926C
:102EB0001F92CDB7DEB77C01162FFC0181A187FFE1
:102EC00012C0211531054105510549F17EBD0DB4F2
:102ED00007FEFDCF1EBD0DB407FEFDCF2150310909
:102EE00041095109EECF2115310541055105B9F0D0
:102EF000672FC70129833A834B835C837D830E94BC
:102F0000A413612FC7010E94A41329813A814B8128
:102F10005C8121503109410951097D81E4CF0F9035
:102F20000F900F900F900F90DF91CF911F91FF9016
:102F3000EF9008958F929F92AF92BF92CF92DF92BF
:102F4000EF92FF920F931F93CF93DF935C01FB01EE
:102F5000E9014701DC0118962D913C911997621700
:102F600073070CF049C01A968D919C911B974817D6
:102F700059070CF041C06B01CC0EDD1ED601119734
:102F80007A01E00EF11EB70161507109B7FD34C03E
:102F900077FD32C0F7FF03C0E601E0E0F0E057FF45
:102FA00003C0870140E050E0A217B3071CF0E9011D
:102FB000CE1BDF0B681779071CF08C01041B150B67
:102FC0009E01D8010E94F8186B017C01BF01C50168
:102FD0000E944D16A7019601B401C501DF91CF9162
:102FE0001F910F91FF90EF90DF90CF90BF90AF9027
:102FF0009F908F900C945117DF91CF911F910F915B
:10300000FF90EF90DF90CF90BF90AF909F908F9008
:103010000895EF92FF920F931F93DC0112964C9349
:10302000129714962C93149713960C931397159646
:103030006C9315971796FC92EE92169770E0FB0131
:10304000EA59FD4FE491F0E0EE0FFF1FEA53FD4F08
:103050008591949119969C938E93189750E0FA015C
:10306000EA59FD4FE491F0E0EE0FFF1FEA53FD4FE8
:10307000859194911B969C938E931A9730E0F90159
:10308000EA59FD4FE491F0E0EE0FFF1FEA53FD4FC8
:10309000859194911D969C938E931C9710E0F80156
:1030A000EA59FD4F849190E0880F991F8A539D4FF4
:1030B000FC01859194911F969C938E931E97FB0122
:1030C000E05EFD4F649150966C935097FA01E05E7C
:1030D000FD4F449152964C935297F901E05EFD4F9B
:1030E000249151962C935197F801E05EFD4F049185
:1030F00053960C9353978AE090E08D939C931F9185
:103100000F91FF90EF90089561E085E30E94FE0625
:1031100061E085E30E94C2068CB580618CBD8CB5F0
:1031200080648CBD61E084E30E94C20661E083E3B9
:103130000C94C206811103C08CB5806202C08CB5AC
:103140008F7D8CBD08959CB5937F892B8CBD089590
:103150009CB5282F23709C7F922B9CBD2DB582FBA4
:10316000992790F9822F8E7F892B8DBD0895F89431
:103170000C941619AA1BBB1B51E107C0AA1FBB1F49
:10318000A617B70710F0A61BB70B881F991F5A95F3
:10319000A9F780959095BC01CD010895A1E21A2E62
:1031A000AA1BBB1BFD010DC0AA1FBB1FEE1FFF1FEB
:1031B000A217B307E407F50720F0A21BB30BE40B3B
:1031C000F50B661F771F881F991F1A9469F7609582
:1031D0007095809590959B01AC01BD01CF0108953C
:1031E000EE0FFF1F881F8BBF0790F691E02D1994FB
:1031F0000E940019332312F48A1B9B0B0C941119A3
:10320000A29FB001B39FC001A39F700D811D112427
:10321000911DB29F700D811D1124911D08950E9472
:103220000019B7FF0895821B930B0895F894FFCF00
:10323000750279027E0287028C0292029902A10233
:10324000A802B102B802C002C702CD02FA02FC0213
:10325000FE020003020304030603015265616420B9
:10326000626C6F636B206661696C65642C2074729C
:1032700079696E6720616761696E2E0050616765CC
:103280002032206E756D6265723A20007468697331
:10329000206973207468652063757272656E74208E
:1032A0006E616D65005A6163004F6D69640056651B
:1032B000726F6E696361005A616368004A61736F7F
:1032C0006E004A6F7365706800417273656E69794C
:1032D0000044616E69656C004D6F68616D6D61647D
:1032E000005061726173680045766572746F6E009C
:1032F000546F75716972004C6F67616E00412056A2
:10330000657279204C6F6E67204E616D6520546840
:1033100061742053686F756C64204E6F742057720F
:1033200061702041726F756E64004100420043007D
:10333000440045004600470000000000940857077D
:103340003D0869084D08890800000000061157076C
:103350003C08BB0CBC0CDB0CC30CCF0C120CEB0CF4
:10336000BA0EB90EEC0C310D750DC60DE40D5A0EEA
:10337000000000000611570723120B131F179A179E
:10338000FC111012120CF111DB15271659129312B1
:08339000CD12C60DE40D5A0E2A
:00000001FF
