:100000000C94F2030C9423040C9423040C94230406
:100010000C9423040C9423040C9423040C942304C4
:100020000C9423040C9423040C9423040C942304B4
:100030000C9423040C9423040C9423040C942304A4
:100040000C9423040C9423040C9423040C94230494
:100050000C9423040C9423040C9423040C94A20504
:100060000C9423040C9483080C944F090C942304DF
:100070000C9423040C9423040C9423040C94230464
:100080000C9423040C9423040C9423040C94230454
:100090000C94B6080C948E090C9423040C9423043D
:1000A0000C9423040C9423040C9423040C94230434
:1000B0000C9423040C9423040C9423040C94230424
:1000C0000C9423040C9423040C9423040C94E9084A
:1000D0000C94CD090C9423040C941C090C940C0A68
:1000E0000C9423049D1AA01A931A971AD71AA41ACB
:1000F000A81AAE1AB21AB61ABC1AC01AC41AD71A5B
:10010000CA1ACE1AD21A0C94A81A0C94CA1A0C94B1
:1001100010150C94931A0C94D21A0C944E0F0C9444
:10012000D6140C944B110C94C30F0C94CE1A0C944F
:100130004A150C949D1A0C94B21A0C94A5060C94B2
:1001400027080C948D140C94D71A0C94E0070C9487
:1001500088150C94CC040C94CF070C9407100C94C5
:10016000B61A0C94A41A0C94171A0C94A4180C9494
:100170004D0F0C94BC1A0C94A40E0C9476100C9495
:100180007E0F0C94610F0C9458180C949C190C94CD
:1001900079140C94A0140C944C110C94971A0C9490
:1001A000A01A0C94C01A0C94AE1A0C9498130C94C8
:1001B0006E140C947D0F0C946D0F0C94EC100C9439
:1001C00058100C94C41A0C94D0070C94FC070C948F
:1001D0002B0B0C941C080C94550F00000000003EE3
:1001E0005B4F5B3E3E6B4F6B3E1C3E7C3E1C183CA7
:1001F0007E3C181C577D571C1C5E7F5E1C00183C03
:100200001800FFE7C3E7FF0018241800FFE7DBE74B
:10021000FF30483A060E2629792926407F05050732
:10022000407F05253F5A3CE73C5A7F3E1C1C08088E
:100230001C1C3E7F14227F22145F5F005F5F060953
:100240007F017F006689956A606060606094A2FFAC
:10025000A29408047E040810207E201008082A1C9E
:1002600008081C2A08081E101010100C1E0C1E0C6A
:1002700030383E3830060E3E0E060000000000000A
:10028000005F00000007000700147F147F14242A79
:100290007F2A12231308646236495620500008074B
:1002A0000300001C2241000041221C002A1C7F1C6C
:1002B0002A08083E0808008070300008080808086E
:1002C000000060600020100804023E5149453E00D5
:1002D000427F400072494949462141494D33181433
:1002E000127F1027454545393C4A49493141211182
:1002F00009073649494936464949291E0000140074
:100300000000403400000008142241141414141496
:10031000004122140802015909063E415D594E7CF4
:100320001211127C7F494949363E414141227F41A9
:1003300041413E7F494949417F090909013E414107
:1003400051737F0808087F00417F41002040413FF2
:10035000017F081422417F404040407F021C027F01
:100360007F0408107F3E4141413E7F090909063E56
:100370004151215E7F091929462649494932030125
:100380007F01033F4040403F1F2040201F3F403837
:10039000403F631408146303047804036159494D12
:1003A00043007F4141410204081020004141417F48
:1003B00004020102044040404040000307080020BE
:1003C000545478407F2844443838444444283844BE
:1003D00044287F385454541800087E090218A4A4F5
:1003E0009C787F0804047800447D40002040403D14
:1003F000007F1028440000417F40007C047804788E
:100400007C080404783844444438FC182424181820
:10041000242418FC7C08040408485454542404047C
:100420003F44243C4040207C1C2040201C3C403069
:10043000403C44281028444C9090907C4464544C98
:1004400044000836410000007700000041360800F3
:1004500002010204023C2623263C1EA1A161123A9D
:100460004040207A385454555921555579412254E9
:10047000547842215554784020545579400C1E52EE
:100480007212395555555939545454593955545493
:10049000580000457C410002457D420001457C40FA
:1004A0007D1211127DF0282528F07C54554500203E
:1004B00054547C547C0A097F4932494949323A44B0
:1004C00044443A324A4848303A4141217A3A42401B
:1004D0002078009DA0A07D3D4242423D3D404040ED
:1004E0003D3C24FF2424487E4943662B2FFC2F2BC0
:1004F000FF0929F620C0887E090320545479410061
:1005000000447D413048484A32384040227A007ADF
:100510000A0A727D0D19317D2629292F28262929BD
:10052000292630484D4020380808080808080808DF
:10053000382F10C8ACBA2F102834FA00007B000006
:1005400008142A142222142A14085500550055AA0A
:1005500055AA55AAFF55FF55FF000000FF001010D7
:1005600010FF00141414FF001010FF00FF1010F013
:1005700010F0141414FC001414F700FF0000FF0026
:10058000FF1414F404FC141417101F10101F101F74
:100590001414141F00101010F0000000001F1010A1
:1005A00010101F10101010F010000000FF1010109D
:1005B000101010101010FF10000000FF140000FFBA
:1005C00000FF00001F10170000FC04F414141710A3
:1005D000171414F404F40000FF00F7141414141496
:1005E0001414F700F7141414171410101F101F140C
:1005F0001414F4141010F010F000001F101F00006D
:10060000001F14000000FC140000F010F01010FF98
:1006100010FF141414FF141010101F00000000F03D
:1006200010FFFFFFFFFFF0F0F0F0F0FFFFFF000012
:10063000000000FFFF0F0F0F0F0F3844443844FC39
:100640004A4A4A347E02020606027E027E02635550
:100650004941633844443C04407E201E2006027E0B
:10066000020299A5E7A5991C2A492A1C4C7201721D
:100670004C304A4D4D303048784830BC625A463D87
:100680003E494949007E0101017E2A2A2A2A2A443C
:10069000445F444440514A444040444A5140000071
:1006A000FF0103E080FF000008086B6B083612367C
:1006B0002436060F090F060000181800000010105D
:1006C000003040FF0101001F01011E00191D17121B
:1006D000003C3C3C3C00000000000000090A02080D
:1006E0000B0C0D07060304010000000000000000D1
:1006F00000000000000000000000000000000000FA
:1007000000000000000011100F00000000000000B9
:1007100000000000000000000000000000000000D9
:100720000102102020080810204010204080020103
:1007300002010804020101020408102040808040E8
:1007400020100804020180040201804020100804E7
:100750000201080402010102040810204080010285
:10076000040810204080050505050705080808084D
:10077000020202020A0A0808040404040101010139
:100780000101010103030303030303030407070734
:100790000C0C0C0C0C0C0C0C0202020206060606D9
:1007A000060606060B0B0B0B0B0B0B0B00002200B7
:1007B000250028002B002E0031003400020100002B
:1007C000050108010B0100002100240027002A0078
:1007D0002D003000330001010000040107010A016F
:1007E000CC042B0B11241FBECFEFD1E2DEBFCDBF57
:1007F00000E00CBF13E0A0E0B2E0ECE4F8E300E0BE
:100800000BBF02C007900D92A433B107D9F720E1C6
:10081000A4E3B3E001C01D92AA37B207E1F713E0E9
:10082000C2EFD3E000E006C021970109802FFE014E
:100830000E94DF1BC03FD10780E00807A9F70E9494
:100840000C050C94771B0C940000CF92DF92EF9272
:10085000FF920F931F93CF93DF93EC018B016C01F9
:1008600097FF03C087E0C80ED11C93E0D594C794CE
:100870009A95E1F70D2C000CEE08FF0889E0D80EE0
:100880008DE3E81EF11C8FEFC81688E0D8068DE3D3
:10089000E806F104E1F4CE0168E070E00E948A1BF2
:1008A000FC0186E0EE0FFF1F8A95E1F7E657F44F53
:1008B00080E4D80101900D928A95E1F7DF91CF9104
:1008C0001F910F91FF90EF90DF90CF9008952AE84D
:1008D0003BE0B701A6018AE89DE00E94940E8111D9
:1008E000DACF60E072E088E39EE00E94FF06EFCF7F
:1008F000AF92BF92CF92DF92EF92FF920F931F932E
:100900001F921F9228E02F931F92A12CB12C6501FA
:1009100018E8E12E10E1F12E03E51FEF24E337E89C
:1009200042E55FEF0E94FD0B0F900F900F900F902C
:10093000CB011F910F91FF90EF90DF90CF90BF9070
:10094000AF900895AF92BF92CF92DF92EF92FF9255
:100950000F931F931F921F9228E02F931F92A12C99
:10096000B12C650119E1E12E1FE7F12E01E510E040
:1009700022EC30ED41E550E00E94FD0B0F900F900E
:100980000F900F90CB011F910F91FF90EF90DF9090
:10099000CF90BF90AF9008952FEF49E06AE086E9CD
:1009A0009DE00E94A115EAE8FDE0158216821186FD
:1009B000138608950E94430640E855E260E070E027
:1009C00088E39EE00E944B0A40E050E0BA0186E9CD
:1009D0009DE00E94621660E070E086E99DE00E9462
:1009E000581061E272E088E39EE00E94E20646E071
:1009F00061E08AE89DE00E94120D811107C061E567
:100A000072E088E39EE00E94FF06FFCF68E772E095
:100A100088E39EE00C94FF06EF92FF920F931F93E2
:100A2000CF93DF93CDB7DEB7C054D1090FB6F8949A
:100A3000DEBF0FBECDBF0E94DA046CE772E088E330
:100A40009EE00E94FF0688E39EE00E94EB0664E9B8
:100A500072E088E39EE00E94FF0684E3E82E83E0D4
:100A6000F82E00E010E0BE016F5F7F4FC8010E94CA
:100A700025044AE050E0B80188E39EE00E94B107F7
:100A800062ED72E088E39EE00E94E206BE01665FCE
:100A90007F4F88E39EE00E94FF064AE050E0B801E5
:100AA00088E39EE00E94B1076DEA72E088E39EE071
:100AB0000E94E20669817A818B819C810E94A20456
:100AC0004AE050E0BC0188E39EE00E94B8078D81B7
:100AD0009E81F701819391937F014AE050E0B80134
:100AE00088E39EE00E94B10760EC72E088E39EE03C
:100AF0000E94E2066D817E818F8198850E94780434
:100B00004AE050E0BC0188E39EE00E94B8070F5F16
:100B10001F4F0932F4E01F0709F0A5CF88E39EE0DC
:100B20000E94D30A80E090E0C05CDF4F0FB6F894DB
:100B3000DEBF0FBECDBFDF91CF911F910F91FF9010
:100B4000EF9008951F920F920FB60F9211242F93DA
:100B50003F938F939F93AF93BF938091CA0D9091D2
:100B6000CB0DA091CC0DB091CD0D3091C90D23E0EE
:100B7000230F2D3720F40196A11DB11D05C026E8D5
:100B8000230F0296A11DB11D2093C90D8093CA0D9C
:100B90009093CB0DA093CC0DB093CD0D8091CE0D45
:100BA0009091CF0DA091D00DB091D10D0196A11DC6
:100BB000B11D8093CE0D9093CF0DA093D00DB09327
:100BC000D10DBF91AF919F918F913F912F910F9038
:100BD0000FBE0F901F9018952FB7F8946091CA0D13
:100BE0007091CB0D8091CC0D9091CD0D2FBF0895BC
:100BF0003FB7F8948091CE0D9091CF0DA091D00D7C
:100C0000B091D10D26B5A89B05C02F3F19F00196D4
:100C1000A11DB11D3FBFBA2FA92F982F8827820F82
:100C2000911DA11DB11DBC01CD0142E0660F771FD2
:100C3000881F991F4A95D1F70895CF92DF92EF92BE
:100C4000FF92CF93DF936B017C010E94F805EB01CB
:100C5000C114D104E104F10479F00E94F8056C1B81
:100C60007D0B683E7340A0F381E0C81AD108E1080B
:100C7000F108C851DC4FECCFDF91CF91FF90EF909E
:100C8000DF90CF900895789484B5826084BD84B558
:100C9000816084BD85B5826085BD85B5816085BD77
:100CA000EEE6F0E0808181608083E1E8F0E0108290
:100CB000808182608083808181608083E0E8F0E0D1
:100CC000808181608083E1EBF0E0808184608083BB
:100CD000E0EBF0E0808181608083E1E9F0E08081F9
:100CE00082608083808181608083E0E9F0E08081A0
:100CF00081608083E1EAF0E080818260808380818E
:100D000081608083E0EAF0E0808181608083E1E2BD
:100D1000F1E0808182608083808181608083E0E275
:100D2000F1E0808181608083EAE7F0E08081846087
:100D300080838081826080838081816080838081E4
:100D4000806880831092C1000895CF92DF92EF9265
:100D5000FF920F931F93CF93DF936C01EB017B0105
:100D6000E40EF51E00E010E0CE15DF0561F069919C
:100D7000D601ED91FC910190F081E02DC60119950D
:100D8000080F191FF1CFC801DF91CF911F910F916B
:100D9000FF90EF90DF90CF9008956115710579F085
:100DA000FB0101900020E9F73197AF01461B570B7B
:100DB000DC01ED91FC910280F381E02D199480E03B
:100DC00090E008950C94CD06DC01ED91FC9101902A
:100DD000F081E02D19940F931F93CF93DF93EC01D3
:100DE0006DE00E94E4068C016AE0CE010E94E406F8
:100DF000800F911FDF91CF911F910F9108950F9355
:100E00001F93CF93DF93EC010E94CD068C01CE019E
:100E10000E94EB06800F911FDF91CF911F910F91E0
:100E200008958F929F92AF92BF92CF92DF92EF92EE
:100E3000FF920F931F93CF93DF93CDB7DEB7A197A8
:100E40000FB6F894DEBF0FBECDBF6C01142FE52F97
:100E5000CB01022F19A2223008F40AE07E0121E220
:100E6000E20EF11C802E912CA12CB12C612F7E2F33
:100E7000A50194010E949E1B029F1019112481E07C
:100E8000E81AF1081A3014F4105D01C0195CF7017A
:100E90001083122FE32FCA01232B242B252B31F78C
:100EA000B701C6010E94CD06A1960FB6F894DEBF29
:100EB0000FBECDBFDF91CF911F910F91FF90EF90AB
:100EC000DF90CF90BF90AF909F908F900895CF927A
:100ED000DF92EF92FF920F931F93CF93DF93EC017A
:100EE0006A017B012115310579F4E881F9810190CE
:100EF000F081E02D642FDF91CF911F910F91FF9032
:100F0000EF90DF90CF9019942A303105E9F477FF04
:100F10001AC06DE20E94E4068C0144275527BA01ED
:100F20004C195D096E097F092AE0CE010E94110764
:100F3000800F911FDF91CF911F910F91FF90EF9044
:100F4000DF90CF9008952AE0B701A601CE01DF918E
:100F5000CF911F910F91FF90EF90DF90CF900C9465
:100F600011079A01AB01770F660B770B0C9467079B
:100F70000F931F93CF93DF93EC019A01AB01770F8F
:100F8000660B770B0E9467078C01CE010E94EB066F
:100F9000800F911FDF91CF911F910F9108950895B8
:100FA000FC0124853585F901E05CFF4F808191814A
:100FB000329620813181821B930B8F73992708957C
:100FC000DC011C96ED91FC911D97DF01A05CBF4FE9
:100FD0002D913C91119712968D919C911197281704
:100FE000390739F08D919C91E80FF91F808190E0CD
:100FF00008958FEF9FEF0895FC01A485B585FD014D
:10100000E05CFF4F208131813296808191812817E9
:10101000390779F080819181A80FB91F8C912081C7
:1010200031812F5F3F4F2F7333273183208390E02F
:1010300008958FEF9FEF0895FC0181A1882329F087
:10104000A489B5898C9186FFFBCF11A208950F93D7
:101050001F93CF93DF93FC01A685B7858D01005CBC
:101060001F4FE8018881998101968F739927AD01FF
:101070004E5B5F4FEA012881398182179307D1F3D4
:10108000E80128813981A20FB31F6C93A685B7852B
:10109000A05CBF4F11969C938E93A689B7892C9123
:1010A00081E090E0078C02C0880F991F0A94E2F754
:1010B000822B8C9381E081A30488F589E02D8081C7
:1010C0008064808381E090E0DF91CF911F910F9148
:1010D0000895FB01E05CFF4F208131812F5F3F4F7E
:1010E0002F733327DB01AE5BBF4F4D915C9124170B
:1010F000350741F040815181DB01A40FB51F8C936E
:101100003183208308951F920F920FB60F921124FE
:101110000BB60F922F933F934F935F936F937F93F1
:101120008F939F93AF93BF93EF93FF938091C000F2
:1011300082FD07C08091C60066E370E10E946908E5
:1011400002C08091C600FF91EF91BF91AF919F9136
:101150008F917F916F915F914F913F912F910F9060
:101160000BBE0F900FBE0F901F9018951F920F92FD
:101170000FB60F9211240BB60F922F933F934F93FC
:101180005F936F937F938F939F93AF93BF93EF93EF
:10119000FF938091C80082FD07C08091CE006EEA67
:1011A0007FE00E94690802C08091CE00FF91EF911C
:1011B000BF91AF919F918F917F916F915F914F916F
:1011C0003F912F910F900BBE0F900FBE0F901F906D
:1011D00018951F920F920FB60F9211240BB60F9213
:1011E0002F933F934F935F936F937F938F939F932F
:1011F000AF93BF93EF93FF938091D00082FD07C020
:101200008091D60066E27FE00E94690802C080916A
:10121000D600FF91EF91BF91AF919F918F917F91F8
:101220006F915F914F913F912F910F900BBE0F9057
:101230000FBE0F901F9018951F920F920FB60F922E
:1012400011240BB60F922F933F934F935F936F939D
:101250007F938F939F93AF93BF93EF93FF9380916F
:10126000300182FD07C0809136016EE97EE00E9468
:10127000690802C080913601FF91EF91BF91AF9153
:101280009F918F917F916F915F914F913F912F919E
:101290000F900BBE0F900FBE0F901F9018951F92CE
:1012A0000F920FB60F9211240BB60F922F933F930C
:1012B0008F939F93EF93FF932091321030913310CF
:1012C00080913410909135102817390731F48091AE
:1012D000C1008F7D8093C10014C0E0913410F09163
:1012E0003510EE50F04F20818091341090913510E0
:1012F00001968F7399279093351080933410209323
:10130000C600FF91EF919F918F913F912F910F9088
:101310000BBE0F900FBE0F901F9018951F920F924B
:101320000FB60F9211240BB60F922F933F938F930A
:101330009F93EF93FF932091AA0F3091AB0F809171
:10134000AC0F9091AD0F2817390731F48091C90087
:101350008F7D8093C90014C0E091AC0FF091AD0F68
:10136000E659F04F20818091AC0F9091AD0F01961E
:101370008F7399279093AD0F8093AC0F2093CE007D
:10138000FF91EF919F918F913F912F910F900BBE05
:101390000F900FBE0F901F9018951F920F920FB6CF
:1013A0000F9211240BB60F922F933F938F939F931D
:1013B000EF93FF932091220F3091230F8091240F00
:1013C0009091250F2817390731F48091D1008F7D36
:1013D0008093D10014C0E091240FF091250FEE51BD
:1013E000F14F20818091240F9091250F01968F73EA
:1013F00099279093250F8093240F2093D600FF9177
:10140000EF919F918F913F912F910F900BBE0F9075
:101410000FBE0F901F9018951F920F920FB60F924C
:1014200011240BB60F922F933F938F939F93EF93BB
:10143000FF9320919A0E30919B0E80919C0E90917B
:101440009D0E2817390731F4809131018F7D8093EB
:10145000310114C0E0919C0EF0919D0EE65AF14FBF
:10146000208180919C0E90919D0E01968F739927FB
:1014700090939D0E80939C0E20933601FF91EF91E7
:101480009F918F913F912F910F900BBE0F900FBEA8
:101490000F901F901895CF92DF92EF92FF920F93CB
:1014A0001F93CF93DF93EC016A017B014115514EED
:1014B0006105710509F1EC89FD8981E090E008A0E2
:1014C00002C0880F991F0A94E2F7808360E079E0F8
:1014D0008DE390E0A70196010E949E1B89019A016D
:1014E000015011092109310936952795179507955E
:1014F000980101151041A8F0EC89FD89108260E87F
:1015000074E88EE190E0A70196010E949E1BDA012B
:10151000C9010197A109B109B695A7959795879536
:101520009C01E889F9893083EA89FB89208319A223
:10153000EE89FF89408181E090E09C010C8C02C023
:10154000220F331F0A94E2F7242B2083EE89FF89B0
:1015500040819C010D8C02C0220F331F0A94E2F7D8
:10156000242B2083EE89FF8940819C010E8C02C0D0
:10157000220F331F0A94E2F7242B2083EE89FF8980
:1015800020810F8C02C0880F991F0A94E2F7809582
:1015900082238083DF91CF911F910F91FF90EF9075
:1015A000DF90CF900895CF93DF93FC0186859785D8
:1015B000EC01C05CDF4FDC01AE5BBF4F288139819D
:1015C0008D919C91119728173907C1F7A689B78982
:1015D0003C9181E090E0AC01048C02C0440F551FA7
:1015E0000A94E2F7242F209523232C93A689B78908
:1015F0003C91AC01058C02C0440F551F0A94E2F7E0
:10160000242F209523232C93A689B7893C91AC01E4
:10161000068C02C0440F551F0A94E2F7242F209530
:1016200023232C93A689B7892C91078C02C0880F9D
:10163000991F0A94E2F7809582238C93848595857F
:10164000FC01EE5BFF4F2081318132973183208393
:10165000DF91CF910895CF92DF92EF92FF92E8E36E
:10166000FEE01382128288EEC82E83E0D82EE12C91
:10167000F12CC482D582E682F78268ED72E0718334
:10168000608386E390E19587848782EF9FE0978768
:10169000868785EC90E0918B808B84EC90E0938B37
:1016A000828B80EC90E0958B848B81EC90E0978B23
:1016B000868B82EC90E0918F808F86EC90E0938F08
:1016C000828F44E0448F33E0358F27E0268F95E00A
:1016D000978F81E080A3E6E1FEE013821282C4824C
:1016E000D582E682F78271836083AEEABFE0B58778
:1016F000A487AAE6BFE0B787A687ADECB0E0B18BC0
:10170000A08BACECB0E0B38BA28BA8ECB0E0B58BB7
:10171000A48BA9ECB0E0B78BA68BAAECB0E0B18F9C
:10172000A08FAEECB0E0B38FA28F448F358F268FA1
:10173000978F80A3E4EFFDE013821282C482D582EA
:10174000E682F78271836083A6E2BFE0B587A48753
:10175000A2EEBEE0B787A687A5EDB0E0B18BA08B67
:10176000A4EDB0E0B38BA28BA0EDB0E0B58BA48B61
:10177000A1EDB0E0B78BA68BA2EDB0E0B18FA08F4A
:10178000A6EDB0E0B38FA28F448F358F268F978F51
:1017900080A3E2EDFDE013821282C482D582E6824C
:1017A000F782718360836EE97EE0758764876AE5FE
:1017B0007EE07787668765E371E0718B608B64E319
:1017C00071E0738B628B60E371E0758B648B61E316
:1017D00071E0778B668B62E371E0718F608F66E3F7
:1017E00071E0738F628F448F358F268F978F80A320
:1017F000FF90EF90DF90CF9008954F925F926F929D
:101800007F92AF92BF92CF92DF92EF92FF920F93AF
:101810001F93CF93DF93CDB7DEB729013A019B0128
:10182000AC0124193509460957098A899B89AC8975
:10183000BD89BC01CD016A197B098C099D090E94F3
:101840007A1BA801970124193509460957090E94F6
:10185000C01BCA01B9016A0D7B1D8C1D9D1DDF9146
:10186000CF911F910F91FF90EF90DF90CF90BF909D
:10187000AF907F906F905F904F9008958EBD0DB4A4
:1018800007FEFDCF08958FEF0E943E0C8EB50895A0
:1018900061E0FC0184810C94141B60E0FC018481F4
:1018A0000C94141BCF93DF93FC0186818823D1F025
:1018B0008FEF8EBD4FEF878190859C012F5F3F4F4B
:1018C000308727838130924028F40DB407FEFDCF86
:1018D0004EBDF1CF0DB407FEFDCFEF01CF010E9449
:1018E000480C1E82DF91CF910895673028F026E1E1
:1018F000FC01258380E008958DB560FD02C066304F
:1019000011F48E7F01C081608DBD8CB58C7F8CBD44
:101910009CB562FD02C080E001C082E06695617006
:10192000692B862B8CBD81E008950F931F93CF9375
:10193000DF93EB010E94EC058B010E94430C8F3F6B
:1019400049F00E94EC05601B710B6C177D07A8F332
:1019500080E001C081E0DF91CF911F910F91089548
:10196000CF92DF92FF920F931F93CF93DF9300D01C
:101970001F92CDB7DEB76C01F62E29833A834B83D5
:101980005C830E94520CC6010E944D0C6CE271E017
:10199000C6010E94950C8F2D80640E943E0C08E1C8
:1019A00010E05C814B813A812981DA01C901002E66
:1019B00004C0B695A795979587950A94D2F7298381
:1019C0003A834B835C830E943E0C085011092981A5
:1019D0003A814B815C81083F8FEF180731F7FF2078
:1019E00029F0E8E0FE1204C087E803C085E901C0E1
:1019F0008FEF0E943E0C10E00E94430CF60182879C
:101A000087FF04C01F3F11F01F5FF6CF0F900F90AC
:101A10000F900F90DF91CF911F910F91FF90DF906A
:101A2000CF9008958F929F92AF92BF92EF92FF92C4
:101A30000F931F93CF93DF93EC01E62E1B8619863D
:101A40001E821D824C830E94EC058B0161E08C811B
:101A50000E94D81ACE010E94480C60E082E30E94E6
:101A6000D81A61E083E30E94D81A61E084E30E94FF
:101A7000D81A61E085E30E94D81A61E085E30E94EC
:101A8000141B83E58CBD8DB58E7F8DBD2AE0F22EB3
:101A90008FEF0E943E0CFA94F110FACFCE010E9413
:101AA0004D0C20E030E0A90160E0CE010E94B00CB6
:101AB000F82E8A8781E0F81649F00E94EC05601B39
:101AC000710B613D774068F381E04CC02AEA31E058
:101AD00040E050E068E0CE010E94B00C82FF02C0FE
:101AE000FB860EC094E0F92E0E94430C8A87FA947C
:101AF000F110FACF8A3A11F082E034C082E08B878D
:101B00008B85823021F0812C912C540105C0812CD1
:101B1000912CA12C80E4B82E20E030E0A90167E3ED
:101B2000CE010E94B00CA501940169E2CE010E9491
:101B3000B00C8A87882349F00E94EC05601B710B6A
:101B4000613D774048F388E00DC08B85823039F5E0
:101B500020E030E0A9016AE3CE010E94B00C8823A6
:101B600089F086E08D83CE010E94480C80E0DF91F1
:101B7000CF911F910F91FF90EF90BF90AF909F90EA
:101B80008F9008950E94430C807C803C11F483E088
:101B90008B870E94430C0E94430C0E94430CCE0191
:101BA0000E94480C6E2DCE01DF91CF911F910F91B5
:101BB000FF90EF90BF90AF909F908F900C94750C1A
:101BC0000F931F93CF93DF93EC010E94EC058B01E1
:101BD0000E94430C8A878F3F49F40E94EC05601BEA
:101BE000710B6D327140A0F38FE003C08E3F39F06E
:101BF0008DE08D83CE010E94480C80E001C081E021
:101C0000DF91CF911F910F910895CF92DF92EF92C4
:101C1000FF920F931F93CF93DF93EC016901C801EB
:101C2000820F931F8130924008F06FC08E8188230D
:101C300071F088819981AA81BB81481759076A0789
:101C40007B0729F48F819885C816D90618F5488333
:101C500059836A837B838B85833039F089E0440F15
:101C6000551F661F771F8A95D1F79A01AB0161E175
:101C7000CE010E94B00C882319F083E08D8345C00B
:101C8000CE010E94E00D882309F43FC018861F8210
:101C900081E08E838FEF8EBD2FEF8F8198858C151D
:101CA0009D0550F40DB407FEFDCF2EBD8F819885A4
:101CB000019698878F83F1CFC8010197F7014FEF05
:101CC0009F012E193F092817390738F40DB407FE74
:101CD000FDCF2EB521934EBDF3CF0DB407FEFDCF42
:101CE0002EB5F701E80FF91F20838F819885080F23
:101CF000191F18870F838985882319F00115124051
:101D000048F0CE010E94520C05C0CE010E94480C42
:101D100080E001C081E0DF91CF911F910F91FF9092
:101D2000EF90DF90CF900895EF92FF920F931F9363
:101D3000790100E012E020E030E00E94050E1F91E2
:101D40000F91FF90EF9008952F923F924F925F92E4
:101D50006F927F928F929F92AF92BF92CF92DF92BB
:101D6000EF92FF920F931F93CF93DF9300D0CDB7E5
:101D7000DEB74C017B836A836A0159011701980120
:101D8000241B350B37FF03C0319521953109C5015F
:101D90004A815B81841B950B97FF03C091958195C8
:101DA000910951E059838217930714F019820BC0EF
:101DB0009A2D8B2D5801092F182F9A818B81DB8248
:101DC000CA82C92ED82E8A819B81A816B9065CF4D6
:101DD0009C2D8D2D6801092F182F9A818B81BB8234
:101DE000AA82A92EB82E2501AA81BB814A1A5B0AB4
:101DF00038016C187D0877FE03C0719461947108F6
:101E0000720157FE03C0BFEFEB1AFB0AF594E7948B
:101E1000C016D1061CF00FEF1FEF1FC001E010E04D
:101E20001CC0D401ED91FC91B9810084F185E02DB5
:101E30009101BB23C1F04A815B81B601C4011995B0
:101E4000E618F708F7FE04C0C00ED11EE40CF51C1E
:101E5000EA81FB813196FB83EA834A815B81A41688
:101E6000B506FCF604C0A6016A817B81E7CF0F901E
:101E70000F900F90DF91CF911F910F91FF90EF90F6
:101E8000DF90CF90BF90AF909F908F907F906F909A
:101E90005F904F903F902F9008950895DC01ED9151
:101EA000FC910480F581E02D19940F931F93DC01C0
:101EB000ED91FC91008CF18DE02D19951F910F9102
:101EC00008950F931F93DC01ED91FC91028CF38D2B
:101ED000E02D19951F910F910895EF92FF920F93A6
:101EE0001F93DC01ED91FC91048CF58DE02D19958B
:101EF0001F910F91FF90EF9008950895AF92BF92B8
:101F0000CF92DF92EF92FF920F931F93CF93DF93C5
:101F100000D01F92CDB7DEB75C016901DC01ED9105
:101F2000FC910680F781E02D4B835C8369837A8383
:101F30001995D501ED91FC914B815C81C40ED51EA4
:101F4000B1E0CB1AD1080088F189E02D7801860133
:101F500069817A819B01C5011995D501ED91FC91AB
:101F60000288F389E02DC5010F900F900F900F901C
:101F7000DF91CF911F910F91FF90EF90DF90CF9065
:101F8000BF90AF901994AF92BF92CF92DF92EF9231
:101F9000FF920F931F93CF93DF9300D01F92CDB783
:101FA000DEB75C016901DC01ED91FC910680F781EF
:101FB000E02D4B835C8369837A831995D501ED917C
:101FC000FC9169817A819B012C0D3D1D21503109C5
:101FD0000088F189E02D78014B815C818A01C5017F
:101FE0001995D501ED91FC910288F389E02DC50189
:101FF0000F900F900F900F90DF91CF911F910F9145
:10200000FF90EF90DF90CF90BF90AF9019944F92D8
:102010005F926F927F928F929F92AF92BF92CF9278
:10202000DF92EF92FF920F931F93CF93DF931F9254
:102030001F92CDB7DEB76C015A0139014801DC01AE
:10204000ED91FC910680F781E02D69837A831995E3
:102050006981462E7A81572E640C751CD601ED914C
:10206000FC91461457046CF40484F585E02D870137
:102070009401A501B201C6011995BFEF4B1A5B0A85
:10208000EDCF0288F389E02DC6010F900F90DF910C
:10209000CF911F910F91FF90EF90DF90CF90BF9065
:1020A000AF909F908F907F906F905F904F9019941A
:1020B000EF92FF920F931F93DC01ED91FC9111972A
:1020C0001A960D911C911B9718962D913C9119977A
:1020D000048CF58DE02D7B0140E050E060E070E085
:1020E00019951F910F91FF90EF900895CF92DF9275
:1020F000EF92FF920F931F93CF93DF9300D000D006
:10210000CDB7DEB76C01DC01ED91FC91621773076E
:1021100089F4041715072CF4942F852FA801092F93
:10212000182F041B150B98012F5F3F4F008CF18D6A
:10213000E02D12C04017510709F5261737072CF478
:10214000962F872FB901292F382F261B370B2F5F8A
:102150003F4F028CF38DE02D8701C601199526961D
:102160000FB6F894DEBF0FBECDBFDF91CF911F91A8
:102170000F91FF90EF90DF90CF9008950680F78148
:10218000E02D2D833E834B835C8369837A8319958D
:10219000D601ED91FC910088F189E02D2D813E81E1
:1021A0004B815C8169817A81C6011995D601ED91D7
:1021B000FC910288F389E02DC60126960FB6F894AB
:1021C000DEBF0FBECDBFDF91CF911F910F91FF906A
:1021D000EF90DF90CF9019946F927F928F929F92A1
:1021E000AF92BF92CF92DF92EF92FF920F931F9325
:1021F000CF93DF93EC014B015A0169013801E8816B
:10220000F9810680F781E02D1995E881F98106842E
:10221000F785E02D87019601A501B401CE0119953E
:10222000E881F981A501460D571D415051090684E9
:10223000F785E02D9601B401CE011995E881F98169
:102240000484F585E02D9301A501B401CE01199513
:10225000E881F981C80CD91CB60161507109048468
:10226000F585E02D9301A501CE011995E881F9814D
:102270000288F389E02DCE01DF91CF911F910F915C
:10228000FF90EF90DF90CF90BF90AF909F908F9096
:102290007F906F9019940895FC016370658B848121
:1022A000958126813781613039F0633029F091873B
:1022B0008087338722870895318720879387828795
:1022C0000895FC011382128288EE92E0918380834C
:1022D00075836483578346837187608753874287FA
:1022E000158A158614861786168681E0848B2FEF53
:1022F0003FEF338B228B318B208B868B178A118E8D
:10230000108E08952F923F924F925F926F927F921C
:102310008F929F92AF92BF92CF92DF92EF92FF92F5
:102320000F931F93CF93DF93CDB7DEB76C970FB6A4
:10233000F894DEBF0FBECDBF9C8F8B8F5B011A015F
:102340001F830E833701C982DC0158964D915C9141
:1023500059974115510509F0E5C018968D919C914A
:102360001997681779070CF0CAC11A968D919C913C
:102370001B97281639060CF0C2C18C2C912CFB013E
:1023800036E0C39EE00DF11D1124FB87EA871E167F
:102390001F060CF0B4C1C40133E0880F991F3A95B1
:1023A000E1F79D878C87820D931D181619060CF096
:1023B000A6C157968C91811103C0203B08F02F5F76
:1023C000AB8DBC8DED91FC9111970680F781E02DCE
:1023D000CD012A8F19952A8DB5E02B9F90011124EC
:1023E000F5013596FF87EE872501BB82AA82A901F8
:1023F0004A195B09598B488BC10108969B8B8A8BC4
:10240000E889F989E40DF51DE652FE4F949198870D
:102410003D822C826101A885A0FF13C0AB8DBC8DCD
:10242000ED91FC91B981B13031F40084F185E02D5A
:102430002E813F8116C00284F385E02DEE80FF805F
:102440001AC0EE81FF816E167F06F1F0AB8DBC8D58
:10245000ED91FC91B981B13051F40084F185E02D0A
:102460009301A601B2018B8D9C8D19950DC002843C
:10247000F385E02D7301840194014C815D816A81B3
:102480007B818B8D9C8D1995E885E695E8872C815D
:102490003D81280D391D3D832C833FEFC31AD30A9C
:1024A0004A895B89C416D50609F0B5CF8A819B811C
:1024B000880D991D9B838A839FEF491A590AAE851F
:1024C000BF854A165B0609F09BCFEE81FF816E1631
:1024D0007F0609F4F2C0EB8DFC8DA081B181F981FA
:1024E000F13079F4B5016B5F7F4F1C96ED91FC9153
:1024F0001D97830128E030E0A1018B8D9C8D1995FB
:10250000DCC06A857B85681979091A96ED91FC9182
:102510001B9773010C851D859401A1018B8D9C8DEA
:102520001995CBC0FA0134969491329765917491C4
:10253000291BCB01B7E02B9F800D911D1124FA01BF
:10254000259134913B8B2A8BFC01459154915B83FF
:102550004A83FC013296C490319654915C8732963E
:1025600014913196D4908981823058F0612E012ED9
:10257000000C7708AD2D0D2C000CBB0BB987A8877C
:1025800004C019861886612C712CAB8DBC8DED9121
:10259000FC9111970680F781E02DCD011995B98145
:1025A0008B2E912C689CC001699C900D789C900D9D
:1025B0001124FC01EA0DFB1DF98BE88B1C82712CA8
:1025C000612CE12F110FFF0B95012E0F3F1F3B8751
:1025D0002A87AC0CB11CA5014E0F5F1F5F8B4E8B81
:1025E000C1018D0D911DD7FC9A95998F888F4C85CF
:1025F000641608F062C0862D90E048855985480F22
:10260000591F489D9001499D300D589D300D112452
:10261000D901A20DB31DBF87AE87AA84BB844888A9
:102620005988DC80BA85DB1AE88DF98DE80FF91F2F
:10263000FD8BEC8B8D2D8A0D2E893F89A216B3065A
:10264000B9F1877061F48A819B810196EA89FB89DF
:10265000AA81BB81EA0FFB1F74909B838A8377FE5C
:1026600020C0AB8DBC8DED91FC91B981B13061F48E
:102670000084F185E02D2E813F814C895D89B50173
:102680008B8D9C8D19950DC00284F385E02DEE8015
:10269000FF80840194014E855F85B2018B8D9C8DF6
:1026A0001995770C480C591CEFEFAE1ABE0AC2CF31
:1026B0003C813C0D3C8363949ACFAB8DBC8DED91F6
:1026C000FC9111970288F389E02DCD016C960FB62D
:1026D000F894DEBF0FBECDBFDF91CF911F910F9158
:1026E000FF90EF90DF90CF90BF90AF909F908F9032
:1026F0007F906F905F904F903F902F9019946C96C1
:102700000FB6F894DEBF0FBECDBFDF91CF911F9102
:102710000F91FF90EF90DF90CF90BF90AF909F9080
:102720008F907F906F905F904F903F902F90089583
:10273000AF92BF92CF92EF92FF920F931F93CF93DE
:10274000DF93EC01262F888D998D009709F040C00A
:102750006A3059F41D861C862C898E859F8538E049
:10276000239F800D911D112441C06D3009F4AAC032
:102770008E898823C1F03C898C859D8546E0349FF5
:10278000800D911D112448855985481759075CF41F
:102790001D861C868E859F8548E0349F800D911D87
:1027A00011249F878E87EA88FB88088919894E85BE
:1027B0005F856C857D85CC88CE010E9482112C8935
:1027C0008C859D8536E0239F800D911D112442C08C
:1027D0006A3079F41D861C862C89FC013696E491BA
:1027E0008E859F852E9F800D911D11249F878E873A
:1027F00069C06D3009F466C0FC01349634916317EA
:1028000008F460C03196E491E61708F45BC0FC015F
:102810003296A590B490462F50E0431B510937E003
:10282000349FB001359F700D1124A60EB71EF5011F
:10283000329634913196E491332311F0E1110DC0B9
:10284000F5013496E4912C898C859D85E29F800D5D
:10285000911D11249D878C8735C0F50135964491D3
:102860005E89552311F16C89E32FF0E0E40FF11D2F
:1028700047FDFA956E9FD0016F9FB00D11244C85D6
:102880005D854A0F5B1FE885F985E417F5076CF451
:102890001D861C86FC013696E4918E859F856E9F71
:1028A000800D911D11249F878E87EA88FB880889F7
:1028B00019894E855F856C857D85CC88CE010E9407
:1028C0008211BECF81E090E0DF91CF911F910F91F7
:1028D000FF90EF90CF90BF90AF900895DC019C9651
:1028E000ED91FC919D979081D1968C91892B80835D
:1028F0000895EF92FF920F931F93DC01ED91FC91ED
:102900000284F385E02D7801890121E030E01995FA
:102910001F910F91FF90EF900895EF92FF920F9308
:102920001F93DC01ED91FC910284F385E02D780189
:1029300001E010E019951F910F91FF90EF9008951D
:102940000F931F93CF93DF9300D000D0CDB7DEB7A6
:102950008C01DC01ED91FC910680F781E02D2D8347
:102960003E834B835C8369837A831995D801ED910B
:10297000FC910084F185E02D2D813E814B815C81AD
:1029800069817A81C8011995D801ED91FC9102887D
:10299000F389E02DC80126960FB6F894DEBF0FBE6E
:1029A000CDBFDF91CF911F910F911994EF92FF92BC
:1029B0000F931F93CF93DF9300D000D0CDB7DEB736
:1029C0007C01DC01ED91FC910680F781E02D2D83E7
:1029D0003E834B835C8369837A831995D701ED919C
:1029E000FC910484F585E02D2D813E814B815C8135
:1029F00069817A81C7011995D701ED91FC9102880F
:102A0000F389E02DC70126960FB6F894DEBF0FBEFE
:102A1000CDBFDF91CF911F910F91FF90EF9019944F
:102A2000EF92FF920F931F93CF93DF9300D000D0CC
:102A3000CDB7DEB77C01DC01ED91FC910680F7811A
:102A4000E02D2D833E834B835C8369837A831995C4
:102A5000D701ED91FC910684F785E02D2D813E8113
:102A60004B815C8169817A81C7011995D701ED910C
:102A7000FC910288F389E02DC70126960FB6F894E1
:102A8000DEBF0FBECDBFDF91CF911F910F91FF90A1
:102A9000EF901994CF92DF92EF92FF920F931F93D2
:102AA000CF93DF9300D000D0CDB7DEB76C01DC014F
:102AB000ED91FC910680F781E02D2D833E834B83C1
:102AC0005C8369837A831995D601ED91FC91028428
:102AD000F385E02D2D813E814B815C8169817A8176
:102AE000C6011995D601ED91FC910288F389E02D7C
:102AF000C60126960FB6F894DEBF0FBECDBFDF919C
:102B0000CF911F910F91FF90EF90DF90CF9019948C
:102B1000CF93DF93EC0189A187FF09C084E00E9475
:102B2000681B81E00E945A1B80E00E94631BECA599
:102B3000FDA5908189A9809589238083DF91CF911C
:102B40000895EF92FF920F931F93CF93DF931F92FD
:102B5000CDB7DEB77C01062F142F40E451E060EFC3
:102B600070E029830E94611180E193E0D701119602
:102B70009C938E935E960C935E975F961C935F97E3
:102B8000298190962C9390978FEF91968C939197A3
:102B900092968C93929793968C939397F701128EBB
:102BA000138E148E158E602F000F770BFB01EA59E0
:102BB000F84F8491E82FF0E0EE0FFF1FE455F84F37
:102BC000859194919D969C938E939C97FB01E05EDA
:102BD000F84FE491D196EC93D197412F110F550BFB
:102BE000FA01EA59F84FE491F0E0EE0FFF1FE455C7
:102BF000F84F85919491F70193A782A7FA01E05EBF
:102C0000F84FE491D296EC93D29799961C921E922B
:102C10009897D0961C92D09795961C921E92949756
:102C20009E961C929E9797961C921E9296979F96A0
:102C30001C920F90DF91CF911F910F91FF90EF9019
:102C40000895FC0181A187FF05C06EBD0DB407FE8C
:102C5000FDCF089528E030E090E8A4A1B5A186A5B5
:102C6000492F462319F04C91842B03C04C91809539
:102C700084238C93A0A5B1A54C9180A98095842331
:102C80008C93A0A5B1A54C9180A9842B8C9396958B
:102C90002150310911F70895CF93DF93EC01EAA594
:102CA000FBA590818AA9809589238083CE010E940B
:102CB0002116EAA5FBA590818AA9892B8083DF9143
:102CC000CF910895CF93DF93EC0141155105610534
:102CD000710521F440E052E16AE770E04A8F5B8FB2
:102CE0006C8F7D8F61E08F8D0E94D81A60E08F8D90
:102CF0000E94141B61E08E8D0E94D81A61E08E8DB7
:102D00000E94141B89A187FD16C061E08AA10E9460
:102D1000D81A60E08AA10E94141B61E089A10E9478
:102D2000D81A61E089A10E94141B8BA187FD03C002
:102D300060E00E94D81A89A187FD0E94441B88A1E7
:102D400087FD21C061E00E94D81A61E088A10E943D
:102D5000141B64E670E080E090E00E941D0660E0D5
:102D600088A10E94141B64E670E080E090E00E945D
:102D70001D0661E088A10E94141B68EC70E080E0F1
:102D800090E00E941D06E881F9810680F781E02D20
:102D9000CE0119956FEECE010E944C1663E0CE0174
:102DA0000E94211660E8CE010E94211662E0CE0149
:102DB0000E9421166FECCE010E944C1660E0CE01FD
:102DC0000E94211661ECCE010E94211660E3CE0123
:102DD0000E9421166DEECE010E944C1664E6CE01D3
:102DE0000E94211663E0CE010E94211662E1CE010D
:102DF0000E94211661E8CE010E94211668EECE01E4
:102E00000E944C1665E8CE010E94211660E0CE01BA
:102E10000E94211668E7CE010E9421166BECCE01BC
:102E20000E944C1669E3CE010E9421166CE2CE018D
:102E30000E94211660E0CE010E94211664E3CE01BB
:102E40000E94211662E0CE010E94211667EFCE019A
:102E50000E944C1660E2CE010E9421166AEECE015D
:102E60000E944C1660E0CE010E94211660E0CE0167
:102E70000E94211660ECCE010E944C1663E2CE0146
:102E80000E94211661ECCE010E944C1660E1CE0139
:102E90000E94211665ECCE010E944C166EE3CE0115
:102EA0000E94211668E2CE010E94211667ECCE0135
:102EB0000E944C1666E8CE010E94211666E3CE0100
:102EC0000E944C1668E4CE010E94211667E3CE01F1
:102ED0000E944C1689A187FF09C01EBC0DB407FED5
:102EE000FDCF1EBC0DB407FEFDCF08C060E0CE01D3
:102EF0000E94211660E0CE010E9421166AE3CE01F5
:102F00000E944C1665E5CE010E94211661EBCE01B0
:102F10000E944C1660E0CE010E94211668E1CE01AD
:102F20000E94211666EBCE010E944C1668E0CE018D
:102F30000E94211662E8CE010E94211667E2CE01AE
:102F40000E94211662EFCE010E944C1660E0CE0175
:102F50000E94211666E2CE010E944C1661E0CE016D
:102F60000E94211660EECE010E944C166FE0CE0149
:102F70000E94211661E3CE010E9421166BE2CE0170
:102F80000E9421166CE0CE010E9421166EE0CE0157
:102F90000E94211668E0CE010E9421166EE4CE0147
:102FA0000E94211661EFCE010E94211667E3CE0137
:102FB0000E94211667E0CE010E94211660E1CE0139
:102FC0000E94211663E0CE010E9421166EE0CE0120
:102FD0000E94211669E0CE010E94211660E0CE0118
:102FE0000E94211661EECE010E944C1660E0CE01D7
:102FF0000E9421166EE0CE010E94211664E1CE01EE
:103000000E94211663E0CE010E94211661E1CE01EB
:103010000E94211667E0CE010E94211661E3CE01D5
:103020000E94211661ECCE010E94211668E4CE01B7
:103030000E94211668E0CE010E9421166FE0CE01A9
:103040000E9421166CE0CE010E94211661E3CE01A0
:103050000E94211666E3CE010E9421166FE0CE0188
:103060000E94211661E1CE010E944C1668E770E0D3
:1030700080E090E00E941D0669E2CE010E944C169D
:1030800068E770E080E090E00E941D06E881F98129
:103090000288F389E02DCE01199580EF90E09987A1
:1030A000888780E491E09B878A87DF91CF9108959C
:1030B0001F93CF93DF93EC0163706D8B6230C1F08F
:1030C000633001F1613051F080EF90E0998788879B
:1030D00080E491E09B878A8718E41DC080E491E03A
:1030E0009987888780EF90E09B878A8718E213C0D2
:1030F00080EF90E09987888780E491E09B878A87BA
:1031000018E809C080E491E09987888780EF90E013
:103110009B878A8718EEE881F9810680F781E02D88
:10312000CE01199566E3CE010E944C16612FCE01A7
:103130000E942116E881F9810288F389E02DCE01F1
:10314000DF91CF911F9119940F931F93CF93DF932A
:103150001F92CDB7DEB78C01DC01ED91FC910680AA
:10316000F781E02D698319956981611102C060E2E0
:1031700001C061E2C8010E944C16D801ED91FC919A
:103180000288F389E02DC8010F90DF91CF911F9144
:103190000F9119948F929F92AF92BF92CF92DF922C
:1031A000EF92FF920F931F93CF93DF93EC014901AE
:1031B00081E0881A9108860E971EC401A0E0B0E055
:1031C0004B01A12CB12C540199248824882A992AD6
:1031D000AA2ABB2A680181E0C81AD108C40ED51EEC
:1031E000C601A0E0B0E06A01E12CF12C7601DD24FB
:1031F000CC24C82AD92AEA2AFB2A6AE2CE010E94F4
:103200004C1629A16B2D77278827992727FF18C0EF
:103210006EBD0DB407FEFDCFC501AA27BB278EBD2D
:103220000DB407FEFDCFBB27AB2D9A2D892D8EBD8A
:103230000DB407FEFDCF8EBC0DB407FEFDCF14C04C
:10324000CE010E942116B50188279927CE010E9440
:10325000211699278B2D7A2D692DCE010E942116DA
:10326000682DCE010E9421166BE2CE010E944C1601
:1032700029A16F2D77278827992727FF18C06EBDB2
:103280000DB407FEFDCFC701AA27BB278EBD0DB425
:1032900007FEFDCFBB27AF2D9E2D8D2D8EBD0DB40E
:1032A00007FEFDCFCEBC0DB407FEFDCF14C0CE018E
:1032B0000E942116B70188279927CE010E94211666
:1032C00099278F2D7E2D6D2DCE010E9421166C2DFC
:1032D000CE010E9421166CE2CE01DF91CF911F91A9
:1032E0000F91FF90EF90DF90CF90BF90AF909F90A5
:1032F0008F900C944C161F93CF93DF93262FFC01D5
:1033000031A137FF09C07EBD0DB407FEFDCF2EBD34
:103310000DB407FEFDCF0CC0672F122FEC010E94E9
:103320002116612FCE01DF91CF911F910C942116B0
:10333000DF91CF911F910895EF92FF920F931F930A
:10334000CF93DF9377FD23C0DC011896ED91FC91BC
:1033500019976E177F07DCF457FD19C01A96ED9187
:10336000FC911B974E175F0794F47901EC0101E083
:1033700010E021E030E00E94CA18B701CE01DF91D1
:10338000CF911F910F91FF90EF900C947B19DF91DB
:10339000CF911F910F91FF90EF900895EF92FF92C0
:1033A0001F93CF93DF9300D01F921F92CDB7DEB74C
:1033B0007C01162FFC0181A187FF12C02115310568
:1033C0004105510549F17EBD0DB407FEFDCF1EBD7F
:1033D0000DB407FEFDCF2150310941095109EECF4F
:1033E0002115310541055105B9F0672FC701298322
:1033F0003A834B835C837D830E942116612FC70132
:103400000E94211629813A814B815C81215031092A
:10341000410951097D81E4CF0F900F900F900F90DB
:103420000F90DF91CF911F91FF90EF9008958F92B1
:103430009F92AF92BF92CF92DF92EF92FF920F9343
:103440001F93CF93DF935C01FB01E9014701DC018E
:1034500018962D913C911997621773070CF049C08B
:103460001A968D919C911B97481759070CF041C0F3
:103470006B01CC0EDD1ED60111977A01E00EF11E14
:10348000B70161507109B7FD34C077FD32C0F7FF55
:1034900003C0E601E0E0F0E057FF03C0870140E031
:1034A00050E0A217B3071CF0E901CE1BDF0B681731
:1034B00079071CF08C01041B150B9E01D8010E949A
:1034C000E71B6B017C01BF01C5010E94CA18A7015F
:1034D0009601B401C501DF91CF911F910F91FF902B
:1034E000EF90DF90CF90BF90AF909F908F900C9413
:1034F000CE19DF91CF911F910F91FF90EF90DF9048
:10350000CF90BF90AF909F908F90089590E0FC0176
:103510003197E131F10508F04AC08827EE58FF4F96
:103520008F4F0C94DF1B809180008F7703C08091B8
:1035300080008F7D80938000089584B58F7702C0CE
:1035400084B58F7D84BD08958091B0008F7703C0CE
:103550008091B0008F7D8093B0000895809190009D
:103560008F7707C0809190008F7D03C0809190007D
:10357000877F8093900008958091A0008F7707C087
:103580008091A0008F7D03C08091A000877F8093F1
:10359000A0000895809120018F7707C080912001BD
:1035A0008F7D03C080912001877F80932001089543
:1035B000CF93DF9390E0FC01E05EF84F2491FC0193
:1035C000EA59F84F8491882361F190E0880F991FA0
:1035D000FC01EA53F84FC591D491FC01E455F84F32
:1035E000A591B491611109C09FB7F8948881209585
:1035F00082238883EC912E230BC0623061F49FB745
:10360000F8943881822F809583238883EC912E2B28
:103610002C939FBF06C08FB7F894E8812E2B288388
:103620008FBFDF91CF9108951F93CF93DF93282F02
:1036300030E0F901E652F94F8491F901E05EF84F6C
:10364000D491F901EA59F84FC491CC23C9F0162F4F
:1036500081110E94861AEC2FF0E0EE0FFF1FE45557
:10366000F84FA591B4918FB7F894111105C09C91B2
:10367000ED2FE095E92302C0EC91ED2BEC938FBF89
:10368000DF91CF911F91089561E085E30E94141BA3
:1036900061E085E30E94D81A8CB580618CBD8CB541
:1036A00080648CBD61E084E30E94D81A61E083E30A
:1036B0000C94D81A811103C08CB5806202C08CB5FD
:1036C0008F7D8CBD08959CB5937F892B8CBD08950B
:1036D0009CB5282F23709C7F922B9CBD2DB582FB1F
:1036E000992790F9822F8E7F892B8DBD0895F894AC
:1036F0000C94241CDB018F939F930E94051CBF91A7
:10370000AF91A29F800D911DA39F900DB29F900D30
:103710001124089597FB072E16F4009407D077FD27
:1037200009D00E94101C07FC05D03EF490958195AD
:103730009F4F0895709561957F4F0895A1E21A2ECD
:10374000AA1BBB1BFD010DC0AA1FBB1FEE1FFF1F45
:10375000A217B307E407F50720F0A21BB30BE40B95
:10376000F50B661F771F881F991F1A9469F76095DC
:103770007095809590959B01AC01BD01CF01089596
:10378000052E97FB1EF400940E94D71B57FD07D00F
:103790000E949E1B07FC03D04EF40C94D71B50953F
:1037A0004095309521953F4F4F4F5F4F089590952D
:1037B0008095709561957F4F8F4F9F4F0895EE0FC5
:1037C000FF1F881F8BBF0790F691E02D19940E9470
:1037D000EF1B332312F48A1B9B0B0C94001CA29F3B
:1037E000B001B39FC001A39F700D811D1124911DD5
:1037F000B29F700D811D1124911D08950E94EF1B31
:10380000B7FF0895821B930B08950E94EF1BA59F9D
:10381000900DB49F900DA49F800D911D11240895CB
:10382000AA1BBB1B51E107C0AA1FBB1FA617B707E6
:1038300010F0A61BB70B881F991F5A95A9F7809502
:0C3840009095BC01CD010895F894FFCFD5
:10384C005265616420626C6F636B206661696C65A4
:10385C00642C20747279696E6720616761696E2EC1
:10386C0000496E697469616C697A696E672053509E
:10387C004920636F6D6D756E69636174696F6E203D
:10388C00666F72207261772072656164732E2E2EC2
:10389C00006661696C656421204973207468652039
:1038AC006361726420696E736572746564207072F2
:1038BC006F7065726C793F004F4B21004E6F772013
:1038CC0072656164696E672072657374617572618B
:1038DC006E7473004665746368696E6720616C6C06
:1038EC002072657374617572616E747300207468F4
:1038FC006973206973206C617420696E20792000D3
:10390C002074686973206973206C6F6E20696E2057
:10391C0078202000000000002708A506D007FC072F
:10392C00E0071C08000000009813A506CF074D0FF8
:10393C004E0F6D0F550F610FA40E7D0F4C114B11D7
:10394C007E0FC30F071058107610EC10000000000B
:10395C009813A506A01488159C19171A79148D14A0
:10396C00A40E6E145818A418D61410154A15581015
:04397C007610EC10C5
:00000001FF
