:100000000C94F2030C9423040C9423040C94230406
:100010000C9423040C9423040C9423040C942304C4
:100020000C9423040C9423040C9423040C942304B4
:100030000C9423040C9423040C9423040C942304A4
:100040000C9423040C9423040C9423040C94230494
:100050000C9423040C9423040C9423040C940006A5
:100060000C9423040C94A2080C946E090C942304A1
:100070000C9423040C9423040C9423040C94230464
:100080000C9423040C9423040C9423040C94230454
:100090000C94D5080C94AD090C9423040C942304FF
:1000A0000C9423040C9423040C9423040C94230434
:1000B0000C9423040C9423040C9423040C94230424
:1000C0000C9423040C9423040C9423040C9408092A
:1000D0000C94EC090C9423040C943B090C942B0A0B
:1000E0000C942304BC1ABF1AB21AB61AF61AC31A11
:1000F000C71ACD1AD11AD51ADB1ADF1AE31AF61A63
:10010000E91AED1AF11A0C94C71A0C94E91A0C9416
:100110002F150C94B21A0C94F11A0C946D0F0C94C8
:10012000F5140C946A110C94E20F0C94ED1A0C94D3
:1001300069150C94BC1A0C94D11A0C9403070C94F6
:1001400046080C94AC140C943D050C94F61A0C94CF
:10015000FF070C94A7150C94EE070C9426100C9432
:10016000D51A0C94C31A0C94361A0C94C3180C9418
:100170006C0F0C94DB1A0C94C30E0C9495100C9419
:100180009D0F0C94800F0C9477180C94BB190C9451
:1001900098140C94BF140C946B110C94B61A0C9414
:1001A000BF1A0C94DF1A0C94CD1A0C94B7130C944C
:1001B0008D140C949C0F0C948C0F0C940B110C94BC
:1001C00077100C94E31A0C94EF070C941B080C9412
:1001D0004A0B0C943B080C94740F00000000003E86
:1001E0005B4F5B3E3E6B4F6B3E1C3E7C3E1C183CA7
:1001F0007E3C181C577D571C1C5E7F5E1C00183C03
:100200001800FFE7C3E7FF0018241800FFE7DBE74B
:10021000FF30483A060E2629792926407F05050732
:10022000407F05253F5A3CE73C5A7F3E1C1C08088E
:100230001C1C3E7F14227F22145F5F005F5F060953
:100240007F017F006689956A606060606094A2FFAC
:10025000A29408047E040810207E201008082A1C9E
:1002600008081C2A08081E101010100C1E0C1E0C6A
:1002700030383E3830060E3E0E060000000000000A
:10028000005F00000007000700147F147F14242A79
:100290007F2A12231308646236495620500008074B
:1002A0000300001C2241000041221C002A1C7F1C6C
:1002B0002A08083E0808008070300008080808086E
:1002C000000060600020100804023E5149453E00D5
:1002D000427F400072494949462141494D33181433
:1002E000127F1027454545393C4A49493141211182
:1002F00009073649494936464949291E0000140074
:100300000000403400000008142241141414141496
:10031000004122140802015909063E415D594E7CF4
:100320001211127C7F494949363E414141227F41A9
:1003300041413E7F494949417F090909013E414107
:1003400051737F0808087F00417F41002040413FF2
:10035000017F081422417F404040407F021C027F01
:100360007F0408107F3E4141413E7F090909063E56
:100370004151215E7F091929462649494932030125
:100380007F01033F4040403F1F2040201F3F403837
:10039000403F631408146303047804036159494D12
:1003A00043007F4141410204081020004141417F48
:1003B00004020102044040404040000307080020BE
:1003C000545478407F2844443838444444283844BE
:1003D00044287F385454541800087E090218A4A4F5
:1003E0009C787F0804047800447D40002040403D14
:1003F000007F1028440000417F40007C047804788E
:100400007C080404783844444438FC182424181820
:10041000242418FC7C08040408485454542404047C
:100420003F44243C4040207C1C2040201C3C403069
:10043000403C44281028444C9090907C4464544C98
:1004400044000836410000007700000041360800F3
:1004500002010204023C2623263C1EA1A161123A9D
:100460004040207A385454555921555579412254E9
:10047000547842215554784020545579400C1E52EE
:100480007212395555555939545454593955545493
:10049000580000457C410002457D420001457C40FA
:1004A0007D1211127DF0282528F07C54554500203E
:1004B00054547C547C0A097F4932494949323A44B0
:1004C00044443A324A4848303A4141217A3A42401B
:1004D0002078009DA0A07D3D4242423D3D404040ED
:1004E0003D3C24FF2424487E4943662B2FFC2F2BC0
:1004F000FF0929F620C0887E090320545479410061
:1005000000447D413048484A32384040227A007ADF
:100510000A0A727D0D19317D2629292F28262929BD
:10052000292630484D4020380808080808080808DF
:10053000382F10C8ACBA2F102834FA00007B000006
:1005400008142A142222142A14085500550055AA0A
:1005500055AA55AAFF55FF55FF000000FF001010D7
:1005600010FF00141414FF001010FF00FF1010F013
:1005700010F0141414FC001414F700FF0000FF0026
:10058000FF1414F404FC141417101F10101F101F74
:100590001414141F00101010F0000000001F1010A1
:1005A00010101F10101010F010000000FF1010109D
:1005B000101010101010FF10000000FF140000FFBA
:1005C00000FF00001F10170000FC04F414141710A3
:1005D000171414F404F40000FF00F7141414141496
:1005E0001414F700F7141414171410101F101F140C
:1005F0001414F4141010F010F000001F101F00006D
:10060000001F14000000FC140000F010F01010FF98
:1006100010FF141414FF141010101F00000000F03D
:1006200010FFFFFFFFFFF0F0F0F0F0FFFFFF000012
:10063000000000FFFF0F0F0F0F0F3844443844FC39
:100640004A4A4A347E02020606027E027E02635550
:100650004941633844443C04407E201E2006027E0B
:10066000020299A5E7A5991C2A492A1C4C7201721D
:100670004C304A4D4D303048784830BC625A463D87
:100680003E494949007E0101017E2A2A2A2A2A443C
:10069000445F444440514A444040444A5140000071
:1006A000FF0103E080FF000008086B6B083612367C
:1006B0002436060F090F060000181800000010105D
:1006C000003040FF0101001F01011E00191D17121B
:1006D000003C3C3C3C00000000000000090A02080D
:1006E0000B0C0D07060304010000000000000000D1
:1006F00000000000000000000000000000000000FA
:1007000000000000000011100F00000000000000B9
:1007100000000000000000000000000000000000D9
:100720000102102020080810204010204080020103
:1007300002010804020101020408102040808040E8
:1007400020100804020180040201804020100804E7
:100750000201080402010102040810204080010285
:10076000040810204080050505050705080808084D
:10077000020202020A0A0808040404040101010139
:100780000101010103030303030303030407070734
:100790000C0C0C0C0C0C0C0C0202020206060606D9
:1007A000060606060B0B0B0B0B0B0B0B00002200B7
:1007B000250028002B002E0031003400020100002B
:1007C000050108010B0100002100240027002A0078
:1007D0002D003000330001010000040107010A016F
:1007E0003D054A0B11241FBECFEFD1E2DEBFCDBFC6
:1007F00000E00CBF13E0A0E0B2E0EAE8F8E300E0BC
:100800000BBF02C007900D92A630B107D9F728E1BF
:10081000A6E0B3E001C01D92AE39B207E1F713E0E4
:10082000C2EFD3E000E006C021970109802FFE014E
:100830000E94FE1BC03FD10780E00807A9F70E9475
:100840007D050C94961B0C940000CF92DF92EF92E2
:10085000FF920F931F93CF93DF93EC018B016C01F9
:1008600097FF03C087E0C80ED11C93E0D594C794CE
:100870009A95E1F70D2C000CEE08FF0889E0D80EE0
:100880008DE3E81EF11C8FEFC81688E0D8068DE3D3
:10089000E806F104E1F4CE0168E070E00E94A91BD3
:1008A000FC0186E0EE0FFF1F8A95E1F7E255FC4E52
:1008B00080E4D80101900D928A95E1F7DF91CF9104
:1008C0001F910F91FF90EF90DF90CF9008952EEA47
:1008D00033E1B701A6018EEA95E10E94B30E8111C2
:1008E000DACF60E072E08CE596E10E945D07EFCF21
:1008F00091958195910997FF03C0919581959109F3
:1009000071956195710977FF03C0719561957109C2
:10091000860F971F0895AF92BF92CF92DF92EF920A
:10092000FF920F931F931F921F9228E02F931F9205
:10093000A12CB12C650118E8E12E10E1F12E03E5A0
:100940001FEF24E337E842E55FEF0E941C0C0F9095
:100950000F900F900F90CB011F910F91FF90EF9090
:10096000DF90CF90BF90AF900895AF92BF92CF929B
:10097000DF92EF92FF920F931F931F921F9228E036
:100980002F931F92A12CB12C650119E1E12E1FE7D5
:10099000F12E01E510E022EC30ED41E550E00E943F
:1009A0001C0C0F900F900F900F90CB011F910F9187
:1009B000FF90EF90DF90CF90BF90AF900895CF92CF
:1009C000DF92EF92FF920F931F93FC010081118140
:1009D00022813381FB01C080D180E280F380FC0161
:1009E000C082D182E282F382FB01008311832283E1
:1009F00033831F910F91FF90EF90DF90CF90089578
:100A0000AF92BF92CF92DF92EF92FF920F931F931C
:100A1000CF93DF935B0104967C0101E010E00A159F
:100A20001B0504F5E70168011C141D04ACF49E01CC
:100A300024503109CE01E901FC01329740815181F6
:100A40002E813F812417350738F4BE010E94DF0450
:100A500081E0C81AD108E8CF0F5F1F4F84E0E80E8D
:100A6000F11CDDCFDF91CF911F910F91FF90EF909F
:100A7000DF90CF90BF90AF9008952FEF49E06AE0EC
:100A80008AEB95E10E94C015EEEAF5E11582168227
:100A90001186138608950E94A10640E855E260E0A1
:100AA00070E08CE596E10E946A0A40E050E0BA01ED
:100AB0008AEB95E10E94811660E070E08AEB95E197
:100AC0000E94771061E272E08CE596E10E94400797
:100AD00046E061E08EEA95E10E94310D811107C088
:100AE00061E572E08CE596E10E945D07FFCF68E763
:100AF00072E08CE596E10C945D07AF92BF92CF92C5
:100B0000DF92EF92FF920F931F93CF93DF93CDB7B6
:100B1000DEB7C054D1090FB6F894DEBF0FBECDBF0B
:100B20000E944B0506E013E06801E12CF12CBE01A8
:100B30006F5F7F4FC7010E9425046D817E818F8189
:100B400098850E948B045C0169817A818B819C81EC
:100B50000E94B504BC01C5010E947804F60193838C
:100B60008283F182E082FFEFEF1AFF0A84E0C80E71
:100B7000D11CEBE2EE16E4E0FE06C9F66AE274E090
:100B800086E093E00E9400056CE772E08CE596E158
:100B90000E944007F801608171814AE050E08CE5D5
:100BA00096E10E94D2076DE872E08CE596E10E9422
:100BB0004007F801628173814AE050E08CE596E1DC
:100BC0000E94D8070C5F1F4FF3E1023B1F07E1F6BD
:100BD0008CE596E10E94F20A80E090E0C05CDF4F75
:100BE0000FB6F894DEBF0FBECDBFDF91CF911F913E
:100BF0000F91FF90EF90DF90CF90BF90AF9008954E
:100C00001F920F920FB60F9211242F933F938F9341
:100C10009F93AF93BF938091EE159091EF15A091A4
:100C2000F015B091F1153091ED1523E0230F2D371C
:100C300020F40196A11DB11D05C026E8230F0296E0
:100C4000A11DB11D2093ED158093EE159093EF1526
:100C5000A093F015B093F1158091F2159091F315D2
:100C6000A091F415B091F5150196A11DB11D8093C9
:100C7000F2159093F315A093F415B093F515BF9169
:100C8000AF919F918F913F912F910F900FBE0F9039
:100C90001F9018952FB7F8946091EE157091EF158D
:100CA0008091F0159091F1152FBF08953FB7F894FA
:100CB0008091F2159091F315A091F415B091F5156E
:100CC00026B5A89B05C02F3F19F00196A11DB11DA7
:100CD0003FBFBA2FA92F982F8827820F911DA11DE2
:100CE000B11DBC01CD0142E0660F771F881F991F1F
:100CF0004A95D1F70895CF92DF92EF92FF92CF936A
:100D0000DF936B017C010E945606EB01C114D104F4
:100D1000E104F10479F00E9456066C1B7D0B683EDD
:100D20007340A0F381E0C81AD108E108F108C85166
:100D3000DC4FECCFDF91CF91FF90EF90DF90CF9021
:100D40000895789484B5826084BD84B5816084BD43
:100D500085B5826085BD85B5816085BDEEE6F0E034
:100D6000808181608083E1E8F0E010828081826090
:100D70008083808181608083E0E8F0E08081816011
:100D80008083E1EBF0E0808184608083E0EBF0E041
:100D9000808181608083E1E9F0E0808182608083EE
:100DA000808181608083E0E9F0E0808181608083E0
:100DB000E1EAF0E0808182608083808181608083CD
:100DC000E0EAF0E0808181608083E1E2F1E080810F
:100DD00082608083808181608083E0E2F1E08081B5
:100DE00081608083EAE7F0E0808184608083808195
:100DF000826080838081816080838081806880833D
:100E00001092C1000895CF92DF92EF92FF920F935C
:100E10001F93CF93DF936C01EB017B01E40EF51E72
:100E200000E010E0CE15DF0561F06991D601ED918B
:100E3000FC910190F081E02DC6011995080F191F52
:100E4000F1CFC801DF91CF911F910F91FF90EF90EB
:100E5000DF90CF9008956115710579F0FB01019045
:100E60000020E9F73197AF01461B570BDC01ED91EC
:100E7000FC910280F381E02D199480E090E00895C8
:100E80000C942B07DC01ED91FC910190F081E02D99
:100E900019940F931F93CF93DF93EC016DE00E94A1
:100EA00042078C016AE0CE010E944207800F911F29
:100EB000DF91CF911F910F9108950F931F93CF93BF
:100EC000DF93EC010E942B078C01CE010E944907A1
:100ED000800F911FDF91CF911F910F9108958F92F5
:100EE0009F92AF92BF92CF92DF92EF92FF920F93B9
:100EF0001F93CF93DF93CDB7DEB7A1970FB6F894CA
:100F0000DEBF0FBECDBF6C01142FE52FCB01022F2A
:100F100019A2223008F40AE07E0121E2E20EF11C5F
:100F2000802E912CA12CB12C612F7E2FA501940134
:100F30000E94BD1B029F1019112481E0E81AF108DC
:100F40001A3014F4105D01C0195CF7011083122FE0
:100F5000E32FCA01232B242B252B31F7B701C60120
:100F60000E942B07A1960FB6F894DEBF0FBECDBF2F
:100F7000DF91CF911F910F91FF90EF90DF90CF9075
:100F8000BF90AF909F908F9008952115310541F447
:100F9000DC01ED91FC910190F081E02D642F19941A
:100FA0000C946F079A01AB0160E070E00C94C507E8
:100FB0000F931F93CF93DF93EC019A01AB0160E095
:100FC00070E00E94C5078C01CE010E944907800F86
:100FD000911FDF91CF911F910F9108950895FC010A
:100FE00024853585F901E05CFF4F8081918132963F
:100FF00020813181821B930B8F7399270895DC0127
:101000001C96ED91FC911D97DF01A05CBF4F2D91C7
:101010003C91119712968D919C9111972817390741
:1010200039F08D919C91E80FF91F808190E008952F
:101030008FEF9FEF0895FC01A485B585FD01E05C6D
:10104000FF4F2081318132968081918128173907A5
:1010500079F080819181A80FB91F8C912081318115
:101060002F5F3F4F2F7333273183208390E0089504
:101070008FEF9FEF0895FC0181A1882329F0A489B7
:10108000B5898C9186FFFBCF11A208950F931F9312
:10109000CF93DF93FC01A685B7858D01005C1F4FC0
:1010A000E8018881998101968F739927AD014E5B84
:1010B0005F4FEA012881398182179307D1F3E80154
:1010C00028813981A20FB31F6C93A685B785A05CD8
:1010D000BF4F11969C938E93A689B7892C9181E07E
:1010E00090E0078C02C0880F991F0A94E2F7822BC8
:1010F0008C9381E081A30488F589E02D8081806450
:10110000808381E090E0DF91CF911F910F9108954E
:10111000FB01E05CFF4F208131812F5F3F4F2F7338
:101120003327DB01AE5BBF4F4D915C912417350730
:1011300041F040815181DB01A40FB51F8C933183B5
:10114000208308951F920F920FB60F9211240BB6B1
:101150000F922F933F934F935F936F937F938F9350
:101160009F93AF93BF93EF93FF938091C00082FD55
:1011700007C08091C6006AE578E10E94880802C035
:101180008091C600FF91EF91BF91AF919F918F9198
:101190007F916F915F914F913F912F910F900BBE77
:1011A0000F900FBE0F901F9018951F920F920FB6C1
:1011B0000F9211240BB60F922F933F934F935F938F
:1011C0006F937F938F939F93AF93BF93EF93FF930F
:1011D0008091C80082FD07C08091CE0062ED77E16A
:1011E0000E94880802C08091CE00FF91EF91BF91CC
:1011F000AF919F918F917F916F915F914F913F91AF
:101200002F910F900BBE0F900FBE0F901F9018954F
:101210001F920F920FB60F9211240BB60F922F93BD
:101220003F934F935F936F937F938F939F93AF936E
:10123000BF93EF93FF938091D00082FD07C0809110
:10124000D6006AE477E10E94880802C08091D60047
:10125000FF91EF91BF91AF919F918F917F916F918E
:101260005F914F913F912F910F900BBE0F900FBE4A
:101270000F901F9018951F920F920FB60F92112486
:101280000BB60F922F933F934F935F936F937F9380
:101290008F939F93AF93BF93EF93FF938091300110
:1012A00082FD07C08091360162EC76E10E948808D9
:1012B00002C080913601FF91EF91BF91AF919F9154
:1012C0008F917F916F915F914F913F912F910F90EF
:1012D0000BBE0F900FBE0F901F9018951F920F928C
:1012E0000FB60F9211240BB60F922F933F938F934B
:1012F0009F93EF93FF932091561830915718809148
:101300005818909159182817390731F48091C10065
:101310008F7D8093C10014C0E0915818F091591846
:10132000EA5EF74E208180915818909159180196E5
:101330008F73992790935918809358182093C6005B
:10134000FF91EF919F918F913F912F910F900BBE45
:101350000F900FBE0F901F9018951F920F920FB60F
:101360000F9211240BB60F922F933F938F939F935D
:10137000EF93FF932091CE173091CF178091D01724
:101380009091D1172817390731F48091C9008F7DCA
:101390008093C90014C0E091D017F091D117E257A3
:1013A000F84E20818091D0179091D11701968F73BC
:1013B00099279093D1178093D0172093CE00FF9157
:1013C000EF919F918F913F912F910F900BBE0F90B6
:1013D0000FBE0F901F9018951F920F920FB60F928D
:1013E00011240BB60F922F933F938F939F93EF93FC
:1013F000FF9320914617309147178091481790919D
:1014000049172817390731F48091D1008F7D8093D7
:10141000D10014C0E0914817F0914917EA5FF84EE7
:101420002081809148179091491701968F739927D1
:1014300090934917809348172093D600FF91EF911E
:101440009F918F913F912F910F900BBE0F900FBEE8
:101450000F901F9018951F920F920FB60F921124A4
:101460000BB60F922F933F938F939F93EF93FF931E
:101470002091BE163091BF168091C0169091C11672
:101480002817390731F4809131018F7D8093310124
:1014900014C0E091C016F091C116E258F94E2081B7
:1014A0008091C0169091C11601968F7399279093E1
:1014B000C1168093C01620933601FF91EF919F9142
:1014C0008F913F912F910F900BBE0F900FBE0F90F9
:1014D0001F901895CF92DF92EF92FF920F931F9378
:1014E000CF93DF93EC016A017B014115514E6105F9
:1014F000710509F1EC89FD8981E090E008A002C046
:10150000880F991F0A94E2F7808360E079E08DE309
:1015100090E0A70196010E94BD1B89019A0101502C
:1015200011092109310936952795179507959801D5
:1015300001151041A8F0EC89FD89108260E874E87B
:101540008EE190E0A70196010E94BD1BDA01C9015E
:101550000197A109B109B695A795979587959C0123
:10156000E889F9893083EA89FB89208319A2EE8909
:10157000FF89408181E090E09C010C8C02C0220F29
:10158000331F0A94E2F7242B2083EE89FF894081E0
:101590009C010D8C02C0220F331F0A94E2F7242B0A
:1015A0002083EE89FF8940819C010E8C02C0220FAE
:1015B000331F0A94E2F7242B2083EE89FF892081D0
:1015C0000F8C02C0880F991F0A94E2F7809582233E
:1015D0008083DF91CF911F910F91FF90EF90DF906B
:1015E000CF900895CF93DF93FC0186859785EC011A
:1015F000C05CDF4FDC01AE5BBF4F288139818D912C
:101600009C91119728173907C1F7A689B7893C9192
:1016100081E090E0AC01048C02C0440F551F0A9495
:10162000E2F7242F209523232C93A689B7893C9198
:10163000AC01058C02C0440F551F0A94E2F7242F19
:10164000209523232C93A689B7893C91AC01068C65
:1016500002C0440F551F0A94E2F7242F209523233C
:101660002C93A689B7892C91078C02C0880F991FEB
:101670000A94E2F7809582238C9384859585FC01FA
:10168000EE5BFF4F20813181329731832083DF91E0
:10169000CF910895CF92DF92EF92FF92ECE5F6E1C1
:1016A0001382128288EEC82E83E0D82EE12CF12C12
:1016B000C482D582E682F78269EA72E07183608330
:1016C0008AE598E19587848786E198E19787868700
:1016D00085EC90E0918B808B84EC90E0938B828BF7
:1016E00080EC90E0958B848B81EC90E0978B868BDF
:1016F00082EC90E0918F808F86EC90E0938F828FC8
:1017000044E0448F33E0358F27E0268F95E0978FB4
:1017100081E080A3EAE3F6E113821282C482D582DB
:10172000E682F78271836083A2EDB7E1B587A48773
:10173000AEE8B7E1B787A687ADECB0E0B18BA08B80
:10174000ACECB0E0B38BA28BA8ECB0E0B58BA48B73
:10175000A9ECB0E0B78BA68BAAECB0E0B18FA08F5C
:10176000AEECB0E0B38FA28F448F358F268F978F6A
:1017700080A3E8E1F6E113821282C482D582E68278
:10178000F78271836083AAE4B7E1B587A487A6E0F6
:10179000B7E1B787A687A5EDB0E0B18BA08BA4ED2C
:1017A000B0E0B38BA28BA0EDB0E0B58BA48BA1ED24
:1017B000B0E0B78BA68BA2EDB0E0B18FA08FA6ED05
:1017C000B0E0B38FA28F448F358F268F978F80A381
:1017D000E6EFF5E113821282C482D582E682F782B7
:1017E0007183608362EC76E1758764876EE776E1EA
:1017F0007787668765E371E0718B608B64E371E0E6
:10180000738B628B60E371E0758B648B61E371E0D5
:10181000778B668B62E371E0718F608F66E371E0B6
:10182000738F628F448F358F268F978F80A3FF90A1
:10183000EF90DF90CF9008954F925F926F927F92DA
:10184000AF92BF92CF92DF92EF92FF920F931F93CE
:10185000CF93DF93CDB7DEB729013A019B01AC01ED
:1018600024193509460957098A899B89AC89BD899C
:10187000BC01CD016A197B098C099D090E94991B45
:10188000A801970124193509460957090E94DF1B51
:10189000CA01B9016A0D7B1D8C1D9D1DDF91CF9181
:1018A0001F910F91FF90EF90DF90CF90BF90AF907E
:1018B0007F906F905F904F9008958EBD0DB407FE9E
:1018C000FDCF08958FEF0E945D0C8EB5089561E005
:1018D000FC0184810C94331B60E0FC0184810C9436
:1018E000331BCF93DF93FC0186818823D1F08FEFE8
:1018F0008EBD4FEF878190859C012F5F3F4F3087D2
:1019000027838130924028F40DB407FEFDCF4EBDF1
:10191000F1CF0DB407FEFDCFEF01CF010E94670CA0
:101920001E82DF91CF910895673028F026E1FC01F7
:10193000258380E008958DB560FD02C0663011F406
:101940008E7F01C081608DBD8CB58C7F8CBD9CB5B8
:1019500062FD02C080E001C082E066956170692B83
:10196000862B8CBD81E008950F931F93CF93DF9357
:10197000EB010E944A068B010E94620C8F3F49F0E6
:101980000E944A06601B710B6C177D07A8F380E06C
:1019900001C081E0DF91CF911F910F910895CF9207
:1019A000DF92FF920F931F93CF93DF9300D01F928C
:1019B000CDB7DEB76C01F62E29833A834B835C8367
:1019C0000E94710CC6010E946C0C6CE271E0C601B1
:1019D0000E94B40C8F2D80640E945D0C08E110E021
:1019E0005C814B813A812981DA01C901002E04C052
:1019F000B695A795979587950A94D2F729833A8348
:101A00004B835C830E945D0C0850110929813A8147
:101A10004B815C81083F8FEF180731F7FF2029F0D9
:101A2000E8E0FE1204C087E803C085E901C08FEF3B
:101A30000E945D0C10E00E94620CF601828787FF15
:101A400004C01F3F11F01F5FF6CF0F900F900F9053
:101A50000F90DF91CF911F910F91FF90DF90CF906A
:101A600008958F929F92AF92BF92EF92FF920F9341
:101A70001F93CF93DF93EC01E62E1B8619861E82FF
:101A80001D824C830E944A068B0161E08C810E947A
:101A9000F71ACE010E94670C60E082E30E94F71AF9
:101AA00061E083E30E94F71A61E084E30E94F71A81
:101AB00061E085E30E94F71A61E085E30E94331B31
:101AC00083E58CBD8DB58E7F8DBD2AE0F22E8FEF24
:101AD0000E945D0CFA94F110FACFCE010E946C0CBA
:101AE00020E030E0A90160E0CE010E94CF0CF82E8A
:101AF0008A8781E0F81649F00E944A06601B710B44
:101B0000613D774068F381E04CC02AEA31E040E073
:101B100050E068E0CE010E94CF0C82FF02C0FB863D
:101B20000EC094E0F92E0E94620C8A87FA94F1109C
:101B3000FACF8A3A11F082E034C082E08B878B853D
:101B4000823021F0812C912C540105C0812C912CE4
:101B5000A12C80E4B82E20E030E0A90167E3CE019B
:101B60000E94CF0CA501940169E2CE010E94CF0C26
:101B70008A87882349F00E944A06601B710B613DE9
:101B8000774048F388E00DC08B85823039F520E03E
:101B900030E0A9016AE3CE010E94CF0C882389F0CE
:101BA00086E08D83CE010E94670C80E0DF91CF91AB
:101BB0001F910F91FF90EF90BF90AF909F908F90EB
:101BC00008950E94620C807C803C11F483E08B8736
:101BD0000E94620C0E94620C0E94620CCE010E9464
:101BE000670C6E2DCE01DF91CF911F910F91FF9069
:101BF000EF90BF90AF909F908F900C94940C0F93A8
:101C00001F93CF93DF93EC010E944A068B010E9441
:101C1000620C8A878F3F49F40E944A06601B710B51
:101C20006D327140A0F38FE003C08E3F39F08DE03C
:101C30008D83CE010E94670C80E001C081E0DF91BE
:101C4000CF911F910F910895CF92DF92EF92FF9263
:101C50000F931F93CF93DF93EC016901C801820FAB
:101C6000931F8130924008F06FC08E81882371F0FD
:101C700088819981AA81BB81481759076A077B0728
:101C800029F48F819885C816D90618F54883598399
:101C90006A837B838B85833039F089E0440F551F3D
:101CA000661F771F8A95D1F79A01AB0161E1CE01DA
:101CB0000E94CF0C882319F083E08D8345C0CE01AC
:101CC0000E94FF0D882309F43FC018861F8281E01F
:101CD0008E838FEF8EBD2FEF8F8198858C159D059C
:101CE00050F40DB407FEFDCF2EBD8F81988501966F
:101CF00098878F83F1CFC8010197F7014FEF9F01BC
:101D00002E193F092817390738F40DB407FEFDCF07
:101D10002EB521934EBDF3CF0DB407FEFDCF2EB5EA
:101D2000F701E80FF91F20838F819885080F191F8D
:101D300018870F838985882319F00115124048F010
:101D4000CE010E94710C05C0CE010E94670C80E09C
:101D500001C081E0DF91CF911F910F91FF90EF9033
:101D6000DF90CF900895EF92FF920F931F93790128
:101D700000E012E020E030E00E94240E1F910F915D
:101D8000FF90EF9008952F923F924F925F926F9243
:101D90007F928F929F92AF92BF92CF92DF92EF92FB
:101DA000FF920F931F93CF93DF9300D0CDB7DEB791
:101DB0004C017B836A836A01590117019801241B36
:101DC000350B37FF03C0319521953109C5014A8193
:101DD0005B81841B950B97FF03C0919581959109B9
:101DE00051E059838217930714F019820BC09A2D82
:101DF0008B2D5801092F182F9A818B81DB82CA8283
:101E0000C92ED82E8A819B81A816B9065CF49C2D18
:101E10008D2D6801092F182F9A818B81BB82AA8290
:101E2000A92EB82E2501AA81BB814A1A5B0A380166
:101E30006C187D0877FE03C071946194710872017B
:101E400057FE03C0BFEFEB1AFB0AF594E794C016E8
:101E5000D1061CF00FEF1FEF1FC001E010E01CC007
:101E6000D401ED91FC91B9810084F185E02D9101BF
:101E7000BB23C1F04A815B81B601C4011995E61804
:101E8000F708F7FE04C0C00ED11EE40CF51CEA8171
:101E9000FB813196FB83EA834A815B81A416B506F8
:101EA000FCF604C0A6016A817B81E7CF0F900F90FA
:101EB0000F90DF91CF911F910F91FF90EF90DF90E6
:101EC000CF90BF90AF909F908F907F906F905F90DA
:101ED0004F903F902F9008950895DC01ED91FC9173
:101EE0000480F581E02D19940F931F93DC01ED918F
:101EF000FC91008CF18DE02D19951F910F910895A3
:101F00000F931F93DC01ED91FC91028CF38DE02D7A
:101F100019951F910F910895EF92FF920F931F93C0
:101F2000DC01ED91FC91048CF58DE02D19951F914C
:101F30000F91FF90EF9008950895AF92BF92CF92C6
:101F4000DF92EF92FF920F931F93CF93DF9300D016
:101F50001F92CDB7DEB75C016901DC01ED91FC9108
:101F60000680F781E02D4B835C8369837A83199522
:101F7000D501ED91FC914B815C81C40ED51EB1E081
:101F8000CB1AD1080088F189E02D7801860169819A
:101F90007A819B01C5011995D501ED91FC910288CB
:101FA000F389E02DC5010F900F900F900F90DF91F6
:101FB000CF911F910F91FF90EF90DF90CF90BF9046
:101FC000AF901994AF92BF92CF92DF92EF92FF92AF
:101FD0000F931F93CF93DF9300D01F92CDB7DEB73F
:101FE0005C016901DC01ED91FC910680F781E02D37
:101FF0004B835C8369837A831995D501ED91FC91BC
:1020000069817A819B012C0D3D1D21503109008889
:10201000F189E02D78014B815C818A01C501199518
:10202000D501ED91FC910288F389E02DC5010F9057
:102030000F900F900F90DF91CF911F910F91FF9014
:10204000EF90DF90CF90BF90AF9019944F925F9236
:102050006F927F928F929F92AF92BF92CF92DF92B8
:10206000EF92FF920F931F93CF93DF931F921F92D4
:10207000CDB7DEB76C015A0139014801DC01ED91A1
:10208000FC910680F781E02D69837A831995698137
:10209000462E7A81572E640C751CD601ED91FC9169
:1020A000461457046CF40484F585E02D87019401EF
:1020B000A501B201C6011995BFEF4B1A5B0AEDCF1E
:1020C0000288F389E02DC6010F900F90DF91CF9128
:1020D0001F910F91FF90EF90DF90CF90BF90AF9046
:1020E0009F908F907F906F905F904F901994EF9298
:1020F000FF920F931F93DC01ED91FC9111971A96BB
:102100000D911C911B9718962D913C911997048C59
:10211000F58DE02D7B0140E050E060E070E0199526
:102120001F910F91FF90EF900895CF92DF92EF9261
:10213000FF920F931F93CF93DF9300D000D0CDB7C2
:10214000DEB76C01DC01ED91FC916217730789F435
:10215000041715072CF4942F852FA801092F182F89
:10216000041B150B98012F5F3F4F008CF18DE02D64
:1021700012C04017510709F5261737072CF4962F80
:10218000872FB901292F382F261B370B2F5F3F4F81
:10219000028CF38DE02D8701C601199526960FB6A6
:1021A000F894DEBF0FBECDBFDF91CF911F910F918D
:1021B000FF90EF90DF90CF9008950680F781E02D9B
:1021C0002D833E834B835C8369837A831995D60183
:1021D000ED91FC910088F189E02D2D813E814B81AC
:1021E0005C8169817A81C6011995D601ED91FC91D6
:1021F0000288F389E02DC60126960FB6F894DEBF5B
:102200000FBECDBFDF91CF911F910F91FF90EF9047
:10221000DF90CF9019946F927F928F929F92AF929E
:10222000BF92CF92DF92EF92FF920F931F93CF93C3
:10223000DF93EC014B015A0169013801E881F98112
:102240000680F781E02D1995E881F9810684F785EC
:10225000E02D87019601A501B401CE011995E88111
:10226000F981A501460D571D415051090684F78596
:10227000E02D9601B401CE011995E881F98104841D
:10228000F585E02D9301A501B401CE011995E881F2
:10229000F981C80CD91CB601615071090484F58517
:1022A000E02D9301A501CE011995E881F9810288FD
:1022B000F389E02DCE01DF91CF911F910F91FF9017
:1022C000EF90DF90CF90BF90AF909F908F907F90D6
:1022D0006F9019940895FC016370658B84819581DA
:1022E00026813781613039F0633029F0918780870A
:1022F00033872287089531872087938782870895BF
:10230000FC011382128289EB92E0918380837583B2
:102310006483578346837187608753874287158A12
:10232000158614861786168681E0848B2FEF3FEF83
:10233000338B228B318B208B868B178A118E108EDC
:1023400008952F923F924F925F926F927F928F9259
:102350009F92AF92BF92CF92DF92EF92FF920F9334
:102360001F93CF93DF93CDB7DEB76C970FB6F8947A
:10237000DEBF0FBECDBF9C8F8B8F5B011A011F8309
:102380000E833701C982DC0158964D915C915997B3
:102390004115510509F0E5C018968D919C9119974A
:1023A000681779070CF0CAC11A968D919C911B97FA
:1023B000281639060CF0C2C18C2C912CFB0136E09A
:1023C000C39EE00DF11D1124FB87EA871E161F0630
:1023D0000CF0B4C1C40133E0880F991F3A95E1F7BE
:1023E0009D878C87820D931D181619060CF0A6C1C7
:1023F00057968C91811103C0203B08F02F5FAB8D65
:10240000BC8DED91FC9111970680F781E02DCD01F7
:102410002A8F19952A8DB5E02B9F90011124F50183
:102420003596FF87EE872501BB82AA82A9014A194A
:102430005B09598B488BC10108969B8B8A8BE88975
:10244000F989E40DF51DE652FE4F949198873D827F
:102450002C826101A885A0FF13C0AB8DBC8DED91CE
:10246000FC91B981B13031F40084F185E02D2E81E9
:102470003F8116C00284F385E02DEE80FF801AC0F4
:10248000EE81FF816E167F06F1F0AB8DBC8DED9174
:10249000FC91B981B13051F40084F185E02D9301B4
:1024A000A601B2018B8D9C8D19950DC00284F38518
:1024B000E02D7301840194014C815D816A817B81EF
:1024C0008B8D9C8D1995E885E695E8872C813D815B
:1024D000280D391D3D832C833FEFC31AD30A4A8947
:1024E0005B89C416D50609F0B5CF8A819B81880D1A
:1024F000991D9B838A839FEF491A590AAE85BF8530
:102500004A165B0609F09BCFEE81FF816E167F06AF
:1025100009F4F2C0EB8DFC8DA081B181F981F1301D
:1025200079F4B5016B5F7F4F1C96ED91FC911D977F
:10253000830128E030E0A1018B8D9C8D1995DCC0D2
:102540006A857B85681979091A96ED91FC911B972C
:1025500073010C851D859401A1018B8D9C8D1995AE
:10256000CBC0FA0134969491329765917491291BEE
:10257000CB01B7E02B9F800D911D1124FA0125910D
:1025800034913B8B2A8BFC01459154915B834A83A8
:10259000FC013296C490319654915C873296149126
:1025A0003196D4908981823058F0612E012E000C32
:1025B0007708AD2D0D2C000CBB0BB987A88704C084
:1025C00019861886612C712CAB8DBC8DED91FC9118
:1025D00011970680F781E02DCD011995B9818B2ED9
:1025E000912C689CC001699C900D789C900D1124E1
:1025F000FC01EA0DFB1DF98BE88B1C82712C612C10
:10260000E12F110FFF0B95012E0F3F1F3B872A87EC
:10261000AC0CB11CA5014E0F5F1F5F8B4E8BC1012F
:102620008D0D911DD7FC9A95998F888F4C856416D6
:1026300008F062C0862D90E048855985480F591FE3
:10264000489D9001499D300D589D300D1124D901B0
:10265000A20DB31DBF87AE87AA84BB844888598862
:10266000DC80BA85DB1AE88DF98DE80FF91FFD8B48
:10267000EC8B8D2D8A0D2E893F89A216B306B9F1F8
:10268000877061F48A819B810196EA89FB89AA811E
:10269000BB81EA0FFB1F74909B838A8377FE20C067
:1026A000AB8DBC8DED91FC91B981B13061F40084AA
:1026B000F185E02D2E813F814C895D89B5018B8D9F
:1026C0009C8D19950DC00284F385E02DEE80FF806E
:1026D000840194014E855F85B2018B8D9C8D199587
:1026E000770C480C591CEFEFAE1ABE0AC2CF3C81E2
:1026F0003C0D3C8363949ACFAB8DBC8DED91FC91E6
:1027000011970288F389E02DCD016C960FB6F894ED
:10271000DEBF0FBECDBFDF91CF911F910F91FF9014
:10272000EF90DF90CF90BF90AF909F908F907F9071
:102730006F905F904F903F902F9019946C960FB6CA
:10274000F894DEBF0FBECDBFDF91CF911F910F91E7
:10275000FF90EF90DF90CF90BF90AF909F908F90C1
:102760007F906F905F904F903F902F900895AF9221
:10277000BF92CF92EF92FF920F931F93CF93DF936D
:10278000EC01262F888D998D009709F040C06A30A2
:1027900059F41D861C862C898E859F8538E0239FE1
:1027A000800D911D112441C06D3009F4AAC08E899D
:1027B0008823C1F03C898C859D8546E0349F800D3F
:1027C000911D112448855985481759075CF41D86C9
:1027D0001C868E859F8548E0349F800D911D1124B5
:1027E0009F878E87EA88FB88088919894E855F85CF
:1027F0006C857D85CC88CE010E94A1112C898C85A9
:102800009D8536E0239F800D911D112442C06A30C2
:1028100079F41D861C862C89FC013696E4918E8500
:102820009F852E9F800D911D11249F878E8769C0E3
:102830006D3009F466C0FC0134963491631708F4D6
:1028400060C03196E491E61708F45BC0FC01329653
:10285000A590B490462F50E0431B510937E0349FB8
:10286000B001359F700D1124A60EB71EF5013296EA
:1028700034913196E491332311F0E1110DC0F5014B
:102880003496E4912C898C859D85E29F800D911D65
:1028900011249D878C8735C0F501359644915E895A
:1028A000552311F16C89E32FF0E0E40FF11D47FD92
:1028B000FA956E9FD0016F9FB00D11244C855D85F8
:1028C0004A0F5B1FE885F985E417F5076CF41D8650
:1028D0001C86FC013696E4918E859F856E9F800D47
:1028E000911D11249F878E87EA88FB8808891989A2
:1028F0004E855F856C857D85CC88CE010E94A111B7
:10290000BECF81E090E0DF91CF911F910F91FF90BA
:10291000EF90CF90BF90AF900895DC019C96ED9121
:10292000FC919D979081D1968C91892B80830895FD
:10293000EF92FF920F931F93DC01ED91FC910284C3
:10294000F385E02D7801890121E030E019951F9190
:102950000F91FF90EF900895EF92FF920F931F93C6
:10296000DC01ED91FC910284F385E02D780101E01A
:1029700010E019951F910F91FF90EF9008950F931C
:102980001F93CF93DF9300D000D0CDB7DEB78C017B
:10299000DC01ED91FC910680F781E02D2D833E83D3
:1029A0004B835C8369837A831995D801ED91FC91FF
:1029B0000084F185E02D2D813E814B815C81698110
:1029C0007A81C8011995D801ED91FC910288F389AB
:1029D000E02DC80126960FB6F894DEBF0FBECDBF1E
:1029E000DF91CF911F910F911994EF92FF920F9366
:1029F0001F93CF93DF9300D000D0CDB7DEB77C011B
:102A0000DC01ED91FC910680F781E02D2D833E8362
:102A10004B835C8369837A831995D701ED91FC918F
:102A20000484F585E02D2D813E814B815C81698197
:102A30007A81C7011995D701ED91FC910288F3893C
:102A4000E02DC70126960FB6F894DEBF0FBECDBFAE
:102A5000DF91CF911F910F91FF90EF901994EF921A
:102A6000FF920F931F93CF93DF9300D000D0CDB789
:102A7000DEB77C01DC01ED91FC910680F781E02D51
:102A80002D833E834B835C8369837A831995D701B9
:102A9000ED91FC910684F785E02D2D813E814B81DF
:102AA0005C8169817A81C7011995D701ED91FC910B
:102AB0000288F389E02DC70126960FB6F894DEBF91
:102AC0000FBECDBFDF91CF911F910F91FF90EF907F
:102AD0001994CF92DF92EF92FF920F931F93CF93AF
:102AE000DF9300D000D0CDB7DEB76C01DC01ED91F3
:102AF000FC910680F781E02D2D833E834B835C8320
:102B000069837A831995D601ED91FC910284F3854E
:102B1000E02D2D813E814B815C8169817A81C601E6
:102B20001995D601ED91FC910288F389E02DC6013B
:102B300026960FB6F894DEBF0FBECDBFDF91CF91C2
:102B40001F910F91FF90EF90DF90CF901994CF934A
:102B5000DF93EC0189A187FF09C084E00E94871BF5
:102B600081E00E94791B80E00E94821BECA5FDA5FC
:102B7000908189A9809589238083DF91CF910895E1
:102B8000EF92FF920F931F93CF93DF931F92CDB7D6
:102B9000DEB77C01062F142F40E451E060EF70E0B7
:102BA00029830E94801181EE92E0D70111969C93B7
:102BB0008E935E960C935E975F961C935F97298128
:102BC00090962C9390978FEF91968C9391979296E5
:102BD0008C93929793968C939397F701128E138E02
:102BE000148E158E602F000F770BFB01EA59F84FFA
:102BF0008491E82FF0E0EE0FFF1FE455F84F859128
:102C000094919D969C938E939C97FB01E05EF84F68
:102C1000E491D196EC93D197412F110F550BFA0106
:102C2000EA59F84FE491F0E0EE0FFF1FE455F84F3A
:102C300085919491F70193A782A7FA01E05EF84F7E
:102C4000E491D296EC93D29799961C921E92989703
:102C5000D0961C92D09795961C921E9294979E9611
:102C60001C929E9797961C921E9296979F961C92E6
:102C70000F90DF91CF911F910F91FF90EF900895EA
:102C8000FC0181A187FF05C06EBD0DB407FEFDCF1D
:102C9000089528E030E090E8A4A1B5A186A5492FC9
:102CA000462319F04C91842B03C04C9180958423CA
:102CB0008C93A0A5B1A54C9180A9809584238C9379
:102CC000A0A5B1A54C9180A9842B8C9396952150F9
:102CD000310911F70895CF93DF93EC01EAA5FBA525
:102CE00090818AA9809589238083CE010E94401615
:102CF000EAA5FBA590818AA9892B8083DF91CF91DA
:102D00000895CF93DF93EC014115510561057105DD
:102D100021F440E052E16AE770E04A8F5B8F6C8FEC
:102D20007D8F61E08F8D0E94F71A60E08F8D0E9489
:102D3000331B61E08E8D0E94F71A61E08E8D0E9438
:102D4000331B89A187FD16C061E08AA10E94F71A92
:102D500060E08AA10E94331B61E089A10E94F71AFA
:102D600061E089A10E94331B8BA187FD03C060E055
:102D70000E94F71A89A187FD0E94631B88A187FD25
:102D800021C061E00E94F71A61E088A10E94331B14
:102D900064E670E080E090E00E947B0660E088A13D
:102DA0000E94331B64E670E080E090E00E947B06A6
:102DB00061E088A10E94331B68EC70E080E090E045
:102DC0000E947B06E881F9810680F781E02DCE0123
:102DD00019956FEECE010E946B1663E0CE010E9442
:102DE000401660E8CE010E94401662E0CE010E94CB
:102DF00040166FECCE010E946B1660E0CE010E947F
:102E0000401661ECCE010E94401660E3CE010E94A4
:102E100040166DEECE010E946B1664E6CE010E9454
:102E2000401663E0CE010E94401662E1CE010E948E
:102E3000401661E8CE010E94401668EECE010E9465
:102E40006B1665E8CE010E94401660E0CE010E943C
:102E5000401668E7CE010E9440166BECCE010E943E
:102E60006B1669E3CE010E9440166CE2CE010E940F
:102E7000401660E0CE010E94401664E3CE010E943D
:102E8000401662E0CE010E94401667EFCE010E941C
:102E90006B1660E2CE010E9440166AEECE010E94DF
:102EA0006B1660E0CE010E94401660E0CE010E94E9
:102EB000401660ECCE010E946B1663E2CE010E94C8
:102EC000401661ECCE010E946B1660E1CE010E94BB
:102ED000401665ECCE010E946B166EE3CE010E9497
:102EE000401668E2CE010E94401667ECCE010E94B7
:102EF0006B1666E8CE010E94401666E3CE010E9482
:102F00006B1668E4CE010E94401667E3CE010E9472
:102F10006B1689A187FF09C01EBC0DB407FEFDCF4B
:102F20001EBC0DB407FEFDCF08C060E0CE010E94BC
:102F3000401660E0CE010E9440166AE3CE010E9476
:102F40006B1665E5CE010E94401661EBCE010E9432
:102F50006B1660E0CE010E94401668E1CE010E942F
:102F6000401666EBCE010E946B1668E0CE010E940F
:102F7000401662E8CE010E94401667E2CE010E9430
:102F8000401662EFCE010E946B1660E0CE010E94F7
:102F9000401666E2CE010E946B1661E0CE010E94EF
:102FA000401660EECE010E946B166FE0CE010E94CB
:102FB000401661E3CE010E9440166BE2CE010E94F2
:102FC00040166CE0CE010E9440166EE0CE010E94D9
:102FD000401668E0CE010E9440166EE4CE010E94C9
:102FE000401661EFCE010E94401667E3CE010E94B9
:102FF000401667E0CE010E94401660E1CE010E94BB
:10300000401663E0CE010E9440166EE0CE010E94A1
:10301000401669E0CE010E94401660E0CE010E9499
:10302000401661EECE010E946B1660E0CE010E9458
:1030300040166EE0CE010E94401664E1CE010E946F
:10304000401663E0CE010E94401661E1CE010E946D
:10305000401667E0CE010E94401661E3CE010E9457
:10306000401661ECCE010E94401668E4CE010E9439
:10307000401668E0CE010E9440166FE0CE010E942B
:1030800040166CE0CE010E94401661E3CE010E9422
:10309000401666E3CE010E9440166FE0CE010E940A
:1030A000401661E1CE010E946B1668E770E080E097
:1030B00090E00E947B0669E2CE010E946B1668E7F1
:1030C00070E080E090E00E947B06E881F981028850
:1030D000F389E02DCE01199580EF90E099878887DC
:1030E00080E491E09B878A87DF91CF9108951F93B9
:1030F000CF93DF93EC0163706D8B6230C1F063306E
:1031000001F1613051F080EF90E09987888780E489
:1031100091E09B878A8718E41DC080E491E099873D
:10312000888780EF90E09B878A8718E213C080EF42
:1031300090E09987888780E491E09B878A8718E8E8
:1031400009C080E491E09987888780EF90E09B87B1
:103150008A8718EEE881F9810680F781E02DCE019B
:10316000199566E3CE010E946B16612FCE010E9475
:103170004016E881F9810288F389E02DCE01DF91C4
:10318000CF911F9119940F931F93CF93DF931F92A9
:10319000CDB7DEB78C01DC01ED91FC910680F781A3
:1031A000E02D698319956981611102C060E201C057
:1031B00061E2C8010E946B16D801ED91FC91028872
:1031C000F389E02DC8010F90DF91CF911F910F91EE
:1031D00019948F929F92AF92BF92CF92DF92EF920B
:1031E000FF920F931F93CF93DF93EC01490181E08E
:1031F000881A9108860E971EC401A0E0B0E04B012A
:10320000A12CB12C540199248824882A992AAA2A0D
:10321000BB2A680181E0C81AD108C40ED51EC601B8
:10322000A0E0B0E06A01E12CF12C7601DD24CC2491
:10323000C82AD92AEA2AFB2A6AE2CE010E946B1622
:1032400029A16B2D77278827992727FF18C06EBDE6
:103250000DB407FEFDCFC501AA27BB278EBD0DB457
:1032600007FEFDCFBB27AB2D9A2D892D8EBD0DB44A
:1032700007FEFDCF8EBC0DB407FEFDCF14C0CE01FE
:103280000E944016B50188279927CE010E9440165A
:1032900099278B2D7A2D692DCE010E944016682D1D
:1032A000CE010E9440166BE2CE010E946B1629A14E
:1032B0006F2D77278827992727FF18C06EBD0DB47B
:1032C00007FEFDCFC701AA27BB278EBD0DB407FEA1
:1032D000FDCFBB27AF2D9E2D8D2D8EBD0DB407FECE
:1032E000FDCFCEBC0DB407FEFDCF14C0CE010E94B1
:1032F0004016B70188279927CE010E9440169927CA
:103300008F2D7E2D6D2DCE010E9440166C2DCE018D
:103310000E9440166CE2CE01DF91CF911F910F9178
:10332000FF90EF90DF90CF90BF90AF909F908F90E5
:103330000C946B161F93CF93DF93262FFC0131A1C2
:1033400037FF09C07EBD0DB407FEFDCF2EBD0DB405
:1033500007FEFDCF0CC0672F122FEC010E94401614
:10336000612FCE01DF91CF911F910C944016DF9118
:10337000CF911F910895EF92FF920F931F93CF93D8
:10338000DF9377FD23C0DC011896ED91FC9119972E
:103390006E177F07DCF457FD19C01A96ED91FC916A
:1033A0001B974E175F0794F47901EC0101E010E0E0
:1033B00021E030E00E94E918B701CE01DF91CF9102
:1033C0001F910F91FF90EF900C949A19DF91CF917C
:1033D0001F910F91FF90EF900895EF92FF921F932E
:1033E000CF93DF9300D01F921F92CDB7DEB77C0141
:1033F000162FFC0181A187FF12C02115310541055F
:10340000510549F17EBD0DB407FEFDCF1EBD0DB4C3
:1034100007FEFDCF2150310941095109EECF211599
:10342000310541055105B9F0672FC70129833A835A
:103430004B835C837D830E944016612FC7010E94ED
:10344000401629813A814B815C8121503109410923
:1034500051097D81E4CF0F900F900F900F900F9046
:10346000DF91CF911F91FF90EF9008958F929F92DF
:10347000AF92BF92CF92DF92EF92FF920F931F9382
:10348000CF93DF935C01FB01E9014701DC01189652
:103490002D913C911997621773070CF049C01A9649
:1034A0008D919C911B97481759070CF041C06B01F7
:1034B000CC0EDD1ED60111977A01E00EF11EB70188
:1034C00061507109B7FD34C077FD32C0F7FF03C00A
:1034D000E601E0E0F0E057FF03C0870140E050E084
:1034E000A217B3071CF0E901CE1BDF0B68177907A1
:1034F0001CF08C01041B150B9E01D8010E94061CB8
:103500006B017C01BF01C5010E94E918A70196016A
:10351000B401C501DF91CF911F910F91FF90EF9002
:10352000DF90CF90BF90AF909F908F900C94ED194B
:10353000DF91CF911F910F91FF90EF90DF90CF908F
:10354000BF90AF909F908F90089590E0FC013197CD
:10355000E131F10508F04AC08827EE58FF4F8F4F40
:103560000C94FE1B809180008F7703C080918000B7
:103570008F7D80938000089584B58F7702C084B5D5
:103580008F7D84BD08958091B0008F7703C08091B6
:10359000B0008F7D8093B0000895809190008F7768
:1035A00007C0809190008F7D03C080919000877F3D
:1035B0008093900008958091A0008F7707C080913C
:1035C000A0008F7D03C08091A000877F8093A00022
:1035D0000895809120018F7707C0809120018F7D11
:1035E00003C080912001877F809320010895CF93AD
:1035F000DF9390E0FC01E05EF84F2491FC01EA5972
:10360000F84F8491882361F190E0880F991FFC01A5
:10361000EA53F84FC591D491FC01E455F84FA591B8
:10362000B491611109C09FB7F894888120958223D5
:103630008883EC912E230BC0623061F49FB7F8941D
:103640003881822F809583238883EC912E2B2C93B5
:103650009FBF06C08FB7F894E8812E2B28838FBFB9
:10366000DF91CF9108951F93CF93DF93282F30E000
:10367000F901E652F94F8491F901E05EF84FD491D7
:10368000F901EA59F84FC491CC23C9F0162F8111E2
:103690000E94A51AEC2FF0E0EE0FFF1FE455F84F43
:1036A000A591B4918FB7F894111105C09C91ED2F9D
:1036B000E095E92302C0EC91ED2BEC938FBFDF91F5
:1036C000CF911F91089561E085E30E94331B61E073
:1036D00085E30E94F71A8CB580618CBD8CB580643F
:1036E0008CBD61E084E30E94F71A61E083E30C94EF
:1036F000F71A811103C08CB5806202C08CB58F7D32
:103700008CBD08959CB5937F892B8CBD08959CB585
:10371000282F23709C7F922B9CBD2DB582FB99276F
:1037200090F9822F8E7F892B8DBD0895F8940C948B
:10373000431CDB018F939F930E94241CBF91AF9188
:10374000A29F800D911DA39F900DB29F900D1124FB
:10375000089597FB072E16F4009407D077FD09D043
:103760000E942F1C07FC05D03EF4909581959F4F39
:103770000895709561957F4F0895A1E21A2EAA1BB6
:10378000BB1BFD010DC0AA1FBB1FEE1FFF1FA21711
:10379000B307E407F50720F0A21BB30BE40BF50B0E
:1037A000661F771F881F991F1A9469F76095709597
:1037B000809590959B01AC01BD01CF010895052E28
:1037C00097FB1EF400940E94F61B57FD07D00E9441
:1037D000BD1B07FC03D04EF40C94F61B509540958E
:1037E000309521953F4F4F4F5F4F089590958095AD
:1037F000709561957F4F8F4F9F4F0895EE0FFF1F7C
:10380000881F8BBF0790F691E02D19940E940E1C23
:10381000332312F48A1B9B0B0C941F1CA29FB00134
:10382000B39FC001A39F700D811D1124911DB29FF4
:10383000700D811D1124911D08950E940E1CB7FF6B
:103840000895821B930B08950E940E1CA59F900D56
:10385000B49F900DA49F800D911D11240895AA1B63
:10386000BB1B51E107C0AA1FBB1FA617B70710F06B
:10387000A61BB70B881F991F5A95A9F7809590959D
:0A388000BC01CD010895F894FFCFBC
:10388A005265616420626C6F636B206661696C6566
:10389A00642C20747279696E6720616761696E2E83
:1038AA0000496E697469616C697A696E6720535060
:1038BA004920636F6D6D756E69636174696F6E20FF
:1038CA00666F72207261772072656164732E2E2E84
:1038DA00006661696C6564212049732074686520FB
:1038EA006361726420696E736572746564207072B4
:1038FA006F7065726C793F004F4B210020746869C4
:10390A007320697320696E6465783A20002020204C
:10391A00207468697320697320726573745F6469BF
:10392A0073743A20000000000046080307EF071BE3
:10393A0008FF073B0800000000B7130307EE076CF7
:10394A000F6D0F8C0F740F800FC30E9C0F6B116AD3
:10395A00119D0FE20F2610771095100B1100000031
:10396A0000B7130307BF14A715BB19361A9814AC6E
:10397A0014C30E8D147718C318F5142F156915770B
:06398A001095100B110066
:00000001FF
