:100000000C9418040C9449040C9449040C9449046D
:100010000C9449040C9449040C9449040C9449042C
:100020000C9449040C9449040C9449040C9449041C
:100030000C9449040C9449040C9449040C9449040C
:100040000C9449040C9449040C9449040C944904FC
:100050000C9449040C9449040C9449040C945A07D8
:100060000C9449040C949B0A0C94670B0C9449045F
:100070000C9449040C9449040C9449040C944904CC
:100080000C9449040C9449040C9449040C944904BC
:100090000C94CE0A0C94A60B0C9449040C944904BD
:1000A0000C9449040C9449040C9449040C9449049C
:1000B0000C9449040C9449040C9449040C9449048C
:1000C0000C9449040C9449040C9449040C94010BBD
:1000D0000C94E50B0C9449040C94340B0C94240CF4
:1000E0000C94490499089C088F089308D308A00829
:1000F000A408AA08AE08B208B808BC08C008D3080B
:10010000C608CA08CE080C9454210C942A2B0C94CF
:100110005B200C9469090C94CE080C949B0F0C94F2
:10012000E5200C94CA210C945C200C94C6080C9415
:10013000E8090C94F8090C94A0080C94C0080C94DD
:1001400033200C94D0170C94B1050C943F0A0C94F6
:100150007E250C946B250C94AA080C94B8080C947A
:100160004C250C94A4080C94E7090C9457250C9486
:100170002B200C94AF2A0C948F080C942A220C94F8
:10018000520F0C943F200C9482290C94BC080C94C0
:100190002C200C94690F0C9466260C9436290C9430
:1001A000AE080C9493080C9499080C94140A0C94BF
:1001B000EE250C94340A0C946A100C94CA080C9422
:1001C000A1200C94821F0C947F0F0C94BA0F0C94F6
:1001D0004B200C94D3080C94C40F0C949C080C94E2
:1001E000B2080C9429220C94B4250C94EB0C0C94BA
:1001F00076240C9436210C9428260000090A020863
:100200000B0C0D07060304010000000000000000B5
:1002100000000000000000000000000000000000DE
:1002200000000000000011100F000000000000009E
:1002300000000000000000000000000000000000BE
:1002400001021020200808102040102040800201E8
:1002500002010804020101020408102040808040CD
:1002600020100804020180040201804020100804CC
:10027000020108040201010204081020408001026A
:100280000408102040800505050507050808080832
:10029000020202020A0A080804040404010101011E
:1002A0000101010103030303030303030407070719
:1002B0000C0C0C0C0C0C0C0C0202020206060606BE
:1002C000060606060B0B0B0B0B0B0B0B000020009E
:1002D0002300260029002C002F003200000100001E
:1002E00003010601090100002200250028002B005F
:1002F0002E003100340002010000050108010B014D
:1003000000002100240027002A002D0030003300C7
:1003100001010000040107010A017C3C3E5E2B3D07
:100320003F2F5B5D3B2C2A225C0000000000003E5A
:100330005B4F5B3E3E6B4F6B3E1C3E7C3E1C183C55
:100340007E3C181C577D571C1C5E7F5E1C00183CB1
:100350001800FFE7C3E7FF0018241800FFE7DBE7FA
:10036000FF30483A060E2629792926407F050507E1
:10037000407F05253F5A3CE73C5A7F3E1C1C08083D
:100380001C1C3E7F14227F22145F5F005F5F060902
:100390007F017F006689956A606060606094A2FF5B
:1003A000A29408047E040810207E201008082A1C4D
:1003B00008081C2A08081E101010100C1E0C1E0C19
:1003C00030383E3830060E3E0E06000000000000B9
:1003D000005F00000007000700147F147F14242A28
:1003E0007F2A1223130864623649562050000807FA
:1003F0000300001C2241000041221C002A1C7F1C1B
:100400002A08083E0808008070300008080808081C
:10041000000060600020100804023E5149453E0083
:10042000427F400072494949462141494D331814E1
:10043000127F1027454545393C4A49493141211130
:1004400009073649494936464949291E0000140022
:100450000000403400000008142241141414141445
:10046000004122140802015909063E415D594E7CA3
:100470001211127C7F494949363E414141227F4158
:1004800041413E7F494949417F090909013E4141B6
:1004900051737F0808087F00417F41002040413FA1
:1004A000017F081422417F404040407F021C027FB0
:1004B0007F0408107F3E4141413E7F090909063E05
:1004C0004151215E7F0919294626494949320301D4
:1004D0007F01033F4040403F1F2040201F3F4038E6
:1004E000403F631408146303047804036159494DC1
:1004F00043007F4141410204081020004141417FF7
:10050000040201020440404040400003070800206C
:10051000545478407F28444438384444442838446C
:1005200044287F385454541800087E090218A4A4A3
:100530009C787F0804047800447D40002040403DC2
:10054000007F1028440000417F40007C047804783C
:100550007C080404783844444438FC1824241818CF
:10056000242418FC7C08040408485454542404042B
:100570003F44243C4040207C1C2040201C3C403018
:10058000403C44281028444C9090907C4464544C47
:1005900044000836410000007700000041360800A2
:1005A00002010204023C2623263C1EA1A161123A4C
:1005B0004040207A38545455592155557941225498
:1005C000547842215554784020545579400C1E529D
:1005D0007212395555555939545454593955545442
:1005E000580000457C410002457D420001457C40A9
:1005F0007D1211127DF0282528F07C5455450020ED
:1006000054547C547C0A097F4932494949323A445E
:1006100044443A324A4848303A4141217A3A4240C9
:100620002078009DA0A07D3D4242423D3D4040409B
:100630003D3C24FF2424487E4943662B2FFC2F2B6E
:10064000FF0929F620C0887E09032054547941000F
:1006500000447D413048484A32384040227A007A8E
:100660000A0A727D0D19317D2629292F282629296C
:10067000292630484D40203808080808080808088E
:10068000382F10C8ACBA2F102834FA00007B0000B5
:1006900008142A142222142A14085500550055AAB9
:1006A00055AA55AAFF55FF55FF000000FF00101086
:1006B00010FF00141414FF001010FF00FF1010F0C2
:1006C00010F0141414FC001414F700FF0000FF00D5
:1006D000FF1414F404FC141417101F10101F101F23
:1006E0001414141F00101010F0000000001F101050
:1006F00010101F10101010F010000000FF1010104C
:10070000101010101010FF10000000FF140000FF68
:1007100000FF00001F10170000FC04F41414171051
:10072000171414F404F40000FF00F7141414141444
:100730001414F700F7141414171410101F101F14BA
:100740001414F4141010F010F000001F101F00001B
:10075000001F14000000FC140000F010F01010FF47
:1007600010FF141414FF141010101F00000000F0EC
:1007700010FFFFFFFFFFF0F0F0F0F0FFFFFF0000C1
:10078000000000FFFF0F0F0F0F0F3844443844FCE8
:100790004A4A4A347E02020606027E027E026355FF
:1007A0004941633844443C04407E201E2006027EBA
:1007B000020299A5E7A5991C2A492A1C4C720172CC
:1007C0004C304A4D4D303048784830BC625A463D36
:1007D0003E494949007E0101017E2A2A2A2A2A44EB
:1007E000445F444440514A444040444A5140000020
:1007F000FF0103E080FF000008086B6B083612362B
:100800002436060F090F060000181800000010100B
:10081000003040FF0101001F01011E00191D1712C9
:10082000003C3C3C3C0000000000B105EB0C520FCA
:1008300011241FBECFEFD1E2DEBFCDBF00E00CBF61
:1008400012E0A0E0B2E0E0EFFAE500E00BBF02C08A
:1008500007900D92AA3FB107D9F728E0AAEFB2E0BE
:1008600001C01D92A833B207E1F714E0C8E1D4E05B
:1008700000E006C021970109802FFE010E94452D4E
:10088000C531D10780E00807A9F70E9455070C94ED
:10089000F92C0C9400002F923F924F925F926F922E
:1008A0007F928F929F92AF92BF92CF92DF92EF9200
:1008B000FF920F931F93CF93DF93CDB7DEB7CA5448
:1008C000D1090FB6F894DEBF0FBECDBF9CAF8BAF82
:1008D0004B0158AF4FAB39011EAF0DAF2196FFAEA4
:1008E000EEAE21972396BFAEAEAE23970DB71EB7DF
:1008F00025961FAF0EAF25978E01045E1F4FC801CE
:100900000E942310ABADBCAD4D915C9121E062EE35
:1009100075E0CE0101960E94D00E8B819C819F8F45
:100920008E8F8D819E81AF81B88588A399A3AAA35C
:10093000BBA389859A85AB85BC858CA39DA3AEA3FB
:10094000BFA38DE0FE013D96DE01989601900D92C9
:100950008A95E1F78A8D9B8D9EAB8DABC8010E9475
:10096000AB10F82ECE0101960E943610FF20C1F088
:10097000F601EE0FFF1FFAAFE9AF1301412C512C26
:10098000E12CF12CAFA9B8ADCD01A0E0B0E02996E3
:100990008CAF9DAFAEAFBFAF2997702E612E29C02F
:1009A00061E172E080EA93E00E94A609EBADFCAD44
:1009B0006081718180EA93E00E94A60967E280EA83
:1009C00093E00E94D509A6C0D401ED91FC91028864
:1009D000F389E02DC40119950FB6F894BEBE0FBE81
:1009E000ADBEBFEFEB1AFB0AEFEF2E1A3E0A4E0A1E
:1009F0005E0A23960EAD1FAD2397E016F10609F4AB
:100A000082C0ADB6BEB60DB71EB729AD3AAD021B5A
:100A1000130B0FB6F8941EBF0FBE0DBF8DB79EB758
:100A2000019698AF8FABEBADFCADA281B381A20173
:100A300091010E946B2D29960CAD1DAD2EAD3FADE1
:100A40002997060F171F281F391FB901A801440F46
:100A5000551F661F771F872D962D0E94411049ADA7
:100A60005AAD6FA978AD872D962D0E94371029AD0C
:100A70003AAD8217930781F062E272E080EA93E078
:100A80000E94C309872D962D0E9499100FB6F894E5
:100A9000BEBE0FBEADBE3EC0D401ED91FC9106803E
:100AA000F781E02DC401199501E010E0960121962F
:100AB0004EAD5FAD21974E0D5F1D6DAD7EADC40196
:100AC0000E94A8290FA918AD20E030E02C153D05A3
:100AD00009F47ACFF801619171918F017627672728
:100AE0007627C4012A962FAF2A972B963FAF2B97D4
:100AF0000E94592A2A962FAD2A972B963FAD2B9705
:100B00002F5F3F4FE3CFCE014C960E949910CE014C
:100B10004C9602C0CE014C960E94361025962EAD02
:100B20003FAD25970FB6F8943EBF0FBE2DBFC65BF5
:100B3000DF4F0FB6F894DEBF0FBECDBFDF91CF9170
:100B40001F910F91FF90EF90DF90CF90BF90AF90EB
:100B50009F908F907F906F905F904F903F902F90DD
:100B600008952FEF49E06AE08EEF92E00C947F2623
:100B7000EF92FF920F931F936091FC027091FD0220
:100B8000643071053CF06C3021E072072CF06BE0B2
:100B900071E002C064E070E07093FD026093FC02BB
:100BA0004091FA025091FB024430510534F04C3E22
:100BB00051052CF04BEE50E002C044E050E0509361
:100BC000FB024093FA0244505109645071097C01C0
:100BD00009E010E029E030E08EEF92E00E94282644
:100BE0001F910F91FF90EF900895AF92BF92CF9217
:100BF000DF92EF92FF920F931F930E94FB0740E852
:100C000055E260E070E080EA93E00E94630C62E0ED
:100C100082E00E94D40840E050E0BA018EEF92E0FA
:100C20000E94402766E372E080EA93E00E94A609F2
:100C300066E082EE95E00E94BD0D811107C06EE472
:100C400072E080EA93E00E94C309FFCF6FE672E092
:100C500080EA93E00E94C30963E08EEF92E00E9475
:100C6000362960E070E08EEF92E00E94362180EF3E
:100C7000A82EB12C90E1C92EDD24D394E12CF12CC7
:100C800000E010E028E833E048E753E06EEF72E060
:100C900080E092E00E944B0488E890E09093FD028F
:100CA0008093FC0288E790E09093FB028093FA0225
:100CB00080E098EF1F910F91FF90EF90DF90CF9021
:100CC000BF90AF900C94B8058F929F92AF92BF9255
:100CD000CF92DF92EF92FF920F931F93CF93DF9308
:100CE00086E30E945D08EC0187E30E945D084C01E9
:100CF00082E00E94400986E30E945D087C0187E350
:100D00000E945D088C0182E00E94400980ECE81A94
:100D100081E0F80A81E8E816F10428F4005C11404B
:100D20000138110540F32091FA023091FB02409105
:100D3000FC025091FD02790184E0E81AF1088A0171
:100D4000045011092C573C4F4C585C4F89E0A82E99
:100D5000B12C99E0C92ED12C6EEF72E080E092E0C8
:100D60000E944B0484E48816910434F48091FA02C2
:100D70009091FB0205970AC08DEB881683E09806D8
:100D80004CF08091FA029091FB0205969093FB0241
:100D90008093FA02CD3B83E0D80734F08091FC02C7
:100DA0009091FD02059708C0C434D1054CF48091A0
:100DB000FC029091FD0205969093FD028093FC0247
:100DC00080E2881681E0980634F48091FA029091CE
:100DD000FB0203970AC081EE881682E098064CF069
:100DE0008091FA029091FB0203969093FB0280930C
:100DF000FA02C13E82E0D80734F08091FC02909163
:100E0000FD02039709C0C03281E0D8074CF48091FD
:100E1000FC029091FD0203969093FD028093FC02E8
:100E200080EC881681E0980634F48091FA02909163
:100E3000FB0201970AC081E4881682E098064CF014
:100E40008091FA029091FB0201969093FB028093AD
:100E5000FA02C13482E0D80734F08091FC0290910C
:100E6000FD02019708C0C03CD1404CF48091FC02C7
:100E70009091FD0201969093FD028093FC0280E028
:100E800098EF0E94B80564E170E080E090E0DF91A7
:100E9000CF911F910F91FF90EF90DF90CF90BF9077
:100EA000AF909F908F900C94D5070E94F5050E94FB
:100EB0006406FDCF1F920F920FB60F9211242F934D
:100EC0003F938F939F93AF93BF9380913203909101
:100ED0003303A0913403B09135033091310323E003
:100EE000230F2D3720F40196A11DB11D05C026E862
:100EF000230F0296A11DB11D20933103809332036D
:100F000090933303A0933403B09335038091360359
:100F100090913703A0913803B09139030196A11D38
:100F2000B11D8093360390933703A0933803B09399
:100F30003903BF91AF919F918F913F912F910F9066
:100F40000FBE0F901F9018952FB7F8946091320341
:100F50007091330380913403909135032FBF08952E
:100F60003FB7F8948091360390913703A0913803EE
:100F7000B091390326B5A89B05C02F3F19F0019603
:100F8000A11DB11D3FBFBA2FA92F982F8827820F0F
:100F9000911DA11DB11DBC01CD0142E0660F771F5F
:100FA000881F991F4A95D1F70895CF92DF92EF924B
:100FB000FF92CF93DF936B017C010E94B007EB019E
:100FC000C114D104E104F10479F00E94B0076C1B54
:100FD0007D0B683E7340A0F381E0C81AD108E10898
:100FE000F108C851DC4FECCFDF91CF91FF90EF902B
:100FF000DF90CF900895789484B5826084BD84B5E5
:10100000816084BD85B5826085BD85B5816085BD03
:10101000EEE6F0E0808181608083E1E8F0E010821C
:10102000808182608083808181608083E0E8F0E05D
:10103000808181608083E1EBF0E080818460808347
:10104000E0EBF0E0808181608083E1E9F0E0808185
:1010500082608083808181608083E0E9F0E080812C
:1010600081608083E1EAF0E080818260808380811A
:1010700081608083E0EAF0E0808181608083E1E24A
:10108000F1E0808182608083808181608083E0E202
:10109000F1E0808181608083EAE7F0E08081846014
:1010A0008083808182608083808181608083808171
:1010B000806880831092C1000895863308F08653BB
:1010C00090917B00282F2870977F922B90937B0024
:1010D00087702091060290E4299F90011124822BB1
:1010E00080937C0080917A00806480937A00809164
:1010F0007A0086FDFCCF809178002091790090E005
:10110000922B089590E0FC013197E131F10508F050
:101110004AC08827EE58FF4F8F4F0C94452D809181
:1011200080008F7703C0809180008F7D8093800046
:10113000089584B58F7702C084B58F7D84BD0895EE
:101140008091B0008F7703C08091B0008F7D809335
:10115000B0000895809190008F7707C08091900033
:101160008F7D03C080919000877F809390000895C9
:101170008091A0008F7707C08091A0008F7D03C071
:101180008091A000877F8093A00008958091200126
:101190008F7707C0809120018F7D03C0809120014F
:1011A000877F809320010895CF93DF9390E0FC0127
:1011B000E05CFD4F2491FC01EA57FD4F84918823A8
:1011C00061F190E0880F991FFC01E050FD4FC5913F
:1011D000D491FC01EA51FD4FA591B491611109C070
:1011E0009FB7F8948881209582238883EC912E23E1
:1011F0000BC0623061F49FB7F8943881822F8095DC
:1012000083238883EC912E2B2C939FBF06C08FB72E
:10121000F894E8812E2B28838FBFDF91CF9108951A
:101220001F93CF93DF93282F30E0F901E650FE4F54
:101230008491F901E05CFD4FD491F901EA57FD4F2B
:10124000C491CC23C9F0162F81110E948208EC2F83
:10125000F0E0EE0FFF1FEA51FD4FA591B4918FB75B
:10126000F894111105C09C91ED2FE095E92302C07F
:10127000EC91ED2BEC938FBFDF91CF911F910895EF
:10128000CF93DF93282F30E0F901E650FE4F849191
:10129000F901E05CFD4FD491F901EA57FD4FC4918B
:1012A000CC2391F081110E948208EC2FF0E0EE0F28
:1012B000FF1FE453FD4FA591B491EC91ED2381E024
:1012C00090E021F480E002C080E090E0DF91CF91D7
:1012D0000895CF92DF92EF92FF920F931F93CF93D7
:1012E000DF936C01EB017B01E40EF51E00E010E0E2
:1012F000CE15DF0561F06991D601ED91FC91019069
:10130000F081E02DC6011995080F191FF1CFC80112
:10131000DF91CF911F910F91FF90EF90DF90CF90D1
:1013200008956115710579F0FB0101900020E9F73E
:101330003197AF01461B570BDC01ED91FC91028008
:10134000F381E02D199480E090E008950C949109C8
:10135000DC01ED91FC910190F081E02D19940F9347
:101360001F93CF93DF93EC016DE00E94A8098C01DD
:101370006AE0CE010E94A809800F911FDF91CF91F2
:101380001F910F9108950F931F93CF93DF93EC015B
:101390000E9491098C01CE010E94AF09800F911F1C
:1013A000DF91CF911F910F9108950F931F93CF93CA
:1013B000DF93EC010E94A8098C01CE010E94AF09C5
:1013C000800F911FDF91CF911F910F910895089584
:1013D000FC0124853585F901E05CFF4F8081918116
:1013E000329620813181821B930B8F739927089548
:1013F000DC011C96ED91FC911D97DF01A05CBF4FB5
:101400002D913C91119712968D919C9111972817CF
:10141000390739F08D919C91E80FF91F808190E098
:1014200008958FEF9FEF0895FC01A485B585FD0118
:10143000E05CFF4F208131813296808191812817B5
:10144000390779F080819181A80FB91F8C91208193
:1014500031812F5F3F4F2F7333273183208390E0FB
:1014600008958FEF9FEF0895FC0181A1882329F053
:10147000A489B5898C9186FFFBCF11A208950F93A3
:101480001F93CF93DF93FC01A685B7858D01005C88
:101490001F4FE8018881998101968F739927AD01CB
:1014A0004E5B5F4FEA012881398182179307D1F3A0
:1014B000E80128813981A20FB31F6C93A685B785F7
:1014C000A05CBF4F11969C938E93A689B7892C91EF
:1014D00081E090E0078C02C0880F991F0A94E2F720
:1014E000822B8C9381E081A30488F589E02D808193
:1014F0008064808381E090E0DF91CF911F910F9114
:101500000895FB01E05CFF4F208131812F5F3F4F49
:101510002F733327DB01AE5BBF4F4D915C912417D6
:10152000350741F040815181DB01A40FB51F8C9339
:101530003183208308951F920F920FB60F921124CA
:101540000BB60F922F933F934F935F936F937F93BD
:101550008F939F93AF93BF93EF93FF938091C000BE
:1015600082FD07C08091C6006EE975E00E94810A85
:1015700002C08091C600FF91EF91BF91AF919F9102
:101580008F917F916F915F914F913F912F910F902C
:101590000BBE0F900FBE0F901F9018951F920F92C9
:1015A0000FB60F9211240BB60F922F933F934F93C8
:1015B0005F936F937F938F939F93AF93BF93EF93BB
:1015C000FF938091C80082FD07C08091CE0066E144
:1015D00075E00E94810A02C08091CE00FF91EF91D8
:1015E000BF91AF919F918F917F916F915F914F913B
:1015F0003F912F910F900BBE0F900FBE0F901F9039
:1016000018951F920F920FB60F9211240BB60F92DE
:101610002F933F934F935F936F937F938F939F93FA
:10162000AF93BF93EF93FF938091D00082FD07C0EB
:101630008091D6006EE874E00E94810A02C0809119
:10164000D600FF91EF91BF91AF919F918F917F91C4
:101650006F915F914F913F912F910F900BBE0F9023
:101660000FBE0F901F9018951F920F920FB60F92FA
:1016700011240BB60F922F933F934F935F936F9369
:101680007F938F939F93AF93BF93EF93FF9380913B
:10169000300182FD07C08091360166E074E00E944F
:1016A000810A02C080913601FF91EF91BF91AF9105
:1016B0009F918F917F916F915F914F913F912F916A
:1016C0000F900BBE0F900FBE0F901F9018951F929A
:1016D0000F920FB60F9211240BB60F922F933F93D8
:1016E0008F939F93EF93FF9320919A0530919B05E1
:1016F00080919C0590919D052817390731F48091C0
:10170000C1008F7D8093C10014C0E0919C05F091D1
:101710009D05E65AFA4F208180919C0590919D0588
:1017200001968F73992790939D0580939C05209334
:10173000C600FF91EF919F918F913F912F910F9054
:101740000BBE0F900FBE0F901F9018951F920F9217
:101750000FB60F9211240BB60F922F933F938F93D6
:101760009F93EF93FF932091120530911305809181
:101770001405909115052817390731F48091C90097
:101780008F7D8093C90014C0E0911405F091150578
:10179000EE52FB4F20818091140590911505019622
:1017A0008F73992790931505809314052093CE008D
:1017B000FF91EF919F918F913F912F910F900BBED1
:1017C0000F900FBE0F901F9018951F920F920FB69B
:1017D0000F9211240BB60F922F933F938F939F93E9
:1017E000EF93FF9320918A0430918B0480918C04B5
:1017F00090918D042817390731F48091D1008F7DA5
:101800008093D10014C0E0918C04F0918D04E65BCC
:10181000FB4F208180918C0490918D0401968F73F1
:10182000992790938D0480938C042093D600FF9188
:10183000EF919F918F913F912F910F900BBE0F9041
:101840000FBE0F901F9018951F920F920FB60F9218
:1018500011240BB60F922F933F938F939F93EF9387
:10186000FF9320910204309103048091040490912D
:1018700005042817390731F4809131018F7D809359
:10188000310114C0E0910404F0910504EE53FC4FC3
:101890002081809104049091050401968F7399270B
:1018A000909305048093040420933601FF91EF91F7
:1018B0009F918F913F912F910F900BBE0F900FBE74
:1018C0000F901F901895CF92DF92EF92FF920F9397
:1018D0001F93CF93DF93EC016A017B014115514EB9
:1018E0006105710509F1EC89FD8981E090E008A0AE
:1018F00002C0880F991F0A94E2F7808360E079E0C4
:101900008DE390E0A70196010E94232D89019A01A1
:101910000150110921093109369527951795079529
:10192000980101151041A8F0EC89FD89108260E84A
:1019300074E88EE190E0A70196010E94232DDA0160
:10194000C9010197A109B109B695A7959795879502
:101950009C01E889F9893083EA89FB89208319A2EF
:10196000EE89FF89408181E090E09C010C8C02C0EF
:10197000220F331F0A94E2F7242B2083EE89FF897C
:1019800040819C010D8C02C0220F331F0A94E2F7A4
:10199000242B2083EE89FF8940819C010E8C02C09C
:1019A000220F331F0A94E2F7242B2083EE89FF894C
:1019B00020810F8C02C0880F991F0A94E2F780954E
:1019C00082238083DF91CF911F910F91FF90EF9041
:1019D000DF90CF900895CF92DF92EF92FF92E0EAEE
:1019E000F3E01382128288EEC82E83E0D82EE12C19
:1019F000F12CC482D582E682F78263E872E07183BB
:101A000060838EE995E0958784878AE595E09787DE
:101A1000868785EC90E0918B808B84EC90E0938BB3
:101A2000828B80EC90E0958B848B81EC90E0978B9F
:101A3000868B82EC90E0918F808F86EC90E0938F84
:101A4000828F44E0448F33E0358F27E0268F95E086
:101A5000978F81E080A3EEE7F3E013821282C482C5
:101A6000D582E682F78271836083A6E1B5E0B5870F
:101A7000A487A2EDB4E0B787A687ADECB0E0B18B48
:101A8000A08BACECB0E0B38BA28BA8ECB0E0B58B34
:101A9000A48BA9ECB0E0B78BA68BAAECB0E0B18F19
:101AA000A08FAEECB0E0B38FA28F448F358F268F1E
:101AB000978F80A3ECE5F3E013821282C482D58273
:101AC000E682F78271836083AEE8B4E0B587A487CD
:101AD000AAE4B4E0B787A687A5EDB0E0B18BA08BF0
:101AE000A4EDB0E0B38BA28BA0EDB0E0B58BA48BDE
:101AF000A1EDB0E0B78BA68BA2EDB0E0B18FA08FC7
:101B0000A6EDB0E0B38FA28F448F358F268F978FCD
:101B100080A3EAE3F3E013821282C482D582E682D4
:101B2000F7827183608366E074E07587648762EC96
:101B300073E07787668765E371E0718B608B64E3A0
:101B400071E0738B628B60E371E0758B648B61E392
:101B500071E0778B668B62E371E0718F608F66E373
:101B600071E0738F628F448F358F268F978F80A39C
:101B7000FF90EF90DF90CF9008950F931F93CF9336
:101B8000DF93EC01462F61E00E94B518882391F0A5
:101B90008E01045F1F4F41E0BE01C8010E946B1E11
:101BA000882351F0B801CE018A960E94911191E0EC
:101BB00081110AC090E008C040E0BE01C8010E9447
:101BC0006B1E8823B9F3EECF892FDF91CF911F9140
:101BD0000F910895FC01DB0112968D919C91139752
:101BE0009383828385EA92E09183808314968C911B
:101BF0001497848315968C911597858316964D912D
:101C00005D916D917C9119974683578360877187A9
:101C10001A964D915D916D917C911D9742875387E6
:101C2000648775871E964D915D916D917C9151975A
:101C300046875787608B718B52968C915297828B17
:101C400053964D915D916D917C915697438B548B3A
:101C5000658B768B57964D915D916D917C915A97DE
:101C6000478B508F618F728F5B968D919C915C97A3
:101C7000948F838F08954F925F926F927F928F928D
:101C80009F92AF92BF92CF92DF92EF92FF920F930B
:101C90001F93CF93DF93CDB7DEB7C754D1090FB6EB
:101CA000F894DEBF0FBECDBF6C015A014901665DDD
:101CB0007F4F7E018EE1E80EF11CC7010E94EA0D04
:101CC0001C821B8285EA92E09A8389831E828501A9
:101CD000FE0131963F0127016FE270E0C8010E94CA
:101CE000092D0097D9F1F80120812F3219F40F5FE7
:101CF0001F4FF2CF801B8D3008F08CE0E82EF12CC6
:101D0000A701B801CE01CB960E94142DEBE3F0E0C1
:101D1000EC0FFD1FEE0DFF1D1082C3010E940D147C
:101D200021E0AE01455C5F4FB201C3010E94411545
:101D3000811109C0F6011382128285EA92E0918333
:101D40008083158214C00E0D1F1DC2010E940D1448
:101D5000942D852D2301692E782EBECF0A191B09DB
:101D6000F40111830083B201C6010E94EA0DC6018D
:101D7000C95BDF4F0FB6F894DEBF0FBECDBFDF915A
:101D8000CF911F910F91FF90EF90DF90CF90BF9078
:101D9000AF909F908F907F906F905F904F9008953D
:101DA000CF92DF92FF920F931F93CF93DF93CDB724
:101DB000DEB7C955D1090FB6F894DEBF0FBECDBF4F
:101DC0006C018A01F22E9E01285A3F4FCE01CB961C
:101DD0000E943B0E6A968EAD9FAD6A97080F191F41
:101DE000F801808181110AC0BE01655C7F4FCE0180
:101DF00001960E94EA0D4FE852E03EC019A218A2D7
:101E000085EA92E09F8F8E8F1BA221968FAD21973E
:101E1000811104C0C6010E94231034C082502F2DAE
:101E2000A801823048F46CE076E0CE014E960E9424
:101E3000411581110EC0EECFBE01655C7F4FCE0112
:101E40004E960E944115882329F3CE01CB960E941D
:101E50000D149F2D967041F049A95AA96BA97CA930
:101E6000CE014E960E943013BE01625E7F4FCE01BE
:101E700001960E94EA0DA801BE016F5F7F4FC60167
:101E80000E94EE0FC601C75ADF4F0FB6F894DEBFAF
:101E90000FBECDBFDF91CF911F910F91FF90DF90CB
:101EA000CF900895E2EEF5E0158216821186138632
:101EB00082E090E0A0E0B0E084879587A687B787AE
:101EC00013A215A614A685EA92E093A782A717A6E7
:101ED0000895CF93DF931F92CDB7DEB76983DC01FE
:101EE000ED91FC910280F381E02D41E050E0BE01D4
:101EF0006F5F7F4F19950F90DF91CF910895CF932A
:101F0000DF93EC01898D9A8D009739F481E090E0A0
:101F10009B838A8380E090E00BC0FC0113821282D5
:101F20000E942F16E98DFA8D22813381232B71F7C0
:101F3000DF91CF910895FC01818D928D009711F072
:101F40000C94C6130895CF93DF931F92CDB7DEB7DD
:101F500041E050E0BE016F5F7F4F0E94E2110197A8
:101F600019F4898190E002C08FEF9FEF0F90DF910D
:101F7000CF910895FC01818D928D009711F00C9402
:101F8000A30F8FEF9FEF08950F931F93CF93DF93CE
:101F9000FC01818D928D0097B9F0EF010E94A30F93
:101FA0008C010F3F8FEF180791F0898D9A8DFC01FE
:101FB00042855385648575854150510961097109D0
:101FC0000E943013C80105C080E090E002C08FEF8E
:101FD0009FEFDF91CF911F910F910895EF92FF92A4
:101FE0000F931F93CF93DF93EC017B018A011B8238
:101FF0001A8288EE93E0A0E0B0E08C839D83AE83EC
:10200000BF8385E992E0998388838DE190E00E9407
:10201000992B9A8F898F009779F02DE1F701DC01D8
:1020200001900D922A95E1F74CE050E0B801CE0105
:102030000C960E94142D188EDF91CF911F910F9155
:10204000FF90EF900895FC011382128288EE93E0D6
:10205000A0E0B0E084839583A683B78385E992E00E
:1020600091838083128E118E148608950895FC0149
:10207000818D928D009711F00C94E21180E090E038
:102080000895FC01818D928D009711F00C9430130E
:1020900080E00895DC015996ED91FC915A973097B4
:1020A00029F0628573858485958508956FEF7FEFAC
:1020B000CB010895DC015996ED91FC915A97309728
:1020C00029F06389748985899689089560E070E0B4
:1020D000CB010895CF92DF92EF92FF92CF93DF93DF
:1020E000FC01218D328D232BD9F0EC010E945A1076
:1020F0006B017C01CE010E944A10A7019601261BAC
:10210000370B480B590BDA01C901811530E89307E9
:10211000A105B10538F08FEF9FE7A0E0B0E002C065
:1021200080E090E0DF91CF91FF90EF90DF90CF9033
:102130000895CF93DF93EC01898D9A8D009741F03C
:102140000E940D14898D9A8D0E942E2C1A8E198E44
:10215000DF91CF910895DC015996ED91FC915A974A
:10216000309721F081E09581911101C080E00895C0
:10217000CF93DF93EC019C012A5F3F4F41E050E099
:1021800060E070E08B8D9C8D0E94001D8823A1F083
:102190008F89988DA98DBA8D892B8A2B8B2B59F419
:1021A0008E819F81A885B9858F8B988FA98FBA8FD3
:1021B0008C8180688C8381E0DF91CF910895CF92EC
:1021C000DF92EF92FF921F93CF93DF93EC010E9477
:1021D000B810811102C080E04AC0EB8DFC8DCE802A
:1021E000DF80E884F98482E0C81AD108E108F108A8
:1021F000058404C0CC0CDD1CEE1CFF1C0A94D2F735
:1022000086859785A089B189C80ED91EEA1EFB1E56
:10221000148181E0C81AD108E108F108112361F0A6
:10222000C701B601610F711D811D911D0E944F1BD9
:10223000882389F21150F2CFEB8DFC8D80E092E083
:10224000A0E0B0E0058404C0880F991FAA1FBB1F3F
:102250000A94D2F74B895C896D897E89840F951F1A
:10226000A61FB71F8B8B9C8BAD8BBE8B81E0DF9144
:10227000CF911F91FF90EF90DF90CF900895CF9373
:10228000DF93EC01462F6E857F85888999890E94AE
:10229000141B882341F08A8920E2829FC001112407
:1022A0008C5C994F02C080E090E0DF91CF9108955F
:1022B000FB019B01255F3F4F40E24193E217F3078B
:1022C000E1F7DC0190E027E08D91882319F18E324F
:1022D00019F0EAE1F3E008C02A3009F198E02AE0B9
:1022E000F3CF31963817D9F034913111FACF29173D
:1022F000B0F03FED380F3E3590F431E0390FFB017F
:10230000E90FF11D9FE9980F9A3108F480528083FC
:10231000932FDACF81E0FB019081903209F480E0C5
:1023200008950F931F93CF93DF93FC012581222300
:1023300011F080E042C08B01EC01FB018789803104
:10234000B1F482E08D831F8A188E198E1A8E808DCB
:10235000918DA0E0B0E025E0880F991FAA1FBB1F58
:102360002A95D1F78B8B9C8BAD8BBE8B15C08032A1
:1023700001F783E08D83FB01428D538D648D758D54
:102380004F8B588F698F7A8F9E012D5E3F4FC8010A
:102390000E94F71B882369F21C8F0B8F81E08C83CE
:1023A0001E821F82188619861A861B861C861D8629
:1023B0001E861F86188A198A1A8ADF91CF911F916B
:1023C0000F9108952F923F924F925F926F927F925A
:1023D0008F929F92AF92BF92CF92DF92EF92FF9235
:1023E0000F931F93CF93DF93EC015B014A018D8123
:1023F000811103C08FEF9FEFD7C08C8180FFFACF90
:102400004B885C886D887E884A855B856C857D8578
:10241000C401A0E0B0E093018201041B150B260B60
:10242000370B081719072A073B0718F44201841ACB
:10243000950A24011E0126E0220E311C411451048C
:1024400009F47EC04A855B856C857D856A0181E0E3
:10245000D822ED818A019B0189E036952795179551
:1024600007958A95D1F78B8D9C8DE23061F4FC0144
:10247000828D938DA48DB58DBC01CD01600F711F30
:10248000821F931F3FC0FC0174807A947022C11494
:10249000D104C9F4711017C0452B462B472B49F4C2
:1024A0008F89988DA98DBA8D8E839F83A887B987D0
:1024B0000AC04E815F816885798591010E94731BF6
:1024C000882309F497CFEB8DFC8D8E819F81A885A1
:1024D000B9850297A109B109058404C0880F991F25
:1024E000AA1FBB1F0A94D2F7468557856089718958
:1024F000840F951FA61FB71FBC01CD01670D711D6D
:10250000811D911D20E032E02C193D093201241576
:10251000350508F439012C8126FD04C06114F2E070
:102520007F0679F5009107021091080220910902B7
:1025300030910A02601771078207930719F421C0CE
:10254000C40132C0750183019601AB01BC018091C9
:102550003206909133060E94371A882309F44ACF35
:10256000A60CB71C8A859B85AC85BD85860D971DFD
:10257000A11DB11D8A879B87AC87BD874618570868
:102580005DCF40E00E94141B882309F433CFF6018D
:10259000EC5CF94FD501CF01860D971DE817F907BF
:1025A000F9F221912D93FACFDF91CF911F910F91E5
:1025B000FF90EF90DF90CF90BF90AF909F908F9063
:1025C0007F906F905F904F903F902F900895FF9273
:1025D0000F931F93CF93DF931F92CDB7DEB7FC010C
:1025E0002581223018F480E090E033C08C01FC019A
:1025F000428553856485758585E076956795579501
:1026000047958A95D1F7F42FFF70FF2E41E050E0F7
:10261000BE016F5F7F4FC8010E94E211019719F45C
:10262000898190E002C08FEF9FEF0196E1F2F801FF
:1026300082859385A485B5854F96A11DB11D82879E
:102640009387A487B587F0E2FF9EC00111248C5CBC
:10265000994F0F90DF91CF911F910F91FF900895A7
:102660008F929F92AF92BF92CF92DF92EF92FF92A2
:102670000F931F93CF93DF93EC018D81811102C0E3
:1026800080E077C00B891C892D893E8904171507C6
:1026900026073707A8F36A017B01823029F4CA862E
:1026A000DB86EC86FD860DC0C114D104E104F10483
:1026B00051F41E821F82188619861A861B861C8674
:1026C0001D8681E056C08A849B84AC84BD84EB8DDA
:1026D000FC8D258530E0275F3F4FB501A4014150B7
:1026E000510961097109022E04C0769567955795C5
:1026F00047950A94D2F7D701C6010197A109B109FC
:1027000004C0B695A795979587952A95D2F7841713
:102710009507A607B70720F089288A288B2849F44F
:102720004F89588D698D7A8D4E835F83688779874D
:1027300004C0841B950BA60BB70B4C015D018E01E9
:102740000A5F1F4F81149104A104B10409F4A7CFBB
:102750004E815F816885798598018B8D9C8D0E9463
:10276000731B91E0891A9108A108B1088111EACF81
:1027700087CFDF91CF911F910F91FF90EF90DF9066
:10278000CF90BF90AF909F908F9008950F931F931D
:10279000CF93DF93EC018D818823C9F18C8187FF72
:1027A00030C061E0CE010E943F118C01892B79F18C
:1027B0008D81823048F48B899C89AD89BE89F8016E
:1027C000848F958FA68FB78F8F89988DA98DBA8D9D
:1027D000F801938F828FB58BA48BE0912B06F0913B
:1027E0002C06309759F0B8016A5E7F4FC8014896B1
:1027F0001995F801808D918D938B828B8C818F77C9
:102800008C83DF91CF911F910F910C94D91A80E0A6
:10281000DF91CF911F910F910895CF93DF93EC013A
:102820000E94C613882311F01D8281E0DF91CF91B1
:1028300008954F925F926F927F928F929F92AF9284
:10284000BF92EF92FF920F931F93CF93DF9300D02D
:102850001F92CDB7DEB7FC0185818130E9F4848118
:1028600081FF1AC083899489A589B6898417950741
:10287000A607B70788F0892B8A2B8B2B09F479C020
:102880004A015B017F014284538464847584CF01D3
:102890000E943013811102C080E06CC0F701838D6B
:1028A000948D81149104A104B10471F44789508D71
:1028B000618D728D0E94151E882371F3F701178AAE
:1028C000108E118E128E3AC0F701468157816085B5
:1028D00071859E012F5F3F4F0E94731B8823E1F299
:1028E00049815A816B817C81F701838D948DFC0134
:1028F0002789203129F008EF1FEF2FEF3FE004C0B8
:1029000008EF1FEF20E030E0401751076207730720
:10291000A8F40E94151E882309F4BECFF701468152
:102920005781608571850FEF1FEF2FEF3FE0838D9B
:10293000948D0E94601C882309F4AECFF701838A2E
:10294000948AA58AB68A848180688483C7010E949C
:10295000C613882309F4A0CFB501A4014814590473
:102960006A047B0410F4B301A201C7010E94301372
:1029700001C081E00F900F900F900F90DF91CF91E9
:102980001F910F91FF90EF90BF90AF909F908F900D
:102990007F906F905F904F9008951F93CF93DF9338
:1029A000EC0180E2689FF00111249F012C5C394FFB
:1029B000D9011B969C91917129F0842F827411F09A
:1029C00080E05BC0142F6A8B80910702909108020F
:1029D000A0910902B0910A028E879F87A88BB98BBC
:1029E000EC5CF94F4489558960E070E0BA015527E5
:1029F00044274F8B588F698F7A8F828D938DA0E0FB
:102A0000B0E0482B592B6A2B7B2B4F8B588F698F4B
:102A10007A8FD9011B968C91887151F4848D958D94
:102A2000A68DB78D8B8B9C8BAD8BBE8B81E00DC043
:102A3000803131F69E012D5E3F4F8B8D9C8D0E9423
:102A4000F71B882309F4BCCF84E08D83812F8F701E
:102A50008C831E821F82188619861A861B861C8606
:102A60001D8616FF09C040E050E0BA01CE01DF919B
:102A7000CF911F910C94191481E0DF91CF911F9198
:102A80000895CF92DF92EF92FF920F931F93CF930F
:102A9000DF93CDB7DEB72C970FB6F894DEBF0FBE2D
:102AA000CDBFFC0135813111C2C0D22E8B017C011A
:102AB000BE016F5F7F4FCA010E945811882309F43D
:102AC000B6C0F801838D948DF701948F838FF80140
:102AD0001682178210861186128613861486158632
:102AE00030E0F80182859385A485B58543895489B2
:102AF0006589768984179507A607B70708F041C04E
:102B000025E0B695A795979587952A95D1F7F82F43
:102B1000FF70CF2EC8013C870E94E7123C850097CA
:102B200009F485C0FC012081222309F484C0253EDC
:102B300099F04BE050E0BC01CE0101963C870E9429
:102B4000FC2C3C85892B69F68D2D8073803309F42C
:102B50006EC04D2D6C2D67C031116BC0F701C28A5C
:102B600040910702509108026091090270910A0297
:102B700046875787608B718BFC01808131E0811122
:102B8000B0CF8D2D8271823109F051C0332341F0D5
:102B900061E0C7010E943F118C01892B79F447C085
:102BA000F8018581823009F442C0C8010E94DF101B
:102BB0008823E9F1F701128A04E316E080E2F801C4
:102BC00011928A95E9F78BE0FE013196D8010190C8
:102BD0000D928A95E1F7E0912B06F0912C06309743
:102BE00039F0B801625F7F4FC8014096199509C05E
:102BF00081E298E2F801918B808B80E098E09787E2
:102C00008687F80180899189938B828B918F808F41
:102C100086859785978B868B0E94D91A882339F0F1
:102C20004D2DF7016289C7010E94CD1409C080E0D3
:102C300007C031E056CF332309F490CF31E0A1CF64
:102C40002C960FB6F894DEBF0FBECDBFDF91CF91AB
:102C50001F910F91FF90EF90DF90CF9008952F92EA
:102C60003F924F925F926F927F928F929F92AF921C
:102C7000BF92CF92DF92EF92FF920F931F93CF9369
:102C8000DF9300D01F92CDB7DEB78C016B013A0104
:102C9000DC0115968C9115978130C9F414968C91AE
:102CA00081FF15C082FF1DC0F801438954896589E1
:102CB000768982859385A485B58584179507A607AF
:102CC000B70779F0C8010E94301381110AC081E072
:102CD00090E0D80113969C938E93129780E090E039
:102CE00048C1430184C0D8015B968D919C915C974B
:102CF000FC0154802FEF250D1A012B0139E0569469
:102D00004794379427943A95D1F7522E52207A015E
:102D1000F1E0FF22552009F476C080E092E08E19A0
:102D20009F0954018815990508F45C01D8015B9648
:102D30002D913C915C9716968D919D910D90BC9133
:102D4000A02D0297A109B109F901058404C0880FDB
:102D5000991FAA1FBB1F0A94D2F746855785608921
:102D60007189840F951FA61FB71F9C01AD01250D0A
:102D7000311D411D511D19012A01A11432E0B30674
:102D800009F088C08091070290910802A091090281
:102D9000B0910A0282159305A405B50559F48FEF89
:102DA0009FEFDC018093070290930802A093090231
:102DB000B0930A029601B201A1018091320690916E
:102DC00033060E948B1A882309F481CF9EEFD91A0B
:102DD0008A189B08F80182859385A485B5858A0D9C
:102DE0009B1DA11DB11D82879387A487B587D8013C
:102DF0001A964D915D916D917C911D97811491046E
:102E000009F071CF87C0E114F10409F086CF16965E
:102E10004D915D916D917C91199741155105610519
:102E2000710559F457968D919D910D90BC91A02DEF
:102E30000097A105B10541F521C09E012F5F3F4FCD
:102E40000E94731B882309F44ACF89819A81AB8140
:102E5000BC81F801238D348DF9012789203129F0B7
:102E600048EF5FEF6FEF7FE004C048EF5FEF60E097
:102E700070E084179507A607B70730F0C8010E94D5
:102E8000B81081114ACF23CFF80186839783A0879A
:102E9000B18743CFE114F10429F5D8011A964D9179
:102EA0005D916D917C911D9753968D919D910D90A3
:102EB000BC91A02D481759076A077B0798F00E941C
:102EC000D91A882309F403CF20920702309208020E
:102ED0004092090250920A028091310681608093EB
:102EE000310608C041E0C201B1010E94141B8823D1
:102EF00009F4EDCED601F701EC5CF94FCF018A0D54
:102F00009B1DE817F90719F02D912193FACFCA0CF0
:102F1000DB1C5ECF5396CD90DD90ED90FC905697E4
:102F200014968C91C416D506E606F70640F4F8010F
:102F3000438B548B658B768B806884830DC0209186
:102F40002B0630912C06232B39F06114710421F0EB
:102F50008068D80114968C93F801848183FD02C0A7
:102F6000C30107C0C8010E94C613882309F4AFCE6D
:102F7000F7CF0F900F900F900F90DF91CF911F918F
:102F80000F91FF90EF90DF90CF90BF90AF909F9008
:102F90008F907F906F905F904F903F902F9008950B
:102FA000CF93DF931F92CDB7DEB7698341E050E046
:102FB000BE016F5F7F4F0E942F160F90DF91CF9160
:102FC00008958EBD0DB407FEFDCF08958FEF0E94CA
:102FD000E1178EB5089561E0FC0184810C9410091D
:102FE00060E0FC0184810C941009CF93DF93FC0115
:102FF00086818823D1F08FEF8EBD4FEF878190853A
:103000009C012F5F3F4F308727838130924028F407
:103010000DB407FEFDCF4EBDF1CF0DB407FEFDCFC1
:10302000EF01CF010E94EB171E82DF91CF9108952F
:10303000673028F026E1FC01258380E008958DB5F6
:1030400060FD02C0663011F48E7F01C081608DBDCD
:103050008CB58C7F8CBD9CB562FD02C080E001C048
:1030600082E066956170692B862B8CBD81E00895A6
:103070000F931F93CF93DF93EB010E94A4078B0163
:103080000E94E6178F3F49F00E94A407601B710B56
:103090006C177D07A8F380E001C081E0DF91CF913C
:1030A0001F910F910895CF92DF92FF920F931F937C
:1030B000CF93DF9300D01F92CDB7DEB76C01F62E11
:1030C00029833A834B835C830E94F517C6010E94D3
:1030D000F0176CE271E0C6010E9438188F2D8064F1
:1030E0000E94E11708E110E05C814B813A8129815F
:1030F000DA01C901002E04C0B695A795979587956A
:103100000A94D2F729833A834B835C830E94E117A8
:103110000850110929813A814B815C81083F8FEF6A
:10312000180731F7FF2029F0E8E0FE1204C087E815
:1031300003C085E901C08FEF0E94E11710E00E94F3
:10314000E617F601828787FF04C01F3F11F01F5F5B
:10315000F6CF0F900F900F900F90DF91CF911F91AE
:103160000F91FF90DF90CF9008958F929F92AF9232
:10317000BF92EF92FF920F931F93CF93DF93EC01D7
:10318000E62E1B8619861E821D824C830E94A40790
:103190008B0161E08C810E94D408CE010E94EB1764
:1031A00060E082E30E94D40861E083E30E94D408D7
:1031B00061E084E30E94D40861E085E30E94D408C2
:1031C00061E085E30E94100983E58CBD8DB58E7F9B
:1031D0008DBD2AE0F22E8FEF0E94E117FA94F110D4
:1031E000FACFCE010E94F01720E030E0A90160E0A4
:1031F000CE010E945318F82E8A8781E0F81649F014
:103200000E94A407601B710B613D774068F381E069
:103210004CC02AEA31E040E050E068E0CE010E9474
:10322000531882FF02C0FB860EC094E0F92E0E9464
:10323000E6178A87FA94F110FACF8A3A11F082E001
:1032400034C082E08B878B85823021F0812C912CD9
:10325000540105C0812C912CA12C80E4B82E20E0D3
:1032600030E0A90167E3CE010E945318A501940143
:1032700069E2CE010E9453188A87882349F00E9490
:10328000A407601B710B613D774048F388E00DC0D7
:103290008B85823039F520E030E0A9016AE3CE0168
:1032A0000E945318882389F086E08D83CE010E9406
:1032B000EB1780E0DF91CF911F910F91FF90EF907E
:1032C000BF90AF909F908F9008950E94E617807CEA
:1032D000803C11F483E08B870E94E6170E94E6177A
:1032E0000E94E617CE010E94EB176E2DCE01DF91F2
:1032F000CF911F910F91FF90EF90BF90AF909F9053
:103300008F900C9418180F931F93CF93DF93EC01B9
:103310000E94A4078B010E94E6178A878F3F49F419
:103320000E94A407601B710B6D327140A0F38FE007
:1033300003C08E3F39F08DE08D83CE010E94EB17E4
:1033400080E001C081E0DF91CF911F910F9108953E
:10335000CF92DF92EF92FF920F931F93CF93DF9361
:10336000EC016901C801820F931F8130924008F07F
:103370006FC08E81882371F088819981AA81BB8179
:10338000481759076A077B0729F48F819885C81663
:10339000D90618F5488359836A837B838B858330EC
:1033A00039F089E0440F551F661F771F8A95D1F7C2
:1033B0009A01AB0161E1CE010E945318882319F0F4
:1033C00083E08D8345C0CE010E948319882309F4D0
:1033D0003FC018861F8281E08E838FEF8EBD2FEF56
:1033E0008F8198858C159D0550F40DB407FEFDCF97
:1033F0002EBD8F819885019698878F83F1CFC80164
:103400000197F7014FEF9F012E193F092817390740
:1034100038F40DB407FEFDCF2EB521934EBDF3CF8A
:103420000DB407FEFDCF2EB5F701E80FF91F20837D
:103430008F819885080F191F18870F838985882326
:1034400019F00115124048F0CE010E94F51705C091
:10345000CE010E94EB1780E001C081E0DF91CF91A7
:103460001F910F91FF90EF90DF90CF900895EF9212
:10347000FF920F931F930115110519F00E94A819CF
:1034800001C081E01F910F91FF90EF900895EF929E
:10349000FF920F931F93790100E012E020E030E0EB
:1034A0000E94A8191F910F91FF90EF900895CF935C
:1034B000DF93EC016EBD20E030E00DB407FEFDCFE0
:1034C000FA01E20FF31F80818EBD0DB407FEFDCF20
:1034D00081818EBD2E5F3F4F211582E0380769F74D
:1034E0000DB407FEFDCF8FEF0E94E1178FEF0E9412
:1034F000E1170E94E6178A87982F9F71953039F05F
:1035000081E18D83CE010E94EB1780E001C081E054
:10351000DF91CF9108950F931F93CF93DF93EC0129
:103520008901411551056105710511F482E132C02F
:103530008B85833039F089E0440F551F661F771F54
:103540008A95D1F79A01AB0168E1CE010E94531828
:10355000882311F084E01EC0A8016EEFCE010E9406
:10356000571A8823C1F068E572E0CE010E9438182E
:10357000811102C085E10EC020E030E0A9016DE0BC
:10358000CE010E945318811104C00E94E6178823BF
:1035900039F084E18D83CE010E94EB1780E004C0F6
:1035A000CE010E94EB1781E0DF91CF911F910F9127
:1035B0000895809131068823A9F140910702509126
:1035C00008026091090270910A0224E336E08091BA
:1035D0003206909133060E948B1A811102C080E05E
:1035E000089540912D0650912E0660912F067091FE
:1035F0003006411551056105710591F024E336E06F
:1036000080913206909133060E948B1A882339F3F9
:1036100010922D0610922E0610922F061092300650
:103620001092310681E00895CF92DF92EF92FF92DF
:10363000CF936B017C01C42F809107029091080207
:10364000A0910902B0910A028C159D05AE05BF0537
:10365000D1F00E94D91A811102C080E01AC024E37F
:1036600036E0B701A60180913206909133060E94A0
:10367000471A882391F3C0920702D0920802E09281
:103680000902F0920A0280913106C82BC0933106DC
:1036900081E0CF91FF90EF90DF90CF900895CF928F
:1036A000DF92EF92FF926B017C010E94D91A88236E
:1036B000A9F0E4E3F6E0119288E0E433F807D9F7E3
:1036C000C0920702D0920802E0920902F0920A0228
:1036D0008091310681608093310681E0FF90EF9008
:1036E000DF90CF9008958F929F92AF92BF92CF922A
:1036F000DF92EF92FF920F931F93CF93DF93FC0122
:1037000081859285A385B4850196A11DB11D84177D
:103710009507A607B70710F480E05CC083899489F9
:10372000A589B689C789C03129F4852E962EA72E82
:10373000BB2409C04A015B01C7E0B694A7949794E3
:103740008794CA95D1F7E9016A017B018F01BC0119
:10375000CD01680D791D8A1D9B1D809007029090F8
:103760000802A0900902B0900A02681579058A053E
:103770009B0599F4F80187898031A9F4B701A60166
:10378000552766277727440F551FFA01EC5CF94F40
:1037900080819181A0E0B0E018C040E00E94141B3D
:1037A0008111E8CFB9CFB701A6014F77552766271A
:1037B0007727440F551F440F551FFA01EC5CF94F52
:1037C00080819181A281B381BF7088839983AA830C
:1037D000BB8381E0DF91CF911F910F91FF90EF901C
:1037E000DF90CF90BF90AF909F908F9008954F92B1
:1037F0005F926F927F92AF92BF92CF92DF92EF92E1
:10380000FF920F931F93CF93DF9300D01F92CDB7FA
:10381000DEB78C0149835A836B837C835901C12CA9
:10382000D12C7601412C82E0582E612C712C4981DB
:103830005A816B817C819E012F5F3F4FC8010E949E
:10384000731B882351F1D301C201F801058404C020
:10385000880F991FAA1FBB1F0A94D2F7C80ED91E42
:10386000EA1EFB1E49815A816B817C8187898031E8
:1038700029F088EF9FEFAFEFBFE004C088EF9FEF24
:10388000A0E0B0E0481759076A077B0780F2F5010E
:10389000C082D182E282F38281E00F900F900F907C
:1038A0000F90DF91CF911F910F91FF90EF90DF90DC
:1038B000CF90BF90AF907F906F905F904F900895A2
:1038C0004F925F926F927F928F929F92AF92BF9230
:1038D000CF92DF92EF92FF920F931F93CF93DF93DC
:1038E000EC016A017B012801390142305105610573
:1038F000710510F480E073C089859A85AB85BC851D
:103900000196A11DB11D84179507A607B70790F36F
:103910008B889C88AD88BE888F89803129F4BB272D
:10392000AF2D9E2D8D2D09C0DB01CA0147E0B69554
:10393000A795979587954A95D1F7880E991EAA1E47
:10394000BB1E8091070290910802A0910902B091DC
:103950000A0288169906AA06BB0679F48F89803177
:10396000A1F4DD24EE24FF24C601880F991FFC0179
:10397000EC5CF94F5182408219C040E0C501B401AE
:103980000E94141B8111EACFB5CFE894C7F8DD245B
:10399000EE24FF24C601880F991F880F991FFC0190
:1039A000EC5CF94F408251826282738280913106D1
:1039B0008160809331068A89823080F08D819E817A
:1039C000AF81B885880E991EAA1EBB1E80922D0657
:1039D00090922E06A0922F06B092300681E0DF91E1
:1039E000CF911F910F91FF90EF90DF90CF90BF90FC
:1039F000AF909F908F907F906F905F904F900895C1
:103A00002F923F924F925F926F927F929F92AF92CE
:103A1000BF92CF92DF92EF92FF920F931F93CF93BB
:103A2000DF93CDB7DEB760970FB6F894DEBF0FBE59
:103A3000CDBF5C0149875A876B877C871901D90103
:103A4000CD90DD90ED90FC90C114D104E104F1041F
:103A500031F0BFEFCB1ADB0AEB0AFB0A10C0FC0106
:103A6000C080D180E280F3809924939409851A85DF
:103A70002B853C85013011052105310509F0912C7C
:103A8000F50181859285A385B4858C019D010F5F29
:103A90001F4F2F4F3F4F0D871E872F87388B2601D3
:103AA00037011D821E821F821886F501818592854D
:103AB000A385B4850D811E812F81388508171907CC
:103AC0002A073B0708F056C02D853E854F8558894B
:103AD000241535054605570550F482E0482E512C33
:103AE000612C712C92E0C92ED12CE12CF12C9E017D
:103AF0002F5F3F4FB301A201C5010E94731B8823B2
:103B0000C9F149815A816B817C81D301C20101963F
:103B1000A11DB11D452B462B472B19F06C017D01D2
:103B20000FC0AC01BD014C195D096E097F09098503
:103B30001A852B853C85401751076207730779F07A
:103B40002D813E814F8158852F5F3F4F4F4F5F4FF3
:103B50002D833E834F8358872C013D01A6CF0FEF65
:103B60001FEF2FEF3FE0B301A201C5010E94601CCF
:103B7000811118C080E041C0D301C2010197A109A1
:103B8000B1098D839E83AF83B88793018201AC0115
:103B9000BD01C5010E94601C882361F34D805E80D9
:103BA0006F807884C414D504E604F70428F3D101A7
:103BB0004D915D916D917C914115510561057105A6
:103BC00099F4F101C082D182E282F3829920A1F0BE
:103BD000FFEFCF1ADF0AEF0AFF0AD501CD92DD927F
:103BE000ED92FC92139708C097018601C5010E94CF
:103BF000601C8111E6CFBECF81E060960FB6F894CD
:103C0000DEBF0FBECDBFDF91CF911F910F91FF900F
:103C1000EF90DF90CF90BF90AF909F907F906F908C
:103C20005F904F903F902F900895AF92BF92CF92A8
:103C3000DF92EF92FF920F931F93CF93DF9300D009
:103C40001F92CDB7DEB75C016A017B0182E090E094
:103C5000A0E0B0E0F50180839183A283B3839E014D
:103C60002F5F3F4FB701A601C5010E94731B882338
:103C700011F100E010E09801B701A601C5010E9412
:103C8000601C8823C1F0C980DA80EB80FC80F501DC
:103C90008789803129F088EF9FEFAFEFBFE004C044
:103CA00088EF9FEFA0E0B0E0C816D906EA06FB0651
:103CB000B0F281E001C080E00F900F900F900F9064
:103CC000DF91CF911F910F91FF90EF90DF90CF90F8
:103CD000BF90AF9008958F929F92AF92BF92CF9274
:103CE000DF92EF92FF920F931F93CF93DF93EC013C
:103CF000142F7093330660933206442369F14530E4
:103D000010F080E0F2C040E060E070E0CB010E9483
:103D1000141B8823B1F320E1129FA00111244C5DF4
:103D2000594FFA01E254FE4F80818F7751F73C964C
:103D300080819181A281B38184369105A105B1056D
:103D400000F33497C080D180E280F380C114D104A5
:103D5000E104F10421F4D5CFC12CD12C760140E04F
:103D6000C701B6010E94141B882359F280913F06B7
:103D7000909140068115924021F690914406992336
:103D800009F4BFCF2091420630914306232B09F45A
:103D9000B8CF80914106882309F4B3CF9A8B8C83E6
:103DA0001D8690E061E070E02D85E22FAB01022ED0
:103DB00002C0440F551F0A94E2F78417950731F0AB
:103DC00031E0320F3D87283078F39BCF20914A06AF
:103DD00030914B062115310519F040E050E008C044
:103DE000209158063091590640915A0650915B0631
:103DF0002D833E834F8358878091420690914306DE
:103E000046015701880E991EA11CB11C8B8A9C8A01
:103E1000AD8ABE8A0091450610914606198F088F1B
:103E2000A0914406B0E00E946B2D860E971EA81E3E
:103E3000B91E8A8E9B8EAC8EBD8E85E0000F111F41
:103E40008A95E1F701501E4F012F11270695800E2C
:103E5000911EA11CB11C8E869F86A88AB98A2091CA
:103E60004706309148062115310521F0A90160E08F
:103E700070E008C040915406509155066091560676
:103E800070915706D701C60188199909AA09BB097B
:103E9000840F951FA61FB71F04C0B695A7959795C9
:103EA0008795EA95D2F789879A87AB87BC87853F44
:103EB0002FE09207A105B10510F48CE014C0853FF6
:103EC0009F4FA105B10510F480E10DC080916006FF
:103ED00090916106A0916206B09163068A8F9B8FD4
:103EE000AC8FBD8F80E28F8B81E0DF91CF911F91EE
:103EF0000F91FF90EF90DF90CF90BF90AF909F9089
:103F00008F9008952F923F924F925F926F927F927F
:103F10008F929F92AF92BF92CF92DF92EF92FF92D9
:103F20000F931F93CF93DF9300D0CDB7DEB74C0133
:103F30007B836A836A01590117019801241B350BA1
:103F400037FF03C0319521953109C5014A815B8155
:103F5000841B950B97FF03C091958195910951E0C2
:103F600059838217930714F019820BC09A2D8B2D59
:103F70005801092F182F9A818B81DB82CA82C92EA2
:103F8000D82E8A819B81A816B9065CF49C2D8D2DB4
:103F90006801092F182F9A818B81BB82AA82A92ED2
:103FA000B82E2501AA81BB814A1A5B0A38016C1818
:103FB0007D0877FE03C0719461947108720157FE09
:103FC00003C0BFEFEB1AFB0AF594E794C016D106C5
:103FD0001CF00FEF1FEF1FC001E010E01CC0D40168
:103FE000ED91FC91B9810084F185E02D9101BB2315
:103FF000C1F04A815B81B601C4011995E618F70842
:10400000F7FE04C0C00ED11EE40CF51CEA81FB8152
:104010003196FB83EA834A815B81A416B506FCF6E0
:1040200004C0A6016A817B81E7CF0F900F900F90AB
:10403000DF91CF911F910F91FF90EF90DF90CF9084
:10404000BF90AF909F908F907F906F905F904F90B8
:104050003F902F9008950895DC01ED91FC9104802C
:10406000F581E02D19940F931F93DC01ED91FC91E4
:10407000008CF18DE02D19951F910F9108950F93EC
:104080001F93DC01ED91FC91028CF38DE02D1995CD
:104090001F910F910895EF92FF920F931F93DC01F0
:1040A000ED91FC91048CF58DE02D19951F910F91E8
:1040B000FF90EF9008950895AF92BF92CF92DF9254
:1040C000EF92FF920F931F93CF93DF9300D01F9235
:1040D000CDB7DEB75C016901DC01ED91FC91068092
:1040E000F781E02D4B835C8369837A831995D50131
:1040F000ED91FC914B815C81C40ED51EB1E0CB1AD1
:10410000D1080088F189E02D7801860169817A81E2
:104110009B01C5011995D501ED91FC910288F389A8
:10412000E02DC5010F900F900F900F90DF91CF9170
:104130001F910F91FF90EF90DF90CF90BF90AF90C5
:104140001994AF92BF92CF92DF92EF92FF920F93AA
:104150001F93CF93DF9300D01F92CDB7DEB75C01E2
:104160006901DC01ED91FC910680F781E02D4B8324
:104170005C8369837A831995D501ED91FC916981FE
:104180007A819B012C0D3D1D215031090088F18958
:10419000E02D78014B815C818A01C5011995D5011B
:1041A000ED91FC910288F389E02DC5010F900F90ED
:1041B0000F900F90DF91CF911F910F91FF90EF9093
:1041C000DF90CF90BF90AF9019944F925F926F9213
:1041D0007F928F929F92AF92BF92CF92DF92EF9297
:1041E000FF920F931F93CF93DF931F921F92CDB730
:1041F000DEB76C015A0139014801DC01ED91FC91F7
:104200000680F781E02D69837A8319956981462EAE
:104210007A81572E640C751CD601ED91FC914614E1
:1042200057046CF40484F585E02D87019401A50101
:10423000B201C6011995BFEF4B1A5B0AEDCF028898
:10424000F389E02DC6010F900F90DF91CF911F9160
:104250000F91FF90EF90DF90CF90BF90AF909F9025
:104260008F907F906F905F904F901994EF92FF9294
:104270000F931F93DC01ED91FC9111971A960D910C
:104280001C911B9718962D913C911997048CF58DD4
:10429000E02D7B0140E050E060E070E019951F9157
:1042A0000F91FF90EF900895CF92DF92EF92FF92DF
:1042B0000F931F93CF93DF9300D000D0CDB7DEB71D
:1042C0006C01DC01ED91FC916217730789F404170E
:1042D00015072CF4942F852FA801092F182F041BE4
:1042E000150B98012F5F3F4F008CF18DE02D12C010
:1042F0004017510709F5261737072CF4962F872FFB
:10430000B901292F382F261B370B2F5F3F4F028C07
:10431000F38DE02D8701C601199526960FB6F89406
:10432000DEBF0FBECDBFDF91CF911F910F91FF90E8
:10433000EF90DF90CF9008950680F781E02D2D83D8
:104340003E834B835C8369837A831995D601ED9113
:10435000FC910088F189E02D2D813E814B815C81AB
:1043600069817A81C6011995D601ED91FC91028887
:10437000F389E02DC60126960FB6F894DEBF0FBE76
:10438000CDBFDF91CF911F910F91FF90EF90DF9004
:10439000CF9019946F927F928F929F92AF92BF921B
:1043A000CF92DF92EF92FF920F931F93CF93DF9301
:1043B000EC014B015A0169013801E881F98106805D
:1043C000F781E02D1995E881F9810684F785E02DC4
:1043D00087019601A501B401CE011995E881F98103
:1043E000A501460D571D415051090684F785E02D62
:1043F0009601B401CE011995E881F9810484F5850F
:10440000E02D9301A501B401CE011995E881F98150
:10441000C80CD91CB601615071090484F585E02DE2
:104420009301A501CE011995E881F9810288F389EC
:10443000E02DCE01DF91CF911F910F91FF90EF9072
:10444000DF90CF90BF90AF909F908F907F906F90B4
:1044500019940895FC016370658B84819581268190
:104460003781613039F0633029F091878087338755
:104470002287089531872087938782870895FC01DA
:10448000138212828DEA92E0918380837583648324
:10449000578346837187608753874287158A1586BD
:1044A00014861786168681E0848B2FEF3FEF338BBF
:1044B000228B318B208B868B178A118E108E08955C
:1044C0002F923F924F925F926F927F928F929F9224
:1044D000AF92BF92CF92DF92EF92FF920F931F9312
:1044E000CF93DF93CDB7DEB76C970FB6F894DEBFEE
:1044F0000FBECDBF9C8F8B8F5B011A011F830E8374
:104500003701C982DC0158964D915C91599741154C
:10451000510509F0E5C018968D919C91199768177F
:1045200079070CF0CAC11A968D919C911B97281699
:1045300039060CF0C2C18C2C912CFB0136E0C39ED5
:10454000E00DF11D1124FB87EA871E161F060CF0F3
:10455000B4C1C40133E0880F991F3A95E1F79D87F4
:104560008C87820D931D181619060CF0A6C157965C
:104570008C91811103C0203B08F02F5FAB8DBC8D67
:10458000ED91FC9111970680F781E02DCD012A8FE6
:1045900019952A8DB5E02B9F90011124F5013596D0
:1045A000FF87EE872501BB82AA82A9014A195B0910
:1045B000598B488BC10108969B8B8A8BE889F989B6
:1045C000E40DF51DE65DFC4F949198873D822C82A9
:1045D0006101A885A0FF13C0AB8DBC8DED91FC914E
:1045E000B981B13031F40084F185E02D2E813F8115
:1045F00016C00284F385E02DEE80FF801AC0EE81A4
:10460000FF816E167F06F1F0AB8DBC8DED91FC91B4
:10461000B981B13051F40084F185E02D9301A601F8
:10462000B2018B8D9C8D19950DC00284F385E02D10
:104630007301840194014C815D816A817B818B8D42
:104640009C8D1995E885E695E8872C813D81280D9C
:10465000391D3D832C833FEFC31AD30A4A895B89F6
:10466000C416D50609F0B5CF8A819B81880D991DA6
:104670009B838A839FEF491A590AAE85BF854A16E4
:104680005B0609F09BCFEE81FF816E167F0609F471
:10469000F2C0EB8DFC8DA081B181F981F13079F40C
:1046A000B5016B5F7F4F1C96ED91FC911D978301C7
:1046B00028E030E0A1018B8D9C8D1995DCC06A85C6
:1046C0007B85681979091A96ED91FC911B97730106
:1046D0000C851D859401A1018B8D9C8D1995CBC0F6
:1046E000FA0134969491329765917491291BCB010C
:1046F000B7E02B9F800D911D1124FA012591349173
:104700003B8B2A8BFC01459154915B834A83FC01CE
:104710003296C490319654915C87329614913196BA
:10472000D4908981823058F0612E012E000C7708D8
:10473000AD2D0D2C000CBB0BB987A88704C01986C2
:104740001886612C712CAB8DBC8DED91FC9111976D
:104750000680F781E02DCD011995B9818B2E912C22
:10476000689CC001699C900D789C900D1124FC01FF
:10477000EA0DFB1DF98BE88B1C82712C612CE12F5B
:10478000110FFF0B95012E0F3F1F3B872A87AC0CA3
:10479000B11CA5014E0F5F1F5F8B4E8BC1018D0DAC
:1047A000911DD7FC9A95998F888F4C85641608F0D7
:1047B00062C0862D90E048855985480F591F489D55
:1047C0009001499D300D589D300D1124D901A20D45
:1047D000B31DBF87AE87AA84BB8448885988DC8014
:1047E000BA85DB1AE88DF98DE80FF91FFD8BEC8B8C
:1047F0008D2D8A0D2E893F89A216B306B9F18770D7
:1048000061F48A819B810196EA89FB89AA81BB8137
:10481000EA0FFB1F74909B838A8377FE20C0AB8DC9
:10482000BC8DED91FC91B981B13061F40084F185CA
:10483000E02D2E813F814C895D89B5018B8D9C8D4A
:1048400019950DC00284F385E02DEE80FF80840170
:1048500094014E855F85B2018B8D9C8D1995770CE7
:10486000480C591CEFEFAE1ABE0AC2CF3C813C0D7A
:104870003C8363949ACFAB8DBC8DED91FC911197E5
:104880000288F389E02DCD016C960FB6F894DEBF57
:104890000FBECDBFDF91CF911F910F91FF90EF9091
:1048A000DF90CF90BF90AF909F908F907F906F9050
:1048B0005F904F903F902F9019946C960FB6F8949C
:1048C000DEBF0FBECDBFDF91CF911F910F91FF9043
:1048D000EF90DF90CF90BF90AF909F908F907F90A0
:1048E0006F905F904F903F902F900895AF92BF923E
:1048F000CF92EF92FF920F931F93CF93DF93EC0130
:10490000262F888D998D009709F040C06A3059F4A0
:104910001D861C862C898E859F8538E0239F800DFF
:10492000911D112441C06D3009F4AAC08E898823DD
:10493000C1F03C898C859D8546E0349F800D911D9A
:10494000112448855985481759075CF41D861C8633
:104950008E859F8548E0349F800D911D11249F878F
:104960008E87EA88FB88088919894E855F856C8562
:104970007D85CC88CE010E9460222C898C859D8506
:1049800036E0239F800D911D112442C06A3079F4D6
:104990001D861C862C89FC013696E4918E859F85A8
:1049A0002E9F800D911D11249F878E8769C06D30C9
:1049B00009F466C0FC0134963491631708F460C0B2
:1049C0003196E491E61708F45BC0FC013296A5909D
:1049D000B490462F50E0431B510937E0349FB0019B
:1049E000359F700D1124A60EB71EF5013296349135
:1049F0003196E491332311F0E1110DC0F5013496A5
:104A0000E4912C898C859D85E29F800D911D112458
:104A10009D878C8735C0F501359644915E89552375
:104A200011F16C89E32FF0E0E40FF11D47FDFA95D9
:104A30006E9FD0016F9FB00D11244C855D854A0F8C
:104A40005B1FE885F985E417F5076CF41D861C8665
:104A5000FC013696E4918E859F856E9F800D911D99
:104A600011249F878E87EA88FB88088919894E85DB
:104A70005F856C857D85CC88CE010E946022BECF8B
:104A800081E090E0DF91CF911F910F91FF90EF9027
:104A9000CF90BF90AF900895DC019C96ED91FC9172
:104AA0009D979081D1968C91892B80830895EF9268
:104AB000FF920F931F93DC01ED91FC910284F3852B
:104AC000E02D7801890121E030E019951F910F91C7
:104AD000FF90EF900895EF92FF920F931F93DC01E8
:104AE000ED91FC910284F385E02D780101E010E066
:104AF00019951F910F91FF90EF9008950F931F93B9
:104B0000CF93DF9300D000D0CDB7DEB78C01DC01AE
:104B1000ED91FC910680F781E02D2D833E834B8340
:104B20005C8369837A831995D801ED91FC910084A7
:104B3000F185E02D2D813E814B815C8169817A81F7
:104B4000C8011995D801ED91FC910288F389E02DF7
:104B5000C80126960FB6F894DEBF0FBECDBFDF9119
:104B6000CF911F910F911994EF92FF920F931F9382
:104B7000CF93DF9300D000D0CDB7DEB77C01DC014E
:104B8000ED91FC910680F781E02D2D833E834B83D0
:104B90005C8369837A831995D701ED91FC91048434
:104BA000F585E02D2D813E814B815C8169817A8183
:104BB000C7011995D701ED91FC910288F389E02D89
:104BC000C70126960FB6F894DEBF0FBECDBFDF91AA
:104BD000CF911F910F91FF90EF901994EF92FF9258
:104BE0000F931F93CF93DF9300D000D0CDB7DEB7E4
:104BF0007C01DC01ED91FC910680F781E02D2D8395
:104C00003E834B835C8369837A831995D701ED9149
:104C1000FC910684F785E02D2D813E814B815C81DE
:104C200069817A81C7011995D701ED91FC910288BC
:104C3000F389E02DC70126960FB6F894DEBF0FBEAC
:104C4000CDBFDF91CF911F910F91FF90EF901994FD
:104C5000CF92DF92EF92FF920F931F93CF93DF9348
:104C600000D000D0CDB7DEB76C01DC01ED91FC9136
:104C70000680F781E02D2D833E834B835C8369831F
:104C80007A831995D601ED91FC910284F385E02D8C
:104C90002D813E814B815C8169817A81C6011995A4
:104CA000D601ED91FC910288F389E02DC60126968C
:104CB0000FB6F894DEBF0FBECDBFDF91CF911F912D
:104CC0000F91FF90EF90DF90CF901994CF93DF93E7
:104CD000EC0189A187FF09C084E00E94EA2C81E0F1
:104CE0000E94DC2C80E00E94E52CECA5FDA59081C3
:104CF00089A9809589238083DF91CF910895EF92D0
:104D0000FF920F931F93CF93DF931F92CDB7DEB720
:104D10007C01062F142F40E451E060EF70E02983FE
:104D20000E943F2285ED92E0D70111969C938E93CD
:104D30005E960C935E975F961C935F972981909681
:104D40002C9390978FEF91968C93919792968C934A
:104D5000929793968C939397F701128E138E148EDD
:104D6000158E602F000F770BFB01EA57FD4F8491E2
:104D7000E82FF0E0EE0FFF1FEA51FD4F859194916F
:104D80009D969C938E939C97FB01E05CFD4FE49174
:104D9000D196EC93D197412F110F550BFA01EA5799
:104DA000FD4FE491F0E0EE0FFF1FEA51FD4F8591BA
:104DB0009491F70193A782A7FA01E05CFD4FE4917B
:104DC000D296EC93D29799961C921E929897D09671
:104DD0001C92D09795961C921E9294979E961C9228
:104DE0009E9797961C921E9296979F961C920F9054
:104DF000DF91CF911F910F91FF90EF900895FC01EB
:104E000081A187FF05C06EBD0DB407FEFDCF0895DB
:104E100028E030E090E8A4A1B5A186A5492F46235B
:104E200019F04C91842B03C04C91809584238C9372
:104E3000A0A5B1A54C9180A9809584238C93A0A5B1
:104E4000B1A54C9180A9842B8C9396952150310962
:104E500011F70895CF93DF93EC01EAA5FBA59081AC
:104E60008AA9809589238083CE010E94FF26EAA526
:104E7000FBA590818AA9892B8083DF91CF9108952A
:104E8000CF93DF93EC01411551056105710521F4C4
:104E900040E052E16AE770E04A8F5B8F6C8F7D8F54
:104EA00061E08F8D0E94D40860E08F8D0E94100910
:104EB00061E08E8D0E94D40861E08E8D0E94100901
:104EC00089A187FD16C061E08AA10E94D40860E034
:104ED0008AA10E94100961E089A10E94D40861E0C2
:104EE00089A10E9410098BA187FD03C060E00E9488
:104EF000D40889A187FD0E94C62C88A187FD21C006
:104F000061E00E94D40861E088A10E94100964E673
:104F100070E080E090E00E94D50760E088A10E94E8
:104F2000100964E670E080E090E00E94D50761E03F
:104F300088A10E94100968EC70E080E090E00E9477
:104F4000D507E881F9810680F781E02DCE0119951A
:104F50006FEECE010E942A2763E0CE010E94FF2659
:104F600060E8CE010E94FF2662E0CE010E94FF268B
:104F70006FECCE010E942A2760E0CE010E94FF263E
:104F800061ECCE010E94FF2660E3CE010E94FF2665
:104F90006DEECE010E942A2764E6CE010E94FF2614
:104FA00063E0CE010E94FF2662E1CE010E94FF264F
:104FB00061E8CE010E94FF2668EECE010E942A27FA
:104FC00065E8CE010E94FF2660E0CE010E94FF2628
:104FD00068E7CE010E94FF266BECCE010E942A27D3
:104FE00069E3CE010E94FF266CE2CE010E94FF26FB
:104FF00060E0CE010E94FF2664E3CE010E94FF26FE
:1050000062E0CE010E94FF2667EFCE010E942A27B0
:1050100060E2CE010E94FF266AEECE010E942A279E
:1050200060E0CE010E94FF2660E0CE010E94FF26D4
:1050300060ECCE010E942A2763E2CE010E94FF2687
:1050400061ECCE010E942A2760E1CE010E94FF267A
:1050500065ECCE010E942A276EE3CE010E94FF2656
:1050600068E2CE010E94FF2667ECCE010E942A274B
:1050700066E8CE010E94FF2666E3CE010E942A2741
:1050800068E4CE010E94FF2667E3CE010E942A2732
:1050900089A187FF09C01EBC0DB407FEFDCF1EBC51
:1050A0000DB407FEFDCF08C060E0CE010E94FF26D0
:1050B00060E0CE010E94FF266AE3CE010E942A270B
:1050C00065E5CE010E94FF2661EBCE010E942A27F2
:1050D00060E0CE010E94FF2668E1CE010E94FF261B
:1050E00066EBCE010E942A2768E0CE010E94FF26CF
:1050F00062E8CE010E94FF2667E2CE010E94FF26F1
:1051000062EFCE010E942A2760E0CE010E94FF26B6
:1051100066E2CE010E942A2761E0CE010E94FF26AE
:1051200060EECE010E942A276FE0CE010E94FF268A
:1051300061E3CE010E94FF266BE2CE010E94FF26B2
:105140006CE0CE010E94FF266EE0CE010E94FF2699
:1051500068E0CE010E94FF266EE4CE010E94FF2689
:1051600061EFCE010E94FF2667E3CE010E94FF2679
:1051700067E0CE010E94FF2660E1CE010E94FF267B
:1051800063E0CE010E94FF266EE0CE010E94FF2662
:1051900069E0CE010E94FF2660E0CE010E94FF265A
:1051A00061EECE010E942A2760E0CE010E94FF2618
:1051B0006EE0CE010E94FF2664E1CE010E94FF2630
:1051C00063E0CE010E94FF2661E1CE010E94FF262E
:1051D00067E0CE010E94FF2661E3CE010E94FF2618
:1051E00061ECCE010E94FF2668E4CE010E94FF26FA
:1051F00068E0CE010E94FF266FE0CE010E94FF26EC
:105200006CE0CE010E94FF2661E3CE010E94FF26E2
:1052100066E3CE010E94FF266FE0CE010E94FF26CA
:1052200061E1CE010E942A2768E770E080E090E00B
:105230000E94D50769E2CE010E942A2768E770E044
:1052400080E090E00E94D507E881F9810288F38927
:10525000E02DCE01199580EF90E09987888780E452
:1052600091E09B878A87DF91CF9108951F93CF9319
:10527000DF93EC0163706D8B6230C1F0633001F13C
:10528000613051F080EF90E09987888780E491E069
:105290009B878A8718E41DC080E491E099878887FE
:1052A00080EF90E09B878A8718E213C080EF90E040
:1052B0009987888780E491E09B878A8718E809C0EE
:1052C00080E491E09987888780EF90E09B878A87C8
:1052D00018EEE881F9810680F781E02DCE0119955D
:1052E00066E3CE010E942A27612FCE010E94FF268D
:1052F000E881F9810288F389E02DCE01DF91CF9119
:105300001F9119940F931F93CF93DF931F92CDB7E3
:10531000DEB78C01DC01ED91FC910680F781E02D78
:10532000698319956981611102C060E201C061E27F
:10533000C8010E942A27D801ED91FC910288F389C7
:10534000E02DC8010F90DF91CF911F910F9119941B
:105350008F929F92AF92BF92CF92DF92EF92FF9285
:105360000F931F93CF93DF93EC01490181E0881ADB
:105370009108860E971EC401A0E0B0E04B01A12C5D
:10538000B12C540199248824882A992AAA2ABB2A54
:10539000680181E0C81AD108C40ED51EC601A0E07C
:1053A000B0E06A01E12CF12C7601DD24CC24C82A7E
:1053B000D92AEA2AFB2A6AE2CE010E942A2729A1D9
:1053C0006B2D77278827992727FF18C06EBD0DB44E
:1053D00007FEFDCFC501AA27BB278EBD0DB407FE72
:1053E000FDCFBB27AB2D9A2D892D8EBD0DB407FEA9
:1053F000FDCF8EBC0DB407FEFDCF14C0CE010E94C0
:10540000FF26B50188279927CE010E94FF269927FC
:105410008B2D7A2D692DCE010E94FF26682DCE019D
:105420000E94FF266BE2CE010E942A2729A16F2D40
:1054300077278827992727FF18C06EBD0DB407FE70
:10544000FDCFC701AA27BB278EBD0DB407FEFDCF38
:10545000BB27AF2D9E2D8D2D8EBD0DB407FEFDCF2C
:10546000CEBC0DB407FEFDCF14C0CE010E94FF26B6
:10547000B70188279927CE010E94FF2699278F2DF3
:105480007E2D6D2DCE010E94FF266C2DCE010E9437
:10549000FF266CE2CE01DF91CF911F910F91FF901B
:1054A000EF90DF90CF90BF90AF909F908F900C9433
:1054B0002A27EF92FF921F93CF93DF931F92CDB7CE
:1054C000DEB77C01162FDC01ED91FC910680F7819F
:1054D000E02D79831995F70181A1698187FF09C0C2
:1054E0006EBD0DB407FEFDCF1EBD0DB407FEFDCF92
:1054F00007C0C7010E94FF26612FC7010E94FF2637
:10550000D701ED91FC910288F389E02DC7010F903E
:10551000DF91CF911F91FF90EF9019941F93CF933C
:10552000DF93262FFC0131A137FF09C07EBD0DB4EA
:1055300007FEFDCF2EBD0DB407FEFDCF0CC0672FBB
:10554000122FEC010E94FF26612FCE01DF91CF9137
:105550001F910C94FF26DF91CF911F910895EF9238
:10556000FF920F931F93CF93DF9377FD23C0DC014E
:105570001896ED91FC9119976E177F07DCF457FD93
:1055800019C01A96ED91FC911B974E175F0794F482
:105590007901EC0101E010E021E030E00E94A8294F
:1055A000B701CE01DF91CF911F910F91FF90EF9046
:1055B0000C948E2ADF91CF911F910F91FF90EF9065
:1055C0000895EF92FF921F93CF93DF9300D01F9225
:1055D0001F92CDB7DEB77C01162FFC0181A187FF9A
:1055E00012C0211531054105510549F17EBD0DB4AB
:1055F00007FEFDCF1EBD0DB407FEFDCF21503109C2
:1056000041095109EECF2115310541055105B9F088
:10561000672FC70129833A834B835C837D830E9474
:10562000FF26612FC7010E94FF2629813A814B8105
:105630005C8121503109410951097D81E4CF0F90EE
:105640000F900F900F900F90DF91CF911F91FF90CF
:10565000EF9008958F929F92AF92BF92CF92DF9278
:10566000EF92FF920F931F93CF93DF935C01FB01A7
:10567000E9014701DC0118962D913C9119976217B9
:1056800073070CF049C01A968D919C911B9748178F
:1056900059070CF041C06B01CC0EDD1ED6011197ED
:1056A0007A01E00EF11EB70161507109B7FD34C0F7
:1056B00077FD32C0F7FF03C0E601E0E0F0E057FFFE
:1056C00003C0870140E050E0A217B3071CF0E901D6
:1056D000CE1BDF0B681779071CF08C01041B150B20
:1056E0009E01D8010E944D2D6B017C01BF01C501B7
:1056F0000E94A829A7019601B401C501DF91CF91AD
:105700001F910F91FF90EF90DF90CF90BF90AF90DF
:105710009F908F900C94E12ADF91CF911F910F9170
:10572000FF90EF90DF90CF90BF90AF909F908F90C1
:105730000895CF93DF938230910510F482E090E0DA
:10574000E0913608F091370820E030E0C0E0D0E08A
:10575000309711F14081518148175907C0F048171F
:10576000590761F482819381209719F09B838A8382
:105770002BC0909337088093360826C02115310539
:1057800019F04217530718F49A01BE01DF01EF0127
:105790000280F381E02DDCCF2115310509F1281BB2
:1057A000390B2430310590F412968D919C9113970A
:1057B0006115710521F0FB019383828304C09093EE
:1057C000370880933608FD01329644C0FD01E20F90
:1057D000F31F81939193225031092D933C933AC04A
:1057E0002091340830913508232B41F420910D028B
:1057F00030910E02309335082093340820910B022B
:1058000030910C022115310541F42DB73EB740917E
:105810000F0250911002241B350BE0913408F091D7
:105820003508E217F307A0F42E1B3F0B28173907A2
:1058300078F0AC014E5F5F4F2417350748F04E0FEC
:105840005F1F50933508409334088193919302C0B1
:10585000E0E0F0E0CF01DF91CF9108950F931F9327
:10586000CF93DF93009709F48CC0FC013297138229
:10587000128200913608109137080115110581F444
:1058800020813181820F931F209134083091350897
:105890002817390779F5F0933508E093340871C07B
:1058A000D80140E050E0AE17BF0750F412962D919A
:1058B0003C911397AD012115310509F1D901F3CFC1
:1058C0009D01DA013383228360817181860F971FE6
:1058D0008217930769F4EC0128813981260F371F5D
:1058E0002E5F3F4F318320838A819B819383828304
:1058F000452B29F4F0933708E093360842C01396FD
:10590000FC93EE931297ED01499159919E01240F5A
:10591000351FE217F30771F480819181840F951F81
:10592000029611969C938E938281938113969C93F9
:105930008E931297E0E0F0E0D80112968D919C9141
:105940001397009719F0F8018C01F6CF8D919C9177
:1059500098012E5F3F4F820F931F209134083091A2
:1059600035082817390769F4309729F41092370859
:105970001092360802C013821282109335080093E9
:105980003408DF91CF911F910F91089561E085E375
:105990000E94100961E085E30E94D4088CB5806103
:1059A0008CBD8CB580648CBD61E084E30E94D4081A
:1059B00061E083E30C94D408811103C08CB580624C
:1059C00002C08CB58F7D8CBD08959CB5937F892BCB
:1059D0008CBD08959CB5282F23709C7F922B9CBD75
:1059E0002DB582FB992790F9822F8E7F892B8DBD53
:1059F0000895F8940C94762DFB01DC0104C08D9180
:105A00000190801921F441505040C8F7881B990B30
:105A10000895FC018191861721F08823D9F79927F1
:105A200008953197CF010895FB01DC0141505040AA
:105A300048F001900D920020C9F701C01D9241501D
:105A40005040E0F70895A1E21A2EAA1BBB1BFD01EE
:105A50000DC0AA1FBB1FEE1FFF1FA217B307E4074D
:105A6000F50720F0A21BB30BE40BF50B661F771FA5
:105A7000881F991F1A9469F7609570958095909585
:105A80009B01AC01BD01CF010895EE0FFF1F881FE0
:105A90008BBF0790F691E02D19940E94552D33236A
:105AA00012F48A1B9B0B0C94662DA29FB001B39F2E
:105AB000C001A39F700D811D1124911DB29F700D17
:105AC000811D1124911D08950E94552DB7FF089541
:105AD000821B930B08950E94552DA59F900DB49F96
